{"abi":[{"type":"function","name":"accumulatedFees","inputs":[],"outputs":[{"name":"","type":"uint256","internalType":"uint256"}],"stateMutability":"view"},{"type":"function","name":"buy","inputs":[{"name":"_marketId","type":"uint256","internalType":"uint256"},{"name":"_outcome","type":"uint256","internalType":"uint256"},{"name":"_amount","type":"uint256","internalType":"uint256"}],"outputs":[],"stateMutability":"payable"},{"type":"function","name":"claimCreatorFees","inputs":[{"name":"_marketId","type":"uint256","internalType":"uint256"}],"outputs":[],"stateMutability":"nonpayable"},{"type":"function","name":"claimFees","inputs":[],"outputs":[],"stateMutability":"nonpayable"},{"type":"function","name":"claimWinnings","inputs":[{"name":"_marketId","type":"uint256","internalType":"uint256"}],"outputs":[],"stateMutability":"nonpayable"},{"type":"function","name":"createMarket","inputs":[{"name":"_question","type":"string","internalType":"string"},{"name":"_outcomes","type":"string[]","internalType":"string[]"},{"name":"_spread","type":"uint256","internalType":"uint256"},{"name":"_initialLiquidity","type":"uint256[]","internalType":"uint256[]"}],"outputs":[],"stateMutability":"payable"},{"type":"function","name":"emergencyWithdraw","inputs":[{"name":"_marketId","type":"uint256","internalType":"uint256"}],"outputs":[],"stateMutability":"nonpayable"},{"type":"function","name":"getMarket","inputs":[{"name":"_marketId","type":"uint256","internalType":"uint256"}],"outputs":[{"name":"question","type":"string","internalType":"string"},{"name":"outcomes","type":"string[]","internalType":"string[]"},{"name":"prices","type":"uint256[]","internalType":"uint256[]"},{"name":"resolved","type":"bool","internalType":"bool"},{"name":"winningOutcome","type":"uint256","internalType":"uint256"},{"name":"creator","type":"address","internalType":"address"},{"name":"spread","type":"uint256","internalType":"uint256"},{"name":"totalLiquidity","type":"uint256","internalType":"uint256"},{"name":"creatorFees","type":"uint256","internalType":"uint256"}],"stateMutability":"view"},{"type":"function","name":"getMarkets","inputs":[],"outputs":[{"name":"","type":"uint256[]","internalType":"uint256[]"}],"stateMutability":"view"},{"type":"function","name":"getUserShares","inputs":[{"name":"_marketId","type":"uint256","internalType":"uint256"},{"name":"_user","type":"address","internalType":"address"}],"outputs":[{"name":"","type":"uint256[]","internalType":"uint256[]"}],"stateMutability":"view"},{"type":"function","name":"marketCount","inputs":[],"outputs":[{"name":"","type":"uint256","internalType":"uint256"}],"stateMutability":"view"},{"type":"function","name":"markets","inputs":[{"name":"","type":"uint256","internalType":"uint256"}],"outputs":[{"name":"question","type":"string","internalType":"string"},{"name":"resolved","type":"bool","internalType":"bool"},{"name":"winningOutcome","type":"uint256","internalType":"uint256"},{"name":"creator","type":"address","internalType":"address"},{"name":"totalLiquidity","type":"uint256","internalType":"uint256"},{"name":"spread","type":"uint256","internalType":"uint256"},{"name":"creatorFees","type":"uint256","internalType":"uint256"}],"stateMutability":"view"},{"type":"function","name":"owner","inputs":[],"outputs":[{"name":"","type":"address","internalType":"address"}],"stateMutability":"view"},{"type":"function","name":"removeMarket","inputs":[{"name":"_marketId","type":"uint256","internalType":"uint256"}],"outputs":[],"stateMutability":"nonpayable"},{"type":"function","name":"resolveMarket","inputs":[{"name":"_marketId","type":"uint256","internalType":"uint256"},{"name":"_winningOutcome","type":"uint256","internalType":"uint256"}],"outputs":[],"stateMutability":"nonpayable"},{"type":"function","name":"sell","inputs":[{"name":"_marketId","type":"uint256","internalType":"uint256"},{"name":"_outcome","type":"uint256","internalType":"uint256"},{"name":"_shares","type":"uint256","internalType":"uint256"}],"outputs":[],"stateMutability":"nonpayable"},{"type":"function","name":"test","inputs":[],"outputs":[{"name":"","type":"uint256","internalType":"uint256"}],"stateMutability":"view"},{"type":"event","name":"MarketCreated","inputs":[{"name":"marketId","type":"uint256","indexed":true,"internalType":"uint256"},{"name":"question","type":"string","indexed":false,"internalType":"string"},{"name":"creator","type":"address","indexed":false,"internalType":"address"}],"anonymous":false},{"type":"event","name":"MarketResolved","inputs":[{"name":"marketId","type":"uint256","indexed":true,"internalType":"uint256"},{"name":"winningOutcome","type":"uint256","indexed":false,"internalType":"uint256"}],"anonymous":false},{"type":"event","name":"SharesBought","inputs":[{"name":"marketId","type":"uint256","indexed":true,"internalType":"uint256"},{"name":"outcome","type":"uint256","indexed":false,"internalType":"uint256"},{"name":"shares","type":"uint256","indexed":false,"internalType":"uint256"},{"name":"buyer","type":"address","indexed":false,"internalType":"address"}],"anonymous":false},{"type":"event","name":"SharesSold","inputs":[{"name":"marketId","type":"uint256","indexed":true,"internalType":"uint256"},{"name":"outcome","type":"uint256","indexed":false,"internalType":"uint256"},{"name":"shares","type":"uint256","indexed":false,"internalType":"uint256"},{"name":"seller","type":"address","indexed":false,"internalType":"address"}],"anonymous":false}],"bytecode":{"object":"0x50564d00009471010000000000010700c1e002c000800382b065726320796c6e4f6e616320726f74612065766f6d657220000074656b72616d6d2074656b72614d7220656220747375206465766c6f7365766f6d6572206f74747361656c2074416f6374756f203220757165722073656d206d756d6978614d6d6f6374756f20356f207265626d754e6d6f6374756f2066207473756d207365756e20686374616d20666f207265626d746964697571696c6d20646165727053622065622074737531206e6565777465303120646e61203073697361622030302073746e696f70206f742025312e30286e6573207473754d206c61746f742064206c616974696e69746964697571696c746e756f6d6120798b1071a64a99fe6b16ab972a1cb3fcc4000121017267b9ddf6ac5ebf34e8b232612074656b72614d722079646165726c006465766c6f73652064696c61766e4900656d6f6374756f636572726f636e496e656d7961702074746e756f6d612074c2179fc3fc72b1221ec2c3e6be451e1e4c65e650e0bd7f2b26dbb2556daafaa465726320796c6e4f6e2074656b72614d6c6f73657220746f72616d20796c6e4f616572632074656b206e616320726f747263206d69616c63656620726f7461652073656566206f4e6d69616c63206f7465726320796c6e4f6e616320726f746165766c6f73657220e442fbf2f024fc6d14bb8afa3ffab49f5b33b81f8a90ab8cf14a59b2088a123f696e6e6977206f4e657261687320676e696e6e6977206f4e657261687320676e616c69617661207386c3fcb9da84fd5b53322eb0b4455be6a62e2d6a4e632d33c52338c5c2931fd26e776f20796c6e4f63206e61632072656f7270206d69616c6566206c6f636f74756f6e6520746f4e65726168732068676369666675736e496e6f6320746e6569616220746361727486c3fcb9da84fd5b53322eb0b4455be6a62e2d6a4e632d33c52338c5c2931fd2048106100000000007000000110000001500000023000000310000003f00000045000000520000005d0000006c0000007c0000008c00000097000000a9000000b40000006164647265737362616c616e63655f6f6663616c6c63616c6c5f646174615f636f707963616c6c5f646174615f6c6f616463616c6c5f646174615f73697a6563616c6c65726465706f7369745f6576656e746765745f73746f72616765686173685f6b656363616b5f32353672657475726e5f646174615f636f707972657475726e5f646174615f73697a657365616c5f72657475726e7365745f696d6d757461626c655f646174617365745f73746f7261676576616c75655f7472616e73666572726564051302c19a1e0463616c6cc1a81e066465706c6f7906c1a86d866a03c1e7338a00008f0000bc0000ed00001601002001003601004201007001008f01003002003502005402005902005e02007d0200b80200bd0200c20200fd02000203005503008803008d0300920300970300b60300d00300ef0300f50300f70300f204002605002c05002e05003a05004005004a05004f0500550500ba0500c10500c70500cf0500d50500e10500f805003d06004306005a06007d06004007005607008f0700d90700f50700430800e20800ef08000309002409003c0900420900450900730900d10900b70a00eb0a00060b00620b00750b00d60b00570c005e0c00660c00cb0c00540d006a0d00700d00d80d00c90f003f1000a31000ac1000c710002311003611009711009d1100a41100ac1100ad1100db1100351200641300d41300e51300181400351400501400ac1400bf1400201500a31500aa1500b215001c17000f18004418007418005c1900de1900df1900361b003f1b00521b005d1b006a1b002e1c005d1c00861c00b41c00e61c004c1d009b1d00b71e00c01e00d31e00de1e00eb1e00021f00101f00171f00211f00271f002e1f00351f003d1f00441f004e1f00551f00621f00a11f00fe1f001620002c20006e20007520008f2000c32000ca20003621005221006a2100712100782100a12100a32100b82100bf2100c12100f42100fb2100742200912200932200a12200a82200b32200b92200d92200e02200e62200ed2200f32200fa22000423004123004c23005323005a23007123007f23008623009023009623009d2300a42300ac2300b32300bd2300c42300d123009324009a2400a52400ac2400b424002e2500ed2500f52500fc25000626000d26001a26003126003f26004626005026005626005d26006426006c26007326007d2600842600912600ea2600f126003c27005927001e2800252800312800382800402800a02800b22800d32800f02800282900822900342a00822a00d72a006d2b00a92b00ce2b00262c00e32c00092d00102d00162d001d2d00272d00642d006f2d00762d007d2d00f62d00122e002a2e006a2e00712e00a02e00a72e00132f002f2f00472f004e2f00552f00802f00822f00b12f00b82f00ba2f00f02f00f72f00fa2f001730001930002730002e30003930003f30005f30006630006c3000733000ed3000f43000fe30003b31004631004d31005b31006231007f3100a03100a73100ae31000232000432000b3200233200473200c932002a3300643300c233002d3400993400d33400463500613500c835000e36004636004c36005336005936006036009436009a3600a13600b93600c03600d63600ee3600f536000f37001137004f3700883700b33700e13700ff37002838004638007038008e3800b83800d63800ff38001d3900973a00a63a00b33a00c93a00eb3a00043b001a3b00583b005f3b00b53c00073d008d3d00a23d00e53d00f63d003b3e004a3e008e3e009d3e00e13e00f03e00343f00c43f005040005b4000664000884000bb41004142004c42005342005a4200c14200c84200d04200d74200e14200e84200f542002743004b4300614300d04300d94300ec4300f64300fd43001144001844003844003f4400a54400b54400d844004345009d4500224600324600954600ef4600984800cf48002149004549007d4b00cc4b00844c003f4d00d54d001c4e004a4e00954e00a44e00e94e00ff4e004d4f005c4f009d4f00ac4f00f04f00ff4f00435000d150005b5100ba5100c55100cf5100545300de5300e95300f05300f753001254002054002754003254003854007b54008254008854008f54009554009c5400a65400e35400ee5400f55400fc54001355002855002f55003155003f55004655005055005655005f55006655006c55007355007955008055008a5500c75500d25500d95500e055001256003656004856005256009356009a5600f856000357000a57001857001f57002157005b57006257006557006f57007557007c5700885700925700f75700fe57000558002558002c58002f58003958004558004c58005658005d58006458006a58009d5800ad5800b45800bb5800d258000159000859002e59003559003859004259004859004f59005559005f5900c45900cb5900d25900f25900f95900fc5900065a00125a00195a00235a002a5a00315a00375a006a5a007a5a00815a00885a003f5b00595b00795b00c35b00fe5b00055c00075c00245c00485c00a25c00bb5c00ce5c000b5d00e75d00e85e00175f00835f00ac5f00156000416000436000726000e76000006100226100cd6100ec6100b66200a66300c26300566400666400796400c564008d65003266004f66006866006f66007666007d6600cc6600d76600de6600ef67001d68002d68004068005a68007368007a6800816800886800d76800e26800e96800f168004769008169005a6a000e6b00156b002a6b00316b00496b006d6b00d46c00e76c00ed6c00f46c000c6d00136d00306d006c6d00c06d00c26d001c6e00486e00dc6e008f6f00966f001870001f70002670008470008b7000937000a67000ac7000b37000477100e47100eb71006d72007472007b7200d97200e07200e87200fb72000173000873000a7300447300817300bc7300c97300f773000474003274003f74006e74007b7400a97400b67400df7400ec74001075001775001975006b75009b7500a27500047600177600447600887600c676002f77003677003877007777007e77008177008b7700917700987700a47700ae77001378001a78002178004178004878004b7800557800617800687800727800797800807800867800b97800c97800d07800de7800e57800e778002179002879002b79003579003b79004279004e7900587900bd7900c47900cb7900eb7900f27900f57900ff79000b7a00127a001c7a00237a002a7a00307a00637a00737a007a7a00817a00987a00c77a00ce7a00fe7a00057b00087b00127b00187b001f7b00257b002f7b00947b009b7b00a27b00c27b00c97b00cc7b00d67b00e27b00e97b00f37b00fa7b00017c00077c003a7c004a7c00517c005f7c00667c00687c00977c009e7c00d37c00da7c00dd7c00e77c00ed7c00f47c00107d001a7d007f7d00867d008d7d00ad7d00b47d00b77d00c17d00cd7d00d47d00de7d00e57d00ec7d00f27d00257e00357e003c7e004a7e00517e007f7e00867e00b17e00b87e00cd7e00d47e00ec7e00107f00727f00308000388000c58000cc8000ce8000fd80000481002581002c81002f81003981003f81004681006281006c8100d18100d88100df8100ff81000682000982001382001f82002682003082003782003e82004482007782008782008e8200958200f682005883009a83001984003784003984004084005884007c8400d48500ed85001286005186008b86009f8600b58600ee8600d988002a89003189007b8900c58900cc8900ee8900f58900738a00af8b00358c00718c00888c008e8c000d8d00748d00498e00778e005a8f00e88f002490003b90005e9000bd9000ef90001a9100339100569100cf9100da9100f991004092004792004992009b9200c29200799300c39300ae94001695004295000e96009c9600e39600ec96003397003a9700a097000498006698006e9800899800a79800ae9800b59800099900c199000a9a00879a00b89a00189b004d9b009b9b00cf9b002f9c00509c00849c00fe9c00279d005e9d00719d00b29d00cb9d00139e00369e008c9e00a39e00af9e00019f002c9f00cf9f00ee9f0026a0006aa000aca000dfa00027a1004aa100a0a100d4a10019a2006ba200dda20027a30031a30065a300a0a300f3a30022a40078a400e1a400bea50003a60041a600c6a600cda60015a70037a70088a700bca7002aa8009ba800a5a800baa80017a900b3a900bfa9000daa0019aa0067aa0073aa00b5aa00f8aa0034ab00a8ab00b2ab0006ac005dac0063ac00a2ac00bcac000dad0040ad0068ad007aad00bcad000dae0083ae008dae00c7ae0009af0013af001daf0036af00d0af00e2af0075b000d4b000f6b0002ab10030b10033b1003cb10042b10048b10053b1005cb100c0b100c6b100ccb100ebb100f1b1000eb20017b20024b2002ab20033b20039b2003fb20045b20077b20087b2008db2009ab200a0b200cfb200d5b200d8b200e1b200e7b200edb200f8b20001b30065b3006bb30071b30090b30096b300b3b300bcb300c9b300cfb300d8b300deb300e4b300eab3001cb4002bb40031b4003eb40044b40078b4007eb40081b40087b4008db40098b400a1b40006b5000cb50012b5004eb50054b50057b50060b5006db50073b5007cb50082b50088b5008eb500c0b500cfb500d5b500e2b500e8b500abb600b7b600f8b60004b70046b70076b700d5b7000fb80069b800c8b80051b900d5b90024ba0082ba00b6ba0015bb0074bb00d2bb003dbc0095bc00debc0058bd00d2bd005dbe005dbf0075bf0095bf00d8bf001ac00032c0004bc00094c00076c200ccc200cac300e2c30002c40045c4008fc400a7c400c1c4000bc500f7c60048c70092c700dcc700eec70033c80065c800b0c800dec8000bc90011c90053c900a0c900b1c900b7c900f1c90047ca00b5ca0006cb0078cb008dcb0097cb00a1cb00b7cb0059cc0036cd0048cd004bcd007fcd0085cd0088cd0091cd0098cd009ecd00a9cd00b2cd0016ce001cce0022ce0041ce0047ce004ace0053ce0060ce0066ce006fce0075ce007bce0081ce00b3ce00c2ce00c8ce00d5ce00dbce0014cf001acf001dcf0026cf002dcf0033cf003ecf0047cf00abcf00b1cf00b7cf00d6cf00dccf00f9cf0002d0000fd00015d0001ed00024d0002ad00030d00062d00071d00077d0007ed0009cd000f4d0002ed1003dd10094d100c4d10005d20033d20094d200a6d200d4d200f9d2003dd30060d30071d3007dd30085d3009bd300c9d300cfd300f9d300ffd30002d4000bd40012d40018d4001ed40027d4008bd40091d40097d400b6d400bcd400bfd400c8d400d5d400dbd400e4d400ead400f0d400f6d40028d50037d5003dd5004ad50050d5007fd50085d50088d50091d50098d5009ed500a9d500b2d50016d6001cd60022d60041d60047d60064d6006dd6007ad60080d60089d6008fd60095d6009bd600cdd600dcd600e2d600e9d60042d70094d700bed70043d800a4d800eed8002fd90061d900efd900f5d90029da002fda0032da0039da003fda004ada0053da00b8da00beda00c4da0000db0006db0009db0012db001fdb0025db002edb0034db003adb0040db0072db0081db0087db008edb00afdb00d9db00dfdb00e1db0011dc0017dc0040dc0072dc00d7dc0025dd0057dd0096dd00ecdd0071de0083de00c9de00d4de002cdf00f5df000de00046e0004ce0004fe00056e0005ce00067e00070e000d5e000dbe000e1e0001de10023e10026e1002fe1003ce10042e1004be10051e10057e1005de1008fe1009ee100a4e100b1e100b7e100f5e100fbe100fee10007e2000ee20014e2001fe20028e2008ce20092e20098e200b7e200bde200c0e200c9e200d6e200dce200e5e200ebe200f1e200f7e20029e30038e3003ee3004be30051e300e9e30068e400d1e40005e50012e50040e500c0e500cae50017e60092e60005e70085e70099e70002e80055e800b3e800c0e800dee8002fe90074e900c1e900b9ea00bfea00c5ea00cbea00d1ea00d7ea00ddea00e3ea00e9ea0002eb0008eb000eeb0014eb001aeb0020eb0026eb004deb0039ed003fed0045ed004bed0051ed0057ed005ded0063ed0069ed0082ed0088ed008eed0094ed009aed00a0ed00a6ed00cded003def008fef00ceef0027f00078f000c6f00014f1003ff10051f10093f100e5f1003cf20047f20072f20084f200a0f200aaf200b4f200caf2006ff300f6f3004ff40061f4006af40070f40072f400a5f40000f50044f500caf50019f600a8f600c4f600cbf600d1f600f1f600f7f6002af70031f70037f70039f70099f700c1f700eef7001cf80022f80047f8004df80050f80059f80060f80066f80081f8008af800eef800f4f800faf80019f9001ff90022f9002bf90038f9003ef90047f9004df90053f90059f9008bf9009af900a0f900a7f900d8f900e1f90015fa0073fa0093fa00d1fa00f6fa006cfb0074fb007afb00b3fb00b9fb00bcfb00c3fb00c9fb00d4fb00ddfb0042fc0048fc004efc008afc0090fc0093fc009cfc00a9fc00affc00b8fc00befc00c4fc00cafc00fcfc000bfd0011fd001efd0024fd0062fd0068fd006bfd0074fd007bfd0081fd008cfd0095fd00f9fd00fffd0005fe0024fe002afe002dfe0036fe0043fe0049fe0052fe0058fe005efe0064fe0096fe00a5fe00abfe00b2fe0069ff00d5ff001b0001720001dc00010001015d0101b501013c0201c80201200301830301470401a804011205019105011b06012e06017c0601bf0601f306012307016c0701bf0701c40801de08010209014709018a0901a40901c109010a0a01800b01f00b01530c01410d01590d017d0d01c00d01090e01230e013f0e01890e010510014810016e1001c010010f1101511101621101a41101f61101491201991201fb12010513012a13013b13015513015e13016813017e1301221401a61401fa14010c15011515011b15016d1501971501ea1501171601511601991601661701be1701301801471801ee18011b19013a1901661901851901b21901cd1901fa1901151a013e1a015d1a01a61a01471b01951b01ac1c01db1c01261d01a71d01f61d013e1e01601e01831e01a81e01b71e01ff1e01051f01b72f01003101053301aa876e978a2098aa20977b2098bb20c89b0bc9ba0a979b019abbaeab20ae873751094ec87909647a017c8b95880195ac0178ab64caab9cf42836510934c87909647a017c8b95880195ac0178ab64caab9cf4281c51091a839aff01c8a80b7cbb9599ffc8a70c78cb83aaff5209f032009511f07b10087b158475010a05013d07b0020251050750100209501004b8009511807b10787b15707b1668951580008411e049113849113049112080003307409518204911285010062530014911584911504911484911408317400a0f01821750821858821948821a40d49808d4a707d4870752072e6417501008e8028217188218108219088216d49707d48609d47909989920d48707977720d497075107090050100ad0046467330850100c4c32018377330833090a0328612e016467330850100e3632018378330733093300100a0c019511a07b10587b15507b16489515608411e064164916384916304916208000330740956820491628501012712f013907b00202531704bb009517e08477e07b67186471837733083300140a040182671881771c51470bc45d83c00133085bcba58daa8792005147773e28b11b01514793f094d2a50051477c72c9d3d6015147d3fd44ebbe00330816902cecaa878c003308829097ecaa87c00151476dfda8f8dd003308e6604605aa87cd015147dda9a72a15015147263b99409d0133088eea1253aa8785013308d75e7f58aa87513308afcfd558aa87e700514733735560a3003308ffd97b67ab8708501016ef23501018b10333001a9511a0fe7b1058017b1550017b1648019515600133021e0228b8280150101c064050101e9e513300209511a0fe7b1058017b1550017b1648019515600133024c01288f2801330022951120fb951700047b70d8007b75d0007b76c8009515e0048411e0951700044927b8004927b0004927a8004927a0008317a0040a0f28c74d5010242853501026f721330028951100fc951700037b70f8007b75f0007b76e800951500048411e0951700034927d8004927d0004927c8004927c0008317c0030a0f28713c50102a5d2033002c951150fe7b10a8017b15a0017b1698019515b0018411f03807b002024921e8004921e0004921d8007b17d00049210801492100014921f00004951710019518f0009519d0004921f8003300e20028611233002e951120fe7b10d8017b15d0017b16c8019515e0018411e04921b8014921b0014921a8014921a0018317a0010a0f284c28501030631b501032683f501034ba193300369511a0fe7b1058017b1550017b1648019515600133027e0328562701330038951120ff7b10d8007b15d0009515e000330246282327019511c07b10387b15307b16289515408411f06476641733084050103ab72b0150123ce6220132005209449511c07b10387b15307b16289515408411e06476838883170a04821718821810821908821a7b67187b68107b69087b6a9551c0821038821530821628951140320000951150ff7b10a8007b15a0007b1698009515b0008411f0828410828308829608828c7b1c10829b829210d3360a7b1a28d8360ad8cb0c821028da0c0a64308288187b18208298187b1818c94209c9a9087b1828d8a9087b1408d8420a821420821310821918c94909c9a909c98909c90606c9c608c93b0a8e8c88aa2085aa01db8c0a8f968218288e8cdb960cd49808db8c0a510a5364767b13507b10588217087b17609517709518507b146833004033023e283724018217800082188800821970821a787b67107b68187b697b6a08955150ff8210a8008215a000821698009511b0003200501042c000501244291b0132003300480a0f33024a28e5260150124ae1260152078b0050124cc01e0150104ef2fe5012505824013300529511e0fd951800027b80187b85107b8608951520028411f0827a7b1a408278087b18588279107b19508277187b17484921d8014921d0014921c8014921c0017b17b8017b19b0017b18a8019517e0019518c0019519a0017b1aa00133000e0528ad2b641750105414fe501256651d01510808005010581650105a972d0183783307330933005c0a0c019511f87b103308c002028388330701330933005e0a0c018289828218828b08828810959c1fd89c09c89b0ad8ba0bda990bc88b0bd88b08c8280884cce07b7c7b7a087b7b107b781832009511b07b10487b15409515505012606f1c015010629e2a014911184911104901413307046418491108501064872a013908b4020256183f0b2003b4020240013308c0020283883307013309243300660a0c019511b07b10487b15407b16389515508411f064728289827408828c088273959a1fd89a00c80c0984aae07b1308c8a303d8a30bc8490ac8ba0ad39a06d89a07da6b07822b18d8c90c828610822210828818da000cc86c0cd86c06c82c09c89707d8c90cd89709c8b808c86808c8c808c8980c8ec88e79dbc809d4c7088ea6db8906520653821808d88308d34a09d84a06da9806d82708d3bc09d8bc0bda980bd32708d49808da860b520b2c7b13107b1a187b17203307409518107b1c28501068a129019551b0821048821540821638951150320050106adafe951140ff7b10b8007b15b0007b16a8009515c0008411f082897b19388289087b19308289107b19288288187b182064769517800050106c46fc821980007b19821788007b1718821a90007b1a10821b98007b1b088218207b18588218287b18508218307b18488218387b18407b1b787b1a707b17689517609518407b196050106ea9fe8217087b67188217107b67108217187b670882177b675012702e19013200828a18828b10828908d4ba0a889b0194ab510b318288958a1fd88a08c8980884880184aae095a920d8a90ac8a80bd88b08daaa084917187b797b7b087b7810280f019511f87b10501072edfd9511807b10787b15707b1668951580008411f0827a10827b18827c088272d4cb0bd4a20cd4bc0c98cc20d4ba0a97aa20d4ca0a520ace00829b18829c108296829708d4c609d4b70ad4a909989920d4ca0a97aa20d4a9095209aa007b17287b1c307b1b38828b18828a108287828908d4a7087b1b207b1910d4b909d498089888207b1a18d4a909979920d4980852087483227b120864687b175010748a2a01837783688219083300760a03018217c86707d86708821b28821910501278ad2301821c30821818c8c808c88b0bd88b0ad8c808821c38821620c86c0c50127ab8240152082049115849115049114895184049114050107ca5270150127e391901320000821970018217780182188001821a88017b1a28017b1820017b17180195173001951810017b19100150208200e9fd82194801821a400182183801821730017b18687b1960d48909d4a708d498089888207b1a08d4a909979920d49808520843017b16f0007b16708216787b16f800821880007b1800019518f000821988007b1908017b175850208400112701821038821770c80708d87809821340c83607c8970ad36a0bd86a07dab907821b18d3ba09d8ab0a821b20d88b08821248821c8000c82c0bdb9a08d8cb09821c50821a8800c8ca0ac8a909c8b707d8b70ac8a909821b28d3b90ad89b09821630d8760bdaab09d36707d4a707db79085208a600821858958720d88708821a68c88a09d8a90ada880a821608c86a0ad86a08821460c884048218707b1890007b10d0008218787b1898007b17b0007b13d800821780007b17a0007b12e000821788007b17a8007b19b8007b1ce8007b1ac0009517d0009518b000951990007b14c8005020860092fd8217108218607b78187b76108218687b78088218587b78955150fe8210a8018215a001821698019511b00132000050208800fcfa951100ff7b10f8007b15f0007b16e8009515000150228a002f1d01d8ba02c8200c7b6340d83a03d34c0bd84c0adab30a7b6050d80c0bda220b828010828c18829318829210c80b0bd80b087b6c48c8c808d33809d93808d82b0cda9c08d32b0bd4b909db980a510a0f017b63207b622850228c00ed17015207040183a78168587b6a1033008e000a04018267108272827308827910827a18826758957c20d87c0b826850c8b807d88708dabb08826b18c8b808d8b80b826448c8b404826b207b6b78826b287b6b70826b387b6b68826b407b6b607b6a98007b6990007b6388007b628000502290001b1c0133009200951150fe7b10a8017b15a0017b1698019515b0018411f082ab187b1b2882ab107b1b3082ab087b1b1882aa7b1a20828a187b1a50828a107b1a48828a087b1a4082887b18388296829a08829b108298187b17107b1888007b1868017b1b80007b1b60017b1a787b1a580195177001951850017b1650013300800028a3fb50229400eb190132005020960081f900828b18828a10828908d4ba02889c01942c510c48828898ac3b97bb05d4cb02989c3b97aa05d4ca0a988c3b979905d4c909978805958c20d88c08c8890bd89b09da8809c8a909d8a908c828087b7c7b7b087b79107b781832009511f87b105020980066f99511c0fd951b00027bb0387bb5307bb628951540028411e0641682ab187b6b800082ab107b6b7882ab087b6b7082aa7b6a68828a187b6aa000828a107b6a9800828a087b6a900082887b688800829a829808829b108299187b67187b69e0007b69f8017b6be8007b6bf0017b68f0007b68e801956700029568e0017b6af8007b6ae00150209a0019ff956b000282b982b70882b81082ba1850229c00a81b0150209e00ecf9956b000182bad80082b9d00082b8c80082b7c0007b6a387b6828d48a0ad49708d4a8089888207b6930d4a909979920d49808520803038268f800956a00017ba880008268f0007ba888008268e8007ba89000956880018269e0007ba998007b67205020a0000a23018269e80098973b8268e000978805d47802826af00098a83b979905d489078268f80098893b97aa05d4a909978a0582688800c8a808d8a80a826b9000c89b0bc8ab0bd39b0cd89b09daca09826a9800c87a0ac89a0cd8ac03d87a0a8267a000c82707c8a707c83707826278d8c2097b69f800826070d30b037b6b58d8b0097b6860826468d8840adb390a826b8000d3b7087b6748d87b098267f800da87097b6c50d32c07d48707db790a8263a00082699800520a1c021407e0ffffff000000007b6740826b880082649000649a8267207b67e8008267287b67e0008267307b67f0008267387b67f80001826760d87b07826958d3940cd89409dac709826250d82a0764a8826a48d3a300d8a30ada070ad32807d40707da790a510a91019517e0847ae064a1d48b077b63d0007b64c000d43409d497079877207b68c800d49808978820d487075207870183a77b6bb80083b87b6ad8000a0401826ad80082a71882a81082a9088e7c8e8bdb7c0bd478028e9cdb2b0c520c590182aa82628800c8a202d8a20a826c9000c89c0cc8ac0cd39c0bd89c09daba09826a9800c88a0ad88a08826ba000c8b707c88707c8a909d8a908c8870a826768956b00017bb7208267707bb7287b6240018267787bb730826780007bb7387bbc487bb9509567600195684001956920017bba585020a20028fb826cf8008269f000d4c907826840826ae800d88a08826be00094b894785108bf0095a820d8a80264877b68a800c82b087b68d800d8b808da2208826278018263700182646801826b6001c898087b68b000d89808c88c0c7b6cf8007b6b00017b6408017b631001956800017b6218015020a400a320018268b800958b20d88b08826ac000c88a04d8a40ada880a8268c800c88a0ad88a088263d000c883038267a8007b67e8008267d8007b67e0008267b0007b67f0002843fe8267188268207b788268287b78088268307b78108268387b78185022a6004e19013200005020a8003bf5951100ff7b10f8007b15f0007b16e800951500015022aa006e1701d8ba02c8200c7b6340d83a03d34c0bd84c0adab30a7b6050d80c0bda220b828010828c18829318829210c80b0bd80b087b6c48c8c808d33809d93808d82b0cda9c08d32b0bd4b909db980a510a94007b63207b62285022ac002c12015207890083a78168587b6a103300ae000a04018267108272827308827910827a18826758957c20d87c0b826850c8b807d88708dabb08826b18c8b808d8b80b826448c8b404826b207b6b78826b287b6b70826b387b6b68826b407b6b607b6a98007b6990007b6388007b6280005022b0005a16015020b20034fb5022b400a5140132005020b6003bf4008219a0018217a8018218b001821ab8017b1a58017b1850017b17480195176001951840017b1940015020ba0081f5821a78018219700182186801821760017b1a287b1818d48a0ad49708d4a8089888207b1920d4a909979920d49808520825027b162001821880007b1828018218787b183001951820018219707b1938017b17105020bc00ad1e0198673b821a800097a805d48707976605821058c8060bd86b0882148800c84709c8890cd37c09d87c07da980782187898863b821970979905d4960698a93b978a05d4a90982139000c8390ad89a0982129800c82608c89808c87a06d8a607c8780a821850d38c077b1c48d8c8087b1b50821940d8b909db7809821b68d86b07821c60d3ca087b1a38d8ac0ada870a7b1640d3b607d48707db7a0952096001642b643c644264031407e0ffffff000000007b17308210108217187b17788214208217287b17800001821750d87307821948d39208d89209da8709821740d87c06821a38d3ab08d8ab0ada860ad3c707d48707da790a510ae2007b13e0007b12e8007b1cf000951700019518e0007b1bf8007b1b98007b1c90007b12880064367b14707b10683300be0033023e28c51501821b68821a7082198000d49a07821830d88b08821c7894c894785108b0008212180182131001821408018210000195b820d8b80b64877b1858c8bc087b1868d8c80cdabb0cc8ac0c7b1c60d8ac0bc8b9097b1980007b10a0007b14a8007b13b0009518a0007b12b8005020c0000e1d01956720d86708821a88005022c2001e130182189000c88a0ad88a08821b9800c88b0b6473649264ac8210588217687b177882146028f4fe8217088218105022c400f51a01955120fe8210d8018215d0018216c8019511e0013200005020c600b2f1951100ff7b10f8007b15f0007b16e800951500015022c800e51301d8ba02c8200c7b6340d83a03d34c0bd84c0adab30a7b6050d80c0bda220b828010828c18829318829210c80b0bd80b087b6c48c8c808d33809d93808d82b0cda9c08d32b0bd4b909db980a510a11017b63207b62285022ca00a30e015207060183a78168587b6a103300cc000a04018267108272827308827910827a18826758957c20d87c0b826850c8b807d88708dabb08826b18c8b808d8b80b826448c8b404826b207b6b78826b287b6b70826b387b6b68826b407b6b607b6a98007b6990007b6388007b6280005022ce00d112013300d000951120fe7b10d8017b15d0017b16c8019515e0018411f082ab187b1b6082ab107b1b6882ab087b1b5082aa7b1a40828a187b1a9800828a107b1a9000828a087b1a880082887b18588296829808829a108299187b17087b19707b1998017b1a787b1a90017b1880007b1888019517a001951880017b1680013300b80028c7f65022d2009f100132005020d40035f0009511a0fd951a00027ba0587ba5507ba648951560028411e06416829b08828408829c828ad34b02d84b00d8ac03da23007b6b9800c94b0bc93b027b6c90007b6ab800c9ac0b88bb800085bb01829a108283108e2cdb2c0b6432829c18828318c92a08c90809d808087b6a8800d82a0a7b6c8000c93c0cc9ac0cc98c0c8fc88e9adbc80ad4c909db9a0b510b9c037b67689517e0847ae064a18269b800d429077b64b0007b63a000d43408d487079877207b62a800d42808978820d4870752076e03839883a77b68787b6a700a0401826770827218827810827908d4280a889b0194ab510b4303827a826bb800c8ab0bd8ab0a826cb000c89c0cc8ac0cd39c07d89c09da7a098267a800c88707d88708826aa000c8a202c82808c87909d87907c8780a82679000956800017b87e000826798007b87e8007b6b0002826788007b87f000826780007b87f800956b00027bbc087bb91095672002956800029569e0017bba185020d600d5f39517e0847ae064a18267a8008268a000d478081407e0ffffff000000008269b800d879078269b00094977b6870948751079302956800028287387b67508287307b67408287287b67588287207b674882677883782083a77b6a600a0401826760827218827810827908d4280a889b0194ab510b4b02827a826bb800c8ab0bd8ab0a826cb000c89c0cc8ac0cd39c07d89c09da7a098267a800c88707d88708826aa000c8a202c82808c87909d87907c8780a826790007b678001826798007b6788017b6ba001826788007b679001826780007b6798017b6ca8017b69b0019567c0019568a001956980017b6ab8015020d800a3f8956c000182c7d8007b673882c7d0007b672882c7c8007b676082c7c0007b67308267b800957a40d87a078269b0005022da005816018267a800c87909d87907826ba000c8b7077bc7587bc9507bc84895676001956840017bca403300dc0033023e28b510019517e08479e064911407a0ffffff000000008268b800d878078268b0009487826870948751074601956800018287787b67208287707b67108287687b67708287607b671882677883786083977b69780a0401826778827218827810827908d4280a889b0194ab510bfe00827a826bb800c8ab0bd8ab0a826cb000c89c0cc8ac0cd39c07d89c09da7a098267a800c88707c87909d8790ad887078268a000c88202c82707c87a0a826790007b67c000826798007b67c8007b6be000826788007b67d000826780007b67d8007b6ce8007b69f000956700019568e0009569c0007b6af8005020de00dffa956b000182b71082b81882b982ba08826b687bb7707bb8787bb9607bba688267107bb7508267207bb7588267187bb7408267707bb7488267287bb7308267387bb7388267307bb7208267607bb7288267407bb7108267507bb7188267487bb78267587bb7089551a0fd951700028270588275508276489511600232005020e00009ec00821710017b1728821718017b1720821720017b1718821728017b1710821730017b17088210380182144001821348018212500182165801821c6001821b6801821a70018219780182188001821788017b17687b18607b19587b1a507b1b88007b1c80007b16787b12707b13a8007b14a0007b1098008217087b1790008217107b17c8008217187b17c0008217207b17b8009517b00095189000951970951a50821b287b1bb0003300e400951110fe7b10e8017b15e0017b16d8019515f001951100f8951110f88411e06416827b187b6b40827b107b6b48827b087b6b5082777b67588297187b67208297107b67288297087b673082977b673882a77b67380182a7087b67300182a7107b67280182a7187b67200182897b69d8008287087b67d000828a107b6ac8008288187b68c000956bb8107bb8e0007bbad8007bb7d0009567a011956880117bb9c8003300ec063302000328f30d019517305020e60097e8821848821940821a388217305022e800760801510804005020ea001018018378330733093300ec000a0c01951160fe7b1098017b1590017b1688019515a0018411f0828310828208829a08828c829b7b1b30829410d32a067b1648d82a06d8cb00821b48dab006828b188298187b1828c93409c969087b1838d869087b1350d8340664b4821928c9b909c96909c98909c92a08c908087b1c58821a30c9ca0a8e8b88aa6085aa01db8b0a8f98821c388ecbdb980bd49c08db8b0a510a4d0164768217587b1740017b12407b1248018217507b17500195176001951840017b14487b1458013300ee0033023e28fb0c01821768017b1738821760017b1730821778017b1728821770017b1720821858958720d88708821a405022f000e21201821b48c88b0b7b1af0007b19e8007b17e000951700019518e0007b1bf8003300f20033023e28a30c01821708017b1718821700017b1710821718017b1708821710017b17821758957a40d87a078219405022f400e81101821750c87909d87907821b48c8b7077b1798007b1990007b1888009517a000951880007b1a80003300f60033023e28430c018217b0008218b8008219a000821aa8007b67507b68587b69407b6a4882177b67308217087b67388217107b67208217187b67288217207b67108217287b67188217307b678217387b6708955160fe8210980182159001821688019511a00132005020f8009be89511b0fe7b1048017b1540017b163801951550018411f03807b002024921a8004921a000492198007b1790004921c8004921c0004921b000049517d0009518b000951990004921b8005020fa00d5fd8217d0007b17088213d8008214e0008210e8008212f000821cf800821b0001821a0801821810018216180182192001821728017b17487b19407b16387b18307b1a687b1b607b1c587b12507b1088007b1480007b1378951770951850951930821a087b1a703300fc00951108f8951a00077ba0f0007ba5e8007ba6e0009515f8079511b8f98411e0829a7b1ab000829a107b1aa800829a087b1a78018299187b19a00082897b19f0008289087b19e8008289107b19e0008288187b18d800827a8279088278108277189516ff079566f1004926e8044926e0044926d8044926d0047b17587b67c8047b18507b68c0047b19407b69b8049517ff079577e1059518ff079588c1059519ff079599a1057b1a487b6ab0043300440828b0129517105020fe0016e5821828821920821a1882171050220001f5040151080400502002018f1401837833073309330004010a0c01951120ff7b10d8007b15d0009515e00050220601f40b01330008010a0f33020a01280f0d0150220a010b0d0152073150220c01ea040150200e011be550221001800a01502012010fb20064175020140199e450221601e9030151080a005020180199e650201a0118140183783307330933001c010a0c01827218828318827b10827c088289088274828a828810d3c907d8c909d84a0adb790ac9b807d8a707d8b808c92309c98909c97909570905320050201e0146e69511887b10707b15687b16607b174082977b17508297087b17588297107b174882921882861882891082858288088e6a8e9bdb6a0b8e8a885c000185cc01db8a0cd46909db9b0c7b1c388359807b1564267b1218642850202001ca13017b17307b182083597b192882175082185850202201b213017b17107b18088d59800082174864685020240176130133022601821508d485058219889a80007b1a08821820daa805821858da9805821610d47606821730daa706821750da970682174882181882192833002801285713015020280153130133022a01821908939893978219389496949594979498821940017b98187b97107b95087b968210708215688216609511783200951140ff7b10b8007b15b0007b16a8009515c00050222c01ad080150202e010b11018217607b17508217687b17588212708218787b1848821c3898c73d976903d4970798663d821a2897a903d4960698a93d821a4097aa03d4a90997cc037b1c408e7a88cb000185bb01db7a0b8e978e6adb970ad46909db9a0b7b1b2883c98064267b12106427502030019212017b17187b18208217388a79037b1938821750821858502032017612017b177b18088218408d89800064678218485020340138120150223601310501502038015012018219939793988219289496821a50949a949894978219307b97107b98187b9a7b960850223a0183ff00320049112002951740951820641949112850203e01f6fe50224001f0fe00320052083c9511d07b10287b15209515308411f0827a18827810827b0882777b177b1b087b181064187b1a18649750204401ee0e01502246019904013200009511807b10787b15707b1668951580008411f07b171082878292828b08829308957a207b1a18d87a06c86b0a7b1a08d8ba0cda660c828a10828818829410829918c8ca06d8a60cc88c0c7b1c7b18387b1a307b1b287b17207b19587b14507b13489517409518207b1240330048013302420128d706018218108217087b87088217187b877b861082177b871850224a01ebff00320033004e010a0f3302500128cf090150225001cb09015207930050225201f7020150205401affc9517c000330056019511807b10787b15707b16689515800033023c0128e0080150225801ef060150205a01f0e050225c0179fe0050205e0111ff502260011300015207405022620122ff00c9c602d8c606d84a0a821c38c99c0cc9ac0cc96c0cc9b707c98707c90306d4c707d42608d47808d42707988820977720d4870751070a0050206401a6e2640764685020660121100150226801820a0133006a010a0c01951120ff7b10d8007b15d0009515e00050226c0185070133006e010a0f3302700128a00801502270019c0801520731502272017b000150207401ace050227601110601502078014cb300641750207a012ae050227c017aff0051080a0050207e012ae250208001a90f01837833073309330082010a0c019511e0fe7b1018017b1510017b160801951520018411f0828310828208829a08828c829b7b1b20829410d32a067b1638d82a06d8cb00821b38dab006828b188298187b1838c93409c969087b1828d869087b1330d8340664b4821938c9b909c96909c98909c92a08c908087b1c38821a20c9ca0a8e8b88aa4085aa01db8b0a8f98821c288ecbdb980bd49c08db8b0a510a4e64768217387b17c0007b127b12c8008217307b17d0009517e0009518c0007b14087b14d8003300840133023e28960401502286013700013300880133023e2884040150228a01a90201320050208c0133e19511e0fe7b1018017b151001951520018411e04921f8004921f0004921e8004921e0008317e0000a0f018217f0008218f8008219e800821ae000d49808d4a707d48707520709013807b002024911784911704911687b1760492198004921900049218000049517a000951880009519604921880050208e01a9fe8212a0008213a8008218b000821ab800821bc000821cc8008219d0008217d8007b17387b19307b1c287b1b207b1a587b18507b13489517409518207b1240330090019511a0fc951900037b90587b95507b9648951560038411f082897b19608289087b19588289107b19488288187b1850827a827908827810827718951b0003491b18330c491b10491b08490b7b1718951b00027bb7f8007b18107bb8f0007b197bb9e80095172003951800039519e0027b1a087bbae0003300040a287a0b641750209201e1dd5022940131fd0051080a0050209601e1df50209801600d0183783307330933009a010a0c01951120ff7b10d8007b15d0009515e00050229c01c5040133009e010a0f3302a00128e005015022a001dc05015207315022a201bbfd005020a401ecdd5022a6015103015020a8018cbd0064175020aa016add5022ac01bafc0051080a005020ae016adf5020b001e90c018378330733093300b2010a0c01808910828a0882884917187b79107b7a087b78320082781082771814090000000001000000d38909d479099888208888019478939851080528739511f87b103308c00202838833070133093300b4010a0c3302b601283f02015022b6013b020152096a9511807b10787b15707b1668951580008411e0647683888317400a048218407b188217487b17188219507b1910821a587b1a087b1a387b19307b17289517207b18205020b80170ff8217087b67188217107b67108217187b670882177b675022ba0123fb003200009511e0fe7b1018017b1510017b160801951520018411f0828310828208829a08828c829b7b1b20829410d32a067b1638d82a06d8cb00821b38dab006828b188298187b1838c93409c969087b1828d869087b1330d8340664b4821938c9b909c96909c98909c92a08c908087b1c38821a20c9ca0a8e8b88aa4085aa01db8b0a8f98821c288ecbdb980bd49c08db8b0a510a4f64768217387b17c0007b127b12c8008217307b17d0009517e0009518c0007b14087b14d8003300bc0133023e280b01015022be01acfc003300c0013302b60128f800015022c2011dff0032005020c401a7dd9511807b10787b15707b1668951580008411f08282828308828410828818829c7b1c829b087b1b08829a107b1a108299187b191864767b19387b1a307b1b287b1c207b18587b14507b13489517409518207b12403300c6013302420128ab00018218958720d88708821a085022c80151fe00821810c88a0ad88a08821b18c8b8087b69087b677b6a107b68185022ca01a9f9003200951140fe7b10b8017b15b0017b16a8019515c0015022cc01b00401828a088286108288187b177b18707b1878017b1670017b1a607b1a680195178001951860017b19687b1960013300ce013302000328010001821798018218900182198801821a80017b17207b1718017b18187b1810017b19107b1908017b1a087b1a00018217487b1738018217507b1730018217587b172801951740019518200195190001821a787b1a20015020d001c61a646c821758017b17788213500182144801821040013309330a33023306018217087b1958d87907821910d39a087b1a50d89a09da8709821b18d8b207821a20d3a608d8a60ada870ad3b207d48707da790a510aed007b12287b16307b10387b14407b1348821768957820d87807821960c8790ad89a06da7706c8c606d8c607821970c87909d468077b19707b1a60d4a909d49707987720d46909979920d497075207b7009517e0007b18685020d201730501821ae0008217e8008218f0008219f800821b787b1b9800821b487b1b9000821b407b1b8800821b387b1b80007b19b8007b18b0007b17a8009517c0009518a000951980007b1aa0005020d401c4fd8217d8007b17788213d0008214c8008210c000821958959901889701821a50c87a0ad4a907887701821828c87802d88208821b30c88b0b646c64b628e3fe82177b707b74087b73108218787b78185022d6014e0301320000951120ff7b10d8007b15d0007b16c8009515e0008411f0828b10828218828608828cd42608d4bc0ad48a0a98aa20d4b808978820d4a8087b17385208bc008297187b17188297107b17208297087b172882977b173095c7207b1708d8c707c876087b18d86806da7706c8b606d8b607c827077b17104921b8004921b0004921a000209518a0004921a80064c75020d80175050182177b17488217087b17408217187b17788217207b17708217287b17688217307b17607b165095178000951860951940821a107b1a585020da0132fd821790008218980082198000821a8800821b387bb7107bb8187bb97bba085022dc014102013200008217b0018218b8018219a801821aa001d49808d4a707d48707520774013807b002024921380149213001492128017b17200149215801492150014921400104951760019518400195192001492148015020de013cfb82126001821768018218700182197801821b8001821c880182169001821a98017b1ad8007b16d0007b1cc8007b1bc0007b19f8007b18f0007b17e800951700019518e0009519c0007b12e0003300e0019511c0fe7b1038017b1530017b162801951540018411f0829a7b1a18829a087b1a10829a107b1a088299187b198289828a08828b1082881864767b18d8007b1bd0007b1ac8007b19c0004921f8004921f0004921e800951700019518e0009519c0004921e00033004a0b288404821700017b1738821708017b1730821710017b1728821718017b17209517a0005020e201cdd65022e40156f4005020e601cafd5022e801f0f5005207405022ea01fff400c9c602d8c606d84a0a821c38c99c0cc9ac0cc96c0cc9b707c98707c90306d4c707d42608d47808d42707988820977720d4870751070a005020ec0183d8640764685020ee01fe05015022f0015f00013300f2010a0c019511907b10687b15607b16587b173882877b17508287087b17488282108288187b1840829a7b1a20829708829c1882991098a63d977b03d46b0598773d979b03d4b70798993d97cc03d49c0c97a6038e59886b000185bb01db590b8ec98e7adbc90ad4c707db7a0b7b1b30836980642564275020f401d205017b17287b18188217208a79037b19208217508218485020f601b605017b17087b188d6980007b151064578218405020f8017805013302fa018215d48505886980007b19821818da9805821848da68056468821608d47606821728da9706821750da87068217108218408219203300fc01285b05015020fc01570501821893879777209877208218309486948594878218384918187b87107b85087b868210688215608216589511703200502000022e03018217607b17508217687b17588212708218787b1848821c3898c73d976903d4970798663d821a2897a903d4960698a93d821a4097aa03d4a90997cc037b1c408e7a88cb000185bb01db7a0b8e978e6adb970ad46909db9a0b7b1b2883c98064267b1210642750200202b504017b17187b18208217388a79037b1938821750821858502004029904017b177b18088218408d8980006467821848502006025b04015022080254f70050200a02730401821893879777209877208218289486821950948994878218304918187b87107b897b860850220c02a4f100320049112003951740951820641949112833001002951140ff7b10b8007b15b0007b16a8009515c0003302fe0128bcf90050221202f7f000320052083f9511d07b10287b15209515308411f0827810827a088277978820988b204911187b177b1a0864187b1b10649750201602f20001502218029df6003200008218108217087b87088217187b877b861082177b871850221c0265f2003200330020020a0f330222022849fc005022220245fc00520707015022240271f5005020260229ef9517c000330028029511807b10787b15707b16689515800033020e02285afb0050222a0269f90050202c026ad350222e02f3f000330030029511807b10787b15707b1668951580008411f07b171082878292828b08829308957a207b1a18d87a06c86b0a7b1a08d8ba0cda660c828a10828818829410829918c8ca06d8a60cc88c0c7b1c7b18387b1a307b1b287b17207b19587b14507b13489517409518207b124033001a0233021402285ef8005022320219f2005207405022340228f100c9c602d8c606d84a0a821c38c99c0cc9ac0cc96c0cc9b707c98707c90306d4c707d42608d47808d42707988820977720d4870751070a0050203602acd4640764685020380227020150223a0288fc0033003c020a0c33023e0228f8ee0050223e02f4ee003200951160ff7b1098007b1590007b1688009515a000502240020ffb00829b108299187b67387b69787b6b707b68689568607b6a6033075020420242ff005022440279fb005020460234ff003908b4020256183f0b2003b4020240019517e08479e07b693064913307c00202837783993308400a09826a3082a71882a81082a90882aa6f776f886f996faa826b387bba187bb9107bb8087bb7502248020ef000320050204c02d7fe00491118491110490122330704641849110850204e02bffe003908b4020256183f0b2003b4020240013308c002028388330701330924330050020a0c019511f07b10087b15828910828c08828b82881897923f98ca01d42a02978a3f989901d49a0a97cc3f98b901d49c0c98830184bb019ab888b50184c97fd2a804d2280adbbc09d2380b88982094a8d4b40c94c8ab85187b797b7a087b74107b7b1882100882159511103200330052029511b07b10487b154095155033024a0228e1ef009511c0fd951a00027ba0387ba5307ba628951540028411e064167b673082977b6798008297087b6790008297107b6788008297187b678000828718828910828a088288956b00027bb7187bb9107bba087bb89567e0019568000250205402abfe008267f8018268f0018269e801826ae0017b6a387b67287b67b8017b68207b68b0017b69187b69a8019567c0019568a0017b6aa00150205602e9fe8267d8018269d0018268c801826ac0017b67687b6758017b69587b6950017b68607b6848017b6a507b6a4001826780007b677801826788007b677001826790007b676801956780019568600195694001826a98007b6a6001502058028610826c38956b000182b8980082b9900082ba880082b7800084cb017b68787b69707b6a487b6740520bb300d4970bd4a808d48b0b98bb20d49808978820d4b8085208290284c800ff8269187b69a8007b68a0008268207b68b0009568a0008269287b69b80050205a02b5fc00330433033302826758826850d48707826868826960d49808d487078e7797700501826740c80707d80708826948c84909c88909d3490ad8490bdaa80b826870c83808c88b0bd88b0ad83808826c78c82c0cc8c808c8a808826a307ba77ba9087bab107ba81850225c0258f50032009517e08477e07b67386471956b000282b982b70882b81082ba187b6a18017b6810017b67080195672001956800017b69000150205e0265388268383300330433033302956c000182c73082cb3882c92082ca287b87107b8b187b897b8a0801826750d87007826960d3940ad89409daa709826b58d8b307826a68d3a20cd8a20adac70ad3b307d4c707da790a510a27ff9567e0007b6298007b6390007b6488007b608000502060028ffc0082674082688000c88707d88708826948826b88005022620250f700826870826a9000c8a808d8a802826c78826a9800c8ac0cc82c0ac88b0bd88b08c8a808d49808d4b709d48909d4b808989920978820d49808520891008269f8008268f000826ae800826be0007b6bc0007b6ac8007b68d0009568c0007b69d800502064021afb00826c3882c782c81882c90882ca10957701887b01c8b909d4970b88bb01c8ab0bd8ab0ac8a8087bc77bc9087bcb107bc81882688000958720d88708826a880050226602f5f00082689000c88a0ad88a0882629800c882026470649464a364c828d3fe009511d0fe7b1028017b1520017b1618019515300150226802b7f60050206a028acd50226c024bf10050206e0276fc5022700220f700d84302dab20c821848c98a0bd88a0a821630821928c96909c9a909d8cb0ac9a909c9cb0b7b1008c90707c927075022720244f60050207402e9cf50227602a7f40032009511a07b10587b15507b16489515605022780259f10050207a0215fb007c1733084916184916104916087b6750227c027fea0032009511a07b10587b15507b164895156050227e0224f10050208002e0fa0080171082188219087b67104916187b687b69085022820246ea003200951b000282bae0007b1ad00082b9e8007b19c00082b8f0007b18c80082b7f8007b17d8007bb7787bb8707bb96895178002951860027bba6050208602e2fe951c000282c788007b17b80082c780007b17b00082c798007b17a80082c790007b17a0008218d000958704d88708821ac000502288027bef008218c800c88a0ad88a08821bd800c88b0b7bc9287bc7207bca3095174002951820027bcb3850208a02f6fe951800028287487b1798008287407b1790008287587b1788008287507b1780008217d00095790550228c02ecea007b17f8017b1af0017b18e801951700029518e0017b19e00150208e02fd34951800028287087b177882877b17708287187b17688287107b17608217d00095790650229002a5ea007b17b8017b1ab0017b18a8019517c0019518a0017b19a0015020920298fe8217c8017b17588217c0017b17508217d8017b17488217d0017b17408217d000957907502294025dea007b1778017b1a70017b18680195178001951860017b196001502096026e34821788017b1738821780017b1730821798017b1728821790017b17208217d0009579085022980215ea007b1738017b1a30017b18280195174001951820017b19200150209a022634821748017b1718821740017b1710821758017b1708821750017b178217d00095790950229c02cee9007b17f8007b1af0007b18e800951700019518e0007b19e00050209e02df33821710018218180182190001821a08017b67d0007b68d8007b69c0007b6ac80082177b67b0008217087b67b8008217107b67a0008217187b67a8008217207b6790008217287b6798008217307b6780008217387b6788008217407b67708217487b67788217507b67608217587b67688217607b67508217687b67588217707b67408217787b6748821780007b6730821788007b6738821790007b6720821798007b67288217a0007b67108217a8007b67188217b0007b678217b8007b67089551e0fc95170003827018827510827608951120033200951170ff7b1088007b1580007b1678951590008411f08286108282188284088283d42408d4630ad48a0a98aa20d46808978820d4a8085208f100827818827a10827c827708d4ac0bd48707d47b0b98bb20d4a707977720d4b7075207cd007b1c207b14387b16407b1248829818829a108296829908d4a6077b18307b1918d49808d487079877207b1a28d4a808978820d4870752079400643764687b13105020a002d6f8007b170882172064685020a202c7f800647882170864695020a40253c5821710c86707d86708821938821b185022a602e8f100821840821c28c8c808c88b0bd88b0ad8c808821c48821630c86c0c5022a802f2f20052082e4911684911604911589518504911505020aa02def500955170ff8210880082158000821678951190003200005208479511d07b10287b15209515308411f0827818827a10827b827708d4ba0ad48707d4a7078e774911184911107b17641849110864975020ae028af5005022b00235eb003200009511b0fc7b1048037b1540037b163803951550038411f082831082861882820882807b161801d46208d43006d486069866207b132801d43808978820d468087b1708015208c5038257108278187b1800018258089506e0007b16c000d80603c832067b16b8007b122001d82604da33048276107b16e8008276087b16f00082777b17f8008287187b17d80082578286107b16c8008286087b16d00082887b18e0008278187b1888008278107b1890008278087b18980082777b17b00082c7187b176882c7107b177082c7087b177882c77b17800082b7187b174882b7107b175082b7087b175882b77b176082a7187b172882a7107b173082a7087b173882a77b17408297187b17108297107b17188297087b172082977b17a00082172801c874047b1408d8740782181801c887077b17a8009519000349192849192049191895181003491910e000640764065020b2022df4008217b800951b00027bb7b8008217c0007bb7b0008217107bb7e8008217187bb7e0008217207bb7d8008217a0007bb7d0008217087bb7c0009517f0029518d0029519b002821aa8007bbac8005020b402da07951c000282c7f0007b17c00082c7f8007b17b800821700037b17a800821708037b17a000956720d86708821a2001c88a09d8a90ada880a82182801c88a0ad88a08821b1801c8b8087bc888007bca80007bc9787bc7708217287bc7a8008217307bc7a0008217387bc7980095179002951870028219407bc990003300b6023302ac0228beeb007b161001956740d86708821620015022b80258f000821b1801c8b808951b00027bb8487bba407bb9387bb7308217487bb7688217507bb7608217587bb75895175002951830028219607bb9503300ba02330242012866eb0082181001958760d887085022bc0204f00082161801c86808951b00027bb8087bba7b19f8017b17f0018217687bb7288217707bb7208217787bb718951710029518f001821980007bb9103300be02330214022810eb0082181001958780005022c002e3e8007b18c8017b1ac0017b19b8017b17b001821788007b17e801821790007b17e001821798007b17d8019517d0019518b0018219b0007b19d0013300c2023302420128bdea00821810019587a0005022c40290e8007b1888017b1a80017b1978017b1770018217d8007b17a8018217c8007b17a0018217d0007b17980195179001951870018219e0007b1990013300c60233024201286aea00821810019587c0005022c8023de8007b1848017b1a40017b1938017b173001821700017b1768018217e8007b1760018217f0007b17580195175001951830018219f8007b1950013300ca02330242012817ea00821708018218a0007b78188218a8007b78108218b8007b78088218c0007b789551b0fc9517000382704882754082763895115003320000951b000382b7d00082b8d80082b9c80082bac000d49808d4a707d487075207b3023807b00202951a0003491a78491a70491a687ba760492a9800492a9000492a8000049517a0039518800395196003492a88005020cc027ec4951b000382b9a00082b7a80082b8b00082bab800951b00027bba787bb8707bb76895178002951860027bb9603300ce029511e0fc951900037b90187b95107b9608951520038411f08289828a08828b108288186476951c00027bc8b8007bcbb0007bcaa8007bc9a000492cd800492cd000492cc8009517e0029518c0029519a002492cc000330084022817f1951800025022d002cde400951800035022d202ffe9008287407b17588287487b17508287507b17488287587b1738951740025020d4024ec3821858027b1830821a50027b1a40821948027b192882164002951720017b1710951740017b1708951760017b178217387b1738018217487b1730018217507b1728018217587b1720018217607b1758018217687b1750018217707b1748018217787b174001821780007b177801821788007b177001821790007b176801821798007b1760018217a0007b1798018217a8007b1790018217b0007b1788018217b8007b1780018217c0007b17b8018217c8007b17b0018217d0007b17a8018217d8007b17a0018217e0007b17d8018217e8007b17d0018217f0007b17c8018217f8007b17c001821700017b17f801821708017b17f001821710017b17e801821718017b17e0017b1818027b1a10027b19080295172002951800029519e001951ac001951ba001951c80017b1600025020d602adf9821930821b28d49b07821a40d4a608d47808988820d4a707977720d48707520761646264a4951c000282c72882c8387b18180182c62082ca30d3b708d8b70cd82600da800cc94a08c9c803d8c808d84a0a821c1801c99c0cc9ac0cc98c0cc9b707c90707c92606d4c707d43609d47909d43707989920977720d4970751070a005020d802a6c3642764685020da0221f1005022dc0282eb003300de020a0c01951160ff7b1098007b1590009515a0008411e04911784911704911684911608317600a0f01821770821878821968821a60d49808d4a707d487075207473807b002024911384911304911287b1720491158491150491140049517409518204911485020e002a7dc5020e202e6b60064175020e40206c15022e60256e00051080a005020e80206c35020ea0285f0008378330733093300ec020a0c01951180fe7b1078017b1570017b166801951580018411e049215801492150014921480149214001831740013300ee020a0f01821750018218580182194801821a4001d49808d4a707d487075207b0005022f0028feb009517e0009518c0009519a0004921c8005020f2020fd88217e0007b17188213e8008214f0008210f80082120001821c0801821b1001821a1801821820018216280182193001821738017b17587b19507b16487b18407b1a787b1b707b1c687b12607b1098007b1490007b13880095178000951860951940821a187b1a80005020f402e9ba009517205020f602fdbf821838821930821a288217205022f802dcdf0051080a005020fa02f1c15020fc0270ef008378330733093300fe020a0c330200032818e5005022000314e5005209299511c07b10387b15307b16289515408411f064766417502002036feb00502204039de2003200009511a07b10587b15507b16489515608411f0828b10828a18828c0882867b1a107b1c08d4ac08d4b60ad48a0a98aa207b1b18d4b808978820d4a8087b1752085b829718829810829a0882997b19207b1a287b18309518207b17386467502006033dec00956720d86708821a08502208034ee200821818c88a0ad88a08821b10c8b808821b7bba107bb9087bb77bb81850220a037ddc00320000951180fe7b1078017b1570017b166801951580018411f0829a7b1a30829a087b1a20829a107b1a188299187b1908828a7b1a8289087b19288286108288187b18387b17407b1838017b1630017b19280195174001951820017b1a200133000c033302000328e6e300821a40017b1a10821948017b1948821850017b1850821758017b17587b17d8007b18d0007b19c8007b1ac0008217087b17f8008217187b17f0008217207b17e800951700019518e0009519c000821a307b1ae00050200e03abfe821300017b1330821408017b1420821a10017b1a08821c18017b1c188217957220d87207821928c87908d89809da7709c86909d86907821b38c8b707821b587b1b78821b507b1b70821b487b1b688216107b16607b1c98007b1a90007b1488007b1380007b17b8007b19b0007b18a8009517a000951880009519607b12a00050201003d6f395671fd86708821a48502212030de9008477e0821b08c8ab0bd8ab0a821c58821618c86c0cc8c808c8a808821a20c89a0a821c30c87c0cd87c07c87a0ad39a06d89a09da6709c8b909d8b907c887078218407b8a087b8c7b89107b8718955180fe821078018215700182166801951180013200821808027b1840821900027b19388217f8017b1730821af0017b1a287b1888017b1980017b1778017b1a70018217b8007b17a8018217c0007b17a0018217c8007b1798019517b00195189001951970017b1690015020160359fd330c33064911783302821bb801821ab00182172898793b821430974805d48909977805c8b9097b1a20c8a8087b18c000d8a808c88909d3b90a7b19c800d8b909daa809821a3898a73b821840978805d478038210c8018217c00198483b97aa05d4a808c87808c80303d8780ac83a0a82139000c889097b19b800d88908c8a8087b18b000821a788214207b1b187b1b98007b17087b17a0007b10107b10a80001821728d87c07821930d39608d89609da8709821b38d8ba0064a7821a40d3a208d8a20ada800a7b1778d3b707d48707da790a510aec017b12487b16507b1c588219a000d494078218a800821a9800d4a808d48707987720d49808978820d48707821cc8008210c000821bb8005207e6018217609578207b188000d87807821868c878097b199000d88906da7706c836067b168800d83607821670c87606821220d82003821818d38c0ad88c09daa309821a08c9ab07d8ab0a7b1a707b1bb800821b10821ab000c9ba0b821a70c9ab0bd8970ac9ab0bc9970ac98c09c93909c920077b1750017b1958017b1a6001951850017b1b68017b146864477b1cc8007b10c000502018034ae800821780006479821a8800d4a7077b167082189000d46808d48707987720d4a808978820d487075207230195173001649850201a03d8e600821a3001821738018218400182194801821bb0007b1be800821bb8007b1be000821bc8007b1bd800821bc0007b1bd0007b1908017b1800017b17f800951710019518f0009519d0007b1af00050201c03c0fb821728017b17b000821720017b17b800821868958420d88408821a980050221e03bedd00821818017b18c8008218a000c88a0ad88a08821ba800c88b0b7b1ba800821c5895cc0188c801821650c88606d46c08888801821b10017b1bc000821b78c8b808d8b80b821248c8b2027b1998007b1aa000821780007b1760821790007b176882138800648a28e5fd82178218c0007b788218c8007b78088218b8007b78108218b0007b78189551d0fd9517000282702882752082761895113002320000951170fb7b1088047b1580047b167804951590048411f082821082831882860882887b1358017b166801d436037b186001d42806d436069866207b125001d42308978820d468087b17080152084e068253208238187b18e00082501882146001954820017b184801d8480682176801c867087b184001d87802da660264388286107b16c8008286087b16d00082877b17d8008207187b17b8008257108206107b16a8008206087b16b00082087b18c0008278187b1898008258088276107b1688008276087b16900082777b17a0008287187b177882578286107b16688286087b167082887b1880008278187b18488278107b18508278087b185882777b176082c7187b172882c7107b173082c7087b173882c77b174082b7187b170882b7107b171082b7087b171882b77b172082a7187b17e80082a7107b17f00082a7087b17f80082a77b1700018297187b1718018297107b1720018297087b17280182977b17300182165001c862027b121001d8620782185801c887077b1738019519000449196849196049195895185004491950200164475020200365e500821740017b17f803821748017b17f00382171801951b00047bb728821720017bb720821728017bb718821730017bb710821710017bb795173004951810049519f003821a38017bba085020220315f982195801d46909140700000000010000007b1740011407e0ffffff0000000082186001d878078218680194877b194801949751077d04951900048297308298388296487b163001829b407b1b3801821c6001d8c70264737b172801821a68016487d3a808d8a709647464a7da8209821a5001c9ab08d8ab0a821b5801c9b60bc9ab0bd8980ac9ab0bc99808c974096446c92909c9c30a83c720951c00037bcad0007bc9d8007bc8e0009518d0037bcbe800502024035ee40082173001951b00037bb78800821738017bb780007bb678821728017bb7708217e8007bb7a8008217f0007bb7a0008217f8007bb798009517b0039518900395197003821a00017bba9000330026039511d0fd951a00027ba0287ba5207ba618951530028411f08296829a087b1ac800829a107b1ac0008299187b19b800828b7b1b608289087b1968828a107b1a90008288187b177b18707b18e8017b1ae0017b19d8019517f0019518d0017b1bd001330014033302000328eadb00821740019577c082186001d87807821868019487821848019487510722038218b0038216b8038217c8037b174001821bc0037b1b480182126001d8280464837b183801821a6801d3a608d8a60964acda8409821a5001c9ab08d8ab0a821b5801c9b70bc9ab0bd8980ac9ab0bc99808c9c609c94909c9230a832740951c00037bca507bc9587bc860951850037bcb68502028030de30082174001951b00037bb708821748017bb77b16f802821738017b17f0028217087bb7288217107bb7208217187bb71895173003951810039519f002821a207bba1050202a03bfda951800038287307b1748018287387b1740018287407b1738018287487b1730018218600195876050222c030dde0082165801c86808951b00027bb8c8007bbac0007bb9b8007bb7b0008217287bb7e8008217307bb7e0008217387bb7d8009517d0029518b0028219407bb9d00033002e033302ac0228b6da00821860019587800050223003b3dd00c86808951b00027bb888007bba80007bb9787bb7708217487bb7a8008217507bb7a0008217587bb7980095179002951870028219607bb9900033003203330242012862da00821860019587a000d88708821a68015022340304d80082165001c86a0ad86a08821b5801c8b808951b00027bb8487bba407bb9387bb7308217787bb7688217687bb7608217707bb7589517500295183002821980007bb950330036033302140228fed900821860019587c00050223803b2d700951b00027bb8087bba7b19f8017b17f001821798007bb728821788007bb720821790007bb718951710029518f0018219a0007bb91033003a033302420128aed900821860019587e00050223c0362d7007b18c8017b1ac0017b19b8017b17b0018217b8007b17e8018217a8007b17e0018217b0007b17d8019517d0019518b0018219c0007b19d00133003e0333024201285bd9008218600195870001502240030fd7007b1888017b1a80017b1978017b1770018217e0007b17a8018217c8007b17a0018217d0007b17980195179001951870018219d8007b19900133004203330242012808d90082170801821830017b7818821838017b7810821840017b7808821848017b78955170fb95170004827088008275800082767895119004320000951b000482b7b00082b8b80082b9a80082baa000d49808d4a707d4870752073f033807b00202951a0004491a58491a50491a487ba740491a78491a70491a6004951780049518600495194004491a685020440371b3951b000482b9800082b7880082b8900082ba9800951b00037bba187bb8107bb70895172003951800037bb933004603951120fc951900037b90d8007b95d0007b96c8009515e0038411f08289828a08828b108288186476951c00037bc8787bcb707bca687bc960492c9800492c9000492c88009517a0039518800395196003492c800033009a0c280ce0951800038287207b1778018287287b1770018287307b1768018287387b1760018287407b1758018287487b1750018287507b1748018287587b1740018287607b1738018287687b1730018287707b1728018287787b172001502248036ed3009518000450224a03a0d8009517e00250204c0307b28218f8027b1850821af0027b1a588219e8027b19488216e002951780017b17209517a0017b17189517c0017b17109517e0017b1708951700027b178217607b1798018217687b1790018217707b1788018217787b178001821780007b17b801821788007b17b001821790007b17a801821798007b17a0018217a0007b17d8018217a8007b17d0018217b0007b17c8018217b8007b17c0018217c0007b17f8018217c8007b17f0018217d0007b17e8018217d8007b17e0018217e0007b1718028217e8007b1710028217f0007b1708028217f8007b170002821700017b173802821708017b173002821710017b172802821718017b172002821720017b175802821728017b175002821730017b174802821738017b174002821740017b177802821748017b177002821750017b176802821758017b176002821760017b179802821768017b179002821770017b178802821778017b1780027b18b8027b1ab0027b19a8029517c0029518a00295198002951a6002951b4002951c20027b16a00250204e0394f6821950821b48d49b07821a58d4a608d47808988820d4a707977720d48707520765646264a4951c000282c7c80082c8d8007b18780182c6c00082cad000d3b708d8b70cd82600da800cc94a08c9c803d8c808d84a0a821c7801c99c0cc9ac0cc98c0cc9b707c90707c92606d4c707d43609d47909d43707989920977720d4970751070a005020500309b2642764685020520384df0050225403e5d900330056030a0c019511a0fe7b1058017b1550017b1648019515600150225803fdd60033005a030a0f33025c032850d80050225c034cd8005207b60050225e0378d1005020600330cb9517c00033006203951190fd951800027b80687b85607b8658951570028411f07b1708951a0002491a28491a20491a189517300295181002491a10013300b80c287e18502264034dd500502066034eaf50226803d7cc0050206a034bd650226c0371ce0052074050226e0380cd00c9c602d8c606d84a0a821c38c99c0cc9ac0cc96c0cc9b707c98707c90306d4c707d42608d47808d42707988820977720d4870751070a005020700304b164076468502072037fde0050227403e0d800330076030a0c019511807b10787b15707b16689515800050227803a9d60049112001951740951820641949112850207a0386cb50227c0380cb003200330080030a0f330282032831d700502282032dd70052077b502284035ad0005020860312ca9517c00050208803a250228a0369d40050208c036aae50228e03f3cb00502090038bcc502292038dcd00520740502294039ccc00c9c602d8c606d84a0a821c38c99c0cc9ac0cc96c0cc9b707c98707c90306d4c707d42608d47808d42707988820977720d4870751070a005020960320b064076468502098039bdd0050229a03fcd70033009c030a0c019511e0fe7b1018017b1510017b160801951520018411e04921f8004921f0004921e8004921e0008317e00033009e030a0f018217f0008218f8008219e800821ae000d49808d4a707d487075207c7005022a003a4d8009517c0009518a0004921c8005020a20320c9951780005020a40384ad821898007b181882169000821988007b1910821a80007b1a084911384911304911284911202a7b18587b16507b19489517609518409519207b1a405020a60371cb5022a80373cc0052075764648217688218787b18821360821a70d3b706d8b70cd80308da680cc94a06c9c602d8c606d84a0a821cc99c0cc9ac0cc96c0cc9b707c98707c90306d4c707d42608d47808d42707988820977720d4870751070a005020aa03efae640764685020ac036adc005022ae03cbd6003300b0030a0c3302b203283bc9005022b20337c90032005208439511d07b10287b15209515308411f03a080000027b18183a080800023a091000023a0a1800027b18107b190864187b1a5020b60387d9005022b80332cf0032000033071e5022bc03cbc9005020be03d3ec5022c00393c8003300c2033302b4032802c9009567205022c4037cc7003200828a10828218828c08828bd42c08d4ab09d48909989920d4a808978820d4980852087a951160ff7b1098007b1590007b1688009515a0008411f0647695b7207b1710d8b707c87c087b1808d8c808da7708c8a8087b18d8a807c827075022c603e1c8005020c803e4d8005022ca0369c8003300cc03951140ff7b10b8007b15b0007b16a8009515c0003302ba0328e0c8005022ce03b6c70032000051070c5022d203ebc8003200951780005020d40391ab5022d60366c7005207545022d803e2c7005020da0385d8005022dc03ebc6005020de0330ff821748821258821340821a50821810d3870bd8870c6484821918d89308dab80cc96a0bd86a0a821608c962065022e003e7c6005107040082171864685020e203c0da005022e40398ce003300e6030a0c019511807b10787b15707b1668951580005022e80310c9005207653a072000027b17583a072800023a083000023a093800027b17507b18489518407b194064675020ea03e1d7005022ec0386c90051082f836720491130491128140800000000000000657b18389518204911205020ee03b4d7005022f00347c9003200003307215022f403f8c7005020f60300eb5022f803c0c6005020fa036cff9567405022fc03afc5003200828a10828218828c08828bd42c08d4ab09d48909989920d4a808978820d4980852087a951160ff7b1098007b1590007b1688009515a0008411f0647695b7207b1710d8b707c87c087b1808d8c808da7708c8a8087b18d8a807c827075022fe0314c7005020000417d700502202049cc60033000404951140ff7b10b8007b15b0007b16a8009515c0003302f2032813c70050220604e9c50032000051070c50220a041ec70032009517800050200c04c4a950220e0499c5005207545022100415c60050201204b8d600502214041ec5005020160430ff821748821258821340821a50821810d3870bd8870c6484821918d89308dab80cc96a0bd86a0a821608c96206502218041ac50051070400821718646850201a04f3d80050221c04cbcc0033001e040a0c01951140ff7b10b8007b15b0007b16a8009515c0008411e0828218828a10828b088286827818827c1082790882777b1898007b1c90007b1988007b17800098673d97b803d4870798a83d972203d4820898bb3d97aa03d4ba0a9766038ea9c898088e79886b0101646c7b161085bb01da7b099aaad89a069a88c96808c99a0a9a77c9b7079ac600017b16208e898eabdb890b886900018599018e7cda790cd4a808db8b0c7b1c288d6980003307ff3308ff5020200463d8007b17087b18188216108d6900013307ff3308ff502022046fd8007b17307b1838821808d487077b17088d6980003307ff3308ff502024044fd800821920889b8000821a08dbba079397ff647c821a38821618d4a606dab8069396ff82183093b893ba821728947a7b1a3894787b18309476947c7b1c28951740951880005020260412d600821740821848821950821a58821b28d2b707d26808821b30d2b909821b38d2ba0a7b1a787b19707b18687b176095178000951860502028045ad60050222a041fc50032007b173864868217a8008a79037b1988003307ff3308ff50202e047ed7007b17a8007b18a000d468087b18308216708369807b19183307ff3308ff502030045ad700646a886c80007b1c68821930dbc90893a8ff648b8219a800821838d49808dac70893a8ff8217a00093c793c97b152094587b1838945b7b1b3094597b19a80094577b17a00082158000645782167864688219185020320400d7007b17187b181082179800821890008219880050203404e7d6007b17087b186457646882192850203604fad6008215d48505821968821810da980582189000821a70daa805821608d47606821718da970682179800daa70682178000821878821988005020380497d600821968939893978219209496949594979498821940821aa000e0a902d2a808821a488219a800e09a0ad29707821b50821c30e0cb0bd25c0c821558821938e09505d29606d46505d4cb0bd4a707d482088219607b98087b977b9b187b95108210c0008215b8008216b0009511c80032009511c0fe7b1038017b1530017b162801951540018411e0828a7b1a38828a087b1a30828a107b1a288288187b182082987b18188298087b18108298107b1808829618827818827910827a0882777b1818017b1910017b1a08017b1700019517c0009518000150203a04eed300821bc0008217c8008218d0008219d8007b1658821a087b1a50821a107b1a48821a187b1a40821a207b1a78821a287b1a70821a307b1a68821a387b1a607b1998007b1890007b1788009517a00095188000951960951a407b1b800033003c04951138ff7b10c0007b15b8007b16b0007b17608287107b17588287187b175082957b15a800829608829b18829910985c3d976703d4c70798663d979c03d46c0298993d97bb03d4b909975c038e7b88c600017b1c70856501db7b058e978e2bdb970b82877b17488287087b1740d4920982a7107b17980082a7187b17900082a77b17800082a7087b1778db9b058dc980007b19283307ff3308ff33002c0428ddd4008217b8008218b0008219a800821aa0007b17f8007b18f0007b19e8007b1ae000951700019518e00050203e0441d3009551c0fe8210380182153001821628019511400132009511907b10687b15609515708411f08272827308827b10827718828c828a0882891082881849111849111049110849017b18387b19307b1a287b1c207b17587b1b507b134895174095182064197b124050204004fefd9551908210688215609511703200951160ff7b1098007b1590007b1688009515a0005022420477cf00827218827310827608827c01821708d87c07821910d39608d89609da8709821b18d8b307821a20d3a208d8a20ada870ad3b307d48707da790a510a554911584911504911484911407b1c607b16687b13709517609518407b12787b12387b1c307b1328502044041eff821c3082123895cc0188c701c87606d46c07887701821828c88707d88708c882026473288050224604cfc10032008217d8008218d0008219c800821ac0007b1738017b1830017b1928017b1a2001951780009518200150204a0463d100821780007b1750821788007b17487b166898673d821970979803d4870798983d821a6097a903d4980898a93d821a7897aa03d4a9099766038e7a886b0001646c7b165885b601db7a068e978e8adb970a821790007b1740d49808821798007b1738db8a068dc980003307ff3308ff50204c04bbd2007b17187b18308217688a79033307ff3308ff50204e04c8d2007b17287b1820821818d487077b17188217588379803307ff3308ff50205004a6d200821b5888b98000821a18db9a07821c20821a30d4ca0ada980a93b7ff93baff821b28939b939c85a8ff8577ff85c9ff85baff9467ff9468ff946aff9469ff821b38d29b02821940d2a903821948d29808821950d29707821660986b3f821c7897cc01d4cb0b821970989c3f976601d46c0c821668986a3f979901d4a909976601d46707d49808d4c30ad4b2097b1918017b1a10017b1808017b1700019517400195180001502052048bd0004921f8004921f0004921e8004921e000951720019518e000502054046cd000955180fe8210780182157001821668019511800132009511c0fd951b00027bb0387bb5307bb628951540028411e0641682a31882a01082ac82a4088e3a8e0bdb3a0b8e427b6c7888ca2085aa01db420ad4300cdbcb0a829b187b6b58829b107b6b508292088299828b187b6b48828b107b6b40828b087b6b3082887b6838827b18827810827c0882777b6b18027b6810027b6c08027b6700027b63707b64687b6060510aee017b69407b62487b6700017b6c08017b68100195672001956800017b6b180150205604820a826738017b67388264300182602801826c200182627895281fd82807826a68c87a09d8a90ada770a826360c8a307977a3b989b05d4ba0a97993b988805d49808c8c8087b6c107b6830d8c808c88009c89a0ad30a097b6a28d80a0ada980ad83708826970c8980898770597893bd49707988805c84707c87a0a7b6a20d87a09d84707826a3864a3c8a808c8780884271fc898087b6818510763826b30826228d42b08888801826a20d88a09826c18c99c09c98a0888ba01c9a20a95bbff4926d8004926d0004926c8007b67c0007b6be0007b6ae8007b68f0009567e0009568c0007b69f8007b64087b6050205804e8f682608264088263380182684095871fd88708826a4850225a0441c300826850c88a0ad88a08826b58c8b80898ab05978c3bd4cb0b98820597aa3b989c05d4ca0a97993b987705d49707826810c88707d88709c8900cc8ca0ad30a0cd80a08dac908c84b0bc8b808d8b809d84b0bc83202c82b0bc8b909826b307b6ba000826b287b6ba800826b207b6bb000826b187b6bb8007b6780007b6a88007b6890009567a000956880007b69980050205c0441fb826b7898b73f82696850225e04f5c800826a7097aa01d48a0a97b80150226004d4c5002853027b6828647a8897209427826358826450d4340894875207a4017b6a207b6ac0017b6c187b6cc8018267287b67d0019567e0019568c0017b6b107b6bd8017b62487b69405020620473088263e0018267e80182684095891fd8890a826b48c8ab08d8b80bdaaa0b826250c82b0b97ba3b988c05d4ca0a97883b989905d49808c838087b6848d83808c88709c8a900d37009d8700cda980c8264f8018269f001d82b08826a58c88a0a98bb0597a83bd4b80898aa05c89808d8980bc84a0ac8ba0ac88c0cd88c0bc8ab0b953301883801c88707d47308888801c89808d89809c84909826a487b6a80017b63a0017b67a8017b6088017b68b0017b6c90017b69b8019567a001956880017b6b9801502064040afa826770956a00017ba7588267607ba7508267687ba7488267787ba7408267107ba7788267287ba7708267187ba76895676001956840018269207ba96033006604951180fe7b1078017b1570017b166801951580018411e08289187b19788289107b19608289087b19708286827818827910827a08827b7b1858017b1950017b1a48017b1b40017b18b8007b19b0007b1aa8009517c0009518a0007b1ba0003300480428030728a5008267789778037b68588d8980003307ff3308ff5020680453cd007b67187b68508267788a79033307ff3308ff50206a0460cd0050226c0438c80050206e0452cd0050227004fcc100826830e0a802826838e07804826840e0b803826848e0c80a826968989b3f826860978c01d4cb0b988c3f826870978801d4c808826c7898c73f979901d4790997cc01d4c407d49209502272043cc300956700025020740481cb005022760413c30032009511e0fe7b1018017b1510017b160801951520018411e0641682ac0882ab82941895c2ff7b6c7088cc017b6b7888bb01db2c0b829c107b6c58829c0882997b69508289187b69488289107b69408289087b693882887b683082a21882a810827318827010827908827a64377b67187b67f80064077b67207b67f0007b69287b69e8007b62687b6860d42807947b7b6ae000510b7a018ecb826850888920859901dbcb098268588e8b8e4cda4b0cd4480bdab90c520c8a00826b7888b9208268709489947952099f00826730847700ff8268387b68c8007b67c0008267407b67d0008267487b67d8008267187b6798008267207b6790008267287b6788009567a000956880007b6a80005020780449058268a0008269a800826ab000826bb8009517e08477e064717b7b187b7a107b79087b789568c00050207a043bca00826b7898b73f82697050227c042ec500826a6897aa01d48a0a97b80150227e040dc20028970097b8037b68588d8980003307ff3308ff5020800448cb007b67187b68508267788a79033307ff3308ff5020820455cb00502284042dc6005020860447cb0050228804f1bf00826838e0a802826830e07804826840e0b803826848e0c80a826970989b3f826860978c01d4cb0b988c3f826868978801d4c808826c7898c73f979901d4790997cc01d4c407d4920950228a0431c1009567e00050208c0476c90050228e04a6c200320050209004409d9511e0fd951900027b90187b95107b9608951520028411e082897b19588289087b19288289107b1960828618827818827910827a0882777b18f8017b19f0017b1ae8017b17e0019517c0019518e001502092048ec8008217d8018218d001821ac8018219c0017b17507b1798017b18487b1890017b1a387b1a88019517a001951880017b19407b19800150209404ccc8821228821358821c6064678218b8018210b0018219a8018216a001d3780a7b17787b1870d87807d8c008dba708d3290b7b1968d829076434d836097b1b30dbb70964c3d3c007d4a707db78095109a200821be0018218e8018219f0017b1a10821af8017b1208017b17087b1400018217687b1728017b1620017b16188216387b1648018216407b1640017b1a78017b1970017b1868017b1b60017b1310017b1030018217487b1750018217787b1718018217707b173801951760019518400195192001951a00018216507b16580164267b1020502096048cfc821708821a10821020646282161882145882136001d8640b821868d88208821930da9b08d8030c821978821b70d8b909daac09da780951097e8217e0018218e8018219f001821af8017b1288007b148000821b687b1ba8007b16a000821b387b1bc800821b407b1bc0007b1af8007b19f0007b18e8007b17e0007b1390007b10b0008217487b17d0008217787b1798008217707b17b8009517e0009518c0009519a000951a8000821b507b1bd80050209804faf650229a0490c00032009511b07b10487b154095155050229c0483b70050209e04b1c50049111849111049011133070464184911085020a00499c5003908b4020256183f0b2003b4020240013308c0020283883307013309243300a2040a0c019511a07b10587b15507b16487b17388294188293828b828c08829a10829908d63b07ca3c06c86707d86706d63c05c86505ca9b06c867077b1730d86707d69b06c86707c85707d85706d69c05c86502ca9c05c87500d85007c827077b1740828618828210caac077b1428cab405c87508ca2907ca3605c87505caba07ca3204c847077b1a20d6ba0a7b1a08c88a0ad632087b1818c85808d8470564647b18107b1ac88a0ac85a0ad46c05d42b08d45808c87006d80605821740c87a0ac85a0a51088000d37a00d87a08db08057b16408217088218d878008ec88216287b1a088e6ad2a808d6b60a8eaad4a808821720d67c0a8eaad4a808d40800821818821a10d88a088e9a8e4cd2ca0ad6340c8eccd4ca0ad629098e99d4a909d49808d46709d4420a8e998eaad2a909821a08d49808d40807821640d45707847701520725ca3b078218387b878217307b87087b86107b8a1882105882155082164895116032005020a40449fe9511b07b10487b15409515505022a604f3b8005020a8040afc5022aa047ec00032009511a07b10587b15507b16489515605022ac0406bb005020ae04c2c4008217108218188219821a087b67107b68187b697b6a085022b00425b40032009511a07b10587b15507b16489515608411e064168289828a08828b108288187b67187b68387b6b307b6a289568207b692033075020b20476c3003908b4020256181f0b2003b4020220019517e08479e07b691064913307c00202837783993308200a09826a1082a71882a81082a90882aa6f776f886f996faa826b187bba187bb9107bb8087bb75022b40495b3003200827218827310827608827c01821708d87c07821910d39608d89609da8709821b18d8b307821a20d3a208d8a20ada870ad3b307d48707da790a510a467b1c407b16487b13509517407b12587b12387b1c307b13285020b804befe821c3082123895cc0188c701c87606d46c07887701821828c88707d88708c882026473288f5022ba0434b4003200951120ff7b10d8007b15d0007b16c8009515e0008411f0829a8284829b08828008829210828c10829318828618d30b087b1b30d80b097b1a38d84a0adb890ad36308d86309d8c20bdb890bd3c209d49808db8b0a510af100827918827810827a0882777b1780007b1a88007b1890009517a000951880007b1998007b1c287b16207b12107b13187b140864065020bc045cfe821ba800821aa000821830c8b808821238c8a202d8a209c89804d3b408d8b40cda890cc86b08821308c8a303d8a30ac8a8088210b8008219b000d3b806d8b80bda6a0b821a10c89a0a821618c80606d89a07c86707c8ac0cd8ac0ac87a0a821720c87000821728c89707d89709c80909c87b0bd87b07c897077b13407b12607b18487b14687b1b507b1c707b17589517609518407b1a783300be049511807b10787b15707b1668951580003302b6042891bf005022c00479be0032009511e0fe7b1018017b1510017b160801951520018411e08283828b08828c1082881882721895b9ff88b601883a01db960a82761082790882777b12f8007b16f0007b19e8007b17e0007b18d8007b1cd0007b1bc800d4c808948a7b13c000510a97007b1780007b1988007b1690009517a000951880007b1298005020c204e4fc5022c4044dbe005020c60432c2008217c0008218c8008219d000821bd8008212e000821ce800821af0008216f8007b1b387b19307b18287b172082177b17588217087b17508217107b17488217187b17407b16787b1a707b1c689517609518409519207b12605020c804ccfd5022ca0404bb0032005020cc049e959511b07b10487b15409515505022ce0434b5005020d004f2fe5022d204bfbc003200951120ff7b10d8007b15d0007b16c8009515e0008411f0829a8284829b08828008829210828c10829318828618d30b087b1b30d80b097b1a38d84a0adb890ad36308d86309d8c20bdb890bd3c209d49808db8b0a510adb00827918827810827a0882777b1780007b1a88007b1890009517a000951880007b1998007b1c287b16207b12107b13187b140864065020d404f1fb821ba800821aa000821830c8b808821238c8a202d8a209c89804d3b408d8b40cda890cc86b08821308c8a303d8a30ac8a8088210b8008219b000d3b806d8b80bda6a0b821a10c89a0a821618c80606d89a07c86707c8ac0cd8ac0ac87a0a821720c87000821728c89707d89709c80909c87b0bd87b07c897077b13407b12607b18487b14687b1b507b1c707b17589517609518407b1a785020d604b3ed5022d80424bc0032009511e0fe7b1018017b1510017b160801951520018411e08283828b08828c1082881882721895b9ff88b601883a01db960a82761082790882777b12f8007b16f0007b19e8007b17e0007b18d8007b1cd0007b1bc800d4c808948a7b13c000510a97007b1780007b1988007b1690009517a000951880007b1298005020da048ffa5022dc04f8bb005020de04ddbf008217c0008218c8008219d000821bd8008212e000821ce800821af0008216f8007b1b387b19307b18287b172082177b17588217087b17508217107b17488217187b17407b16787b1a707b1c689517609518409519207b12605020e004e2fd5022e204afb80032005020e40449939511b07b10487b15409515505022e604dfb2005020e804f2fe5022ea046aba003200956701887801821910c89808d48709889901821ac8a909d8a90a821b18c8ba0a7b1868017b1760017b197001951760017b1a78015020ee0455fd7b1608956802d86807821a10c87a09d8a90ada770a8216c86a0ad86a07821b18c8b7077b1758017b1a50017b194801951740017b1840015020f0046dff821708957803d87807821a10c87a09d8a90ada770ac86a0ad86a07821b18c8b7077b1738017b1a30017b192801951720017b1820015020f20432ff8218089587045022f40422b800951b00027bb8187bba107bb9087bb74921f8014921f0014921e8014921e001951700029518e0015020f60461be008217089579055022f80431b0004921f8004921f0004921e8004921e0007b1718017b1a10017b180801951700019518e0007b1900015020fa0401eb8218089587065022fc04acb7007b18d8017b1ad0017b19c8017b17c0014921b8014921b0014921a8014921a0019517c0019518a0015020fe04eabd0082170895790750220005baaf004921b8004921b0004921a8004921a0007b17d8007b1ad0007b18c8009517c0009518a0007b19c000502002058aea821708957908502204057faf004911784911704911684911607b1798007b1a90007b188800951780009518607b1980005020060554ea8217089579095022080549af004911384911304911284911207b17587b1a507b18489517409518207b194050200a0523ea50220c05dab40032008218e0017b1820821cf8017b1c388219e8017b1928821bf0017b1b30958706d88708c88906d8960ada880ac8ba0ad8ba08c88c0b7b1760017b1668017b1a700195178001951860017b1b78015020100573c1821798017b1718821788017b1710821780017b1708821790017b173306c002038367330012050a0633021405285db3005022140559b3009777206f99989920d497079888208219d39808821908d39707d48707821810d3a808821918d49808d4870788770149215801492150017b174001951740014921480133001605951140ff7b10b8007b15b0007b16a8009515c0003302d00328e8aa00821720957904d87907821a28502218057ab800821730c87a0ad87a07821b38c8b7077b1718017b1a10017b18080195172001951800017b19000150201a0565c0821820018217280182193001821a38017b1af8007b19f0007b17e8009517e0007b18e00033001c05951140ff7b10b8007b15b0007b16a8009515c000330208042864aa008217487b1798008217507b1790008217587b1788008217407b1780004921b8004921b0004921a8009517c0009518a000951980004921a00050201e05a4ba8218c0008217c8008219d000821ad8007b1a787b19707b17689517607b1860330020059511c0fd951800027b80387b85307b8628951540028411e082768278087b1810827a107b1a8277187b17187b1798017b1a90017b188801951780017b1680013300ec0428a8f5502222056fb40032005208489511d07b10287b15209515308411f03a084000023a094800023a0a5000027b18187b19107b1a081409000000006465726964187b19502026056bb9005022280516af0032000033071c50222c05afa90050202e05b7cc5022300577a800330032053302240528e6a8009567205022340560a7003200828a10828218828c08828bd42c08d4ab09d48909989920d4a808978820d4980852087a951160ff7b1098007b1590007b1688009515a0008411f0647695b7207b1710d8b707c87c087b1808d8c808da7708c8a8087b18d8a807c8270750223605c5a80050203805c8b80050223a054da80033003c05951140ff7b10b8007b15b0007b16a8009515c00033022a0528c4a80050223e059aa70032000051070c50224205cfa80032009517800050204405758b502246054aa70052075450224805c6a70050204a0569b80050224c05cfa60050204e0530ff821748821258821340821a50821810d3870bd8870c6484821918d89308dab80cc96a0bd86a0a821608c9620650225005cba60051070400821718646850205205a4ba00502254057cae00330056050a0c330258052875a7005022580571a70032005208439511d07b10287b15209515308411f03a085800023a096000027b18187b1910140800000000000073657b18086418490150205c05c1b70050225e056cad003200003307125022620505a800502064050dcb50226605cda6003300680533025a05283ca70095672050226a05b6a5003200828a10828218828c08828bd42c08d4ab09d48909989920d4a808978820d4980852087a951160ff7b1098007b1590007b1688009515a0008411f0647695b7207b1710d8b707c87c087b1808d8c808da7708c8a8087b18d8a807c8270750226c051ba70050206e051eb70050227005a3a60033007205951140ff7b10b8007b15b0007b16a8009515c00033026005281aa70050227405f0a50032000051070c5022780525a70032009517800050207a05cb8950227c05a0a50052075450227e051ca60050208005bfb6005022820525a5005020840530ff821748821258821340821a50821810d3870bd8870c6484821918d89308dab80cc96a0bd86a0a821608c962065022860521a50051070400821718646850208805fab80050228a05d2ac0033008c050a0c019511807b10787b15707b16689515800050228e054aa70052076f3a076800027b17583a077000023a087800023a098000027b17507b18489518407b19406467502090051bb60050229205c0a7005108398367203a088800023a099000027b18387b1930140800000000000000797b182895182049112050209405e4b5005022960577a70032000033073150229a0528a60050209c0530c950229e05f0a4005020a00562ff9567405022a205dfa3003200828a10828218828c08828bd42c08d4ab09d48909989920d4a808978820d4980852087a951160ff7b1098007b1590007b1688009515a0008411f0647695b7207b1710d8b707c87c087b1808d8c808da7708c8a8087b18d8a807c827075022a40544a5005020a60547b5005022a805cca4003300aa05951140ff7b10b8007b15b0007b16a8009515c000330298052843a5005022ac0519a40032000051070c5022b0054ea5003200951780005020b205f4875022b405c9a3005207545022b60545a4005020b805e8b4005022ba054ea3005020bc0530ff821748821258821340821a50821810d3870bd8870c6484821918d89308dab80cc96a0bd86a0a821608c962065022be054aa3005107040082171864685020c00523b7005022c205fbaa003300c4050a0c3302c60528f4a3005022c605f0a30032005207743a079800027b17583a07a000023a08a800023a09b000027b17507b18489518407b194064675020ca054bb4005022cc05f0a50051083e8367203a08b800023a09c000023a0ac800027b18387b19307b1a28140900000029253031209518207b19205020ce050fb4005022d005a2a50032000033073d5022d40553a4005020d6055bc75022d8051ba3003300da059511807b10787b15707b1668951580003302c80528cfa4009567405022dc05f4a1003200828a10828218828c08828bd42c08d4ab09d48909989920d4a808978820d4980852087a951160ff7b1098007b1590007b1688009515a0008411f0647695b7207b1710d8b707c87c087b1808d8c808da7708c8a8087b18d8a807c827075022de0559a3005020e0055cb3005022e205e1a2003300e405951140ff7b10b8007b15b0007b16a8009515c0003302d2052858a3005022e6052ea20032000051070c5022ea0563a3003200951780005020ec0509865022ee05dea1005207545022f0055aa2005020f205fdb2005022f40563a1005020f60530ff821748821258821340821a50821810d3870bd8870c6484821918d89308dab80cc96a0bd86a0a821608c962065022f8055fa1005107040082171864685020fa0538b5005022fc0510a9003300fe050a0c330200062809a2005022000605a2003200951160ff7b1098007b1590007b1688009515a0008411e082897b19188289087b191080861050220206ceaf00502004064fb300801734977720821838d467078219107b19488219187b19407b18587b175095176095184050200606a7b3005022080658a30032009511b07b10487b154095155050220a06e0a30050200c060eb200491118491110490132330704641849110850200e06f6b1003908b4020256183f0b2003b4020240013308c002028388330701330924330010060a0c01951160ff7b1098007b1590007b1688009515a0008411f0829a7b1a30829a087b1a28829a107b1a38829618828b828a088289108288187b17207b18107b18587b19187b19507b1a087b1a489517609518407b1b7b1b40330012063302000328b7a9006462821b28821330821778821460821970821a68d37606d87208821738d8970cdb680cd3ba00d8ab0ad84308db0a08d37909d46909db9c0851088800647a98773b972805d4780298b83b97a605d4680898393b97ba05d4a909973a058217c87a0ad87a0b821c08c8c909c8b909d3c907d8c906da7b06821c18c8c808c88606d8860bd8c808821c10c82c07c88707c8b70795a820d8a80ac8a90bd89b09daaa09c86909d8690ac8a707821a207ba87bab087ba9107ba71850221406e0a10032005020160688fe9511e87b10107b15087b16828b188294188282828c08829a088295828610829810c8ca09c82503d85305c85909d3a900d8a90ada050ac86805c85a0ad85a00c8b404d88508c84808c88000d86a05d3b008d8b00bda850bd3a606d46808d3c906d8c90cd82305db6c05db8b0552051b7b737b79087b7a107b7018821010821508821695111832005020180658ea50221a068a9f0032005207603a07d000027b17583a07d800023a08e000023a09e800027b17507b18489518407b1940646750201e06e5af00502220068aa10051082a8367203a08f000024911304911287b183895182049112050202206bdaf005022240650a1003200003307285022280601a00050202a0609c350222c06c99e0033002e069511807b10787b15707b16689515800033021c06287da00095674050223006a29d003200828a10828218828c08828bd42c08d4ab09d48909989920d4a808978820d4980852087a951160ff7b1098007b1590007b1688009515a0008411f0647695b7207b1710d8b707c87c087b1808d8c808da7708c8a8087b18d8a807c8270750223206079f00502034060aaf00502236068f9e0033003806951140ff7b10b8007b15b0007b16a8009515c0003302260628069f0050223a06dc9d0032000051070c50223e06119f0032009517800050204006b781502242068c9d0052075450224406089e0050204606abae0050224806119d0050204a0630ff821748821258821340821a50821810d3870bd8870c6484821918d89308dab80cc96a0bd86a0a821608c9620650224c060d9d0051070400821718646850204e06e6b00050225006bea400330052060a0c019511e87b10107b15087b16828910828a18828b088285d4ba0ad49508d4a808988820d4a909979920d4890952094b6478827918827a108277828808d4a70bd49808d48b0b98bb20d4a808978820d4b8085208263906b0020264585020540677b00083778358646982101082150882169511180a033200009511e0fe7b1018017b1510017b160801951520018411f082897b1910828a087b1a08828b107b1b8286187b17207b16d8007b1bd0007b1ac8009517e0009518c0007b19c00050205606cc91008217f8007b17188217f0007b17308217e8007b17288217e0007b17387b16980082177b1790008217087b1788009517a000951880008219107b19800050205806d3888212b8008214b000821aa000821ca800821738957320d8730695a0e0d8a009c89c0a95aaffd3ca07d8ca0cda790c821828c86807d88708da6608884601c96206821930c8890b9548ffc88c0cd88c08c88602d89b08821618c868087b10407b17687b13607b1b707b1a487b18787b1c509517609518407b125850205a0682fe8217207b76188218307b78108218287b78088218387b7850225c0658a700320050206006a2ac004911184911104901123307046418491108502062068aac003908b4020256183f0b2003b4020240013308c002028388330701330924330064060a0c01951140ff7b10b8007b15b0007b16a800829510829b18829c088296d4bc09d4560ad4a9097b171051091e048284188282108287828008889a01d42708d44009d49808888801d4a8087b18a000685895884068badab80a7b1648686895884068c97b1c50dac809959880007b1b587b1540d45b0bdab80ad8980994b96828958840684bda480b6878958840680cda080c95c88000d44206da680bd8c80c946cd3c908d8c906d8ba05da85068868019583ffc9c90c64499a64c95c05c9ba088e4a8e3bda3a0b7b189800888a000185aa018e5cdb5c0adb6b0a8218a000d4a808649694867b123894827b1060640b948b647c948c5208320364707b1930821798008578ff00d44809d43508d49808821710510819038217980095780164797b18a000888701c857077b1778d48707887701c847077b1768d84707c837077b17709a96ff009a6980007b162064077b102882186050206606f4ad007b1790007b1888008217388215306458646950206806b5ad007b17800082178800d487077b178800821898009a897f821628646782186050206a0690ad00821920889b8000821a8800dbba08821a60da95087b18880082189000821c8000d4c808dab70864b5821738da97087b189000646764a664a850206c0651ad00821970821c78d49c0c821ba000821968d49b0bd4cb0b93587b18800093577b179800510be5018215a00095598082173882183050206e063dad007b17207b1808821728646864595020700629ad007b177b18189a59800082173882183050207206edac00821918d49808885980007b1918821a08da9a08db58067b16608218d48707821820da9807821628db5706821738821830645950207406daac006462821360330482191893989397821a4888a901821b50c99b097b1930d4ba09889901821640c9960b7b1b28d89609821b58c99b0b7b1b2095aaff7b1a1801491138982b3f973a01d4ba0a972b018210880098093fd49b02821b30d3ab09d8ab05821618648b644cd82604db950497bb0198793fd4b9097b196098393f977701d49703970701821b900098b93fd4970797b90182168000986b3fd4b909976b018216980098603fd40b0b976501d45c0c7b1c980086bb7b1b800086997b19900086777b178800821928c93907d84707d83909821b20821860c98b0bc99b0bc97b0b99bb3f821748d27b04821c50d2bc0cd3ca07d8ca05d84200da7005821940d2b909c99306c95607d85605d89309821658d2b606c96808c99808c95808c9ca0ac90a03c942028215a000821678d46509889901821c68d89c0ac99c09885c01c9c606821c70c9ac0c9555ff7b16787b1c70d4c60a7b15a000d4950cd4ca0a84b4017b1968520adbfe2808330449113801821a900098a73f82188800978801d487078216800098683f97aa01d4a808821c980098ca3f97660197cc01d4c40c821938d49a0ad46a0bd48902d479068217102806821710017b7c7b7b087b72107b76188210b8008215b0008216a8009511c0003200330076069511b07b10487b154095155033025e0628d19900827910827a18827b088277d4ba0ad4970bd4ab0b98bb20d4a909979920d4b90952093a9511d07b10287b15209515308411f0828918828a10828b0882887b187b1b087b1a1064187b191850207806b8a70050227a06639d003200008289828218828a08828c10959b0188b901c8a909d49b0a88aa01c8ca0ad8ca0cc82c0cd4c902d4ab08d428085108107b7b7b79087b7a107b7c1832009511f87b1050207c06a2e1829818829a10829b0882997b78187b7a107b7b087b793200951160ff7b1098007b1590007b1688009515a0008411e082897b19188289087b19108289107b190882861850227e0688a4005020800609a8007b16588217087b17508217107b17488217187b1740951760951840502082066aa800502284061b98003200951110ff7b10e8007b15e0007b16d8009515f0008411f0828218828c10828b828608d42c0888ba20946a948a520a8c018298187b18488298107b18408298087b183082987b1828827918827810827a0882777b1790007b1a98007b18a0009517b000951890007b19a8007b12387b1c187b16107b1b0850208606c5e282192895971fd897086496821930c8890ad89a03649cda8803821b40c83b087b182097883b98a905d4890997aa3b987705d4a702886a2094ca821748d4b707947a8213b00094a9821cb80094a2c832027b1230d83208c88c0bc89b0b7b1b28d3cb09d8cb00da980082170895791fd87906821810c86807d88708da6608821418c8840297263b987b05d46b0b97773b989905d49707c87306d83609c89c07c8b703d3c30bd8c30cdab90c821b20821740d87b09821748c8970798bb0597793bd4b909987705821bc8008218c00094a994a7c8b707c88909d8890ac8a707c89000d8900ac87a0ad84207821938c8790998220597973bd47207989905c8b909c88707d88708c89808c87c0cd87c07c887077b16508218307b18707b13588218287b18787b1c607b1080007b17689517709518507b1a880050208806e8d3955110ff8210e8008215e0008216d8009511f0003200951180fd951900027b90787b95707b9668951580028411e064168283828908828b10828c18827818827210827a0882777b6858027b6250027b6a48027b6740027b6c487b6c18027b6b507b6b10027b69407b69080295672002956800027b63387b63000233008a063302000328f49c00956a000282a73882a83082a9287b67107b6818d478087b69208897017b689800948751079b05826720027b67289567e0019568400250208c0664a5008269e0018267e8018268f001826af80150228e068a9c0050209006bfa58262c0018263c8018264d001826ad801956c000282c95882c85082c74882cb40826c107b6c5801826c187b6c5001826c207b6c4801826c287b6c4001956c00017bca787b6470017b6368017b6260017b69707bc998007b68787bc890007b6780007bc788009567800195686001956940017b6b90007bcb800050209206f0fc826b288262208e2788b820858801db2708826c188ec7826a108ea9daa70982679800da78095109d10184bbe07b6b309517e08477e07b67880064718267707b67f8008267787b67f000826780007b67e800956700019568e000826990007b69e00050209406c4df3300492698003303330b33043302330c956800018287107b6790008287187b6780008289828a0882678800826890007b7810826880007b78187b797b7a08330920017b6990008267307b6b8000d87b07857b01944b01d4c207947b01826838c89808826a40c80a0a82695082679800c87909826748c83707520b93017b64607b62687b6c707b6378826b9000d8b80bc8ba0ad30a02d80a0cda2b0cc89c0cd89c02826b9800d8b909c89707c82707d4c809d4a707d47909989920d4c707977720d497077b60585207b7039567a000502096065ea1008267a0008269a800826ab000826bb8009518e08488e064817b8b187b8a107b89087b878267880050209806e1a300826c880082c782c80882c910957701887a01c8a80882ca18d4870b88bb01c89b0bd89b09c8a9097bc77bc8087bcb107bc91882679000957220d87208826758c88709d8790ada880a82679800c87a0ad87a08826378c8830382678000957820d8780b826760c8b704d87407dabb07826b68c8b707d8b70b826c70c8bc0c649064297b6a9800648b647228b6fe64a8d4cb07d48208d487075107e401826738957820d87807826a40c87a09d8a90ada770a826750c87a0ad87a07826b48c8b707d4a80bd49707d47b0b98bb20d4a707977720d4b7075207a6029567200150209a064da000956800018287387b6790008287307b6788008287287b67788287207b678000826b2828860182649000826328826b30d33b0b826c18d4cb0b826210826c20d42c0cd4cb0b510b2601d8480bc8ba0ad30a02d80a0cda2b0cc89c0cd89c02826b9800d8b909c89707c82707d4c809d4a707d47909989920d4c707977720d49707520718029567c00050209c06bf9f008267d8007b6790008267d0007b6780008267c8007b67788267c0007b677082672897773b9878387b6898009a8980003307ff3308ff50209e067ea3007b67687b68503307ff3308ff826998005020a0068da3007b67587b6860826750d487077b6750826798009579803307ff3308ff5020a2066aa300826b980088b98000826a50db9a08826c58826a68d4ca0ada970a93b8ff93baff826b60939b939c826770e0a707826978e0890982688000e0c80a82689000e0b80b9518e08488e064817b8b187b8a107b89087b87826788005020a4069ba1008263288262100198373f826920979801d4870798983f826a1897a901d4890998a83f972a01d48a0a9738015022a6065e990028e0004926800049167849268800492690000197bb037b6b98008db980003307ff3308ff5020a80688a2007b67587b68708267288a79033307ff3308ff5020aa0695a2007b67687b6860826858d487077b6758826798008379803307ff3308ff5020ac0672a200826b980088b98000826a58db9a07826c60826a70d4ca0ada980a93b7ff93baff939c826b68939b826878e0a80282688000e0780482688800e0b80382689000e0c80a826920989b3f826818978c01d4cb0b988c3f826810978801d4c808826c2898c73f979901d4790997cc01d4c407d492095022ae06399800956740025020b0067ea000955180fd95170002827078827570827668951180023200005020b2063974ff9511b07b10487b15409515508411f08272827308827b10827718828c828908828a108288187b18187b1a107b19087b1c7b17387b1b307b132895172064187b12205020b4068bf95022b6062b9b0032008217b8018218b0018219a801821aa0017b17187b1758017b18107b1850017b19087b1948017b1a7b1a40017b1678018217787b1770018217707b17680195176001951840018216687b1660015020ba0603dd8217607b1718018217787b1710018217707b17080195172001951800017b1600015020bc0676da821338821630821738017b1768821730017b1758821728017b1760821720017b17483300330c491170491178018217d87007821908d39c08d89c09da8709821b10821770d8b702821a18821878d3a804d8a80ada420ad3b707d44707da790a510a08019568207b1830d86807c8730a7b1a28d83a06da7706821740c876067b1620d87607821950c879097b18c0007b1ac8007b16d0009517e0009518c0007b19507b19d8007b10407b1c383300be063302000328b095008217e0008218e8008219f000821af8007b1a98007b1990007b1888007b1780008217687b17b8008217587b17b0008217607b17a8009517a000951880008216487b16a0005020c00608f8821c38821040956601886701821860c878087b18607b1648d48607887701821858c88707d88708821968c889097b1968950001880801c88c0cd4c008888801821970c89808d89809821a78c89a0a7b1a788216308213288219207b19407b17587b187028c9fe955120fe8210d8018215d0018216c8019511e0013200951140fe7b10b8017b15b0017b16a8019515c0018411e064168279187b69688279107b69708279087b69800082777b679800828a828b088289108287187b67787b6778017b6990007b6970017b6b88007b6b680195678001956860017b6a607b6a60013300c20633020003287b94009567000182799800827a9000827b8800d49a0788b801947851081f02826780017b67387b672001826798007b6740017b6b407b6b2801826780007b6748017b6a487b6a30018267707b6750017b69507b69380195674001956820018269687b6958015020c406dddc8267687b67f8008267707b67f000826780007b67e800956700019568e000826998007b69e0005020c606f6d7956800018287187b67308287107b67288287087b672082877b67183302330c49269800330382606001826738d87207826940d39c08d89c09da8709826b4882679800d8b704826a50d3a308d8a30ada840ad3b707d48707da790a510a4001950820d80807648a7b686082688800c87809d88908649b7b6968da770882679000c878087b6870d87807826978c879099517e08477e07b675864717b68b0007b6ba8007b6aa0009567c0009568a0007b69787b69b8007b6288007b6c90007b6380003300c80633020003281b93008267d0008268d8008269c000826ac800826358643b7bb7107bb8187bb97bba0882681882678800c8870282678800d87207826920826a9000c8a909c87909826a9000d39a0a826b9000d8b90bdaa70b82672882689800c88707d8870a826c3082688000c88c0cc8ca0ac87b0bd87b07c87a0a9517e08477e064717b7a187b7b107b79087b7264385020ca06bc9b0082638000826c900082628800952201882701c87c0cd4c20788770182689800c88707d88708c883038260608268687b6888008268707b6890007b6798002892fe5022cc0642970032005020ce06466fff9511b07b10487b15409515508411f08272827308827b10827718828c828908828a108288187b18187b1a107b19087b1c7b17387b1b307b132895172064187b12205020d00612fd5022d2063896003200951120ff7b10d8007b15d0007b16c8009515e0008411f0829a7b1a28829a087b1a20829a107b1a308299187b19388289828a08828b1082881864767b18187b1898007b1b7b1b90007b1a087b1a88009517a000951880007b19107b1980005020d4065cd58217b8008212a0008219b000821aa800821838d3870bd87808821730d8970cdbb80c821820d38a03d8a80a821828d82808db3a08d39707d4b707db7c0851088b008217107b17408217087b174882177b17509517609518408219187b19585020d60634d5821768821860821278821a70821b20c87b0b821328c88303d88308c88b0bd37b09d87b07da9807821830c8a808c88707d88709821c38c8c202d8a808c82808c8980833094916304916384916204916287b637b6b087b67107b68185022d806a9950032005020da0652e6951160ff7b1098007b1590007b1688009515a0005022dc060594008099107b67384916787b69707b68689568607b6a6033075020de063b98005022e0067294005020e2062d98003908b4020256183f0b2003b4020240019517e08479e07b693064913307c00202837783993308400a09826a3082a71882a81082a90882aa6f776f886f996faa826b387bba187bb9107bb8087bb75022e40607890032009511a0fe7b1058017b1550017b164801951560018411f0828c108282188283088286d42308d4c60bd48b0b98bb20d4c808978820d4b8087b17785208720182a7187b175882a7107b176082a7087b176882a77b17708297187b17488297107b17509567407b1728d86707c873087b1808d83808da77088297087b171082977b1718c8c8087b18d8c807c827077b173849213801492130014921280195182001492120014064677b1c307b12407b13205020e6062197008217087b17c8008217287b17c0008217487b17f8008217507b17f0008217107b17e8008217187b17e00082177b17d000951700019518e0009519c000821a387b1ad8005020e806d7aa821700017b1750821708017b1748821710017b1738821718017b1728956720d86708821a20c88a09d8a90ada880a821830c88a0ad88a08821b40c8b8087b1898007b1a90007b1988007b1780008217587b17b8008217607b17b0008217687b17a8009517a000951880008219707b19a0003300ea063302140228c48e008217788218287b78188218387b78108218487b78088218507b789551a0fe82105801821550018216480195116001320000956bb81082b7000182b8f80082b2e80082baf0008e798e8cdb790c8ea3882902859901dba309d48707db7c09492bc000492bb8007bb9a80095676011492bb0003300ee06951140ff7b10b8007b15b0007b16a8009515c0003302400528d485008267c000956ab8107ba780008267c8007ba7788267d0007ba77095674011956820118269d8007ba9683300f0063302000328dc8d00956bb81082b7a00082b8980082b9880082ba9000d4870788980694a89478491b60491b587bb84895670011491b503300f206951140ff7b10b8007b15b0007b16a8009515c00033027605285185008267c000956ab8107ba7208267c8007ba7188267d0007ba7109567e0109568c0108269d8007ba9083300f40633020003285a8d009567b8108278287b6818018278387b6810018278307b6808018278407b680001956aff0795aab9008267200195ab00077bb7e000826728017bb7d800826730017bb7d0009567a01095688010826938017bb9c8003300f6063302000328fa8c009567b8108277956bff0795bbb90082b8f00782b9e80782baf8075022f806d38d00492bc007492bb8077bb7a80795676010492bb0073300fa06951140ff7b10b8007b15b0007b16a8009515c0003302ae05286884008268389587f6d88708826b30c88b099599ffd3b90ad8b90bdaa80b826a2895a8ffc88b0bd88b0888aa01826c20c9ac0ac8a808d4b8088877df03949794879568ff079588b9004928a007492898077b87880795674010492890073300fc06951140ff7b10b8007b15b0007b16a8009515c0003302e80528ee83009567ff079577b900492760074927580749275007647a9567201095680010492a4807035020fe06b799956aff0795aab90095ab000782b77882b8800082b97082ba68d49808d4a707d487075207693307c002037b6718018377330000070a0601826918018297088198108299502202077f85009569ff079599b90049292007492940074929380749293007330b03959c00077bcb287bc8187bc7109567ff079577e1079568ff079588c1077bca0850200407a7e033074926f8004926f0004926e8004926e00050220607198d00956aff0795aab9008267380195ab00067bb7c800826730017bb7d000826728017bb7d8009567ff079577a1079568ff0795888107826920017bb9e000330008073302000328168b00956aff0795aab90095ab000682b7f00082b8e80082b9f80082aa000750220a077983005108f900826718017b67e001826738017b670002826710017b67e801826730017b670802826700017b67f001826728017b671002826708017b67f80195672002956800029569e001826a20017b6a180250200c078ae0956b000282b92082b72882b83082ba3850220e076f8a003300100733020003287a8a008267c0018268c8018269d001826ad8017b6a58017b6950017b6848017b6740018267e0007b6778018267e8007b6770018267f0007b676801956780019568600195694001826af8007b6a6001502012073de1956a000182a798007b67e00082a790007b67e80082a788007b67f00082a780007b67f80050221407208300289ffe9517e08477e07b6700016471491718491710491708490783770a0f8268000182877b6718018287107b6710018287087b6708018287187b6700019568ff079588b90049288006492878064928700649167800e1f5059589000649196800e1f5058267e0007b97a0008267e8007b9798008267f0007b979000648b9567ff07957761079568ff07958841079569ff0795992107826af8007bba880650201607a4cb956bff0795bbb90082b7c00682b8b00682b9a80682bab80650221807358a00492b6006492b58067bb748069567ff0795770107492b500633001a07951140ff7b10b8007b15b0007b16a8009515c00033023c0628c680008267c000956aff0795aab90095ab00067bb7208267c8007bb7188267d0007bb7109567ff079577e1069568ff079588c1068269d8007bb90833001c073302000328bf8800956bff0795bbb90095bc000682c92882c73082c83882ca4095bc00057bcae0007bc8d8007bc7d0009567ff079577a1069568ff07958881067bc9c80050201e0766e29568ff079588b900828700067b679800958900058297f8007b6790008297f0007b6788008297e8007b67800050222007058a00956aff0795aab9008267d80095ab00057bb788008267d0007bb790008267c8007bb798009567ff07957761069568ff07958841068269c0007bb9a000330022073302000328028800956aff0795aab90095ab000582b7b00082b8a80082b9b80082bac000502224076580005108ea01826718017b67e003826738017b670004826710017b67e803826730017b670804826700017b67f003826728017b671004826708017b67f80395672004956800049569e003826a20017b6a18045020260776dd956b000482b92082b72882b83082ba387b6ab8037b68b0037b67a8039567c0039568a0037b69a003330028073302000328558700826ac0038267c8038268d0038269d803492658034926500349264803826b787b6b40037b6978037b6870037b6768039567800395686003956940037b6a600350202a075ac9826a8003826788038268900382699803826be0007b6bf802826be8007b6bf002826bf0007b6be802826bf8007b6be0027b6918037b6810037b67080395672003956800039569e0027b6a000350202c0717e2956800038287207b67b8008287287b67b0008287307b67a8008287387b67a000826708017b679802826700017b679002826710017b678802826718017b678002826798007b67b802826790007b67b002826788007b67a8029567c0029568a00295698002826a80007b6aa00250202e0739dc956c000282c9c00082c7c80082c8d00082cad800826ba0007bcb58826ba8007bcb50826bb0007bcb48826bb8007bcb407bca787bc8707bc76895676002956840027bc96050203007b8e5956a0001502232071a7f28aefd9567ff079577b900492760054927580549275005647a9567ff07957721069568ff0795880106492a4805015020340797c9956bff0795bbb90095bc000582c96882c77082c87882ca80007bca207bc8187bc7109567ff079577e1059568ff079588c1057bc908502036079ae5956bff0795bbb90095bc000582c72882c83082c93882ca4095bc00047bcae0007bc9d8007bc8d0007bc7c800492b0005492bf804492bf0049567ff079577a1059568ff0795888105492ce8000150203807a6e59569ff079599b9004929a0044929980449298804019567ff07957761059568ff07958841054929900450203a07dac8956bff0795bbb90095bc000482c7a80082c8b00082c9b80082cac0007bca407bc9387bc8307bc728492b6004492b5804492b50049567ff07957721059568ff07958801059569ff079599e104492b480450203c07f28c9568ff079588b900828980047b6978828c78047b6c70828a70047b6a68828b68047b6b608267407b8700048267487b87f8038267507b87f0038267587b87e803958700047b79207b7c187b7a1064899567ff079577c1049568ff079588a1047b9b080450203e07eae6826760957701887801826968c89808d48709889901826a70c8a909d8a90a826b78c8ba0a956bff0795bbb900826cc0007bbcc003826cc8007bbcb803826cd0007bbcb003826cd8007bbca80395bc00037bc8d0007bc7c8007bc9d8009567ff07957781049568ff07958861047bcae00033004007951120fe7b10d8017b15d0017b16c8019515e0018411f082797b19688279087b19708279107b19788276187b166082897b1930828a087b1a38828b107b1b408287187b17507b1798017b1b90017b1a88019517a001951880017b1980013300b80633020003286b8300956aff0795aab9008267c00095ab00037bb780008267c8007bb7788267d0007bb7709567ff07957741049568ff07958821048269d8007bb968330042073302000328268300956bff0795bbb90095bc000382c9880082c7900082c8980082caa0007bca407bc8387bc7309567ff07957701049568ff079588e1037bc92850204407d1dc9567ff079577b90082724803827350038274580382706003826860958902d8890b826a68c8ba08d8a80cdabb0c826a70c8ac0cd8ac0b826a78c8ab0b7b7000037b74f8027b73f0027b72e8027b6ba000957a00037bab207b6ca8007bac187b68b0007ba810647a9567ff079577c1039568ff079588a1037b69b8007ba90803502046077fed50224807178400956aff0795aab9008267d80095ab00027bb7a8008267d0007bb7b0008267c8007bb7b8009567ff07957781039568ff07958861038269c0007bb9c00033004a073302000328148200956aff0795aab90095ab000282b7d00082b8c80082b9d80082bae00050224c07777a51087101956b000182b7187b67600582b7387b67800582b7107b67680582b7307b67880582b77b67700582b7287b67900582b7087b6778059567a005956880059569600582ba207b6a980550204e078ed78269a0058267a8058268b005826ab8057b6a38057b6830057b67280595674005956820057b6920053300500733020003286d8100956b000582b75082b85882b94882ba40d49808d4a707d487075107c600956800018287187b67a0048267b8007b67c0048287107b67a8048267b0007b67c80482877b67b0048267a8007b67d0048287087b67b8049567e0049568c0049569a004826aa0007b6ad8045020520718ef8262e0048263e8048264f0048269f80495680005828b828c08828a108287188268e0007b6858048268e8007b6850048268f0007b6848048268f8007b684004956800047b87787b8a707b8c687b8b607b8998007b6490047b6388049567800495686004956940047b62800450205407e6b4956a000150225607a6792828fe826860958703d88708826a6850225807487e826870c88a0ad88a08826b78c88b0b956cff0795ccb900826880007bc86802826888007bc870027bc78802826790007bc77802826798007bc780027bc990027bca98029567ff07957741039568ff07958821037bcba00250205a072eeb3307c002037b67b80083777b67b0000a068269b800829708819810829a6f779779206f88988820d498029877206fa8978a20d47a03988820826760957a06d87a0b826768c8b70cd87c09dabb09826770c87909d8790b826778c87b0b9567ff079577b900492740027b7b6002957b00027bb9587bbc507bba487bb8387b73300264799567ff07957701039568ff079588e1027b92280250205c07a6d482676095790750225e07467c826be000956cff0795ccb9007bcb0002826be8007bcbf801826bf0007bcbf001826bf8007bcbe80195cb00027bb7207bba187bb8109567ff079577c1029568ff079588a1027bb908502060078cdf82676095790850226207ec7b826b20956cff0795ccb9007bcbc001826b287bcbb801826b307bcbb001826b387bcba80195cb00017bb7e0007bbad8007bb8d0009567ff07957781029568ff07958861027bb9c8005020640732df82676095790950226607927b956bff0795bbb900492b8001492b7801492b7001492b680195bc00017bc7a0007bca98007bc890009567ff07957741029568ff07958821027bc9880050206807e4de8267c000956aff0795aab90095ab00017bb7408267c8007bb7388267d0007bb7309567ff07957701029568ff079588e1018269d8007bb92833006a073302000328307e956bff0795bbb90095bc000182c94882c75082c85882ca607bca7bb8f8007bb7f0009567ff079577c1019568ff079588a1017bb9e80050206c07ded79568ff079588b900958900018297087b6718018297107b67100182971864897b67080182676095780a7b68a800d87807826868c8780a7b6aa000d88a08da7708829720017b670001826770c878087b689800d87807826878c887077b6790008267b00033006e070a068269b8003302700728f87c8269b80050227007f17c95aab900492aa000826b90007babc000826b98007babb800826ba0007babb0007ba998007ba790007ba8880064ab9567ff07957781019568ff07958861019569ff0795994101826aa8007bbaa800502072076eec956bff0795bbb90082b9c80082b7d00082b8d80082bae000826c00017bbc60826c08017bbc58826c10017bbc50826c18017bbc487bba80007bb8787bb7709567ff07957721019568ff07958801017bb96850207407e8e750227607807e956aff0795aab9008267d8007ba7088267d0007ba7108267c8007ba7189567ff079577e1009568ff079588c1008269c0007ba920330078073302000328867c956aff0795aab90082a73082a82882a93882aa4050227a07f2745108d401956b000182b7187b67400782b7387b67600782b7107b67480782b7307b67680782b77b67500782b7287b67700782b7087b67580795678007956860079569400782ba207b6a780750207c0709d2826980078267880782689007826a98077b6a18077b6810077b67080795672007956800077b69000733007e073302000328e87b956b000782b73082b83882b92882ba20d49808d4a707d4870751072a018267b000330080070a06018269b80082970881981082995022820775754926b806826990007b69d806826998007b69d0068269a0007b69c8068269a8007b69c0067b68b0067b67a8069567e0069568c0069569a0067b6aa00650208407b8ea826ae0068267e8068268f0068269f806956c000182cb087b6b380682cb7b6b300682cb107b6b280682cb187b6b20067b6958067b6850067b6748069567600695684006956920067b6a40065020860735e982626006826368068264700682697806826b8006826c8806826a9006826798068268e0007b68d8058268e8007b68d0058268f0007b68c8058268f8007b68c005956800057b87f8007b8af0007b8ce8007b8be0007b6918067b6410067b630806956700069568e0059569c0057b62000650208807feae956a000150228a07be7328d6fd95670010492798f895670010492790f895680010492880f8019567ff079577a1009568ff079588810095690010492988f850208c0735be9567ff079577b90082787b6800018277f87b67f800956700108277a8f87b67f000956700108277a0f87b67e8008267b00033008e070a068269b800330290072870778269b8005022900769777b68280150229207e27f7b6718019888207b6810019567ff0795776150209407a154ff95670010827978f87b69300195670010827870f87b68200195670010827a68f87b6a080195670010827b60f87b6b380182671001956c00077bc7f000826718017bc7e800826728017bc7e0004926f807826740956c00107bc718f8826748956c00107bc710f8826750956c00107bc708f8826758956c00107bc700f8956700107b7938f8956700107b7830f8956700107b7a28f850229607ed7d956ae007956c00107bcb20f8502098072fe9956b000182b90882b730d4970782ba2082b838d4a808d47808988820d4a707977720d487075207ee0064a095670010827748f895680010828858f87b68280195680010828340f895680010828a50f8d3970bd8970c82623801d82308dab80cc90a0bc9cb04d8cb0b7b6b1801d80a0a826c3001826b2801c9cb0cc9ac0c826a1801c9ac0cc99707c98707c9230850229a075e7b520780008267e800956c00077bc7a0008267f0007bc7a8003a07f800023a090001023a0a0801023a0b1001027bc7d8007bc9d0007bcac8007bcbc0008267f8007bc7b0009569c007956aa007826700017bc7b8008267380150209c07ed81003307e011c975019511f8079511f8078210e8018215e0018216d8019511f00132000052083c9511d07b10287b15209515308411f03a081801023a092001023a0a2801027b18187b19107b1a08641849015020a007b77f5022a20763753200003307175022a607fd6f5020a80706935022aa07c66e3300ac0733029e0728366f9567205022ae07b16d3200828a10828218828c08828bd42c08d4ab09d48909989920d4a808978820d49808520875951160ff7b1098007b1590007b1688009515a0008411f0647695b7207b1710d8b707c87c087b1808d8c808da7708c8a8087b18d8a807c827075022b007176f5020b2071b7f5022b407a16e3300b607951140ff7b10b8007b15b0007b16a8009515c0003302a40728196f5022b807f06d320000951140ff7b10b8007b15b0007b16a8009515c0005022ba07e06e51070b5022bc070c6f3200951780005020be07b351ff5022c007876d5207505022c207046e5020c407a87e5022c6070f6d5020c8071fff821748821258821340821a50821810d3870bd8870c6484821918d89308dab80cc96a0bd86a0a821608c962065022ca070c6d5107040082171864685020cc07e680005022ce07be743300d0070a0c3302d20728ef6d5022d207ec6d5208379511d07b10287b15209515308411f03a083001023a093801027b18184911087b1910641849015020d407127e5022d607be7332000033070f5022da07586e5020dc0761915022de07216d3300e0073302d20728916d9567205022e2070c6c3200828a10828218828c08828bd42c08d4ab09d48909989920d4a808978820d49808520875951160ff7b1098007b1590007b1688009515a0008411f0647695b7207b1710d8b707c87c087b1808d8c808da7708c8a8087b18d8a807c827075022e407726d5020e607767d5022e807fc6c3300ea07951140ff7b10b8007b15b0007b16a8009515c0003302d80728746d5022ec074b6c320000951140ff7b10b8007b15b0007b16a8009515c0005022ee073b6d51070b5022f007676d3200951780005020f2070e50ff5022f407e26b5207505022f6075f6c5020f807037d5022fa076a6b5020fc071fff821748821258821340821a50821810d3870bd8870c6484821918d89308dab80cc96a0bd86a0a821608c962065022fe07676b51070400821718646850200008417f502202081a73330004080a0c33020608284b6c50220608486c52083c9511d07b10287b15209515308411f03a084001023a094801023a0a5001027b18187b19107b1a086418490150200808697c50220a08157232000050200e08c18f50221008816b330012083302060828f16b956720502214086c6a3200828a10828218828c08828bd42c08d4ab09d48909989920d4a808978820d4980852089300951160ff7b1098007b1590007b1688009515a0008411f0647695b7207b1710d8b707c87c087b1808d8c808da7708c8a8087b18d8a807c8270750221608d16b50201808d57b50221a085b6b33001c08951140ff7b10b8007b15b0007b16a8009515c0008411f0828a828908828b108288187b171849115849115049114833071833020c0828e86b50221e088d6a32000051070b50222208c36b320095178000502024086a4eff502226083e6a52075050222808bb6a50202a085f7b50222c08c66950202e081bff821748821258821340821a50821810d3870bd8870c6484821918d89308dab80cc96a0bd86a0a821608c9620650223008c369510704008217186468502032089d7d502234087671330036080a0c3302380828706a502238086d6a32009511a0fe7b1058017b1550017b164801951560018411f08286828c087b17609567607b1758d8670264607b1670c82c077b1750d8c70364c47b1c68da220382b77b174882b7087b174082b7107b173882b7187b173082a77b171882a7087b171082a7107b170882a7187b17828a188286108292829708829810829918c8360c7b1c28d86c0b7b1a78c8ab0b7b1b207b1a18017b1610017b1408017b1000017b1938017b1830017b17280195172001951800017b12200133003a0833024201289f7282187095872050223c088575c88b0b7b19c8007b17c00082177b17f8008217087b17f0008217107b17e8008217187b17e0007b1ad0009517e0009518c0007b1bd80033003e0833024201285272821870958740502240083875c8b8087b1898007b1a90007b1988007b1780008217307b17b8008217387b17b0008217407b17a8009517a000951880008219487b19a00033004208330214022804728217608218207b78188218287b78108218507b78088218587b789551a0fe8210580182155001821648019511600132008268f0047b18c000826b08057b1bd000826af8047b1ab800826c00057b1cc800958704d88708c88a09d8a90ada880ac8ca0ad8ca08c88b0b7b6770047b6978047b6a80049517ff07957781059518ff07958861057b6b880450204608d57eff8267a0048268a80482699804826a9004d49808d4a707d4870788770149266804492660047b6750049517ff07957741054926580450204808ebf98219c0009599018897018218b800c87808d48907887701821bc800c87b0ad8ba07821bd000c8b7077b17387b6728047b1a207b6a20047b18287b6818049517ff07957721059518ff07958801057b19307b69100450204a0893b4826748048262300482634004826a38048218d800d3870bd878078219e000d8390cdbb70c8218e800d38a07d8a80a8218f000d82808db7a08d39307d4b707db7c0849260804492600047b68f0039517ff079577e1044926f80350204c08d7fa4926280549262005492618054926100595170010837700fe0a0f956b000582b72882b81882b91082ba20821ba000d3b707821b7801d3b808d487078218a800d3a808821ab000d3a909d49808d487078877014926e8034926e0037b67d0039517ff079577c1044926d80333004e08951140ff7b10b8007b15b0007b16a8009515c00033022008289a678217c000957903d87907649a7b19708218b800c8780bd88b087b1b68da77088217c800c8870c7b1c60d87c078218d000c878087b18788217d8007b6768038217e0007b6760038217e8007b6758038217f0007b6750037b6888037b6c80037b6b78039517ff07957781049518ff07958861049519ff07959941047b6a7003502050086ddd826a9003826798038268a0038269a80349260803492600034926f8024926f0027b6928037b6820037b6718039517ff07957721049518ff07958801049519ff079599e1037b6a1003502052088b66ff956b000382b73082b83882b94082ba487b6aa8027b69a0027b6898027b6790028217a0007b67c8028217a8007b67c002821778017b67b8029517ff079577c1039518ff079588a1039519ff0795998103821ab0007b6ab0025020540800ca8267e8027b1780008267e0027b1788008267d8027b1790008267d0027b1798008217c000957a02d87a078219b80050225608e5738217c800c87909d87907821bd000c8b707821bd8007b6b2802821be0007b6b2002821be8007b6b1802821bf0007b6b10027b6748027b6940027b6838029517ff07957741039518ff07958821039519ff07959901037b6a3002502058082ddc826a50027b1a7001826758027b176801826860027b186001826968027b1958014926c8014926c0014926b8014926b0017b69e8017b68e0017b67d8019517ff079577e1029518ff079588c1029519ff079599a1027b6ad00150205a083b65ff826af0018267f8018268000282690802821b80007b6b6801821b88007b6b6001821b90007b6b5801821b98007b6b50017b6988017b6880017b6778019517ff07957781029518ff07958861029519ff07959941027b6a700150205c086cc4956b000182b7900082b8980082b9a00082baa8007bba087bb97b68f8007b67f00049262801492620014926180149261001821758017bb748821760017bb740821768017bb7389517ff07957721029518ff07958801029519ff079599e101821a70017bba3050205e0844a18217d8007b6788008217e0007b6780008217e8007b67788217f0007b67708217787b67a8008217607b67a0008217687b6798009517ff079577a1019518ff07958881019519ff0795996101821a707b6a900050206008adda826ab0008267b8008268c0008269c800330b4916284916204916184916107b69487b68407b67389517ff07957741019518ff07958821019519ff07959901017b6a3050206208d163ff8267507b1770018267587b1768018267607b1760018267687b1758018217c000957908d87907821ab800c87a08d8a80ada770a8217c800c87a0ad87a07821bd000c8b707951b00107bb7d8f8951700107b7ad0f8951700107b78c8f89517ff079577e1009518ff079588c100951a00107ba9c0f850206408a4af951700108277e0f8951800108288e8f88269826a08951b00107bba78f8951a00107ba970f8951900107b9868f8951800107b8760f895170010492798f895170010492790f895170010492788f89517ff079577a1009518ff07958881009519ff07959961492110011027951b0010492b80f81027502066086cc2951700108277a0f8951800108288a8f8951900108299b0f8951a001082aab8f8951b00107bba18f8951a00107ba910f8951900107b9808f8951800107b8700f882175801951800107b8738f882176001951800107b8730f882176801951800107b8728f89517ff079577419518ff079588219519ff07959901821a7001951b00107bba20f85020680816ad95170010827058f895170010827250f895170010827348f895170010827440f868076828958940db070968376848958840db370895878000d4020adaa709d8870c94ac8ecb8897f300857a01daca0b88b7019577ff9ab89accc9ac0a9a99f2007b1860018e8c8e76da7c06889c000185cc018ea8dba80cdbb60cd40308d4240bd4b808640b888801d4c808640694867b122801948264309483644c948452081e037b1b18018598ff00821b6001d4b808d47a0bd4b80851080503959b017b1b680188b801c8a8087b184001d4b808888801821a6001c8a8087b183001d8a808c887077b1738019a96ff009a69800064c77b1c200164087b10700150206a086a747b1760017b1850018217280182181801646950206c082c747b17580182175001d487077b175001956980821720018218700150206e080c74886980007b190801821a5001db9a08821a1801da6a087b18500182186001821a5801d4a808da970882172801da67087b1858018217200182187001646950207008c97382193001821a3801821c4001d4ac0c82166801d49606d46c0c8219080193987b18480193977b176001510cd30182166801956980821728018218180150207208ad737b1708017b18f800821720018218700164695020740895737b17187b1800019a698000821728018218180150207608567382190001d49808886980007b190001821af800da9a08821a7001db680a7b1a7001821818d4870782180801da980782182001db67087b18200182172801821818016469502078083373330c821900019398939782191001959aff7b1a00018e909500ff7b10f800821220018214f800017b1818017b1c20014921080198293f821c700197ca01d49a0a97220182135001983b3fd4b2087b182801d3a400d8a40b82160001d88602db0b0282181801978801987b3fd4b80098cb3f977701d47b0b9737018218580198863fd4670397860182184801988c3fd46c0c9787018216600198683fd4780897660182172001d476067b16600186887b18480186c87b18580186377b175001c9b407d82707d8b408c9040cc98c0cc97c0c99cc3f82171001d2c70782182801c97802d87808c98a077b17700194a8c98b07d88b08c9800882166801821a4001d4a609889901821b3001d89b03c99b09886b01c9ba0a821b3801c93b0b9566ff7b1a40017b1b3801d4ba0a7b166801d4960bd4ba0a84cc017b193001520aedfe280749210801018219580198973f82185001978801d48707821a480198a83f979901d49808821b600198b93f97aa0197bb01d4bc04821b0801d49b06d4a603d48b02d47b06017b1260017b1368017b1470018217f000951b00077bb780008217707bb7a0008217e8007bb788008217687bb7a8008217e0007bb790008217607bb7b0008217d8007bb798009517c0079518a00795198007821a787bbab80050207a08ccd4951c000782cac00082c7c80082c8d00082c9d8007bc638821b60017bcb30821b68017bcb28821b70017bcb20491c58491c50491c48491c407bc9787bc8707bc7689517600795184007951920077bca6050207c08b59a8213b0008210a800d40307821478018212a000d42408d487078877017b17700168079577406829da270968379577406848da470895878000d4200adaa709d8870c94ac8ec68897e600857a01daca068867019577ff9a689accc9ac0a9a99e5007b1868018e8c8e7b7b175801da7c0b8eac7b19600188980001858901dbac09db6b09640b821c7001d4c9096420949064b6949664479497643c949c520928036448821960018599ff00821b6801d4b90982145801d44a0bd4b90951090903821c600195cb017b1b700188b901c8a9097b194801d4b909889901821a6801c8a9097b193801d8a909c894077b1740019ac6ff009a698000643750207e08fd6f7b1768017b1858018217a8008218a000646950208008bf6f7b17600182175801d487077b1758019569808217b00082187801502082089f6f886a80007b1a300182195801dba9088219a000da69087b1858018218680182196001d49808daa7088217a800da67087b1860018217b000821878016469502084085c6f82193801821a4001821c4801d4ac0c82167001d49606d46c0c8219300193987b18500193977b176801510cdd014921100100e1f505821670019569808217a8008218a00050208608386f7b1730017b1820018217b00082187801646950208808206f7b1718017b1828019a6980008217a8008218a00050208a08e06e82192801d49808886980007b192801821a2001da9a08821a7801db680a7b1a780182181801d4870782183001da98078218b000db67087b18b0008217a8008218a000646950208c08bc6e330c8219280193989397821a100195a9ff7b1908018ea09500ff7b1000018212b00082140001017b1820017b1c28014921180198293f821c780197ca01d49a0a97220182135801983b3fd4b2087b183001d3a400d8a40b82160801d88602db0b0282182001978801987b3fd4b80098cb3f977701d47b0b9737018218600198863fd4670397860182185001988c3fd46c0c9787018216680198683fd4780897660182172801d476067b16680186887b18500186c87b18600186377b175801c9b407d82707d8b408c9040cc98c0cc97c0c99cc3f82171001d2c70782183001c97802d87808c98a077b17780194a8c98b07d88b08c9800882167001821a4801d4a609889901821b3801d89b03c99b09886b01c9ba0a821b4001c93b0b9566ff7b1a48017b1b4001d4ba0a7b167001d4960bd4ba0a84cc017b193801520aedfe280749211801018219600198973f82185801978801d47802821a500198a83f979901d49808821b680198b93f97aa0197bb01d4bc0c821b1801d4b909d4a907d48b06d42b00017b1748017b1c50017b1658018217c0009579077b197801d879078218b800c8780a7b1a7001d88a06da77068217c800c876067b166801d876078218d000c8780b7b1b6001951c00067bc9e0007bcae8007bc6f000951700079518e0067bcbf800640650208e0805a6951b000782ba82b70882b81082b918951c00067bc69800821b58017bcb9000821b48017bcb8800821b50017bcb80007bc9b8007bc8b0007bc7a8009517c0069518a006951980067bcaa00050209008f6b8951b000682b7c00082b8c80082b9d00082bad8007bba587bb9507bb8487bb740821760017bb778821768017bb770821770017bb7689517600695184006821978017bb9605020920807c28217c00095780a7b186801d878078218b800c878097b196001d88908da77088217c800c878087b185801d878078218d000c887077b1750013306c0020383677b177001330094080a06018267088168107b167801826950229608015b951b0005492bf80082195001951c00067bc918821958017bc910821960017bc908821968017bc97bb8f0007bb7e80095172006951800069519e0057bbae0005020980841d0951b000682b92082b72882b83082ba38951b00057bbab8007bb8b0007bb7a8009517c0059518a0057bb9a00050209a0897a4951b000582b7d00082b8d80082b9c80082bac000d49808d4a707d4870752071e01821730951a00057ba7608217287ba7688217207ba77095178005951860058219387ba97850209c084ca4951b000582b9800082b7880082b8900082ba98007bba387bb8307bb72895174005951820057bb92050209e0834ba951800058286408287487b1748018287507b1740018287587b173801821770013300a0080a063302a208283d5f5022a2083a5f492bd800821950017bb9f800821958017bb9f000821960017bb9e800821968017bb9e0007bb8d0007bb7c800951700059518e0049519c0047bbac0005020a40821cf951b000582b982b70882b81082ba18821b3801951c00047bcb9800821b40017bcb9000821b48017bcb88007bc680007bcab8007bc8b0007bc7a8009517a004951880047bc9a0005020a608a5ca821770013300a8080a063302aa0828975e5022aa08945e491b38821950017bb958821958017bb950821960017bb948821968017bb9407bb8307bb7289517600495184004951920047bba205020ac0883ce951b000482ba6082b76882b87082b978821bd800951c00037bcbb800821be0007bcbb000821be8007bcba800821bf0007bcba0007bc9d8007bc8d0007bc7c8009517e0039518c0039519a0037bcac0005020ae08fbcc8212e0038217e8037b1768018218f0037b1860018219f8037b195801821b00047b1b5001821c08047b1c4801821610047b164001821a18047b1a38017b1a5803951a00037ba6507bac487bab407ba9787ba8707ba7689517800395186003951940037ba26064265020b008fa55ff951c000382ca800082c7880082c8900082c99800821b80007b1bf802821b88007b1bf002821b90007b1be802821b98007b1be0027bc9187bc8107bc70895172003951800039519e0027bca5020b20838b5951b000382b72082b82882b93082ba38951b00027bba98007bb990007bb888007bb78000821738017bb7b800821740017bb7b000821748017bb7a800821750017bb7a000821758017bb7d800821760017bb7d000821768017bb7c8009517c0029518a002951980027bb6c0005020b4080992821770013300b6080a06821978013302b80828ec5a821978015022b808e55a7b1870015022ba085e637b1760019888207b185001951760025020bc082038ff821878027b18680182167002821968027b195801821c60027b1c7801821750017b17d001821760017b17c801821770017b17c0014921d801821780007b17f801821788007b17f001821790007b17e801821798007b17e0018217d8007b1718028217e0007b1710028217e8007b1708028217f0007b1700027b1838027b1630027b192802951740029518200295190002951ae001951bc0017b1c20025020be0897e98210680182195801d4090782187801d46808d478089888207b167001d46707977720d487075207cc00951b000282b74882b8587b18600182b44082ba50d3970bd8970c82127801d82408dab80c82137001c93a0bc9cb06d8cb0bd83a0a821c6001c90c0cc9ac0cc9bc0cc99707c98707c92408d4c707d46809d47909d46707989920977720d497075207698217487b1780018217407b1788013a075801023a096001023a0a6801023a0b7001027b17b8017b19b0017b1aa8017b1ba0018217507b1790019519a001951a80018217587b179801821778015020c0088a65955100f89511c0f9951148065022c208795f32000052083c9511d07b10287b15209515308411f03a087801024911087b1818140800000000726f74617b1810641849015020c60862635022c8080e5932000033070c5022cc08a8535020ce08b176ff5022d00870523300d2083302c40828e0529567205022d4085b513200828a10828218828c08828bd42c08d4ab09d48909989920d4a808978820d49808520875951160ff7b1098007b1590007b1688009515a0008411f0647695b7207b1710d8b707c87c087b1808d8c808da7708c8a8087b18d8a807c827075022d608c1525020d808c5625022da084b523300dc08951140ff7b10b8007b15b0007b16a8009515c0003302ca0828c3525022de089a5132000051070b5022e208d0523200951780005020e4087735ff5022e6084b515207505022e808c8515020ea086c625022ec08d3505020ee0839ff821748821258821340821a50821810d3870bd8870c6484821918d89308dab80cc96a0bd86a0a821608c962065022f008d0505107040082171864685020f208aa645022f40883583300f6080a0c3302f80828b4515022f808b1515208419511d07b10287b15209515308411f03a088001023a098801027b18187b1910140800000000006465767b1808641849015020fa08cd615022fc087957320000330713502200091352502002091c75ff50220409db50330006093302f808284b5195672050220809c64f3200828a10828218828c08828bd42c08d4ab09d48909989920d4a808978820d49808520875951160ff7b1098007b1590007b1688009515a0008411f0647695b7207b1710d8b707c87c087b1808d8c808da7708c8a8087b18d8a807c8270750220a092c5150200c09306150220e09b65033001009951140ff7b10b8007b15b0007b16a8009515c0003302fe08282e51502212090550320000951140ff7b10b8007b15b0007b16a8009515c00050221409f55051070b50221609215132009517800050201809c833ff50221a099c4f52075050221c09195050201e09bd6050222009244f502022091fff821748821258821340821a50821810d3870bd8870c6484821918d89308dab80cc96a0bd86a0a821608c9620650222409214f51070400821718646850202609fb6250222809d45633002a090a0c019511a07b10587b15507b16489515608411e0641695672050202c093b33ff8267387b67108267307b67088267287b678267207b67180a0b018268108269d49808826a08826918d4a909d48909989920d4a808978820d4980852084b647998772052074383977b671082671864987b690850202e0978629518f88489e07b6964918268087a988377839833090a0a0182678177826810ac870e0a0b016478987720510704008267187b6810502030093e628378816910330701330032090a0c01951140fe7b10b8017b15b0017b16a8019515c0018411e06416827a827808827910827718492658014926500149264801492640017b6738017b6930017b6828019567600195684001956920017b6a200150203409d75fff826778017b6750826770017b6748826768017b6738826760017b67403307c002037b673083777b6758330036090a060182693082970882988199106f77987a206f88978b20d4ba0a7b6a289777206f99989920d497077b67209888207b6818826840958706d88708826a3850223809fd54826848c88a0ad88a08826b50c88b0b7b69e8007b67e0007b6af000956700019568e0007b6bf80050203a09ac64ff826710018268000182691801826a0801826b18d3b707826b20d3b808d48707826828d3a808d49808d487078877014926d8004926d0007b67c0009567c0004926c80033003c09951140ff7b10b8007b15b0007b16a8009515c0003302e00828574e826740957904d87907826a3850223e09ea5b826748c87a0ad87a07826b50c8b7077b6798007b6a90007b6888009567a000956880007b69800050204009d663ff8268a0008267a8008269b000826ab8007b6a787b69707b67689567607b686050204209ecfc8267580a836880018267580a010195670001827c9800827b9000827a880082798000d4ca07d4b908d487075107538267587b69587b6a507b6b487b6c40330044090a06019517e08478e064818269407b89188269487b89108269507b8908826958502246097e50330bc00202d4790a8267305022480996580a020152070b50224a09a75a320050204c09fffc9511807b10787b15707b16689515800050224e09464e5207663a079001027b17583a079801023a08a001023a09a801027b17507b18489518407b1940646750205009185d50225209be4e5108328367203a08b001024911287b1838140800000000000073657b183095182049112050205409e85c502256097c4e32000033072a50225a092e4d50205c093770ff50225e09f64b502060096dff95674050226209e64a3200828a10828218828c08828bd42c08d4ab09d48909989920d4a808978820d49808520875951160ff7b1098007b1590007b1688009515a0008411f0647695b7207b1710d8b707c87c087b1808d8c808da7708c8a8087b18d8a807c82707502264094c4c50206609505c50226809d64b33006a09951140ff7b10b8007b15b0007b16a8009515c00033025809284e4c50226c09254b32000051070b502270095b4c32009517800050207209022fff50227409d64a52075050227609534b50207809f75b50227a095e4a50207c0939ff821748821258821340821a50821810d3870bd8870c6484821918d89308dab80cc96a0bd86a0a821608c9620650227e095b4a51070400821718646850208009355e502282090e52330084090a0c33028609283f4b502286093c4b5208379511d07b10287b15209515308411f03a08b801023a09c001027b18184911087b19106418490150208809625b50228a090e5132000033071050228e09a84b50209009b16eff50229209704a330094093302860928e04a956720502296095b493200828a10828218828c08828bd42c08d4ab09d48909989920d4a808978820d49808520875951160ff7b1098007b1590007b1688009515a0008411f0647695b7207b1710d8b707c87c087b1808d8c808da7708c8a8087b18d8a807c8270750229809c14a50209a09c55a50229c094b4a33009e09951140ff7b10b8007b15b0007b16a8009515c00033028c0928c34a5022a0099a49320000951140ff7b10b8007b15b0007b16a8009515c0005022a2098a4a51070b5022a409b64a3200951780005020a6095d2dff5022a80931495207505022aa09ae495020ac09525a5022ae09b9485020b0091fff821748821258821340821a50821810d3870bd8870c6484821918d89308dab80cc96a0bd86a0a821608c962065022b209b6485107040082171864685020b409905c5022b60969503300b8090a0c01951160fd951800027b8098007b8590007b8688009515a0028411e0827a8278088279108277184921f8014921f0014921e8014921e0017b17d8017b19d0017b18c801951700029518e0019519c0017b1ac0015020ba09295aff9517000282787b1848827b187b1b588279087b1930827c107b1c50958704d88708c88906d8960ada880ac8ca0ad8ca08c88b0b7b1780017b1688017b1a90019517a001951880017b1b98015020bc09165fff8218a0018217a8018219b001821ab8017b1a78017b1970017b176801951760017b1860015020be0927f83306c0020383677b17380a067b16403a07c802033a08c002033909d002036f77987a206f86976820d4a8087b18289777206f98988820d487077b17209866207b1618821748957906d87907821630c87608d8680ada770a821750c87a0ad87a07821b58c8b7077b1738017b1a30017b18280195174001951820017b1920015020c0099c5eff821750018218400182195801821a4801821b18d3b707821b20d3b808d48707821828d3a808d49808d4870788770149211801492110017b17000195170001492108013300c209951140ff7b10b8007b15b0007b16a8009515c00033026e09284748821748957809d8780764897b1828c8760a7b1a48d86a06da7706821750c87606d87607821858c887077b17307b17d8007b16d0007b1ac8009517e0009518c0007b19c0005020c4090e948219f0007b19188218f8007b18208217e8007b1750821ae0007b1a58d48707d49a08d487078e774921b8004921b0007b17a0009517a0004921a8005020c60921fd4911784911704911684911608217307b1798007b1690008217487b178800951780009518608219287b1980005020c80938b08217380a06821720951800027b87788217187b87708217507b87688217587b8760481840491838491830491828491820821740977720987720951860029788209888203309c00202951a200297aa20d48a0a979920989b2095184002978820d4b80c3308ff3309ff0a020152071d955160fd951700028270980082759000827688009511a00232005020ca0995f65022cc09974652083c9511d07b10287b15209515308411f03a08c801023a09d001023a0ad801027b18187b19107b1a08641849015020ce09b8565022d009644c3200005020d409106aff5022d609cf453300d8093302cc09283f469567205022da09ba443200828a10828218828c08828bd42c08d4ab09d48909989920d4a808978820d4980852089300951160ff7b1098007b1590007b1688009515a0008411f0647695b7207b1710d8b707c87c087b1808d8c808da7708c8a8087b18d8a807c827075022dc091f465020de0923565022e009a9453300e209951140ff7b10b8007b15b0007b16a8009515c0008411f0828a828908828b108288187b17184911584911504911483307183302d2092836465022e409db4432000051070b5022e80911463200951780005020ea09b828ff5022ec098c445207505022ee0909455020f009ad555022f20914445020f4091bff821748821258821340821a50821810d3870bd8870c6484821918d89308dab80cc96a0bd86a0a821608c962065022f60911445107040082171864685020f809eb575022fa09c44b3300fc090a0c01828a08828b7c99828c1882881084bb00ffd4b9097b7c187b78107b7a087b7932008217821808821918821a10847700ffd467077b19387b1a307b18287b17209517409518205020000a7e565022020a9c463200951800038287387b17408287307b17688287287b17708287207b17783306c0020383673300060a0a063302080a28e64c5022080ae34c7b1a389777206f99989920d497077b17309888207b1828821878958706d88708821a7050220a0ac24a821868c88a0ad88a08821640c8860b951c00027bc9a8007bc7a0007bcab0009517c0029518a0027bcbb80050200c0a6d5aff951c000282c7d00082c8c00082c9d80082cac800821b28d3b707821b30d3b808d48707821838d3a808d49808d48707887701492c9800492c90007bc7800095178002492c880033000e0a951140ff7b10b8007b15b0007b16a8009515c0003302e609281444821778957804d87807648a7b1838821870c8780b7b1b30d88b08da7708821768c878087b1828d87807c867077b1720951900027b97587b98507b9b4895176002951840027b9a405020100a8559ff951b000282b77082b87882b96882ba60d49808d4a707d48707887701491b38491b307bb72095172002491b285020120aa3d4821978959901889701821870c88707d47908888801821a68c8a808d8a80ac86a0a7b1af8017b18f0017b17e801951700029518e0017b19e0015020140a668f951b000282b71882b882b91082ba08821c50d3c70bd87c07821648d8960cdbb70c821758d37a02d8a70a821760d88708db2a08d36907d4b707db7c084921d8014921d0017b18c0019517c0014921c8015020160ab3d549219801492190014921880149218001018217207b17b8018217287b17b0018217307b17a8019517a001951880018219387b19a0013300180a9511807b10787b15707b1668951580008411e08282108283828b18828808827c18827910827a0882777b1c587b19507b1a487b1740d4b808d42307d487078e7664179518403300fe09286053821778957905d87907821a7050221a0a0d50821768c87a0ad87a07821b40c8b707821b507b1b58017b165001821b587b1b4801821b607b1b40017b1778017b1a70017b18680195176001951840017b19600150201c0ad0aa9517200150201e0a0325ff82163801821830017b1878821928017b1970821a20017b1a688217507b17d8008217487b17d0008217587b17c8008217607b17c0007b16f8007b18f0007b19e800951700019518e0009519c0007b1ae0005020200ad942ff8219708214687b1660d46907821678d46408d47808988820d46707977720d487075207bf00821708018212180182130001821a1001d3970bd8970cd84308dab80cc96a0bc9cb00d8cb0bd86a0a821c60c9c20cc9ac0cc9bc0cc99707c98707c94308d4c707d4080ad47a0ad4070798aa20977720d4a7075207698217087b17800082177b1788003a07e001023a09e801023a0af001023a0bf801027b17b8007b19b0007b1aa8007b1ba0008217107b1790009519a000951a80008217187b17980064475020220acb529551a0fc95170003827058827550827648951160033200005208419511d07b10287b15209515308411f03a080002023a090802027b18187b1910140800000000000000737b1808641849015020260a9b505022280a474632000050202c0af363ff50222e0ab23f3300300a3302240a2822409567205022320a9d3e3200828a10828218828c08828bd42c08d4ab09d48909989920d4a808978820d4980852089300951160ff7b1098007b1590007b1688009515a0008411f0647695b7207b1710d8b707c87c087b1808d8c808da7708c8a8087b18d8a807c827075022340a02405020360a06505022380a8c3f33003a0a951140ff7b10b8007b15b0007b16a8009515c0008411f0828a828908828b108288187b171849115849115049114833071133022a0a28194050223c0abe3e32000051070b5022400af43f3200951780005020420a9b22ff5022440a6f3e5207505022460aec3e5020480a904f50224a0af73d50204c0a1bff821748821258821340821a50821810d3870bd8870c6484821918d89308dab80cc96a0bd86a0a821608c9620650224e0af43d5107040082171864685020500ace515022520aa7453300540a0a0c3302560a28d83e5022560ad53e5208469511d07b10287b15209515308411f03a081002023a091802023a0a2002027b18187b19107b1a0814090000000000656c6264187b195020580aec4e50225a0a984432000033071b50225e0a323f5020600a3b62ff5022620afa3d3300640a3302560a286a3e9567205022660ae53c3200828a10828218828c08828bd42c08d4ab09d48909989920d4a808978820d49808520875951160ff7b1098007b1590007b1688009515a0008411f0647695b7207b1710d8b707c87c087b1808d8c808da7708c8a8087b18d8a807c827075022680a4b3e50206a0a4f4e50226c0ad53d33006e0a951140ff7b10b8007b15b0007b16a8009515c00033025c0a284d3e5022700a243d32000051070b5022740a5a3e3200951780005020760a0121ff5022780ad53c52075050227a0a523d50207c0af64d50227e0a5d3c5020800a39ff821748821258821340821a50821810d3870bd8870c6484821918d89308dab80cc96a0bd86a0a821608c962065022820a5a3c5107040082171864685020840a34505022860a0d443300880a0a0c33028a0a28073d50228a0a043d32009511c87b10307b15287b1620829b828a829608828408829010828c10829918828218d364057b1608d864067b1b187b1a10d8ba087b18da5806d39208d89203d80c05da8503d30c0bd4b808da8603520342c90c08d8680bc99209c95909c9b909c96808821a08c9a40a821bc9ba0a821b18821c10c9bc0b7b7b7b7a087b78107b7918821030821528821620951138320050208c0a3487951108f8951800077b80f0007b85e8007b86e0009515f807951118fd8411e06416827a827908827810827718956bff0795bb1901492b8001492b7801492b7001492b68017b673095bc00017bc7607b68287bc8587b69187bc9509567ff079577a1029568ff07958881029569ff07959961027b6a207bca4850208e0a034dff9567ff0795771901827888017b68f0008272a0017b620001827990017b69e800827c98017b6cf800958304d88308c8890bd89b0ada880ac8ca0ad8ca08c882027b7308017b7b10017b7a180164799567ff07957741029568ff07958821027b9220015020900ad951ff956bff0795bb190195bc000182c82882c73082c93882ca407bca7bb9f8007bb7f0009567ff07957701027bb8e8005020920ae0ea8267f0009579055022940a8745956bff0795bb19017bb7c0007bbab8007bb8b0009567ff079577e1019568ff079588c1017bb9a8005020960abc879568ff07958819018287e0007b67c8008287d8007b67d0008287d0007b67d8008287c8007b67e0008267f00095780a7b68b000d878078268e800c878097b69a800d88908da77088267f800c878087b68a000d8780782680001c887077b6798003307c002037b67c00083777b67b8003300980a0a068269c00033029a0a28e0428269c00050229a0ad94295aa1901491a60826b98007bab8000826ba0007bab78826ba8007bab707ba9587ba7507ba84864ab9567ff079577a1019568ff07958881019569ff0795996101826ab0007bba6850209c0a5db2956cff0795cc190182ca880082c7900082c8980082c9a000826bc800956200107b2bf8f8826bd000956200107b2bf0f8826bd800956200107b2be8f8826be000956200107b2be0f87bc97bc8f8956800107b8708f99567ff07957721019568ff07958801019569ff079599e100956b00107bba00f950209e0ab0b09569ff0795991901829a08829710829818829920956b0010492b98f8956b0010492b90f8956b0010492b88f8956b0010492b80f8956b00107bb9b8f8956900107b98b0f8956800107b87a8f89567ff079577c1009568ff079588a1009569ff0795998100956b00107bbaa0f85020a00aaa39ff95670010827ad8f87b6a78956700108279d0f87b698000956700108277c8f87b678800956800108288c0f87b689000d4a707d49808d487078e7795680010492878f895680010492870f8956800107b8760f89567ff0795776195680010492868f83300a20a951140ff7b10b8007b15b0007b16a8009515c00033023e0a2866398267f000957a02d87a078269e8005022a40a02478267f800c87909d87907826b0001c8b707826bc8007b6bf807826bd0007b6bf007826bd8007b6be807826be0007b6be007956b00107bb718f8956700107b7910f8956700107b7808f89567ff079577219568ff079588019569e007956b00107bba00f85020a60a40af95670010827a20f895670010827728f895680010828830f895690010829938f8492698074926900749268807492680077b69b8077b68b0077b67a8079567c0079568a007956980077b6aa0075020a80a5a38ff8269d0077b6980018268d8077b6888018267c8077b679001826ac0077b6a9801d48707d49a08d487078e7749267807492670077b67600795676007492668073300aa0a951140ff7b10b8007b15b0007b16a8009515c0003302720a2838388267f0009579075022ac0ad9417b6738077b6a30077b68280795674007956820077b6920075020ae0a1e84826740078268480782695007826a58077b6ad8067b69d0067b68c8067b67c0068267787b67f806826780007b67f006826788007b67e806956700079568e0069569c006826a90007b6ae0065020b00a4482956b000782ba82b70882b81082b9184926780649267006492668064926600600e1f5057b6998067b6890067b6788069567a00695688006956960067b6a80065020b20aff81956c000682caa00082c7a80082c8b00082c9b800826b88017bcb18826b80017bcb10826b90017bcb08826b98017bcb7bc9387bc8307bc7289567400695682006956900067bca205020b40ac19a8262580682645006826048068263400668276848958940db270968076838958840db070895878000d4240adaa709d8870c94ac8eca8897fb008577019ac8c97808647b7b6a487b6c40dbca0b88b7019577ff9aba7b6a90018eaa8e7c7b678801da7a0c7b69509a97fa00887900018599018e8adb8a09dbbc09d4200ad4430bd4ba0a88aa017b6a38d4a9097b62080194927b6410019494640c949c643b949b7b6320017b6018015209250264708579ff0082679001d4790982638801d4380ad4a90951090a02950a017b6a980188a901c898087b687801d4a808888801c878087b686801d87808c838087b6870019a08ff005022b60a81435020b80a08495022ba0afe435020bc0ad6485022be0a56405020c00aca485022c20ab2395020c40abe485022c60ae33d510a5e018267980195798082671001826808015020c80ac5485022ca0a61445020cc0ab9485022ce0a60405020d00a87485022d20a5f385020d40aa148330c3304956a000182a94893989397491a3031491a28826050013302d60a2807395022d60a0439d8b90282695801db980282684001978801987b3fd4b8087b68400198cb3f977701d47b0b97070182688801988c3fd4c7077b676001978c018267800198783fd4c808977c018267900198703fd40c0c97770182694801d497077b679001d4c4077b678001d484077b67880182676001d47400c9ba07d82707d8ba0882644001c94a0cc98c0cc97c0c99c23f84273282695001c979087b685801d87908c983077b6760019438c98b07d88b08c98408826a9801826c7801d4ca09889901826b6801d89b03c99b0b88a901c99c0c82697001c9390995aaff7b6c78017b697001d4c9097b6a9801d4ba0ad4a909842c017b6b68013304520906ff280d330c4926380182605001018269880198973f970801d47802826a800198a83f979901d49808826b900198b93f97aa0197bb01d4cb0b82673801d47909d4a90cd48704d42702017b62587b64607b6c687b6b708268508887fa00857901826b48826a40daa90b88b7019574ff9ab29aaac99a0a9a83f9008e288e4cda480c8ea988380001858801dba908dbbc08826938d49808956b000182b708948782b910948982601801948082bc20948c52081b028538ff00d42808d44a0bd4b80851080a029537017b679801887801c8a8087b687801d47808888801c828087b686801d82808c848087b6870019a38ff005022d80a01415020da0a88465022dc0a7e415020de0a56465022e00ad63d5020e20a4a465022e40a32375020e60a3e465022e80a633b510a5e018267980195798082671001826808015020ea0a45465022ec0ae1415020ee0a39465022f00ae03d5020f20a07465022f40adf355020f60a2146330c3304956a000182a94893989397491a3063491a28826050013302f80a2887365022f80a8436d8b90282695801db980282684001978801987b3fd4b8087b68400198cb3f977701d47b0b97070182688801988c3fd4c7077b676001978c018267800198783fd4c808977c018267900198703fd40c0c97770182694801d497077b679001d4c4077b678001d484077b67880182676001d47400c9ba07d82707d8ba0882644001c94a0cc98c0cc97c0c99c23f84276482695001c979087b685801d87908c983077b6760019438c98b07d88b08c98408826a9801826c7801d4ca09889901826b6801d89b03c99b0b88a901c99c0c82697001c9390995aaff7b6c78017b697001d4c9097b6a9801d4ba0ad4a909842c017b6b68013304520906ff280d330c4926380182605001018269880198973f970801d48707826a800198a83f979901d49808826b900198b93f97aa0197bb01d4bc0c826b3801d4b909d4a900d48b09d4b707017b6780017b6988017b6090017b6c98014926d8054926d0054926c8059567e0059568c0054926c005025020fa0ac07dff826ae0058267e8058268f0058269f805826b80017b6b7805826b88017b6b7005826b90017b6b6805826b98017b6b60057b6998057b6890057b6788059567a00595688005956960057b6a80055020fc0aaf908267a0058268a8058269b005826ab8057b6a38057b6930057b6828057b672005492658054926500549264805956740059568200549264005025020fe0acb998267f000957809d8780764897b6878018268e800c8780a7b6a7001d88a08da77088267f800c8870b7b6b6801d87b0782680001c887077b6760017b67f8047b6bf0047b6ae804956700059568e0047b69e0045020000bd67cff956b000582ba82b70882b81082b918826b80017b6b9804826b88017b6b9004826b90017b6b8804826b98017b6b80047b69b8047b68b0047b67a8049567c0049568a004956980047b6aa0045020020bc68f8267c0048268c8048269d004826ad8047b6a58047b6950047b6848047b674004826760017b677804826768017b677004826770017b6768049567600495684004826978017b6960045020040bd3988267587b67f8038267607b67f0038267687b67e8038267707b67e003826708017b671804826710017b671004826718017b67080495672004956800049569e003826a20017b6a00045020060b45f2956800048287207b6798018287287b6790018287307b6788018287387b6780018267b8003300080b0a06018269c000829708819810829950220a0b9e3149269803826998007b69b8038269a0007b69b0038269a8007b69a8038269b0007b69a0037b6890037b6788039567c0039568a003956980037b6a800350200c0be1a6826ac0038267c8038268d0038269d803826bc8007b6b1803826bd0007b6b1003826bd8007b6b0803826be0007b6b00037b6938037b6830037b6728039567400395682003956900037b6a200350200e0b5da5956b000382ba4082b74882b85082b9584926b8024926b0024926a8024926a0024926d8024926d0024926c8024926c002956b00027bb9f8007bb8f0007bb7e8009567e0029568c0029569a0027bbae0005020100b466bff8267b8003300120b0a06019517e08478e06481956a000182a980007b891882a988007b891082a990007b890882a998005022140b6c31330bc00202d4790a8267c0005022160b83390a02015207dd018267b8003300180b0a068269c00033021a0b28d9338269c00050221a0bd2337b68880150221c0b4b3c7b6778019888207b6870019567800250201e0b0d11ff826998027b699001826890027b688001826a88027b6a6801826c80027b6c9801826770017b67f001826778017b67e801826788017b67e0014926f8018267787b671802826780007b671002826788007b670802826790007b6700028267c8007b6738028267d0007b6730028267d8007b6728028267e0007b6720027b6958027b6850027b6a4802956760029568400295692002956a0002956be0017b6c40025020200b81c2956b000182b96882b79000d4970782ba800082b89800d4a808d47808988820d4a707977720d487075207cc0064a0956b000282b76882b8787b6888018263600282ba70d3970bd8970c82629801d82308dab80cc90a0bc9cb04d8cb0b7b6b7801d80a0a826c9001826b8801c9cb0cc9ac0c826a7801c9ac0cc99707c98707c923085022220bdd3752076d826720956c00017bc7a0008267187bc7a8003a072802023a093002023a0a3802023a0b4002027bc7d8007bc9d0007bcac8007bcbc0008267287bc7b0009569c001956aa0018267307bc7b80082c798005020240b713e955100f8951120fd9511e8025022260b60383200005020280b1adc50222a0b0f3b32007b1970828a087b1a68828b107b1b608286187b177b16d8017b1bd0017b1ac8019517e0019518c0017b19c00150202e0b5878ff8217f8018218f0018219e801821ae0017b17207b1778017b18187b1870017b19107b1968017b1a087b1a60018217487b1798018217507b1790018217587b1788019517a0019518800195196001821a787b1a80015020300b494fff8217b8017b17588217b0017b17508217a8017b17488217a0017b17407b1638018217607b1730018217687b17280195174001951820018219707b1920015020320bf577ff821758017b1768821750017b17608214480182104001330c330649117049117801821708d87c07821910d39608d89609da8709821b18821770d8b702821a20821878d3a803d8a80ada320ad3b707d43707da790a510af1007b10e0007b14e8008217607b17f000951700019518e000821a687b1af8007b14387b10307b1c285020340b3377ff821a0001821708018218100182191801821b587b1b9800821b507b1b9000821b487b1b8800821b407b1b80007b19b8007b18b0007b17a8009517c0009518a000951980007b1aa0005020360b2e32ff821c288210308214388217d8007b17588217d0007b17508217c8007b17488217c0007b1740950001880701c87404d44007887701821860c88707d88708821968c889097b196895cc0188c801c88606d46c08888801821970c89808d89809821a78c89a0a7b1a787b17607b187028dffe82178218407b788218487b78088218507b78108218587b78185022380bfc3432009511d0fe7b1028017b1520017b1618019515300150223a0b383650203c0b0c0dff50223e0bcc303300400b9511e0fd951a00027ba0187ba5107ba6089515200233022c0b28ab365022420b8836d84302dab20c821848c98a0bd88a0a821630821928c96909c9a909d8cb0ac9a909c9cb0b7b1008c90707c927075022440bad355020460b530fff5022480b10343200821700018218180182190801821a1001957b0ad87b07c8790cd89c09da7709c8a909d8a907c8780a82177b17788217087b17708217107b17688217187b17607b1b80007b1c88007b1990009517a000951880009519607b1a980050204c0bdba08219a0008217a8008218b000821ab8007b1a387b18307b17289517409518207b192050204e0beffe821750821858821940821a487b67107b68187b697b6a089551c0fe8210380182153001821628019511400132005207613a074802027b17583a075002023a085802023a096002027b17507b18489518407b194064675020520bc5385022540b6b2a51082d836720491130491128140800000000000073657b18389518204911205020560b9a385022580b2e2a32000033072250225c0be02850205e0be94bff5022600ba8273300620b9511807b10787b15707b1668951580003302500b285d299567405022640b83263200828a10828218828c08828bd42c08d4ab09d48909989920d4a808978820d49808520875951160ff7b1098007b1590007b1688009515a0008411f0647695b7207b1710d8b707c87c087b1808d8c808da7708c8a8087b18d8a807c827075022660be9275020680bed3750226a0b732733006c0b951140ff7b10b8007b15b0007b16a8009515c00033025a0b28eb2750226e0bc22632000051070b5022720bf8273200951780005020740b9f0aff5022760b73265207505022780bf02650207a0b943750227c0bfb2550207e0b39ff821748821258821340821a50821810d3870bd8870c6484821918d89308dab80cc96a0bd86a0a821608c962065022800bf8255107040082171864685020820bd2395022840bab2d3300860b0a0c01951140fe7b10b8017b15b0017b16a8019515c0018411e03306c0020383677b17303300880b0a067b163833028a0b281f2f7b163850228a0b192f7b1a289777206f99989920d497077b17209886204921180149211001492100010395172001951800014921080150208c0bca3cff821730018218200182193801821a2801d36707821b20d3b808d48707821828d3a808d49808d487078877014921f8004921f0007b17e0009517e0004921e80033008e0b951140ff7b10b8007b15b0007b16a8009515c0003302700b2878264921b8004921b0004921a8009517c0009518a0004921a000025020900b6a72ff8218d0007b18188216d8008217c8007b1720821ac0007b1a28d46707d4a808d487078e7749219800492190007b17800095178000492188005020920b7fdb491158491150491148491140491178491170491160029517609518404911685020940ba38e8217300a067b1698018217187b1790018217207b1788018217287b1780014821600149215801492150014921480149214001821738977720987720951880019788209888203309c00202951a400197aa20d48a0a979920989b2095186001978820d4b80c3308ff3309ff0a020152070b5022960bb83232005020980b10d550229a0b12255208419511d07b10287b15209515308411f03a086802023a097002027b18187b1910140800000000000000737b18086418490150209c0b2e3550229e0bda2a3200005020a20b8648ff5022a40b45243300a60b33029a0b28b5249567205022a80b30233200828a10828218828c08828bd42c08d4ab09d48909989920d4a808978820d4980852089300951160ff7b1098007b1590007b1688009515a0008411f0647695b7207b1710d8b707c87c087b1808d8c808da7708c8a8087b18d8a807c827075022aa0b95245020ac0b99345022ae0b1f243300b00b951140ff7b10b8007b15b0007b16a8009515c0008411f0828a828908828b108288187b17184911584911504911483307113302a00b28ac245022b20b512332000051070b5022b60b87243200951780005020b80b2e07ff5022ba0b02235207505022bc0b7f235020be0b23345022c00b8a225020c20b1bff821748821258821340821a50821810d3870bd8870c6484821918d89308dab80cc96a0bd86a0a821608c962065022c40b87225107040082171864685020c60b61365022c80b3a2a3300ca0b0a0c3302cc0b286b235022cc0b68235208469511d07b10287b15209515308411f03a087802023a098002023a0a8802027b18187b19107b1a08140900000065636e616c64187b195020ce0b7f335022d00b2b2932000033071d5022d40bc5235020d60bce46ff5022d80b8d223300da0b3302cc0b28fd229567205022dc0b78213200828a10828218828c08828bd42c08d4ab09d48909989920d4a808978820d49808520875951160ff7b1098007b1590007b1688009515a0008411f0647695b7207b1710d8b707c87c087b1808d8c808da7708c8a8087b18d8a807c827075022de0bde225020e00be2325022e20b68223300e40b951140ff7b10b8007b15b0007b16a8009515c0003302d20b28e0225022e60bb72132000051070b5022ea0bed223200951780005020ec0b9405ff5022ee0b68215207505022f00be5215020f20b89325022f40bf0205020f60b39ff821748821258821340821a50821810d3870bd8870c6484821918d89308dab80cc96a0bd86a0a821608c962065022f80bed205107040082171864685020fa0bc7345022fc0ba0283300fe0b0a0c01951108f8951a00077ba0f0007ba5e8007ba6e0009515f807951198fa8411e06416829a7b6a8800829a087b6a8000829a107b6a788299187b697082897b69d8008289087b69d0008289107b69c8008288187b68c000827a827908827810827718956bff0795bbd900492b2004492b1804492b1004492b08047b67287bb700047b682095bc00037bc8f8007b69107bc9f0009567ff07957701059568ff079588e1049569ff079599c1047b6a187bcae8005020000c0232ff956bff0795bbd90095b700048278287b68a80082b240047b62b800827a307b6aa000827c387b6cb000958704d88708c88a09d8a90ada880ac8ca0ad8ca08c8820295b800037b87a8007b89b0007b8ab8009567ff079577a1049568ff07958881047bb2c0035020020cd536ff956bff0795bbd90095bc000382c7d80082c8e00082c9d00082cac800d49808d4a707d48707887701492ba003492b98037bc788009567ff0795776104492b90035020040cdfb18269a8009599018897018268a000c88707d47908888801826ab000c8a808d8a80a826bb800c8ba0a956bff0795bbd90095bc00037bca607bc8587bc7509567ff07957741049568ff07958821047bc9485020060c8b6cff956bff0795bbd90095bc000382c77082c86882c97882ca800064b2826cd000d3c70bd87c07826cd800d88c08dbb708826bc000d3ba07d8ab0a826cc800d89c0bdb7a0bd3c909d49707db7b0849224003492238037b2828039567ff0795770104492230035020080cc3b28267a800957802d87807648a7b6858018268a000c87809d889087b69500150220a0c522ec878087b6840018267c000956cff0795ccd9007bc7c0028267c8007bc7b8028267d0007bc7b0028267d8007bc7a8027bc8e0027bcbd8027bc9d0029567ff079577c1039568ff079588a1039569ff07959981037bcac80250200c0ce595956bff0795bbd90095bc000282cae80082c7f00082c8f80082b90003492b6002492b5802492b5002492b48027bc980007bc8787bc7709567ff07957761039568ff07958841039569ff07959921037bca6850200e0cfa1eff956bff0795bbd90095bc000282c7900082c8880082c9980082caa00064b2826c8000d3c70bd8c707826c8800d8c808dbb708826b70d3ba07d8ba0a826c78d8c90bdb7a0bd3c909d49707db7b0885870149224002492238027b2728029567ff0795770103492230023300100c951140ff7b10b8007b15b0007b16a8009515c0003302b40b28af1e8267a800957803d87807648a7b68408268a000c87809d889087b6938da77088267b000c8870b7b6b30d87b078268b800c878087b68488267c000956cff0795ccd9007bc7c0018267c8007bc7b8018267d0007bc7b0018267d8007bc7a8017bc8e0017bcbd8017bc9d0019567ff079577c1029568ff079588a1029569ff07959981027bcac8015020120c7a94956bff0795bbd90095bc000182cae80082c7f00082c8f80082b90002492b6001492b5801492b5001492b48017bc980007bc8787bc7709567ff07957761029568ff07958841029569ff07959921027bca685020140c8f1dff956bff0795bbd90095bc000182c7880082c8900082c9980082caa0007bca7bb9f8007bb8f0007bb7e8008267707bc7208267787bc718826780007bc7109567ff07957701029568ff079588e1019569ff079599c101826a88007bca085020160cf167ff9568ff079588d900958900018297407b67608297387b67688297307b6790008297287b6798003307c002037b675083777b67580a95670010837820fd8267580a01956bff0795bbd90095bc000482c75082c84882c95882ca6064b2826c9000d3c70bd8c707826c9800d8c808dbb708826b60d3ba07d8ba0a826c68d8c90bdb7a0bd3c909d49707db7b088587014922e0004922d8007b27c8009567ff079577a1014922d0003300180c951140ff7b10b8007b15b0007b16a8009515c0003302e80b28a41c8267c0009568ff079588d9007b87608267c8007b87588267d0007b87508267d8007b8748826740017b878000826748017b8778826750017b8770648b9567ff07957761019568ff07958841019569ff0795992101826a58017bba6850201a0c9a929567ff079577d900827a88007b6a5001827890007b685801827998007b694801827ba0007b6b400149074917f8956c0010492cc8f8956c0010492cc0f87b7b207b79187b7810647b9567ff07957701019568ff079588e1009569ff079599c1007bba0850201c0c9d1bff9569ff079599d900829a28829730829838829940826b70956c00107bcb78f8826b78956c00107bcb70f8826b8000956c00107bcb68f8826b8800956c00107bcb60f8956b00107bb998f8956900107b9890f8956800107b8788f89567ff079577a1009568ff07958881009569ff07959961956b00107bba80f850201e0cc8dd956700108277a0f8956800108288a8f8956900108299b0f8956a001082aab8f8956b00107bba18f8956a00107ba910f8956900107b9808f8956800107b8700f895670010492738f895670010492730f895670010492728f895670010492720f882674001956800107b8758f882674801956800107b8750f882675801956800107b8748f85022200ca227826a5001956b00107bba40f85020220c5457ff8267c0007b6798078267c8007b6790078267d0007b6788078267d8007b6780078267487b67b8078267307b67b0078267387b67a8079567c0079568a00795698007826a407b6aa0075020240cc690826ac0078267c8078268d0078269d807492638074926300749262807492620077b6958077b6850077b6748079567600795684007956920077b6a40075020260cf019ff826760077b675801826768077b675001826770077b674801826778077b6740018267a800957908d87907826aa0005022280c9d278267b000c87a0ad87a07826bb800c8b7077b67f8067b6af0067b68e806956700079568e0067b69e00650202a0cda65ff956b000782b782b80882b91082ba187b6a98067b6990067b6888067b6780064926b8064926b0064926a8069567c0069568a006956980064926f80010274926a006102750202c0ceddb8267c0068268c8068269d006826ad8067b6a38067b6930067b6828067b672006826740017b675806826748017b675006826750017b674806956760069568400695692006826a58017b6a400650202e0cb563ff826078068262700682646806826a60067b6a180168076828958940db0709684768a8958840db470895878000d4020adaa709d8870c94ac8ecb8897f300857a01daca0b88b7019577ff9ab89accc9ac0a9a93f2007b6840018e8c8e78da7c08883c000185cc018ea9dba90cdbb80c826b1801d40408d42b09d49808888801d4c80864099489956c00017bc948642994897bc950644994897bc95864bc948c520841038538ff0082694001d49808d47a09d4980851082c039539017b695801889801c8a8087b683001d4980888880182694001c898087b682001d89808c887077b6728019a38ff007b6850019a89800064b764487b6410017b6008017b6200015020300c032b7b6748017b6840018267000182680801826950015020320cc32a7b67380182674001d487077b6740018267500195798082671801826810015020340c9f2a82695001889a80007b6af000826b4001dbab08826b0801da9b087b68400182684801826b3801d4b808daa70882670001da97087b68480182671801826810015020360c5a2a826a2001826b280182693001d4b909956b000182bc58d4ac0cd4c909826af00093a87bb83893a77bb7505109ed018267580195798082670001826808015020380c3d2a7b67f0007b68e00082671801826810018269580150203a0c232a7b67087b68e800826858019a898000826700018268080150203c0ce0298269e800d49808956c000182ca5888ab80007b6be8008269e000dab90882c910dba8097bc910826808d487078268f000dab80782c818dba70864a97bc81882c782c80850203e0cbd29330c8269e800939893978269f800959aff7b6ae8008e999599ff7b69e0008264100182621801017b6800017b6c10014926f00098293f974a01d49a0397290182604001980b3fd49b0b7b6b18018269e000d3390c7b6c0801d83908826ce800d8bc02826b0801dbb80282680001978801987b3fd4b8087b680801984b3f977701d47b0b97070182684801988c3fd4c7077b674001978c018267380198783fd48c04977c018267500198703fd40c0c97770182681001d487077b67500186c77b67380186477b6748018267400186777b674001c9b907d82707d8b908826a0801c9a90cc98c0cc97c0c99c03f8267f800d2700782681801c97802d87808c983049438c98b07d88b08c98a08826a5801826c3001d4ca09889901826b2001d89b03c99b0b88a901c99c0c82692801c9390995aaff7b6c30017b692801d4c9097b6a5801d4ba0ad4a909840c017b6b20015209d9fe2809330c4926f000018269480198973f82684001978801d48707826a38015022400cbf21826bf000d4b909d4a909956a00017ba958d4b8087ba850d4b7077ba748017b6c40018267d8007b67a0058267407b67c0058267d0007b67a8058267387b67c8058267c8007b67b0058267307b67d0058267c0007b67b8059567e0059568c0059569a005826a487b6ad8055020420c528b956c000582cae00082c7e80082c8f00082c9f800826b48017bcb58826b50017bcb50826b58017bcb48826b40017bcb40492678054926700549266805492660057bc998007bc890007bc788009567800595686005956940057bca80005020440c2f51ff826a9800826368d43a0782629000826460d44208d487078877017b67580168379577406849da470968a764a09577406828da270895878000d4430adaa709d8870b94ab8ebc8897e600857a01daba0c88c7019577ff9ac89abbc9ab0a9a99e5007b6850018e8b8e78da7b088eab7b69480188990001859901dbab09dbc80982685801d49808948494839482640c948c52083403826048018508ff00826b5001d4b808d47a09d4980851081b039509017b695801889801c8a8087b683801d49808888801c8b8087b682801d8b808c887077b6730019a08ff007b6850019a89800082679800826890005020460c86267b6748017b682001826768826860826950015020480c48267b67400182672001d487077b67180182675001957980826798008268900050204a0c242682695001889a80007b6a2001826b1801dbab08826b60da9b087b68100182684801826b4001d4b808daa708826768da97087b684801826798008268900050204c0ce125826b2801826c300182693801d49c0c826a5801d4ba0ad4ca0a956b000182b92093987bb84093977bb750510af9014926f00000e1f5058267580195798082676882686050204e0cbe257b6718017b6820018267980082689000826958015020500ca4257b6700017b680801826858019a8980008267688268605020520c622582690801d4980882695801889a80007b6a0801826b2001daab08826b9000da9b087b68200182680001d4870782681801daa80782689800da98077b6718018267688268605020540c3e25330c8269080193989397826bf00095b9ff7b69e8008eb99599ff7b69e00082601001017b6800017b6c08014926f8008268180198893f826c200197ca01d49a03978901980b3fd49b0b7b6b1001826ae000d33a087b681801d83a088269e800d8b90282691801db980282680001978801987b3fd4b8087b68000198cb3f977701d47b0b97070182684801988c3fd4c7077b672001978c018267400198783fd4c808977c018267500198703fd40c0c97770182690801d497077b67500186c77b67400186877b674801826720018670c9ba07d82707d8ba0882640001c94a0cc98c0cc97c0c99c23f8267f000d2720782691001c979087b681801d87908c983077b6720019438c98b07d88b08c98408826a5801826c3801d4ca09889901826b2801d89b03c99b0b88a901c99c0c82693001c9390995aaff7b6c38017b693001d4c9097b6a5801d4ba0ad4a909842c017b6b280133045209cffe280d330c4926f80082601001018269480198973f970801d48707826a40015022560c3a1d826bf800d4b909d4a902d48b03d47b04017b6420017b6328017b6230017b6c38018267a8009579077b695801d879078268a000c8780a7b6a5001d88a085022580c0a1fc8780c7b6c40017b6900057b6a08057b6b100595672005956800057b6c180550205a0c8f5cff956b000582ba2082b72882b83082b938826b20017b6bb804826b28017b6bb004826b30017b6ba804826b38017b6ba0047b69d8047b68d0047b67c8049567e0049568c0049569a0047b6ac00450205c0c99d28267e0048268e8048269f004826af8047b6a78047b6970047b6868047b676004826740017b679804826748017b679004826750017b6788049567800495686004826958017b69800450205e0c8b78ff8267a80095780a7b685801d878078268a000c878097b695001d88908da77088267b000c878087b684801d878078268b800c887077b6740018267583300600c0a060182695082970881981082995022620c8d1149261804826940017b693804826948017b693004826950017b692804826958017b6920047b6810047b6708049567400495682004956900047b6a00045020640cd086956b000482ba4082b74882b85082b958826bc0007b6b9803826bc8007b6b9003826bd0007b6b8803826bd8007b6b80037b69b8037b68b0037b67a8039567c0039568a003956980037b6aa0035020660c4c85826ac0037b6a58018267c8037b6750018268d0037b6848018269d8037b694001492638034926300349262803492620037b6958037b6850037b6748039567600395684003956920037b6a40035020680c660eff826a6003826768038268700382697803826b707b6bd802826b787b6bd002826b80007b6bc802826b88007b6bc0027b69f8027b68f0027b67e802956700039568e0029569c0027b6ae00250206a0cc0d0956b000382b782b80882b91082ba18956b00027bba787bb9707bb8687bb76049269802492690024926880249268002956c000182c7407bb7b80082c7487bb7b00082c7507bb7a8009567a002956880029569600282ca587bbaa00050206c0c874aff82675833006e0c0a06019517e08478e064818269607b89188269687b8910826990007b8908826998005022700cb410330bc00202d4790a8267505022720ccc180a02015207d1018267583300740c0a068269503302760c2824138269505022760c1e137b6848015022780c971b7b6738019888207b6830019567400250207a0c59f0fe826958027b695001826850027b684001826a48027b6a2801826c40027b6c5801826730017b67b001826738017b67a801826748017b67a0014926b8018267707b67d8018267787b67d001826780007b67c801826788007b67c0018267c0007b67f8018267c8007b67f0018267d0007b67e8018267d8007b67e0017b6918027b6810027b6a080295672002956800029569e001956ac001956ba0017b6c000250207c0ccea1956b000182b92882b750d4970782ba4082b858d4a808d47808988820d4a707977720d487075207c70064a0956b000282b72882b8387b6848018263200282ba30d3970bd8970c82625801d82308dab80cc90a0bc9cb04d8cb0b7b6b3801d80a0a826c5001826b4801c9cb0cc9ac0c826a3801c9ac0cc99707c98707c9230850227e0c2d17520768826718956c00017bc7608267107bc7683a079002023a099802023a0aa002023a0ba802027bc798007bc990007bca88007bcb80008267207bc77095698001956a60018267287bc77882c7585020800cc61d955100f89511a0fa951168055022820cb5173200005020840c6fbb5022860c641a3200951100ff7b10f8007b15f0007b16e800951500018411f08289828a08828b108288187b17387b18307b18b8007b1b187b1bb0007b1a207b1aa8009517c0009518a0007b19287b19a0005020880c01f7fe8219c0008217c8008218d000821ad8007b1a787b18707b1768951780009518607b196050208a0cc6f1fe821898008219900082178800821680007b17107b18d48707d49608d478089888207b1908d49707977720d487075207528217287b17408217207b17488217187b17509518408217307b1758646750208c0cf71a82173882187b78188218087b78108218107b78087b76955100ff8210f8008215f0008216e800951100013200008217c8018218c0018219b801821ab0017b17487b1768017b18407b1860017b19387b19580195177001951850017b1a307b1a50015020900cd2fe821788017b1728821780017b1720821778017b171882167001821790007b172801821798007b1720018217a0007b17180195173001951810018219a8007b1910015020920ca056ff821748017b17a800821740017b17a000821738017b17980082103001330c330b33087b1608646333068214188212208217287b178000018217307b1c78d87c0a82173864bcd37b0b7b1c70d87c0cdaba0c821740d87609646a821648d3680bd86806dab9067b1a68d37a0ad4ba0adaac0651061a017b18589537207b1760d83708c884077b179000d84706da8806c826067b168800d8260782168000c876067b10d000821798007b17d8008217a0007b17e0009517f0009518d0008219a8007b19e8007b10505020940ccc1eff821760647b82198800d497077b16800082189000d46808d48707987720d49808978820d487075207ba0082170801821800018219f800821af0007b1ab0007b19b8007b18c0009518b0007b17c80064b664b75020960c231982105095000188070182189800c878087b189800d480078877018218a000c8780ad88a078218a800c878087b18a800821c7895cc0188c701821b70c87b0bd4bc07887701821868c87809d88907821858c87808646382149000821288007b1aa000649628affe8217108218085022980cdc16955110fe8210e8018215e0018216d8019511f001320000821aa0037b1a10018212b0038218a8037b18080195a4017b14b80095a7037b17f800d8a707c878097b19f000d8890cda770c95a304d8a309c8980ad88a0bda990b884901c889097b19a8008217b8037b171801d494098899017b120001c829097b199000d82909c879097b198800c8c2087b18c800d82808c878087b18c000c82b0bd82b08c88709951c00037bc3207bca287bcb3095174003951820037bc93850209c0cbc1dff951800038287487b17e8008287407b17e0008287587b17d8008287507b17d0008217100195790550229e0ca1117bb7f8007bbaf0007bb8e800951700039518e0027bb9e0005020a00cc353ff951800038287087b17b00082877b17a0008287187b1798008287107b178000821710019579065022a20c56117bb7b8007bbab0007bb8a8009517c0029518a0027bb9a0005020a40c5a1dff951c000282c7c8007b177882c7c0007b177082c7d8007b176882c7d0007b1760821710019579085022a60c730c7bc7787bca707bc86895178002951860027bc9605020a80c3053ff951c000282c788007b175882c780007b175082c798007b174882c790007b1740821710019579075022aa0c2b0c7bc7387bca307bc82895174002951820027bc9205020ac0ce852ff951800028287487b17388287407b17308287587b17288287507b1720821710019579095022ae0ce70b7b17f8017b1af0017b18e801951700029518e0017b19e0015020b00ca052ff951800028287087b171882877b17108287187b17088287107b17821718017b17b801821700017b17b001821708017b17a8019517c0019518a001821910017b19a0015020b20c8c1bff8217c8017b1718018217c0017b1710018217d8017b1708018217d0017b170001821788007b177801821790007b1770018217a8007b17680195178001951860018219b8007b1960013300b40c951110fe7b10e8017b15e0017b16d8019515f0018411f082897b19a800828a087b1aa000828b107b1b98008288187b1890007b17107b18a8017b1ba0017b1a98019517b001951890017b19900133008e0c28b351ff821788017b17b800821780017b17a800821798017b179000821790017b1788008217c0007b1738018217c8007b1730018217f0007b17280195174001951820018219f8007b1920015020b60c1bdb821748018218400182195801821a5001821b956c00017bcb10821b087bcb18821b107bcb821b187bcb08821b207b6bf000821b287b6bf800821b307b6be000821b387b6be800821b407b6bd000821b487b6bd800821b507b6bc000821b587b6bc800821b607b6bb000821b687b6bb800821b707b6ba000821b787b6ba800821b80007b6b9000821b98007b6b9800821ba0007b6b8000821bb0007b6b8800821bd0007b6b70821bd8007b6b78821be0007b6b60821be8007b6b687b6a507b69587b68407b6748821788007b6730821790007b67388217a8007b67208217b8007b6728821700017b6710821708017b6718821710017b67821718017b6708955120fc951700038270d8008275d0008276c8009511e0033200951b000282b93082b73882b84082ba487b1ae8017b18e0017b17d8019517f0019518d0017b19d0015020ba0c3866ff821708027b1728821700027b17208217f8017b17188217f0017b17104911404911383306330701017b17484921a8014921a001492198019517b0019518900149219001015020bc0cd74fff8217c8018218b0018219c001821ab801d3760b6463d86707821638d8690cdbb70c821740d3a702d87a0a821748d87808db2a08d39607d4b707db7c085208150149214801492140014921380149213001018217487b1750018217407b1758018217387b1760019517700195185001951930017b13680164367b13305020be0cb2c5821770018218780182198001821a88017b1ae8007b19e0007b18d8007b17d0008217287b1708018217207b1700018217187b17f800951710019518f0009519d000821a107b1af0005020c00c2161ff821910018217180182182001821a28017b16a8008216387b16a000821b407b1b9800821b487b1b90007b1ac8007b18c0007b17b8009517b000951890007b19b0005020c20ca26aff8217307b17687b16608217407b17589517709518508219487b19505020c40cdb6aff82168800821780007b17388217787b1740821770288ffe8217088218105022c60c8910955190fd951700028270688275608276589511700232009511f87b1033075020c80ccfe1fe9511f87b103307015020ca0cc0e1fe9511b07b10487b15409515508411f08272827308827b10827718828c828908828a108288187b18187b1a107b19087b1c7b17387b1b307b132895172064187b12205020cc0c9940ff5022ce0c6c0e3200d86708821ac88a09d8a90ada880a821808c88a0ad88a08821b10c8b808821b187bb9087bb77bba107bb818955140ff8210b8008215b0008216a8009511c0003202821818958704d88708821a10c88a09d8a90ada880ac86a0ad86a08821b08c88b0b7b19287b17207b1a309517409518207b1b383202c9a606d8cb0ac9a606c9cb0bc94707c98707c99308d467076486d4b808d47808d4b707988820977720d487073202821998008216900082178800821880007b17107b1908d497077b1818d46808d47808988820d46707977720d487073202821750821858821940821a487b67107b68187b697b6a08955160ff8210980082159000821688009511a000320282168000821988007b19821890007b1808821798007b17107b17387b18307b19289517207b16203202491170491168491160140700000000a079c3089518607b17788217183202828918828a10828b0882887b79187b7a107b7b087b7832028217087b17288217107b172082177b17309517409518208219187b19383202827810827918827a088277d4a909d4870ad49a0a98aa20d49808978820d4a8083202821750821858821940821a487b67107b68187b697b6a089551808210788215708216689511800032027b17184911784911704911602095186049116864b732028411f0827810827918827a088277d4a909d48707d4970732028411f0828a828908828b108288187b17184911584911504911483202955140ff8210b8008215b0008216a8009511c00032027b17407b18787b1b707b1968951780009518609519407b1a6032029551a082105882155082164895116032028217b8007b17188216b0008218a8007b1810821aa0007b1a088219207b19588219287b19508219307b19488219387b19407b17787b16707b1868951780009518609519407b1a603202826c1001d37c0bd87c07826c1801d88c08dbb708826b0801d3ab07d8ab0a826c0001d89c0bdb7a0bd3c909d49707db7b0832028411f0827910827a1882780882767b18187b1a08d4a807d49608d478089888207b1910d49707977720d487073202955160ff8210980082159000821688009511a0003202646482178800821898007b183882138000821a9000d3b706d8b70cd80308da680cc94a06320282a81895880188870182a910c879097ba8187ba910d4980788770182a8c88707d8870882a908c889097ba9087ba73202955180821078821570821668951180003202821710821808d487071408e0ffffff00000000d886088219189498947832028411f0491130491128491120140700000000717b484e9518207b173833073202d87907821ac000c87a08d8a80ada770a8217c800c87a0ad87a07821bd800c8b70732026f77977a206f88988820d48a0a9877206f98978920d497079888203202821918821b10821008d49b07d46008d47808988820d46707977720d487073202821818821910821a088217d4a808d4970ad48a0a98aa20d49808978820d4a80832027b67307b64389517e0847ae064a1826758d40707826850826948d49808d487079877207b6018d40808978820d48707320282694801d4980882699801889a80007b6a4801826b6001daab08826b1801da9b087b68600182684001d4870782685801daa80782682001da98077b67580182671001826808013202d4a808d4970ad48a0a98aa20d49808978820d4a80832027b899518f88488e06481330a48089519e08499e0649149191849191049190849098b770597770597992032023807b002024911584911504911487b174049117849117049116004951780009518609519404911683202d87907821a10c87a08d8a80ada770ac86a0ad86a07821b18c8b70732027b6840017b6c4801492638018268580198893f826c600197ca01d49a03978901980b3fd49b0b7b6b5001826a2801d33a087b685801d83a0882693001320282699001889a80007b6a6001826b5801dbab08826b0801da9b087b68500182688801826b8001d4b808daa70882671001da97087b688801826720018268180132028217e8007b17288217e0007b17208217f8007b17188217f0007b1710821838958720d88708821ac88a09d8a90ada880a821830c88a0ad88a08821b08c88b0b7b1a707b19687b1760951780009518609519407b1b783202828780007b171801828788007b171001828790007b170801828798007b1700018287a0007b17f8008287a8007b17f0008287b0007b17e8008287b8007b17e0008287c0007b17d8008287c8007b17d0008287d0007b17c8008287d8007b17c0008287e0007b17b8008287e8007b17b0008287f0007b17a8008287f8007b17a00032023807b002024921f8004921f0004921e8007b17e00049211801492110014921000104951700019518e0004921080132028411f08279827808827a1082771849111849111049110849017b17387b1a307b182895172064187b19203202d87907826a68c87a08d8a80ada770a826770c87a0ad87a07826b78c8b7073202d87907821a0801c87a08d8a80ada770a82170001c87a0ad87a07821b1801c8b70732028267d0008268d8008269c000826ac800826b307bb7107bb8187bb97bba08955100ff8210f8008215f0008216e80095110001320282970881981082996f77977a206f88988820d4a80832029551d08210288215209511303202821ad47a0a821940889b80007b1b821718dab70a821750da970a7b1a50821608d48606821720dab706821758da970682171082184882193832028217108218188219821a087b67107b68187b697b6a089551c08210388215308216289511403202c88a09d8a90ada880a3202d88708821a6801c88a09d8a90ada880ac86a0ad86a08821b5801c8b8083202d88708821a2001c88a09d8a90ada880a82182801c88a0ad88a08c868083202837883693307013202821790008218980082198000821a88007b67307b68387b69207b6a288217107b67108217187b67188217207b678217287b67089551e0fe8210180182151001821608019511200132028217f0007b17408216f800821900017b1948821808017b18307b18a8007b19a0007b1698007b1790008217107b17c8008217187b17c0008217207b17b8009517d0009518b00095199000821a287b1ab00032027b67a8007b6ca0007b68b0009567c0009568a00095698000956a607b64b80032028411e06476828718828910828a0882887b17387b19307b1a287b1820641795182032028411e06416828b829408828008829395ba1f7b6b5832028219780182970881981082996f77977a206f88988820d48a0a9877206f98978920d49707988820951b00043202826b5888b98000826a18db9a07826c20826a50d4ca0ada980a3308ffdab807dab80a939c826b28939b320282970881981082996f77977a206f88988820d4a8089877206f99979a20d4a707989920956aff073202826b6801826c700182697801d49c0c826a9801d4ba0ad4ca0a956b000182b96093987bb8800093977bb79000320282670882688169106f77987a206f88978b20d4ba0a32027b6ab8017b68b0017b67a8019567c0019568a0017b69a0013202828910828a18828b088288d4ba0ad4980bd4ab0b98bb20d4a909979920d4b9093202828a10828b18828c088289d4cb0bd4a908d4b808988820d4ba0a97aa20d4a80832028411e07b17308297187b17408297107b172882960882977b1738828718828910828a0882887b1798007b1990007b1a88007b188000951760951880003202821880008217880082199000821a98007b1a387b19307b17289517207b182032028217c0007b17388217c8007b17308217d0007b17288217d8007b17209517a00032029551c0fd95170002827038827530827628951140023202d48a0ad4b30b9518e08488e064817b8b107b8a187b89087b873202826c0001d3c707826c0801d3c808d4870782681001d3a808826a1801d3a909d49808d487078877013202958b019518e08488e064817b8a187b89107b87087b8b320282877b1798008287087b1790008287107b1788008287187b1780008287207b17788287287b17708287307b17688287387b17603202d87907826ae800c87a08d8a80ada770a8267f800c87a0ad87a07826b0001c8b7073202d87907821a0801c87a08d8a80ada770a82170001c87a0ad87a07821b1801c8b707951b000232024926180149261001492600014926080132028411e04921b8004921b0004921a8004921a0008317a00032028411e0492138014921300149212801492120018317200132027b67800182676001d487077b67580182679001957980826720018268180132028217387b76188218487b78108218087b78088218407b789551d0fe8210280182152001821618019511300132027b6740017b684801826898019a898000826710018268080132029551e0fe8210180182151001821608019511200132029551e0fd951700028270188275108276089511200232028411f0647649111849111049110849014911384911303202d4c707d4480ad47a0ad4470798aa20977720d4a7073202d88708821a10c88a09d8a90ada880ac86a0ad86a08821b18c8b808320297772098772097bb2098bb20978820d4b80c3308ff3309ff32028217b0008218b8008219a800821aa000d49808d4a707d487073202d88708821a68c88a09d8a90ada880ac86a0ad86a08821b783202d88708821a6801c88a09d8a90ada880a82185001c88a0ad88a083202821730018218380182192801821a2001d49808d4a707d4870732028411e06416828a7b6a30828a087b6a28828a107b6a208288187b6818829a8298083202c8b909c88909d3b90ad8b90bdaa80b3202951700078270f0008275e8008276e0009511f8073202c9430c7b1c507b1688007b1880007b10787b14707b17587b1b609517709518507b196832028411f082897b19288289087b19208289107b19188288187b18107b17389517f00032028267187b67588267207b67508267287b67483307209568408269307b6940320298a83f979901d49808826b500198b93f97aa0197bb01d4bc0c3202979801d4870798983f826a6097a901d4890998a83f32029551b082104882154095115032028217d8008218e8007b18288213d000821ae000d3670bd8670c646082144032028411f0829a7b1a78829a087b1a58829a107b1a508299187b1948828932029567ff079577419568ff079588219569ff0795990132028378836933073202c8c808c8a808d4b70ad49808d48a0a98aa20d4b808978820d4a8083202c88609d8690ada880a82182801c88a0ad88a083202955120ff8210d8008215d0008216c8009511e0003202955140fe8210b8018215b0018216a8019511c00132027b6890019a89800082672001826818013202827818827910827a0882777b18787b19707b1a687b176095172095186032028217a0007b17188217a8007b17108217b0007b17088217b8007b179517e0009518c0003202c87a08d8a80ada770a3202c87908d89809da770932027b67287b6820826818d487077b67188267588379803307ff3308ff32027b6788017b68600182671001826808018269900132023807b002024921b8004921b0004921a8007b17a0004921d8004921d0003307047b17c00032029877206f98978920d4970732027b788218187b78088218207b78108218287b781832028411f08289187b19208289107b19188289087b191082887b18083202c88a09d8a90ada880a821850c88a0ad88a083202da77088267b000c8870b7b6b4801d87b078268b80032027b6758017b68600182672001826818018269980132024917184917104917083308607b7832023908b8020251089ed1fe3307e0020383770a0d2890d1fe9511f07b10087b156489647533082064975020d00cb5037c78017c797c7a027c7b03978808d4980897aa1097bb18d4ba0ad4a8087c79057c7a047c7b067c7c07979908d4a90997bb1097cc18d4cb0bd4b909979920d489027c79097c7a087c7b0a7c7c0b979908d4a90997bb1097cc18d4cb0bd4b9097c7a0d7c7b0c7c7c0e7c780f97aa08d4ba0a97cc10978818d4c808d4a808978820d498037c78117c7a107c7b127c7c13978808d4a80897bb1097cc18d4cb0bd4b8087c7a157c7b147c7c167c791797aa08d4ba0a97cc10979918d4c909d4a909979920d4890a7c78197c79187c7b1a7c7c1b978808d4980897bb1097cc18d4cb0bd4b8087c791d7c7b1c7c7c1e7c771f979908d4b90997cc10977718d4c707d49707977720d487076f776fa86f396f2a7b5a187b59107b58087b57821008821595111032009511d87b10207b15187b161082897b19088289087b198285108286183308205020d20c6c026f686f59821a6faa821b086fbb787b18787a10787908787898bc38787c1f98bc30787c1e98bc28787c1d98bc20787c1c98bc18787c1b98bc10787c1a98bb08787b1998ab38787b1798ab30787b1698ab28787b1598ab20787b1498ab18787b1398ab10787b1298aa08787a11989a38787a0f989a30787a0e989a28787a0d989a20787a0c989a18787a0b989a10787a0a98990878790998893878790798893078790698892878790598892078790498891878790398891078790298880878780182102082151882161095112832009511807b10787b15707b1668951580008411e06476828718828910828a0882886f776f996faa6f887b18587b1a507b19487b1740491138491130491128491120480120831840831a20831b3309ff33070a08821738821830821928821a206f776f886f996faa7b6a187b69107b68087b679551808210788215708216689511800032009511a07b10587b15509515608411e08272827a08827b108277188283828908828c108288186f746fbb6faa6f276f826fcc6f996f387b17387b1a307b1b287b14207b18187b19107b1c087b12831820831a3309ff330b2033070a0e9551a08210588215509511603200951160ff7b1098007b1590007b1688009515a0008411e082ab7b1b3882ab087b1b3082ab107b1b2882aa187b1a20829a7b1a18829a087b1a10829a107b1a088299187b1964865020d40c6682186f888219086f99821a106faa821b186fbb7b1b587b1a507b19487b18408218206f888219286f99821a306faa821b386fbb7b1b787b1a707b19687b18608379836a8317403308020a07955160ff8210980082159000821688009511a00032008b7910520931c8780883881f8488e05638000001253309b40202390ab40202ae8a093d08b40202013308c002028377c88707320000849a40520a195109148d9a40d0a70acf9707cf9808d4a808320032009598c0cf870833073200849a40520a195109148d9a40cfa80ad09808d09707d4a707320032009597c0d078073308320049922425494b2a252da9944c494949694884248924214990246992244921494992244305555141952649521292042124a9d224208880808080208208082220208820410404092111111111422222222211111189888828212422222211111125242222122222224244442411119188882821844444444422221249925482a024495295a42425491a111149524a922425499224499224294929494a92244944244989888842504a0411842011492225499288888888888814828ca04a5328a52549922449494a9220489212840886923449924a4a922449922449922449924a4a92244992244992044992424444a4244952842812892449922449129224a9a024492949922449495248924892922449242549924492a424499224291554d29224489224499024491034222222222288884892244922928888880492244992244922492249922449924892244992442422222222222222822449524444348888884092244992244992244922094449342549922449922449928888404444449224294992949224222211119140c12449294992244992242949298848122991242591481425494444444444102509041111912449924444444444440291482249244924912489248924492449924492489244440089289148242649929424492229114922491445234925258a2492249144922491249248121109229248542445228988482411111181482249249188888824254912681011118124499224499224499244128892684a9224499224499224111181205030222222222288884892244922221291482091244924499224492289244992244992244992a80a20499298244992244922222222224a2291449254444424254992242222229044209248952449021111d12022220249922449922449922489241025d19424499224499224492222021111114992a42412895292241211111109148c481229a92489242291a494248944924a12498a4424892451499324298a2492249144922422222222229288489014910022518a489224494a9324298a249224914492242222222222222282884422914822104924494422911440244a1149922449699224459144922492249244444444444444441049499224499224499224494a229244c14824128944444444444492442411914824121149222222222225495292242945229128128944444444444482240964a08a46444492549224499224494a922449494a49a24422119188442412892449208988888844241289922490248988888844444492942449922425111151101111091111112122228844444444444492244944922411111111291289449148244a1211119148242222221291044912c840158d8808441181048240a0209041a08a26492a499224490a9224254992944a912449a54052924012291049912449922449442052a9ca2425491111110824499224499224498aa49224a5409224099444090402554a95a4048aa40481922449524929106892445249922449922425499224119124a5048a22021108229224220241200824902449922449920c2a1088464404a288400241205010c8205045232222492a499224499224254992a424a5242951242212910844225010119188886844449208491211221241444444449224491211492225499292444a4a44a2888844a4209041a08a464404a288400241205010c8205045939254124092544aa11445049224914a2949922449902449051a1111495249922449922429499224252925498922119188442022020549122949254952922449121125092449521228222202494a44222211111111894422914824222211148988aa49922449922489244992244992244992442410119148241211111111442222499224492a952481464444929424491249929424294992881051a02449922489240922229294402322924488888808111141444444444444444444444444a424492a49111111111111894422910802412081244992244992645081403449529224254992244952249524a940922409a44809448992a424499244042a4995242549812449922449922449915492a4144892248192288140a092944a52024552222222220225499294a494028126492981a288400482882489884010882489a49224499224494a9224492222904092244992244932a840208a081411118124499202814088609242a524a92a490a1448921208110c25d1a4a424499224294992945292942249222292444a9148249214498a084444249148444410119148241211111111111124222292249124492212918844a04a9224659224499224499292044a529424222222485524495226499224499288888840224904124922499224492222222222022949922449492289402491aa8c88884010080249922449922410044a92040295a44049924020252981222222222249448288888888882402914492442488442291880422222282484a92440211111141241289440211111141241289440211111141241289228188888820222222a248241289442291244992244912894422914814894812454422494a92249194244912499294244992242a81a44029489204922449124892241011892649929424259502814644449214491249229248441291241245a244a2482412459224459224254992922449114922114922542022221289444422222282888888884822492491882491484424222292084422499224894822229240245244922411918888084444444444444444444420222222222222222222021111111111111111119148248a48128d88882411224922424444101111912422119124529222222222222222118840922449049148242291289148241289442222222222222222222222222222222222222222222222222222489224495291449224491249922449920c2a108846442449d224499290244924090205810c0255342222121111d18888241188880822111111111191244912119124020992249041a08a22024992a40281264992a4244992a424294952204920495252028d88889424492a4992888888888844229188884422111189201289444a92244992244922222222221124092449922449922449929288882812894422222222222222824a114992248924912449229224492492481289c424499292244922492422499288882492449248922449924422499224111191220251249124494481888888888888888888082222924420229248244992882449442412a5281289442489464444921491481249229248442412498944914822512492481449495224495292242949929444225124128922128944248950202222229148248a884810092002884451449248448a28a9441249929424222222101111894444444444444424899448244a9248898888888848248a222222225244522289244992449248202251442449121149108944221109442222229148442422222290884812894444222222128148229124499244442222221029221289444422222210111111111111111111818888888888888888884824124544241a11114922449224111109222222924414111111294991241111111189442291482412894422910844208248241291482412251289444444444444444444444444444444444444444444444444444444444444444444444444444490244992a4222222922449224992244992410502d18888084411810804111149228924111109048120904092244992244932a840209a241188a40481a28840024184401008020924499224499224830a04a21111918888884644248940440411442212491249922408a4a4244992a42449922449061508441181922409092124150834812010110994a42449928888484992242581402022222222d0048a2090402010244992922449205320104d9208242484902405024912409240a0090481208192942449121111294992a424100844444444049a40110412080482244952922409640a04a211119124252922224992242945494a49895422254924812491049224910412494a92a4524a25114892244992249140a01489241091244902459214491295528a224a092411114895404912499244221148a52a91249224499224494a22228a88889424494a92244911111181888824499224491211114944444492a4489224499214492a254922512489241111111111118188882849529292242949922425489222222290a449922449922449922449922049922449058a8888888808442249922449921425a94412492481244902499224092492244952499224499224499224499224494444442022222210111145248994944a499224494a92a424292222492411111141242292244992244992244992244992242949922449922489888888884841c924092449922449922449922449924824121111114192409204925292229148442492202249922449922449924424499224499224499288888888882091244992248948222222922449498a888888888824492481244902814020499224499224499224108140111191529224495292242949924a94482429a22449258924158944241289442222828888a4244520492049024922092449120804024992244992244992248108040a2292444a92244911111181888844221191089214119124499292942422221189442491888888482412111189122429c92449922489888848442211111191482422221241a024090492a404420443493449924a92244992244992244992244992244992529224491249925252529292249594942495244992942449529024812050922410484a520225495249922429102298a4502949aa4a9202256992244992244992244990244992a4024544442a499224499224492429222222495210912449922449449224499224499224499224892489884011119192244992222222224544444404814044444444929424499224491028489240102822225249922449922449224911111149928288244992244922922449922449922449922449102822225292244952444444a4888888882010888888884892922449922409020549120802254952924444449024494a928888089224499244444490042249111111812410111111111124818888888888401288888888880892409244442482249024499204812291482449922422222288442251288a08a4242549922411111111111191248124494444441011111111111111118944221111111141444492242292444a521211119140499284109204508140130802119140494a92248988889424495212080422222222024da00802090402419224294992043205025144a024494248024805024d20084444022529499224222252922449492010888888880834812208241008044992a4244912c814084493240209092124498140124212409240a0090481208192942449121111294992a424100844444444049a40110412080482244952922409640a04a288400909212449814012424812401208348120104912110994a42449928888484992242581402022222222d0048a20904020102449929224492053201045048a8888942481409224499204022549209024251022184aa2111191922429499224494a4494244992244992444992244949922449922449922449490205494a4a4a922449922449922449929224a520504242084952209084244920d0048240244944245092922449222222254992940402818888888840132882400281409024494a9224814c81403449494a92242929499224a14095941a111129494a2222220291482412452222114444244992244992244992244992240992244981024952022182a1241a1191a42489a4244912a5a4944492a4524a89242549924a2a112989544a5594882489489124499244a42410915420221149092422494424255105924492a28848124852811249208924494992a4402995244992244932491249925492244912492249244914459124499224499224499224491249922449924492446524924812499224495992888822492292942449922449524909045a92244992242949294852928a8888942449209024499240a088884852928a24494a922222229224485292922449929414454992244992244992244992244992241195244992244992244992249124828888282249a49224292222914844242222922449a2884404222202414444244922914844222291888888882029494a89449244894444444450541589448948a46424922449924812491249922492244992440422229292148128499224494922499248924892244952512949244992244992248908442291249248922449244992489224492202111191489288249024114892449240449224492a492291a424452099244992248144222622092449124892449240449224492989442249922449922481084424890692242529499292a404812222128944118944442248241211112491482452c99224499224492249922449121111892422222222221289444422489224499224499224499224492222a28888484992284a92888888484444444452442222119148242212412211111111449224a5a24c9224912449124989a4249224498a88884444444444444a4a2291441289249124922449492a101149924892442212289024294949929424250814111129499294a44491884804111149922449922492a424499024499224499224494952924041444404922449814020443049a15292549524058a88882429499224922429499224499292924444849204128944229128222211442291489224499288884422119188882449922222a2111151294912111111111111111189444422222222924a128988888888482412118988482412898888888888888888282222021111111111119124499224499244454444444444444444441411828848244912a26824052222221249222212141111888888888888888888888888884044444444444444444444104912888888888888888888888808222222222290244a5245914824222222108188888822222222828888884044444444444444444422918888484444449244444444441011111111118188888888888888888888888808444444444444444444440491241111111111111111898888880822222222222222222222884422918888888888888888888820222222914824494482081211114544842022924492888804119124111111111111218888081111114444444492444444444404119148249248241291a4888808922449922422222222222222222222222252922429499244444444444444442211119188888888882411110922222292244992242222229148111111412022222222222222222222222282884422912812898848041111111111111149922422119188282212111111444444492222222222492222222288204912244922222222222222222282104591544a5292244992248988882489222222488288888888884812119120091211894422222222228224888888888888888820222291484444242211912445444444101189448a2492441291449288282211444444444444111111114144444424128944121191208888442211119188442449109148241245221111892022222222222291244922a2911444444444444444441011118922918888888820222222222222222222222222222288201111112222228288221111111151442288201291404444444444444444444422129188444444440411114492244992282222222292489244229248922022222284102222222222221089888868922421842415044d10041149509292244922222225499294044110111111091a111141822210240882204992942449824c81208a0449928490a482a009822022094a529224494444a4244992922008222222224123222248500482044110244992922449902908a2489024490821490541832022094a52922489888848499224254110444444a424499248d0044520481004419224294992049982208a044544444a92942425254992922429294992241111111111114982441489442222222249908888442211918848922449111151444444449224494444444420222249222222824822492491442211119108222222892492489244444404111111459244228944924444444444444422299124912492888888888888888888202222222222222222221049121111111111111111114444444444124124918888888888888888882022222222222222222222221011111111111111111111114444448a88888844221111119120222212492412111111892022a224491211119140229148441249228944444444444404111125222222222222222222124410444444444444444444444444442412898820222222a2924a2249459254222a91922425155545442489441249249288288a2022a220229188202212898824121105119148a2282212114444142422228844442291442211515054244a448c884492482289249224492489249124124551244992482489924424912491442492441423914492489248921111118988444422222212414444241289244992884810918824514a2991a422492a111529224991aaaa2822124944228924124944144444144424121144442211914422a220221249144504442282888882888808221191484422918828282a1225224644224924914412499224924492481289a228922449249244492292489248221249228a91482249244924c988884422914422918888888882284944444444444444041111912491482422124422914822914884229a44414444229128222222882489888888202222924422491291041111912422412491484414092222222222222222889244444444444444041145824422914812110922492222222222222222828888888888888888489224225220222222222222924444412449444444444444444444444404114524820822118188888888888888888888888888888888888888082212492249441249124924492449922449924884104244442222114144044d92242401a482a0090241441294a4244992888848499224254110444444448226280241822008922449499224c814045124489224842480541034412088488292942449121111294992a424088288888848d0888808121481204110044992a4244912640a8268922425902429694a9224494a4a4a9054aa5a494b26414934222252492222222222221089442221259a945292942449922049121111118888489224492222222222229224419224222222101191240932d2888848922449342949920421099aa020492248480821490a82242401240982260804418292942449121111294992a424088288888848d0044520481004419224294992049982208a0449928490a482a0090241441294a4244992888848499224254110444444448246444490a0080409822048922425499220531044232222529288888888880844499224499224222222101111111141282584504a929224499224491211111188884892244922222222222292a424499224111111412412892429222282244944229208522249922449924412224922499a888888822049921042920a82068288242849499224222222254992940441101111919224492241131481204110044992a4244912640a82682a8924a992449224098222499224144582a42449920449928888880844444492244912111111111191242549922449248948209224499244822449922411111141a4244992244992444444101121914844242249222949529224a944922448922422918888880822109148249148242222222290244992242222922449922449922449a208218488884444a22022493449921092005241d04010910425294992444444a4244992922008222222529224492468822210240882204992942449824c41104582244942084902a820688240109104252949922422225292244949100411111191a0098a409020088224495292240932054114094a924a9224499292244992244952929424490a22222222952422222291248988884802111111111149922411514444042222498a88882012444444444404111111111191482492482412218a28221144222291244544444482888888888888888888121111111111442449444444444444444444444420221111111191a4888888484444444424920822894444444444444444221111444444444444444444442022222222491111111111118904111111414444444422222222228228494404444444441011119148244a12110922222aa9249254a49424292a928894244912455511514422894412492289088220088220082212110441100441452a129120914812491249249244924824129124912489441225894822492289482489a22246924812491249324912499254a252244922a5284524894412492289088220088220082212110441100441452a129120914812491249249244924824129124912489441225894822492289482489a2224692481249124932222222224220222222222222222222828888888888880841244524924824121111118128494444444444444404111111111111111111412291484444444444441089442211d1480a222222222222222288888888888888888888209224222222222222222210d1a4884422118444d088282211441089084444444444444444222222222222222222222222824824224992289288249124894424912441129108218488884444228288081a04254952444444202222914824128944442402914824128944442210894454324992244992241191884824094444241289444444440492442291489224499224499224494a49920445444410082222494482244992244912048222229224494a92241111910822229224099224291111514242084952102449004982a00902412449441294a4244992888848499224254110444444448226280241822008922449499224c81404d1888848285122099292242244442022224992241111111111118988881088442492a488880892248924418a4422111111492209912491244d50102449124212402a081a082292a024254992888888942449521204414444444a922489044d500482044110244992922449902908a2489024490821490015044d10082292a0242549924444444a92242909822022222212344111081204419024494a922441a62088464444442a12495224128992444444241291888888480422221191482449924444444444202222229224222222882492441289882411110944449228924822892449444444104911490489888888888888888888882022222222222289888848202222228a2492244992242222222222221249892489249144444444444444444444041111111111114944444402111111514424492422222212888824492442ca881411495224912449922411111111111191884824128988448a888888041111111111252222491111110944244922121111111111111111118908222222222222222222222222222222222288884044444444229188884410111111111111118188888888482288241211111188924444444444044110111111111111111111818888a8a4924852912495884aa424922415a9542a229244228924124944444544101111414422121144442412114924228288482489522212114444449088880822918848922492941214158912112322492289482412892491249144224924894451449124922412494a12914492441291481251311249049144926444242212118988884804111111894422111111111111882492244aa9944852912495884a114922554544248944124922898888082292082212918820222249442449440411914822a544402409222222888848824844442211894422098a8a448918119148924424128944924892482291249244a228a224912491482451928824922492884492282a6224892092644444241289048988888840244944444444444444041111111111111111118148241249241289449314444444444444444410491211111111111111414444444444444444440422221289888888888808a22491241111914824222211483429492211842468244a24410491884044444444444444241211111111111111111111114492244992289288249124894424912441124942082122228948124444d0202822225292241289884420222249248188889424499224499214a424491111d188884422119108229148444444444404222222a24a2589495292242549924492249244221111111191408a44244912111111115141924824914422499224498a8892041111d188884824924892244944249148229144924812914024128944248888880844a248242241444444202291482412248948202291482412248948209224492241444444209292a48888888888404444444444444444444444448a442291888888888888888888888888882022a2489292442291482412894422918888888888442291248944229148248a44444414491211111188442291a44c4444844044444a92244992444484442211115182888888884422111189404444241289888888409224490211499224884812a50229812449494a92a4242981a09424499294444444499224499224294992a424498a88489224494a92a44444441145224992920490a42425a9242949529292244949929424899244524952925292242922224a92485292a44844224992244922499144124924494a92922449922222a2221291242949922425492a49a22401245592049054224924914a494a52922449529292244949529224499222111189442412898892244925555292921492248948529224498a8848244922128922221289882412114522914892922449924492222222222222222222222222222222220a11111121224a49929424a5244992a44492482245442429111151522929492a899224499224292949499294a444922452224924a95244449224494a2222a248442211118944222212454444244a494a92522a2929924a494a1225922449522aa994a42451442492485194524a8a888828494992a42425499292244949524444a2888824499148241245248992a4241589241249529292549148249224494a24892452224924912822a2444444898888221291889224491111514444441111514492282529294992942449929224498a884852922449892491141191a45492242925498a888892882449524a922489922449929244929424494a9222129194529224a9482452559224494a1249111151444414115192922429128944112529494992242922220a11111189525249929424494a49929448248a888892a44208154995829424499224499224499224499224499224499224499224499224499224499224495592524a92929204552949499224499224499224499224499224499224499224495292444a52559224499252495295a42489922425294955559224292595244544444a9224254952a1524a4992524a4952491111519224082161284d9224a9a49224492a2900","linkReferences":{}},"methodIdentifiers":{"accumulatedFees()":"587f5ed7","buy(uint256,uint256,uint256)":"40993b26","claimCreatorFees(uint256)":"58d5cfaf","claimFees()":"d294f093","claimWinnings(uint256)":"677bd9ff","createMarket(string,string[],uint256,uint256[])":"2aa7a9dd","emergencyWithdraw(uint256)":"5312ea8e","getMarket(uint256)":"eb44fdd3","getMarkets()":"ec2c9016","getUserShares(uint256,address)":"835dc40b","marketCount()":"ec979082","markets(uint256)":"b1283e77","owner()":"8da5cb5b","removeMarket(uint256)":"054660e6","resolveMarket(uint256,uint256)":"60557333","sell(uint256,uint256,uint256)":"d3c9727c","test()":"f8a8fd6d"},"id":0}