{"abi":[{"type":"function","name":"accumulatedFees","inputs":[],"outputs":[{"name":"","type":"uint256","internalType":"uint256"}],"stateMutability":"view"},{"type":"function","name":"buy","inputs":[{"name":"_marketId","type":"uint256","internalType":"uint256"},{"name":"_outcome","type":"uint256","internalType":"uint256"},{"name":"_amount","type":"uint256","internalType":"uint256"}],"outputs":[],"stateMutability":"payable"},{"type":"function","name":"claimFees","inputs":[],"outputs":[],"stateMutability":"nonpayable"},{"type":"function","name":"claimWinnings","inputs":[{"name":"_marketId","type":"uint256","internalType":"uint256"}],"outputs":[],"stateMutability":"nonpayable"},{"type":"function","name":"createMarket","inputs":[{"name":"_question","type":"string","internalType":"string"},{"name":"_outcomes","type":"string[]","internalType":"string[]"},{"name":"_spread","type":"uint256","internalType":"uint256"},{"name":"_initialPrices","type":"uint256[]","internalType":"uint256[]"}],"outputs":[],"stateMutability":"nonpayable"},{"type":"function","name":"emergencyWithdraw","inputs":[{"name":"_marketId","type":"uint256","internalType":"uint256"}],"outputs":[],"stateMutability":"nonpayable"},{"type":"function","name":"getMarket","inputs":[{"name":"_marketId","type":"uint256","internalType":"uint256"}],"outputs":[{"name":"question","type":"string","internalType":"string"},{"name":"outcomes","type":"string[]","internalType":"string[]"},{"name":"prices","type":"uint256[]","internalType":"uint256[]"},{"name":"resolved","type":"bool","internalType":"bool"},{"name":"winningOutcome","type":"uint256","internalType":"uint256"},{"name":"creator","type":"address","internalType":"address"},{"name":"spread","type":"uint256","internalType":"uint256"},{"name":"totalLiquidity","type":"uint256","internalType":"uint256"}],"stateMutability":"view"},{"type":"function","name":"getMarkets","inputs":[],"outputs":[{"name":"","type":"uint256[]","internalType":"uint256[]"}],"stateMutability":"view"},{"type":"function","name":"getUserShares","inputs":[{"name":"_marketId","type":"uint256","internalType":"uint256"},{"name":"_user","type":"address","internalType":"address"}],"outputs":[{"name":"","type":"uint256[]","internalType":"uint256[]"}],"stateMutability":"view"},{"type":"function","name":"marketCount","inputs":[],"outputs":[{"name":"","type":"uint256","internalType":"uint256"}],"stateMutability":"view"},{"type":"function","name":"markets","inputs":[{"name":"","type":"uint256","internalType":"uint256"}],"outputs":[{"name":"question","type":"string","internalType":"string"},{"name":"resolved","type":"bool","internalType":"bool"},{"name":"winningOutcome","type":"uint256","internalType":"uint256"},{"name":"creator","type":"address","internalType":"address"},{"name":"totalLiquidity","type":"uint256","internalType":"uint256"},{"name":"spread","type":"uint256","internalType":"uint256"}],"stateMutability":"view"},{"type":"function","name":"removeMarket","inputs":[{"name":"_marketId","type":"uint256","internalType":"uint256"}],"outputs":[],"stateMutability":"nonpayable"},{"type":"function","name":"resolveMarket","inputs":[{"name":"_marketId","type":"uint256","internalType":"uint256"},{"name":"_winningOutcome","type":"uint256","internalType":"uint256"}],"outputs":[],"stateMutability":"nonpayable"},{"type":"function","name":"sell","inputs":[{"name":"_marketId","type":"uint256","internalType":"uint256"},{"name":"_outcome","type":"uint256","internalType":"uint256"},{"name":"_shares","type":"uint256","internalType":"uint256"}],"outputs":[],"stateMutability":"nonpayable"},{"type":"function","name":"test","inputs":[],"outputs":[{"name":"","type":"uint256","internalType":"uint256"}],"stateMutability":"view"},{"type":"event","name":"MarketCreated","inputs":[{"name":"marketId","type":"uint256","indexed":true,"internalType":"uint256"},{"name":"question","type":"string","indexed":false,"internalType":"string"},{"name":"creator","type":"address","indexed":false,"internalType":"address"}],"anonymous":false},{"type":"event","name":"MarketResolved","inputs":[{"name":"marketId","type":"uint256","indexed":true,"internalType":"uint256"},{"name":"winningOutcome","type":"uint256","indexed":false,"internalType":"uint256"}],"anonymous":false},{"type":"event","name":"SharesBought","inputs":[{"name":"marketId","type":"uint256","indexed":true,"internalType":"uint256"},{"name":"outcome","type":"uint256","indexed":false,"internalType":"uint256"},{"name":"shares","type":"uint256","indexed":false,"internalType":"uint256"},{"name":"buyer","type":"address","indexed":false,"internalType":"address"}],"anonymous":false},{"type":"event","name":"SharesSold","inputs":[{"name":"marketId","type":"uint256","indexed":true,"internalType":"uint256"},{"name":"outcome","type":"uint256","indexed":false,"internalType":"uint256"},{"name":"shares","type":"uint256","indexed":false,"internalType":"uint256"},{"name":"seller","type":"address","indexed":false,"internalType":"address"}],"anonymous":false}],"bytecode":{"object":"0x50564d00005643010000000000010700c1a002c0008003826865726320796c6e4f6e616320726f74612065766f6d657220000074656b72616d6d2074656b72614d7220656220747375206465766c6f7365766f6d6572206f74747361656c2074416f6374756f203220757165722073656d206d756d6978614d6d6f6374756f20356f207265626d754e6d6f6374756f2066207473756d207365756e20686374616d20666f207265626d00007365636972706d20646165727053622065622074737531206e6565777465303120646e61203073697361622030302073746e696f70206f742025312e3028206c616974696e496d20736563697270206d7573207473756874652031206f7425303031282072658b1071a64a99fe6b16ab972a1cb3fcc4000121017267b9ddf6ac5ebf34e8b232612074656b72614d722079646165726c006465766c6f73652064696c61766e4900656d6f6374756f636572726f636e496e656d7961702074746e756f6d612074c2179fc3fc72b1221ec2c3e6be451e1e4c65e650e0bd7f2b26dbb2556daafaa465726320796c6e4f6e2074656b72614d6c6f73657220746f65726320796c6e4f6e616320726f746165766c6f73657220e442fbf2f024fc6d14bb8afa3ffab49f5b33b81f8a90ab8cf14a59b2088a123f696e6e6977206f4e657261687320676e696e6e6977206f4e657261687320676e616c69617661207386c3fcb9da84fd5b53322eb0b4455be6a62e2d6a4e632d33c52338c5c2931fd22073656566206f4e6d69616c63206f74756f6e6520746f4e65726168732068676369666675736e496e6f6320746e6569616220746361727486c3fcb9da84fd5b53322eb0b4455be6a62e2d6a4e632d33c52338c5c2931fd2048106100000000007000000110000001500000023000000310000003f00000045000000520000005d0000006c0000007c0000008c00000097000000a9000000b40000006164647265737362616c616e63655f6f6663616c6c63616c6c5f646174615f636f707963616c6c5f646174615f6c6f616463616c6c5f646174615f73697a6563616c6c65726465706f7369745f6576656e746765745f73746f72616765686173685f6b656363616b5f32353672657475726e5f646174615f636f707972657475726e5f646174615f73697a657365616c5f72657475726e7365745f696d6d757461626c655f646174617365745f73746f7261676576616c75655f7472616e73666572726564051302c011fc0463616c6cc01ffc066465706c6f7906c1b23f858103c1790d8a00008f0000bc0000ed00001601002001003601004201007001008f01001d02002202005902008d0200920200970200b60200bb0200ee02000d03002703002c03003103006403006903006e03008d0300930300950300900400c40400ca0400cc0400d80400de0400e80400ed0400f304005805005f05006505006d05007305007f0500960500db0500e10500f805001b0600de0600f406002d0700770700930700e107008008008d0800a10800c20800da0800e00800e308001009006e0900540a00880a00a30a00ff0a00120b00730b00f30b00fa0b00020c00670c00f00c00060d000c0d00740d00650f00db0f003f1000481000631000bf1000d21000331100391100401100481100491100771100d11100001300701300811300b41300d11300ec13004814005b1400bc14003f15004615004e1500b81600ab1700e01700101800f818007a1900d019002e1b00371b004a1b00541b005b1b00681b002c1c005b1c00841c00b21c00e41c004a1d00991d00b51e00be1e00d11e00dc1e00e91e00001f000e1f00151f001f1f00251f002c1f00331f003b1f00421f004c1f00531f00601f009f1f00fc1f001420002a20006c20007320008d2000fd20006921008521009d2100dc21000522000722000e22001022004322004a2200c32200e02200e22200f02200f722000223000823004c23005323005923006023006623006d2300772300b42300bf2300c62300cd23008f2400962400a12400a82400b02400e52400ec2400232500e22500ea2500f12500fb25000226000f26002626003426003b26004526004b2600522600592600612600682600722600792600862600df2600e626003127004e27001328001a28002628002d2800352800952800a72800c82800e528001d2900772900292a00772a006f2b00ab2b00d02b00282c00e52c000b2d00122d00182d001f2d00292d00662d00712d00782d00862d008d2d00aa2d00cb2d00d22d00d92d002d2e002f2e00362e004e2e00722e00f42e00552f008f2f00ed2f00583000c43000fe30007131008c3100f331003932007132007732007e32008432008b3200bf3200c53200cc3200e43200eb32000133001933002033003a33003c3300793300ae3300dd33000734002534004f34006d3400973400b53400de3400fc34005936006836007536008b3600ad3600c63600dc36001a37002137002437005a3700613700993800de3800163900543900653900ac3900ba3900fa3900093a004d3a005c3a00a03a00293b00ac3b00693c00743d00fd3d00083e000f3e00163e007d3e00843e008c3e00933e009d3e00a43e00b13e00e33e00073f001d3f008c3f00953f00a83f00b23f00b93f00cd3f00d43f00f43f00fb3f00614000714000944000ff4000594100de4100ee4100514200ab42005444008b4400dd44000145001b4700714700274800dc4800724900c04900f24900334a00424a00814a00974a00e94a00f84a003c4b004b4b008f4b001f4c00a14c009a4d00f44e007a4f00854f008c4f00934f00ae4f00bc4f00c34f00ce4f00d44f001750001e50002450002b50003150003850004250007f50008a5000915000985000d35000da5000dc5000ea5000f15000fb50000151000a51001151001751001e51002451002b51003551007251007d51008451008b5100c45100cb5100d65100e85100f251003352003a5200985200a35200aa5200b85200bf5200c15200fb52000253000553000f53001553001c53002853003253009753009e5300a55300c55300cc5300cf5300d95300e55300ec5300f65300fd53000454000a54003d54004d54005454005b5400725400a15400a85400ce5400d55400d85400e25400e85400ef5400f55400ff54006455006b55007255009255009955009c5500a65500b25500b95500c35500ca5500d15500d755000a56001a5600215600285600df5600f956001957006357009e5700a55700a75700c45700e857004258005b58006e5800ab5800875900885a00b75a00235b004c5b00b55b00e15b00e35b00125c00875c00a05c00c25c006d5d008c5d00565e00465f00625f00f65f000660001960006560002d6100d26100ef61000862000f62001662001d62006c62007762007e62008f6300bd6300cd6300e06300fa63001364001a6400216400286400776400826400896400916400e76400216500fa6500ae6600b56600ca6600d16600e966000d67007468008768008d6800946800ac6800b36800d068000c6900606900626900bc6900e869007c6a002f6b00366b00b86b00bf6b00c66b00246c002b6c00336c00466c004c6c00536c00e76c00846d008b6d000d6e00146e001b6e00796e00806e00886e009b6e00a16e00a86e00aa6e00e46e00216f005c6f00696f00986f00a56f00d36f00e06f000f70001c70004570005270007670008c7000de70000771001671007871008b7100b87100fc71003a7200a27200a97200ab7200ea7200f17200f47200fe72000473000b73001773002173008673008d7300947300b47300bb7300be7300c87300d47300db7300e57300ec7300f37300f973002c74003c74004374005174005874005a74009474009b74009e7400a87400ae7400b57400c17400cb74003075003775003e75005e75006575006875007275007e75008575008f75009675009d7500a37500d67500e67500ed7500f475000b76003a76004176006776006e76007176007b76008176008876008e7600987600fd76000477000b77002b77003277003577003f77004b77005277005c77006377006a7700707700a37700b37700ba7700c87700cf7700d177000078000778003c78004378004678005078005678005d7800797800837800e87800ef7800f678001679001d79002079002a79003679003d79004779004e79005579005b79008e79009e7900a57900b37900ba7900cf7900d67900ee7900127a00747a00327b003a7b00c77b00ce7b00d07b00ff7b00067c00317c00387c003b7c00457c004b7c00527c006e7c00787c00dd7c00e47c00eb7c000b7d00127d00157d001f7d002b7d00327d003c7d00437d00497d004f7d00817d00917d00987d009f7d00e67d00ec7d00207e00277e00497e00507e00ce7e000a8000908000cc8000e38000e98000688100cf8100a48200d28200b583004384007f8400968400b984001885004985007485008d8500b08500288600338600528600998600a08600a28600f486001b8700d187001b8800f888005989009b89001a8a00378a00a78a000f8b003b8b00068c00938c00f08c00378d003d8d003f8d00458d006f8d00758d002c8e00758e00f18e00228f008c8f00bf8f00189000469000959000f89000699100be9100569200899200da92008c9300ae9300da93001994003b9400799400ce9400969500c49500f295005696006a9600bd96007c97008c9700c997002498004798008098008a9800949800aa98001c9900789900cf9900ee9900229a00289a002b9a00349a003a9a00409a004b9a00549a00b89a00be9a00c49a00e39a00e99a00069b000f9b001c9b00229b002b9b00319b00379b003d9b006f9b007e9b00849b00919b00979b00c69b00cc9b00cf9b00d89b00de9b00e49b00ef9b00f89b005c9c00629c00689c00879c008d9c00aa9c00b39c00c09c00c69c00cf9c00d59c00db9c00e19c00139d00229d00289d00359d003b9d006f9d00759d00789d007e9d00849d008f9d00989d00fd9d00039e00099e00459e004b9e004e9e00579e00649e006a9e00739e00799e007f9e00859e00b79e00c69e00cc9e00d39e00379f009b9f00fc9f0004a00016a0001ca00033a00057a000aea100c6a100eaa10028a20061a20074a20089a200c1a2009aa400a0a400bca400d9a400dfa400e5a40038a500fba50007a60048a60054a60096a600c6a60024a7005ea700b8a70017a800a0a80024a90073a900d1a90005aa0064aa00c3aa0021ab008cab00e4ab002bac005bac00a2ac001cad00a7ad00bdae00d5ae00fbae003eaf0080af0098af00b1af00faaf00dcb10032b2008ab200dfb20025b3006fb30081b300c6b300f8b30043b40071b4009eb400a4b400e6b40033b50044b5004ab50084b500dab50048b60099b6000bb70020b7002ab70034b7004ab700ecb700c9b800ecb80020b90026b90029b90032b90038b9003eb90049b90052b900b6b900bcb900c2b900e1b900e7b900eab900f3b90000ba0006ba000fba0015ba001bba0021ba0053ba0062ba0068ba0075ba007bba00b4ba00baba00bdba00c6ba00ccba00d2ba00ddba00e6ba004abb0050bb0056bb0075bb007bbb0098bb00a1bb00aebb00b4bb00bdbb00c3bb00c9bb00cfbb0001bc0010bc0016bc001dbc003bbc0093bc00cdbc00dcbc0033bd0063bd0074bd009dbd00cbbd002cbe003ebe006cbe0091be00d5be00f8be0009bf002bbf0031bf0065bf006bbf006ebf0074bf007abf0085bf008ebf00f3bf00f9bf00ffbf003bc00041c00044c0004dc0005ac00060c00069c0006fc00075c0007bc000adc000bcc000c2c000c9c000eac00014c1001ac1001cc10046c10054c1007dc100afc10014c20062c20094c200d3c20029c300aec300c0c30006c40011c40069c400c2c40014c5002cc50065c5006bc5006ec50075c5007bc50086c5008fc500f4c500fac50000c6003cc60042c60045c6004ec6005bc60061c6006ac60070c60076c6007cc600aec600bdc600c3c600d0c600d6c60014c7001ac7001dc70026c7002dc70033c7003ec70047c700abc700b1c700b7c700d6c700dcc700dfc700e8c700f5c700fbc70004c8000ac80010c80016c80048c80057c8005dc8006ac80070c80008c9005ec9006bc900dec90028ca0035ca0069ca00e3ca00f5ca0036cb0098cb00dbcb0035cc0049cc009ccc00dfcc003dcd004acd0068cd00b6cd000cce000dcf0026cf004acf008ecf00d0cf00eacf0007d00051d0000fd20061d2009ed200efd2001ad3002cd3006ad300bcd30012d4001dd40044d40056d40072d4007cd40086d4009cd4003ed50021d60046d6004cd6004ed60080d600dbd6001ed700a3d700f2d70081d8009dd800a4d800aad800cad800d0d80003d9000ad90010d90012d90072d9009ad900c7d900f6d900fcd900ffd90008da000fda0015da0020da0029da008dda0093da0099da00b8da00beda00c1da00cada00d7da00ddda00e6da00ecda00f2da00f8da002adb0039db003fdb0046db007edb0084db00b9db00d2db0011dc00a0dc00a6dc00dfdc00e5dc00e8dc00efdc00f5dc0000dd0009dd006edd0074dd007add00b6dd00bcdd00bfdd00c8dd00d5dd00dbdd00e4dd00eadd00f0dd00f6dd0028de0037de003dde004ade0050de008ede0094de0097de00a0de00a7de00adde00b8de00c1de0025df002bdf0031df0050df0056df0059df0062df006fdf0075df007edf0084df008adf0090df00c2df00d1df00d7df00dedf0097e00003e10049e1009fe10009e2002de2008ae200e2e2006be300f7e3004fe400b3e40073e500d4e50022e6002ce600ade60059e700a7e700eae7001ee8004de80096e800e9e800f6e90010ea0034ea0079ea00bbea00d5ea00f2ea003beb0033ed0096ed00baed00e0ed002eee007cee00beee00cfee0011ef0063ef00b6ef0008f0006af00074f00097f000a8f000c2f000cbf000d5f000ebf00091f10078f200a1f200a7f200f9f20023f30076f300a3f300ddf30025f400f2f4004af500bcf500d3f5007df600aef600cdf600fbf60016f7003ff70059f70082f700a1f700ebf7008bf800d8f8001dfa0023fa0026fa0054fa009ffa0020fb006ffb00b6fb00d7fb00fafb001ffc002efc0076fc007cfc00490901920a01970c01aa876e978a2098aa20977b2098bb20c89b0bc9ba0a979b019abbaeab20ae873751094ec87909647a017c8b95880195ac0178ab64caab9cf42836510934c87909647a017c8b95880195ac0178ab64caab9cf4281c51091a839aff01c8a80b7cbb9599ffc8a70c78cb83aaff5209f032009511f07b10087b158475010a05013d0768020251050750100209501004b8009511807b10787b15707b1668951580008411e04911384911304911208000330740951820491128501006b709014911584911504911484911408317400a0f01821750821858821948821a40d49808d4a707d4870752072e641750100886028217188218108219088216d49707d48609d47909989920d48707977720d497075107090050100a6e046467330850100cde0b018377330833090a0328f307016467330850100ec80b018378330733093300100a0c019511a07b10587b15507b16489515608411e0641649163849163049162080003307409568204916285010120309013907680202531704a8009517e08477e07b67186471837733083300140a040182671881771c51470bc45d8326015147773e28b18500514793f094d2870151477c72c9d3e5005147d3fd44eba400330816902cecaa87a1013308829097ecaa87ca0051476dfda8f898013308e6604605aa872e015147dda9a72a4e015147263b99403c0133088eea1253aa8794003308d75e7f58aa87eb00514733735560af003308ffd97b67ab8708501016f723501018620333001a951160fc951700037b7098007b7590007b7688009515a0038411e095170003491778491770491768491760831760030a0f28833833001c9511a0fb951700047b70587b75507b7648951560048411e095170004491738491730491728491720831720040a0f283c4950101e5c1c5010201f3c3300229511a0fe7b1058017b1550017b164801951560013302080328270401501024fa21330026951120fe7b10d8017b15d0017b16c8019515e0018411e04921b8014921b0014921a8014921a0018317a0010a0f28e8283300289511a0fe7b1058017b1550017b164801951560013302440128d0030133002a951120ff7b10d8007b15d0009515e00033024228cf030150102c231a50102eea3a330030951120fe7b10d8017b15d0017b16c8019515e0018411e04921b8014921b0014921a8014921a0018317a0010a0f281a165010322f4c501034224e9511c07b10387b15307b16289515408411f064766417330840501036ab050150123889fe0032005209449511c07b10387b15307b16289515408411e06476838883170a04821718821810821908821a7b67187b68107b69087b6a9551c0821038821530821628951140320000951150ff7b10a8007b15a0007b1698009515b0008411f0828410828308829608828c7b1c10829b829210d3360a7b1a28d8360ad8cb0c821028da0c0a64308288187b18208298187b1818c94209c9a9087b1828d8a9087b1408d8420a821420821310821918c94909c9a909c98909c90606c9c608c93b0a8e8c88aa2085aa01db8c0a8f968218288e8cdb960cd49808db8c0a510a5364767b13507b10588217087b17609517709518507b146833003c33023a2863ff008217800082188800821970821a787b67107b68187b697b6a08955150ff8210a8008215a000821698009511b000320050103ec000501240e4f80032003300440a0f330246288f03015012468b030152078b00501248edfc0050104af2fe50124c1f000133004e9511e0fd951800027b80187b85107b8608951520028411f0827a7b1a408278087b18588279107b19508277187b17484921d8014921d0014921c8014921c0017b17b8017b19b0017b18a8019517e0019518c0019519a0017b1aa00133009404283a28641750105014fe50125210fb0051080800501054165010568b07018378330733093300580a0c019511f87b1033088002028388330701330933005a0a0c018289828218828b08828810959c1fd89c09c89b0ad8ba0bda990bc88b0bd88b08c8280884cce07b7c7b7a087b7b107b781832009511b07b10487b154095155050125c60f90050105e92040149111849111049014133070464184911085010607b040139086c020256183f0b20036c02024001330880020283883307013309243300620a0c019511b07b10487b15407b16389515508411f064728289827408828c088273959a1fd89a00c80c0984aae07b1308c8a303d8a30bc8490ac8ba0ad39a06d89a07da6b07822b18d8c90c828610822210828818da000cc86c0cd86c06c82c09c89707d8c90cd89709c8b808c86808c8c808c8980c8ec88e79dbc809d4c7088ea6db8906520653821808d88308d34a09d84a06da9806d82708d3bc09d8bc0bda980bd32708d49808da860b520b2c7b13107b1a187b17203307409518107b1c285010649503019551b08210488215408216389511503200501066dafe951140ff7b10b8007b15b0007b16a8009515c0008411f082897b19388289087b19308289107b19288288187b182064769517800050106846fc821980007b19821788007b1718821a90007b1a10821b98007b1b088218207b18588218287b18508218307b18488218387b18407b1b787b1a707b17689517609518407b196050106aa9fe8217087b67188217107b67108217187b670882177b6750126c07f7003200828a18828b10828908d4ba0a889b0194ab510b318288958a1fd88a08c8980884880184aae095a920d8a90ac8a80bd88b08daaa084917187b797b7b087b7810280f019511f87b1050106eedfd9511807b10787b15707b1668951580008411f0827a10827b18827c088272d4cb0bd4a20cd4bc0c98cc20d4ba0a97aa20d4ca0a520ace00829b18829c108296829708d4c609d4b70ad4a909989920d4ca0a97aa20d4a9095209aa007b17287b1c307b1b38828b18828a108287828908d4a7087b1b207b1910d4b909d498089888207b1a18d4a909979920d4980852087483227b120864687b175010707e0401837783688219083300720a03018217c86707d86708821b2882191050127491fd00821c30821818c8c808c88b0bd88b0ad8c808821c38821620c86c0c501276b2fe0052082049115849115049114895184049114050107899010150127aa9f600320000821970018217780182188001821a88017b1a28017b1820017b17180195173001951810017b19100150107ee9fd82194801821a400182183801821730017b18687b1960d48909d4a708d498089888207b1a08d4a909979920d49808520843017b16f0007b16708216787b16f800821880007b1800019518f000821988007b1908017b175850208000060101821038821770c80708d87809821340c83607c8970ad36a0bd86a07dab907821b18d3ba09d8ab0a821b20d88b08821248821c8000c82c0bdb9a08d8cb09821c50821a8800c8ca0ac8a909c8b707d8b70ac8a909821b28d3b90ad89b09821630d8760bdaab09d36707d4a707db79085208a600821858958720d88708821a68c88a09d8a90ada880a821608c86a0ad86a08821460c884048218707b1890007b10d0008218787b1898007b17b0007b13d800821780007b17a0007b12e000821788007b17a8007b19b8007b1ce8007b1ac0009517d0009518b000951990007b14c8005020820093fd8217108218607b78187b76108218687b78088218587b78955150fe8210a8018215a001821698019511b00132000050208400fdfa951100ff7b10f8007b15f0007b16e8009515000150228600dbf800d8ba02c8200c7b6340d83a03d34c0bd84c0adab30a7b6050d80c0bda220b828010828c18829318829210c80b0bd80b087b6c48c8c808d33809d93808d82b0cda9c08d32b0bd4b909db980a510a0e017b63207b622850228800c3f4005207030183a78168587b6a1033008a000a04018267108272827308827910827a18826758957c20d87c0b826850c8b807d88708dabb08826b18c8b808d8b80b826448c8b404826b207b6b78826b287b6b70826b387b6b68826b407b6b607b6a98007b6990007b6388007b62800050228c00bcf70033008e00951150fe7b10a8017b15a0017b1698019515b0018411f082ab187b1b2882ab107b1b3082ab087b1b1882aa7b1a20828a187b1a50828a107b1a48828a087b1a4082887b18388296829a08829b108298187b17107b1888007b1868017b1b80007b1b60017b1a787b1a580195177001951850017b16500133007c28a5fb5022900083f50032005020920083f900828b18828a10828908d4ba02889c01942c510c48828898ac3b97bb05d4cb02989c3b97aa05d4ca0a988c3b979905d4c909978805958c20d88c08c8890bd89b09da8809c8a909d8a908c828087b7c7b7b087b79107b781832009511f87b105020940068f99511c0fd951b00027bb0387bb5307bb628951540028411e0641682ab187b6b800082ab107b6b7882ab087b6b7082aa7b6a68828a187b6aa000828a107b6a9800828a087b6a900082887b688800829a829808829b108299187b67187b69e0007b69f8017b6be8007b6bf0017b68f0007b68e801956700029568e0017b6af8007b6ae0015020960019ff956b000282b982b70882b81082ba18502298003ef90050209a00eef9956b000182bad80082b9d00082b8c80082b7c0007b6a387b6828d48a0ad49708d4a8089888207b6930d4a909979920d49808520803038268f800956a00017ba880008268f0007ba888008268e8007ba89000956880018269e0007ba998007b672050209c0000fd008269e80098973b8268e000978805d47802826af00098a83b979905d489078268f80098893b97aa05d4a909978a0582688800c8a808d8a80a826b9000c89b0bc8ab0bd39b0cd89b09daca09826a9800c87a0ac89a0cd8ac03d87a0a8267a000c82707c8a707c83707826278d8c2097b69f800826070d30b037b6b58d8b0097b6860826468d8840adb390a826b8000d3b7087b6748d87b098267f800da87097b6c50d32c07d48707db790a8263a00082699800520a1c021407e0ffffff000000007b6740826b880082649000649a8267207b67e8008267287b67e0008267307b67f0008267387b67f80001826760d87b07826958d3940cd89409dac709826250d82a0764a8826a48d3a300d8a30ada070ad32807d40707da790a510a91019517e0847ae064a1d48b077b63d0007b64c000d43409d497079877207b68c800d49808978820d487075207870183a77b6bb80083b87b6ad8000a0401826ad80082a71882a81082a9088e7c8e8bdb7c0bd478028e9cdb2b0c520c590182aa82628800c8a202d8a20a826c9000c89c0cc8ac0cd39c0bd89c09daba09826a9800c88a0ad88a08826ba000c8b707c88707c8a909d8a908c8870a826768956b00017bb7208267707bb7287b6240018267787bb730826780007bb7387bbc487bb9509567600195684001956920017bba5850209e0029fb826cf8008269f000d4c907826840826ae800d88a08826be00094b894785108bf0095a820d8a80264877b68a800c82b087b68d800d8b808da2208826278018263700182646801826b6001c898087b68b000d89808c88c0c7b6cf8007b6b00017b6408017b631001956800017b6218015020a00099fa008268b800958b20d88b08826ac000c88a04d8a40ada880a8268c800c88a0ad88a088263d000c883038267a8007b67e8008267d8007b67e0008267b0007b67f0002843fe8267188268207b788268287b78088268307b78108268387b78185022a20084f5003200005020a4003df5951100ff7b10f8007b15f0007b16e800951500015022a6001bf300d8ba02c8200c7b6340d83a03d34c0bd84c0adab30a7b6050d80c0bda220b828010828c18829318829210c80b0bd80b087b6c48c8c808d33809d93808d82b0cda9c08d32b0bd4b909db980a510a94007b63207b62285022a80003ef005207890083a78168587b6a103300aa000a04018267108272827308827910827a18826758957c20d87c0b826850c8b807d88708dabb08826b18c8b808d8b80b826448c8b404826b207b6b78826b287b6b70826b387b6b68826b407b6b607b6a98007b6990007b6388007b6280005022ac00fcf1005020ae0034fb5022b0003df00032005020b2003df4008219a0018217a8018218b001821ab8017b1a58017b1850017b17480195176001951840017b1940015020b60083f5821a78018219700182186801821760017b1a287b1818d48a0ad49708d4a8089888207b1920d4a909979920d49808520825027b162001821880007b1828018218787b183001951820018219707b1938017b17105020b800a3f80098673b821a800097a805d48707976605821058c8060bd86b0882148800c84709c8890cd37c09d87c07da980782187898863b821970979905d4960698a93b978a05d4a90982139000c8390ad89a0982129800c82608c89808c87a06d8a607c8780a821850d38c077b1c48d8c8087b1b50821940d8b909db7809821b68d86b07821c60d3ca087b1a38d8ac0ada870a7b1640d3b607d48707db7a0952096001642b643c644264031407e0ffffff000000007b17308210108217187b17788214208217287b17800001821750d87307821948d39208d89209da8709821740d87c06821a38d3ab08d8ab0ada860ad3c707d48707da790a510ae2007b13e0007b12e8007b1cf000951700019518e0007b1bf8007b1b98007b1c90007b12880064367b14707b10683300ba0033023a28f3f000821b68821a7082198000d49a07821830d88b08821c7894c894785108b0008212180182131001821408018210000195b820d8b80b64877b1858c8bc087b1868d8c80cdabb0cc8ac0c7b1c60d8ac0bc8b9097b1980007b10a0007b14a8007b13b0009518a0007b12b8005020bc0004f700956720d86708821a88005022be00cfef0082189000c88a0ad88a08821b9800c88b0b6473649264ac8210588217687b177882146028f4fe8217088218105022c000def400955120fe8210d8018215d0018216c8019511e0013200005020c200b4f1951100ff7b10f8007b15f0007b16e800951500015022c40092ef00d8ba02c8200c7b6340d83a03d34c0bd84c0adab30a7b6050d80c0bda220b828010828c18829318829210c80b0bd80b087b6c48c8c808d33809d93808d82b0cda9c08d32b0bd4b909db980a510a11017b63207b62285022c6007aeb005207060183a78168587b6a103300c8000a04018267108272827308827910827a18826758957c20d87c0b826850c8b807d88708dabb08826b18c8b808d8b80b826448c8b404826b207b6b78826b287b6b70826b387b6b68826b407b6b607b6a98007b6990007b6388007b6280005022ca0073ee003300cc00951120fe7b10d8017b15d0017b16c8019515e0018411f082ab187b1b6082ab107b1b6882ab087b1b5082aa7b1a40828a187b1a9800828a107b1a9000828a087b1a880082887b18588296829808829a108299187b17087b19707b1998017b1a787b1a90017b1880007b1888019517a001951880017b1680013300b40028c7f65022ce0037ec0032005020d00037f0009511a0fd951a00027ba0587ba5507ba648951560028411e06416829b08828408829c828ad34b02d84b00d8ac03da23007b6b9800c94b0bc93b027b6c90007b6ab800c9ac0b88bb800085bb01829a108283108e2cdb2c0b6432829c18828318c92a08c90809d808087b6a8800d82a0a7b6c8000c93c0cc9ac0cc98c0c8fc88e9adbc80ad4c909db9a0b510b9c037b67689517e0847ae064a18269b800d429077b64b0007b63a000d43408d487079877207b62a800d42808978820d4870752076e03839883a77b68787b6a700a0401826770827218827810827908d4280a889b0194ab510b4303827a826bb800c8ab0bd8ab0a826cb000c89c0cc8ac0cd39c07d89c09da7a098267a800c88707d88708826aa000c8a202c82808c87909d87907c8780a82679000956800017b87e000826798007b87e8007b6b0002826788007b87f000826780007b87f800956b00027bbc087bb91095672002956800029569e0017bba185020d200d6f39517e0847ae064a18267a8008268a000d478081407e0ffffff000000008269b800d879078269b00094977b6870948751079302956800028287387b67508287307b67408287287b67588287207b674882677883782083a77b6a600a0401826760827218827810827908d4280a889b0194ab510b4b02827a826bb800c8ab0bd8ab0a826cb000c89c0cc8ac0cd39c07d89c09da7a098267a800c88707d88708826aa000c8a202c82808c87909d87907c8780a826790007b678001826798007b6788017b6ba001826788007b679001826780007b6798017b6ca8017b69b0019567c0019568a001956980017b6ab8015020d400a3f8956c000182c7d8007b673882c7d0007b672882c7c8007b676082c7c0007b67308267b800957a40d87a078269b0005022d60021f0008267a800c87909d87907826ba000c8b7077bc7587bc9507bc84895676001956840017bca403300d80033023a28e3eb009517e08479e064911407a0ffffff000000008268b800d878078268b0009487826870948751074601956800018287787b67208287707b67108287687b67708287607b671882677883786083977b69780a0401826778827218827810827908d4280a889b0194ab510bfe00827a826bb800c8ab0bd8ab0a826cb000c89c0cc8ac0cd39c07d89c09da7a098267a800c88707c87909d8790ad887078268a000c88202c82707c87a0a826790007b67c000826798007b67c8007b6be000826788007b67d000826780007b67d8007b6ce8007b69f000956700019568e0009569c0007b6af8005020da00dffa956b000182b71082b81882b982ba08826b687bb7707bb8787bb9607bba688267107bb7508267207bb7588267187bb7408267707bb7488267287bb7308267387bb7388267307bb7208267607bb7288267407bb7108267507bb7188267487bb78267587bb7089551a0fd951700028270588275508276489511600232005020dc000bec008217b0018218b8018219a801821aa001d49808d4a707d487075207ba0138076802024921f8004921f0004921e8007b17e0004921180149211001492100010495172001951800019519e000492108015020de0085fb821720017b1738821728017b1730821730017b1728821738017b1720821740017b17188210480182145001821358018212600182166801821c7001821b7801821a80018219880182189001821798017b17787b18707b19687b1a607b1b98007b1c90007b1688007b1280007b13b8007b14b0007b10a8008217187b17a0008217207b17d8008217287b17d0008217307b17c8009517c0009518a00095198000951a60821b387b1bc0003300e000951110fe7b10e8017b15e0017b16d8019515f001951160f98411f0827b187b1b30827b107b1b38827b087b1b4082777b17488297187b17108297107b17188297087b172082977b172882a77b17b00082a7087b17a80082a7107b17a00082a7187b17980082897b19588287087b1750828a107b1a688288187b18609516ff079566497b687b6af8951800107b8738f89517ff079577519518ff07958831951a00107ba930f8330042063302940228c5e8009517405020e2003de8821858821950821a488217405022e400d1e50051080a005020e60031ea5020e800a4f1008378330733093300ea000a0c01951160fe7b1098017b1590017b1688019515a0018411f0828310828208829a08828c829b7b1b30829410d32a067b1648d82a06d8cb00821b48dab006828b188298187b1828c93409c969087b1838d869087b1350d8340664b4821928c9b909c96909c98909c92a08c908087b1c58821a30c9ca0a8e8b88aa6085aa01db8b0a8f98821c388ecbdb980bd49c08db8b0a510a4d0164768217587b1740017b12407b1248018217507b17500195176001951840017b14487b1458013300ec0033023a28c7e700821768017b1738821760017b1730821778017b1728821770017b1720821858958720d88708821a405022ee0069ec00821b48c88b0b7b1af0007b19e8007b17e000951700019518e0007b1bf8003300f00033023a286fe700821708017b1718821700017b1710821718017b1708821710017b17821758957a40d87a078219405022f2004feb00821750c87909d87907821b48c8b7077b1798007b1990007b1888009517a000951880007b1a80003300f40033023a280fe7008217b0008218b8008219a000821aa8007b67507b68587b69407b6a4882177b67308217087b67388217107b67208217187b67288217207b67108217287b67188217307b678217387b6708955160fe8210980182159001821688019511a00132005020f6003be89511b0fe7b1048017b1540017b163801951550018411f038076802024921a8004921a000492198007b1790004921c8004921c0004921b000049517d0009518b000951990004921b8005020f800d5fd8217d0007b17088213d8008214e0008210e8008212f000821cf800821b0001821a0801821810018216180182192001821728017b17487b19407b16387b18307b1a687b1b607b1c587b12507b1088007b1480007b1378951770951850951930821a087b1a703300fa00951108f8951a00077ba0f0007ba5e8007ba6e0009515f8079511b8f98411e0829a7b1a9800829a107b1a8800829a087b1a90008299187b19800082897b19f8008289087b19f0008289107b19e8008288187b18e000827a8279088278108277189516ff079566f1004926e8044926e0044926d8044926d0047b17587b67c8047b18507b68c0047b19407b69b8049517ff079577e1059518ff079588c1059519ff079599a1057b1a487b6ab00433005e0728dd0e9517105020fc00b6e4821828821920821a188217105022fe004ae200510804005020000123ee00837833073309330002010a0c01951120ff7b10d8007b15d0009515e00050220401f9e700330006010a0f330208012859e9005022080155e90052073150220a01b7e20050200c01bbe450220e01e7e50050201001b09d0064175020120139e45022140134e10051080a005020160139e650201801aced0083783307330933001a010a0c01827218828318827b10827c088289088274828a828810d3c907d8c909d84a0adb790ac9b807d8a707d8b808c92309c98909c97909570905320050201c01e6e59511887b10707b15687b16607b174082977b17508297087b17588297107b174882921882861882891082858288088e6a8e9bdb6a0b8e8a885c000185cc01db8a0cd46909db9b0c7b1c388359807b1564267b1218642850201e015eed007b17307b182083597b19288217508218585020200146ed007b17107b18088d5980008217486468502022010aed0033022401821508d485058219889a80007b1a08821820daa805821858da9805821610d47606821730daa706821750da97068217488218188219283300260128ebec0050202601e7ec0033022801821908939893978219389496949594979498821940017b98187b97107b95087b968210708215688216609511783200951140ff7b10b8007b15b0007b16a8009515c0008411e07b17308297187b17408297107b172882960882977b1738828718828910828a0882887b1798007b1990007b1a88007b1880009517609518800050202a016aea008217607b17508217687b17588212708218787b1848821c3898c73d976903d4970798663d821a2897a903d4960698a93d821a4097aa03d4a90997cc037b1c408e7a88cb000185bb01db7a0b8e978e6adb970ad46909db9a0b7b1b2883c98064267b1210642750202c01f1eb007b17187b18208217388a79037b193882175082185850202e01d5eb007b177b18088218408d89800064678218485020300197eb00821ad47a0a821940889b80007b1b821718dab70a821750da970a7b1a50821608d48606821720dab706821758da9706821710821848821938502032017eeb008219939793988219289496821a50949a949894978219307b97107b98187b9a7b96085022340196dc0032005022380118dc00320052083c9511d07b10287b15209515308411f0827a18827810827b0882777b177b1b087b181064187b1a18649750203c0131e80050223e017edf003200009511807b10787b15707b1668951580008411f07b171082878292828b08829308957a207b1a18d87a06c86b0a7b1a08d8ba0cda660c828a10828818829410829918c8ca06d8a60cc88c0c7b1c7b18387b1a307b1b287b17207b19587b14507b13489517409518207b12403300400133023a012852e1008218108217087b87088217187b877b861082177b871850224201aadc003200330046010a0f3302480128fde50050224801f9e5005207b70050224a01fddf0050204c015efc9517c00033004e019511807b10787b15707b1668951580008411f06476491118491110491108490149113849113049112002951740951820641949112833003601285dfd50225001e1e100502052011be0502254017ddb0050205601edfe50225801e9dc0052074050225a0125dc00c9c602d8c606d84a0a821c38c99c0cc9ac0cc96c0cc9b707c98707c90306d4c707d42608d47808d42707988820977720d4870751070a0050205c01d1e16407646850205e0140e9005022600112e500330062010a0c019511e0fe7b1018017b1510017b160801951520018411f0828310828208829a08828c829b7b1b20829410d32a067b1638d82a06d8cb00821b38dab006828b188298187b1838c93409c969087b1828d869087b1330d8340664b4821938c9b909c96909c98909c92a08c908087b1c38821a20c9ca0a8e8b88aa4085aa01db8b0a8f98821c288ecbdb980bd49c08db8b0a510a4e64768217387b17c0007b127b12c8008217307b17d0009517e0009518c0007b14087b14d8003300640133023a2864df00502266012edc003300680133023a2852df0050226a01bbdd00320050206c01d5e09511e0fe7b1018017b151001951520018411e04921f8004921f0004921e8004921e0008317e00033006e010a0f330270012824e3005022700120e3005207090138076802024911784911704911687b1760492198004921900049218000049517a000951880009519604921880050207201b0fe8212a0008213a8008218b000821ab800821bc000821cc8008219d0008217d8007b17387b19307b1c287b1b207b1a587b18507b13489517409518207b1240330074019511a0fc951900037b90587b95507b9648951560038411f082897b19608289087b19588289107b19488288187b1850827a827908827810827718951b0003491b18330c491b10491b08490b7b1718951b00027bb7f8007b18107bb8f0007b197bb9e80095172003951800039519e0027b1a087bbae0003300900828b0076417502076018add5022780185da0051080a0050207a018adf50207c01fde60083783307330933007e010a0c01951120ff7b10d8007b15d0009515e00050228001d3e000330082010a0f330284012833e200502284012fe2005207315022860191db005020880195dd50228a01c1de0050208c01b6a200641750208e0113dd502290010eda0051080a005020920113df5020940186e600837833073309330096010a0c01808910828a0882884917187b79107b7a087b78320082781082771814090000000001000000d38909d479099888208888019478939851080528739511f87b10330880020283883307013309330098010a0c33029a012814dd0050229a0110dd0052096a9511807b10787b15707b1668951580008411e0647683888317400a048218407b188217487b17188219507b1910821a587b1a087b1a387b19307b17289517207b182050209c0170ff8217087b67188217107b67108217187b670882177b6750229e013cd8003200009511e0fe7b1018017b1510017b160801951520018411f0828310828208829a08828c829b7b1b20829410d32a067b1638d82a06d8cb00821b38dab006828b188298187b1838c93409c969087b1828d869087b1330d8340664b4821938c9b909c96909c98909c92a08c908087b1c38821a20c9ca0a8e8b88aa4085aa01db8b0a8f98821c288ecbdb980bd49c08db8b0a510a4f64768217387b17c0007b127b12c8008217307b17d0009517e0009518c0007b14087b14d8003300a00133023a28e0db005022a201aad8003300a40133029a0128cddb005022a60136da0032005020a80150dd9511807b10787b15707b1668951580008411f08282828308828410828818829c7b1c829b087b1b08829a107b1a108299187b191864767b19387b1a307b1b287b1c207b18587b14507b13489517409518207b12403300aa0133023a012880db008218958720d88708821a085022ac01a9da00821810c88a0ad88a08821b18c8b8087b69087b677b6a107b68185022ae01c2d6003200951140fe7b10b8017b15b0017b16a8019515c0015022b00172de00828a088286108288187b177b18707b1878017b1670017b1a607b1a680195178001951860017b19687b1960013300b2013302940228d6da00821798018218900182198801821a80017b17207b1718017b18187b1810017b19107b1908017b1a087b1a00018217487b1738018217507b1730018217587b172801951740019518200195190001821a787b1a20015020b4018d16646c821758017b17788213500182144801821040013309330a33023306018217087b1958d87907821910d39a087b1a50d89a09da8709821b18d8b207821a20d3a608d8a60ada870ad3b207d48707da790a510aed007b12287b16307b10387b14407b1348821768957820d87807821960c8790ad89a06da7706c8c606d8c607821970c87909d468077b19707b1a60d4a909d49707987720d46909979920d497075207c4009517e0007b18685020b60110df00821ae0008217e8008218f0008219f800821b787b1b9800821b487b1b9000821b407b1b8800821b387b1b80007b19b8007b18b0007b17a8009517c0009518a000951980007b1aa0005020b801c4fd8217d8007b17788213d0008214c8008210c000821958959901889701821a50c87a0ad4a907887701821828c87802d88208821b30c88b0b646c64b628e3fe82177b707b74087b73108218787b7818955140fe8210b8018215b0018216a8019511c001320000951120ff7b10d8007b15d0007b16c8009515e0008411f0828b10828218828608828cd42608d4bc0ad48a0a98aa20d4b808978820d4a8087b17385208bc008297187b17188297107b17208297087b172882977b173095c7207b1708d8c707c876087b18d86806da7706c8b606d8b607c827077b17104921b8004921b0004921a000209518a0004921a80064c75020ba0105df0082177b17488217087b17408217187b17788217207b17708217287b17688217307b17607b165095178000951860951940821a107b1a585020bc0125fd821790008218980082198000821a8800821b387bb7107bb8187bb97bba085022be01c2db003200008217b0018218b8018219a801821aa001d49808d4a707d487075207740138076802024921380149213001492128017b17200149215801492150014921400104951760019518400195192001492148015020c0012ffb82126001821768018218700182197801821b8001821c880182169001821a98017b1ad8007b16d0007b1cc8007b1bc0007b19f8007b18f0007b17e800951700019518e0009519c0007b12e0003300c2019511c0fe7b1038017b1530017b162801951540018411f0829a7b1a18829a087b1a10829a107b1a088299187b198289828a08828b1082881864767b18d8007b1bd0007b1ac8007b19c0004921f8004921f0004921e800951700019518e0009519c0004921e00033009a0928ad00821700017b1738821708017b1730821710017b1728821718017b17209517a0005020c40169d65022c601cbd1005020c801cafd5022ca0137d3005207405022cc0173d200c9c602d8c606d84a0a821c38c99c0cc9ac0cc96c0cc9b707c98707c90306d4c707d42608d47808d42707988820977720d4870751070a005020ce011fd8640764685020d0018edf005022d20160db003300d4010a0c3302d6012826d0005022d60122d0003200951160ff7b1098007b1590007b1688009515a0005022d80166d800829b108299187b67387b69787b6b707b68689568607b6a6033075020da01a9dc005022dc01d4d8005020de019bdc0039086c020256183f0b20036c020240019517e08479e07b693064913307800202837783993308400a09826a3082a71882a81082a90882aa6f776f886f996faa826b387bba187bb9107bb8087bb75022e001f9d00032005020e4013edc0049111849111049012233070464184911085020e60126dc0039086c020256183f0b20036c02024001330880020283883307013309243300e8010a0c019511f07b10087b15828910828c08828b82881897923f98ca01d42a02978a3f989901d49a0a97cc3f98b901d49c0c98830184bb019ab888b50184c97fd2a804d2280adbbc09d2380b88982094a8d4b40c94c8ab85187b797b7a087b74107b7b18821008821595111032003300ea019511b07b10487b15409515503302e2012845d0009511c0fd951a00027ba0387ba5307ba628951540028411e064167b673082977b6798008297087b6790008297107b6788008297187b678000828718828910828a088288956b00027bb7187bb9107bba087bb89567e001956800025020ec0112dc008267f8018268f0018269e801826ae0017b6a387b67287b67b8017b68207b68b0017b69187b69a8019567c0019568a0017b6aa0015020ee01e9fe8267d8018269d0018268c801826ac0017b67687b6758017b69587b6950017b68607b6848017b6a507b6a4001826780007b677801826788007b677001826790007b676801956780019568600195694001826a98007b6a60015020f0011710826c38956b000182b8980082b9900082ba880082b7800084cb017b68787b69707b6a487b6740520bb300d4970bd4a808d48b0b98bb20d49808978820d4b8085208290284c800ff8269187b69a8007b68a0008268207b68b0009568a0008269287b69b8005020f2011cda00330433033302826758826850d48707826868826960d49808d487078e7797700501826740c80707d80708826948c84909c88909d3490ad8490bdaa80b826870c83808c88b0bd88b0ad83808826c78c82c0cc8c808c8a808826a307ba77ba9087bab107ba8185022f401ffd40032009517e08477e07b67386471956b000282b982b70882b81082ba187b6a18017b6810017b67080195672001956800017b6900015020f601da378268383300330433033302956c000182c73082cb3882c92082ca287b87107b8b187b897b8a0801826750d87007826960d3940ad89409daa709826b58d8b307826a68d3a20cd8a20adac70ad3b307d4c707da790a510a27ff9567e0007b6298007b6390007b6488007b6080005020f801f6d90082674082688000c88707d88708826948826b88005022fa01a7d400826870826a9000c8a808d8a802826c78826a9800c8ac0cc82c0ac88b0bd88b08c8a808d49808d4b709d48909d4b808989920978820d49808520891008269f8008268f000826ae800826be0007b6bc0007b6ac8007b68d0009568c0007b69d8005020fc0181d800826c3882c782c81882c90882ca10957701887b01c8b909d4970b88bb01c8ab0bd8ab0ac8a8087bc77bc9087bcb107bc81882688000958720d88708826a88005022fe0117d10082689000c88a0ad88a0882629800c882026470649464a364c828d3fe009511d0fe7b1028017b1520017b161801951530015022000212d40050200202fdd0502204022ed0005020060276fc50220802acd400d84302dab20c821848c98a0bd88a0a821630821928c96909c9a909d8cb0ac9a909c9cb0b7b1008c90707c9270750220a029fd30050200c025cd350220e02f5d10032009511a07b10587b15507b16489515605022100277d000502012027cd8007c1733084916184916104916087b6750221402cbcb0032009511a07b10587b15507b16489515605022160242d0005020180247d80080171082188219087b67104916187b687b690850221a0292cb003200951b000282ba80007b1ab00082b988007b19a00082b890007b18a80082b798007b17b8007bb7187bb8107bb90895172002951800027bba50201e02e3fe951800028287287b1798008287207b1790008287387b1788008287307b1780008218b000958704d88708821aa00050222002a2cf008218a800c88a0ad88a08821bb800c88b0b7b19c8017b17c0017b1ad0019517e0019518c0017b1bd80150202202f7fe8217e8017b17788217e0017b17708217f8017b17688217f0017b17608217b000957905502224022ccc007b1798017b1a90017b1888019517a001951880017b1980015020260277348217a8017b17588217a0017b17508217b8017b17488217b0017b17408217b00095790650222802e4cb007b1758017b1a50017b18480195176001951840017b19400150202a029cfe821768017b1738821760017b1730821778017b1728821770017b17208217b00095790750222c029ccb007b1718017b1a10017b18080195172001951800017b19000150202e02e733821728017b1718821720017b1710821738017b1708821730017b178217b0009579085022300255cb007b17d8007b1ad0007b18c8009517e0009518c0007b19c00050203202a0338217f0008218f8008219e000821ae8007b67b0007b68b8007b69a0007b6aa80082177b6790008217087b6798008217107b6780008217187b6788008217207b67708217287b67788217307b67608217387b67688217407b67508217487b67588217507b67408217587b67488217607b67308217687b67388217707b67208217787b6728821780007b6710821788007b6718821790007b67821798007b6708955140fd951700028270b8008275b0008276a8009511c0023200951170ff7b1088007b1580007b1678951590008411f08286108282188284088283d42408d4630ad48a0a98aa20d46808978820d4a8085208f100827818827a10827c827708d4ac0bd48707d47b0b98bb20d4a707977720d4b7075207cd007b1c207b14387b16407b1248829818829a108296829908d4a6077b18307b1918d49808d487079877207b1a28d4a808978820d4870752079400643764687b131050203402a6d6007b170882172064685020360297d600647882170864695020380291c9821710c86707d86708821938821b1850223a02a8cf00821840821c28c8c808c88b0bd88b0ad8c808821c48821630c86c0c50223c02c8d00052082e49116849116049115895185049115050203e02aed300955170ff8210880082158000821678951190003200005208479511d07b10287b15209515308411f0827818827a10827b827708d4ba0ad48707d4a7078e774911184911107b1764184911086497502042025ad30050224402a7ca0032000052083f9511d07b10287b15209515308411f0827810827a088277978820988b204911187b177b1a0864187b1b106497502048021ad30050224a0267ca00320000951120fd7b10d8027b15d0027b16c8029515e0028411f082831082861882820882807b16e000d46208d43006d486069866207b13f800d43808978820d468087b17d800520831038257088278187b18d00082589506c0007b169000d80603c832067b1688007b12e800d82604da33048276107b16b8008276087b16c00082777b17c8008287187b1798008287107b17a0008287087b17a80082877b17b00082c7187b175882c7107b176082c7087b176882c77b177082b7187b173882b7107b174082b7087b174882b77b175082a7187b171882a7107b172082a7087b172882a77b17308297187b178297107b17088297087b171082977b17788217f800c84706d876078218e000c887077b178000951900024929b8004929b0004929a8009518a0024929a000c00064077b10f00050204c02dbd10082178800951b00027bb748821790007bb74082177bb7788217087bb7708217107bb7688217787bb7607bb650951780029518600295194002821a80007bba5850204e02bf07951c000282c780007b17900082c788007b17880082c790007b17800082c798007b17788218f000958720d887088216e80050225002b7ce00821be000c8b8087bc8187bca107bc9087bc78217187bc7388217207bc7308217287bc72895172002951800028219307bc920330052023302400228c1ca008218f000958740d887085022540268ce008216e000c868087b18d8017b1ad0017b19c8017b17c0018217387b17f8018217407b17f0018217487b17e8019517e0019518c0018219507b19e0013300560233023a012869ca008218f000958760502258028ac8007b1898017b1a90017b1988017b1780018217587b17b8018217607b17b0018217687b17a8019517a001951880018219707b19a00133005a0233024602281bca008218f0009587800050225c023bc8007b1858017b1a50017b1948017b174001821798007b1778018217a0007b1770018217a8007b17680195176001951840018219b0007b19600133005e0233023a0128c8c9008218f0009587a00050226002e8c7007b1818017b1a10017b1908017b1700018217d0007b1738018217b8007b1730018217c0007b17280195172001951800018219c8007b1920013300620233023a012875c9008217d8008218787b7818821880007b7810821888007b7808821890007b78955120fd951700028270d8008275d0008276c8009511e002320000951b000382b77082b87882b96882ba60d49808d4a707d48707520705033807680202951a0003491a18491a10491a087ba7491a38491a30491a2004951740039518200395190003491a2850206402b7c8951b000382b94082b74882b85082ba58951b00027bba387bb8307bb72895174002951820027bb92033006602951140fd951900027b90b8007b95b0007b96a8009515c0028411f08289828a08828b108288186476951c00027bc8587bcb507bca487bc940491c78491c70491c68951780029518600295194002491c6033001c0228e6f1951800028287407b17f0008287487b17e8008287507b17e0008287587b17d8008287607b17d0008287687b17c8008287707b17c0008287787b17b800828780007b17b000828788007b17a800828790007b17a000828798007b1798008287a0007b1790008287a8007b1788008287b0007b1780008287b8007b17788287c0007b17708287c8007b17688287d0007b17608287d8007b17588287e0007b17508287e8007b17488287f0007b17408287f8007b173095170002502068020bc795170002827a187b1af8008278107b18388279087b19288276951700017b1708951720017b178217307b1718018217407b1710018217487b1708018217507b1700018217587b1738018217607b1730018217687b1728018217707b1720018217787b175801821780007b175001821788007b174801821790007b174001821798007b1778018217a0007b1770018217a8007b1768018217b0007b1760018217b8007b1798018217c0007b1790018217c8007b1788018217d0007b1780018217d8007b17b8018217e0007b17b0018217e8007b17a8018217f0007b17a0017b1ad8017b18d0017b19c8019517e0019518c0019519a001951a8001951b6001951c40017b16c00150206a02f6f9821b2864698217f800d4b707821638d46908d47808988820d46707977720d487075207618217e8018218f8017b18f0008213e0018218f001d3b704d8b70cd89300da400cc9680ac9ca04d8ca02d8680a8218f800821cf000c98c0cc9ac0cc92c0cc9b707c90707c99306d4c707d44608d47808d44707988820977720d4870751070a0050206c0288c76497646850206e02f7ce0050227002c9ca00330072020a0c01951160ff7b1098007b1590009515a0008411e04911784911704911684911608317600a0f01821770821878821968821a60d49808d4a707d4870752074738076802024911384911304911287b17204911584911504911400495174095182049114850207402e9e050207602c99c00641750207802e8c450227a02e3c10051080a0050207c02e8c650207e025bce00837833073309330080020a0c01951180fe7b1078017b1570017b166801951580018411e04921580149215001492148014921400183174001330082020a0f01821750018218580182194801821a4001d49808d4a707d487075207b000502284023dc9009517e0009518c0009519a0004921c8005020860251dc8217e0007b17188213e8008214f0008210f80082120001821c0801821b1001821a1801821820018216280182193001821738017b17587b19507b16487b18407b1a787b1b707b1c687b12607b1098007b1490007b13880095178000951860951940821a187b1a80005020880259a00095172050208a02dfc3821838821930821a2882172050228c0273c10051080a0050208e02d3c55020900246cd00837833073309330092020a0c330294022826c4005022940222c4005209299511c07b10387b15307b16289515408411f0647664175020960245c9005022980222c2003200009511a07b10587b15507b16489515608411f0828b10828a18828c0882867b1a107b1c08d4ac08d4b60ad48a0a98aa207b1b18d4b808978820d4a8087b1752085b829718829810829a0882997b19207b1a287b18309518207b1738646750209a0213ca00956720d86708821a0850229c02dfc200821818c88a0ad88a08821b10c8b808821b7bba107bb9087bb77bb81850229e0238be00320000951180fe7b1078017b1570017b166801951580018411f0829a7b1a30829a087b1a20829a107b1a188299187b1908828a7b1a8289087b19288286108288187b18387b17407b1838017b1630017b19280195174001951820017b1a20013300a0023302940228f4c200821a40017b1a10821948017b1948821850017b1850821758017b17587b17d8007b18d0007b19c8007b1ac0008217087b17f8008217187b17f0008217207b17e800951700019518e0009519c000821a307b1ae0005020a202abfe821300017b1330821408017b1420821a10017b1a08821c18017b1c188217957220d87207821928c87908d89809da7709c86909d86907821b38c8b707821b587b1b78821b507b1b70821b487b1b688216107b16607b1c98007b1a90007b1488007b1380007b17b8007b19b0007b18a8009517a000951880009519607b12a0005020a402dcf395671fd86708821a485022a602d6c6008477e0821b08c8ab0bd8ab0a821c58821618c86c0cc8c808c8a808821a20c89a0a821c30c87c0cd87c07c87a0ad39a06d89a09da6709c8b909d8b907c887078218407b8a087b8c7b89107b8718955180fe821078018215700182166801951180013200821808027b1840821900027b19388217f8017b1730821af0017b1a287b1888017b1980017b1778017b1a70018217b8007b17a8018217c0007b17a0018217c8007b1798019517b00195189001951970017b1690015020aa0259fd330c33064911783302821bb801821ab00182172898793b821430974805d48909977805c8b9097b1a20c8a8087b18c000d8a808c88909d3b90a7b19c800d8b909daa809821a3898a73b821840978805d478038210c8018217c00198483b97aa05d4a808c87808c80303d8780ac83a0a82139000c889097b19b800d88908c8a8087b18b000821a788214207b1b187b1b98007b17087b17a0007b10107b10a80001821728d87c07821930d39608d89609da8709821b38d8ba0064a7821a40d3a208d8a20ada800a7b1778d3b707d48707da790a510aec017b12487b16507b1c588219a000d494078218a800821a9800d4a808d48707987720d49808978820d48707821cc8008210c000821bb8005207e6018217609578207b188000d87807821868c878097b199000d88906da7706c836067b168800d83607821670c87606821220d82003821818d38c0ad88c09daa309821a08c9ab07d8ab0a7b1a707b1bb800821b10821ab000c9ba0b821a70c9ab0bd8970ac9ab0bc9970ac98c09c93909c920077b1750017b1958017b1a6001951850017b1b68017b146864477b1cc8007b10c0005020ac0220c600821780006479821a8800d4a7077b167082189000d46808d48707987720d4a808978820d48707520723019517300164985020ae02aec400821a3001821738018218400182194801821bb0007b1be800821bb8007b1be000821bc8007b1bd800821bc0007b1bd0007b1908017b1800017b17f800951710019518f0009519d0007b1af0005020b002c0fb821728017b17b000821720017b17b800821868958420d88408821a98005022b2024fbe00821818017b18c8008218a000c88a0ad88a08821ba800c88b0b7b1ba800821c5895cc0188c801821650c88606d46c08888801821b10017b1bc000821b78c8b808d8b80b821248c8b2027b1998007b1aa000821780007b1760821790007b176882138800648a28e5fd82178218c0007b788218c8007b78088218b8007b78108218b0007b78189551d0fd95170002827028827520827618951130023200009511d0fb7b1028047b1520047b161804951530048411f082821082831882860882887b1338017b164801d436037b184001d42806d436069866207b123001d42308978820d468087b17e8005208dc058253188238187b18c00082501082144001954800017b182801d8480682174801c867087b182001d87802da660264388286107b16a8008286087b16b00082877b17b8008207187b1798008257088206107b1688008206087b16900082087b18a0008278187b187882588276107b16688276087b167082777b1780008287187b17488287107b17508287087b175882877b176082c7187b172882c7107b173082c7087b173882c77b174082b7187b170882b7107b171082b7087b171882b77b172082a7187b17c80082a7107b17d00082a7087b17d80082a77b17e0008297187b17f8008297107b1700018297087b17080182977b17100182163001c862027b12f000d8620782183801c887077b17180149210804492100044921f8039518f0034921f003000164475020b40259c30082172001951b00037bb79800821728017bb790008217f8007bb7c800821700017bb7c000821708017bb7b800821710017bb7b0008217f0007bb7a0009517d0039518b00395199003821a18017bbaa8005020b6022cf982193801d46909140700000000010000007b1720011407e0ffffff0000000082184001d878078218480194877b1928019497510722048217d0038218d8038216e8037b161001821be0037b1b1801821c4001d8c70264737b170801821a48016487d3a808d8a709647464a7da8209821a3001c9ab08d8ab0a821b3801c9b60bc9ab0bd8980ac9ab0bc99808c974096446c92909c9c30a83c720951c00037bca707bc9787bc88000951870037bcb88005020b8024dc20082171001951b00037bb728821718017bb7207bb618821708017bb7108217c8007bb7488217d0007bb7408217d8007bb738951750039518300395191003821ae0007bba303300ba029511d0fd951a00027ba0287ba5207ba618951530028411f08296829a087b1ac800829a107b1ac0008299187b19b800828b7b1b608289087b1968828a107b1a90008288187b177b18707b18e8017b1ae0017b19d8019517f0019518d0017b1bd0013300a802330294022817bb00821720019577c082184001d878078218480194878218280194875107cf028218500382165803821768037b172001821b60037b1b280182124001d8280464837b181801821a4801d3a608d8a60964acda8409821a3001c9ab08d8ab0a821b3801c9b70bc9ab0bd8980ac9ab0bc99808c9c609c94909c9230a8327407b1af0027b19f8027b1800039518f0027b1b08035020bc0202c10082172001951b00027bb7a800821728017bb7a0007bb69800821718017bb790008217087bb7c8008217107bb7c0008217187bb7b8009517d0029518b00295199002821a207bbab0005020be0210df951b000282b7d0007b17280182b7d8007b17200182b7e0007b17180182b7e8007b171001821840019587605022c002e8bb0082163801c868087bb8687bba607bb9587bb7508217287bb788008217307bb780008217387bb77895177002951850028219407bb9703300c2023302400228e2b90082184001958780005022c40298bb00c86808951b00027bb8287bba207bb9187bb7108217487bb7488217507bb7408217587bb73895173002951810028219607bb9303300c60233023a012894b900821840019587a000d88708821a48015022c802b9b80082163001c86a0ad86a08821b3801c8b8087b18e8017b1ae0017b19d8017b17d0018217787b1708028217687b1700028217707b17f8019517f0019518d001821980007b19f0013300ca0233024602282cb900821840019587c0005022cc0292ba007b18a8017b1aa0017b1998017b179001821798007b17c801821788007b17c001821790007b17b8019517b001951890018219a0007b19b0013300ce0233023a0128d9b800821840019587e0005022d0023fba007b1868017b1a60017b1958017b1750018217c0007b1788018217a8007b1780018217b0007b17780195177001951850018219b8007b1970013300d20233023a012886b8008217e800821810017b7818821818017b7810821820017b7808821828017b789551d0fb9517000482702882752082761895113004320000951b000482b73082b83882b92882ba20d49808d4a707d48707520795033807680202951a0003492ad800492ad000492ac8007ba7c000492af800492af000492ae00004951700049518e0039519c003492ae8005020d402c1b7951b000482b982b70882b81082ba18951b00027bbab8007bb8b0007bb7a8009517c0029518a0027bb9a0003300d602951180fc951900037b90787b95707b9668951580038411f08289828a08828b108288186476951c00037bc8187bcb107bca087bc9491c38491c30491c28951740039518200395190003491c203300c80a28f1e0951800028287c0007b1738018287c8007b1730018287d0007b1728018287d8007b1720018287e0007b1718018287e8007b1710018287f0007b1708018287f8007b1700019518000382877b17f8008287087b17f0008287107b17e8008287187b17e0008287207b17d8008287287b17d0008287307b17c8008287387b17c0008287407b17b8008287487b17b0008287507b17a8008287587b17a0008287607b1798008287687b1790008287707b1788008287787b178000828780007b1778828788007b1770828790007b1768828798007b17608287a0007b17588287a8007b17508287b0007b17488287b8007b1740951780025020d802dab5821898027b1830821a90027b1a38821988027b192882168002951740017b1718951760017b1710951780017b17089517a0017b178217407b1758018217487b1750018217507b1748018217587b1740018217607b1778018217687b1770018217707b1768018217787b176001821780007b179801821788007b179001821790007b178801821798007b1780018217a0007b17b8018217a8007b17b0018217b0007b17a8018217b8007b17a0018217c0007b17d8018217c8007b17d0018217d0007b17c8018217d8007b17c0018217e0007b17f8018217e8007b17f0018217f0007b17e8018217f8007b17e001821700017b171802821708017b171002821710017b170802821718017b170002821720017b173802821728017b173002821730017b172802821738017b1720027b1858027b1a50027b194802951760029518400295192002951a0002951be001951cc0017b1640025020da02b0f6821930821b28d49b07821a38d4a608d47808988820d4a707977720d48707520761646264a4951c000282c76882c8787b18380182c66082ca70d3b708d8b70cd82600da800cc94a08c9c803d8c808d84a0a821c3801c99c0cc9ac0cc98c0cc9b707c90707c92606d4c707d43609d47909d43707989920977720d4970751070a005020dc020bb6642764685020de027abd005022e0024cb9003300e2020a0c019511a0fe7b1058017b1550017b164801951560015022e40232b7003300e6020a0f3302e8022831b9005022e8022db9005207b6005022ea0231b3005020ec0292cf9517c0003300ee02951190fd951800027b80687b85607b8658951570028411f07b1708951a0002491a28491a20491a189517300295181002491a10013300e60a2882185022f00216b5005020f20250b35022f402b2ae005020f602b1da5022f8021eb0005207405022fa025aaf00c9c602d8c606d84a0a821c38c99c0cc9ac0cc96c0cc9b707c98707c90306d4c707d42608d47808d42707988820977720d4870751070a005020fc0206b5640764685020fe0275bc005022000347b800330002030a0c019511807b10787b15707b1668951580008411f06476491118491110491108490149113849113049112001951740951820641949112850200403d9cf502206034cad00320033000a030a0f33020c032803b80050220c03ffb70052077b50220e0304b2005020100365ce9517c00050201203935022140323b400502016035db250221803bfad0050201a032fd150221c032baf0052074050221e0367ae00c9c602d8c606d84a0a821c38c99c0cc9ac0cc96c0cc9b707c98707c90306d4c707d42608d47808d42707988820977720d4870751070a005020200313b4640764685020220382bb005022240354b700330026030a0c019511e0fe7b1018017b1510017b160801951520018411e04921f8004921f0004921e8004921e0008317e000330028030a0f33022a032845b60050222a0341b6005207c70050222c036eb6009517c0009518a0004921c80050202e037ecd951780005020300382b1821898007b181882169000821988007b1910821a80007b1a084911384911304911284911202a7b18587b16507b19489517609518409519207b1a405020320320d0502234031cae0052075764648217688218787b18821360821a70d3b706d8b70cd80308da680cc94a06c9c602d8c606d84a0a821cc99c0cc9ac0cc96c0cc9b707c98707c90306d4c707d42608d47808d42707988820977720d4870751070a0050203603edb264076468502038035cba0050223a032eb60033003c030a0c33023e0328f4aa0050223e03f0aa0032005208439511d07b10287b15209515308411f03a080000027b18183a080800023a091000023a0a1800027b18107b190864187b1a5020420379b70050224403c6ae0032000033071e50224803a2ab0050204a03efec50224c036aaa0033004e033302400328baaa009567205022500353a9003200828a10828218828c08828bd42c08d4ab09d48909989920d4a808978820d4980852087a951160ff7b1098007b1590007b1688009515a0008411f0647695b7207b1710d8b707c87c087b1808d8c808da7708c8a8087b18d8a807c8270750225203b8aa0050205403d6b6005022560362aa0033005803951140ff7b10b8007b15b0007b16a8009515c0003302460328b7aa0050225a035da90032000051070c50225e03c2aa00320095178000502060038faf502262036aa90052075450226403d1a9005020660377b60050226803c2a80050206a0330ff821748821258821340821a50821810d3870bd8870c6484821918d89308dab80cc96a0bd86a0a821608c9620650226c03bea80051070400821718646850206e03b2b8005022700399af00330072030a0c019511807b10787b15707b16689515800050227403eaaa005207653a072000027b17583a072800023a083000023a093800027b17507b18489518407b1940646750207603d3b500502278038aac0051082f836720491130491128140800000000000000657b183895182049112050207a03a6b50050227c03b5aa0032000033072150228003cfa900502082031ceb5022840397a800502086036cff9567405022880386a7003200828a10828218828c08828bd42c08d4ab09d48909989920d4a808978820d4980852087a951160ff7b1098007b1590007b1688009515a0008411f0647695b7207b1710d8b707c87c087b1808d8c808da7708c8a8087b18d8a807c8270750228a03eba80050208c0309b50050228e0395a80033009003951140ff7b10b8007b15b0007b16a8009515c00033027e0328eaa8005022920390a70032000051070c50229603f5a80032009517800050209803c2ad50229a039da70052075450229c0304a80050209e03aab4005022a003f5a6005020a20330ff821748821258821340821a50821810d3870bd8870c6484821918d89308dab80cc96a0bd86a0a821608c962065022a403f1a6005107040082171864685020a603e5b6005022a803ccad003300aa030a0c01951140ff7b10b8007b15b0007b16a8009515c0008411e0828218828a10828b088286827818827c1082790882777b1898007b1c90007b1988007b17800098673d97b803d4870798a83d972203d4820898bb3d97aa03d4ba0a9766038ea9c898088e79886b0101646c7b161085bb01da7b099aaad89a069a88c96808c99a0a9a77c9b7079ac600017b16208e898eabdb890b886900018599018e7cda790cd4a808db8b0c7b1c288d6980003307ff3308ff5020ac0355b6007b17087b18188216108d6900013307ff3308ff5020ae0361b6007b17307b1838821808d487077b17088d6980003307ff3308ff5020b00341b600821920889b8000821a08dbba079397ff647c821a38821618d4a606dab8069396ff82183093b893ba821728947a7b1a3894787b18309476947c7b1c28951740951880005020b20304b400821740821848821950821a58821b28d2b707d26808821b30d2b909821b38d2ba0a7b1a787b19707b18687b1760951780009518605020b4034cb4005022b603f6a60032007b173864868217a8008a79037b1988003307ff3308ff5020ba0370b5007b17a8007b18a000d468087b18308216708369807b19183307ff3308ff5020bc034cb500646a886c80007b1c68821930dbc90893a8ff648b8219a800821838d49808dac70893a8ff8217a00093c793c97b152094587b1838945b7b1b3094597b19a80094577b17a00082158000645782167864688219185020be03f2b4007b17187b18108217980082189000821988005020c003d9b4007b17087b18645764688219285020c203ecb4008215d48505821968821810da980582189000821a70daa805821608d47606821718da970682179800daa70682178000821878821988005020c40389b400821968939893978219209496949594979498821940821aa000e0a902d2a808821a488219a800e09a0ad29707821b50821c30e0cb0bd25c0c821558821938e09505d29606d46505d4cb0bd4a707d482088219607b98087b977b9b187b95108210c0008215b8008216b0009511c80032009511c0fe7b1038017b1530017b162801951540018411e0828a7b1a38828a087b1a30828a107b1a288288187b182082987b18188298087b18108298107b1808829618827818827910827a0882777b1818017b1910017b1a08017b1700019517c000951800015020c603e0b100821bc0008217c8008218d0008219d8007b1658821a087b1a50821a107b1a48821a187b1a40821a207b1a78821a287b1a70821a307b1a68821a387b1a607b1998007b1890007b1788009517a00095188000951960951a407b1b80003300c803951138ff7b10c0007b15b8007b16b0007b17608287107b17588287187b175082957b15a800829608829b18829910985c3d976703d4c70798663d979c03d46c0298993d97bb03d4b909975c038e7b88c600017b1c70856501db7b058e978e2bdb970b82877b17488287087b1740d4920982a7107b17980082a7187b17900082a77b17800082a7087b1778db9b058dc980007b19283307ff3308ff3300b80328cfb2008217b8008218b0008219a800821aa0007b17f8007b18f0007b19e8007b1ae000951700019518e0005020ca0333b1009551c0fe8210380182153001821628019511400132009511907b10687b15609515708411f08272827308827b10827718828c828a0882891082881849111849111049110849017b18387b19307b1a287b1c207b17587b1b507b134895174095182064197b12405020cc03fefd9551908210688215609511703200951160ff7b1098007b1590007b1688009515a0005022ce035cad00827218827310827608827c01821708d87c07821910d39608d89609da8709821b18d8b307821a20d3a208d8a20ada870ad3b307d48707da790a510a554911584911504911484911407b1c607b16687b13709517609518407b12787b12387b1c307b13285020d0031eff821c3082123895cc0188c701c87606d46c07887701821828c88707d88708c88202647328805022d20345a30032008217d8008218d0008219c800821ac0007b1738017b1830017b1928017b1a200195178000951820015020d60355af00821780007b1750821788007b17487b166898673d821970979803d4870798983d821a6097a903d4980898a93d821a7897aa03d4a9099766038e7a886b0001646c7b165885b601db7a068e978e8adb970a821790007b1740d49808821798007b1738db8a068dc980003307ff3308ff5020d803adb0007b17187b18308217688a79033307ff3308ff5020da03bab0007b17287b1820821818d487077b17188217588379803307ff3308ff5020dc0398b000821b5888b98000821a18db9a07821c20821a30d4ca0ada980a93b7ff93baff821b28939b939c85a8ff8577ff85c9ff85baff9467ff9468ff946aff9469ff821b38d29b02821940d2a903821948d29808821950d29707821660986b3f821c7897cc01d4cb0b821970989c3f976601d46c0c821668986a3f979901d4a909976601d46707d49808d4c30ad4b2097b1918017b1a10017b1808017b17000195174001951800015020de037dae004921f8004921f0004921e8004921e000951720019518e0005020e0035eae00955180fe8210780182157001821668019511800132009511c0fd951b00027bb0387bb5307bb628951540028411e0641682a31882a01082ac82a4088e3a8e0bdb3a0b8e427b6c7888ca2085aa01db420ad4300cdbcb0a829b187b6b58829b107b6b508292088299828b187b6b48828b107b6b40828b087b6b3082887b6838827b18827810827c0882777b6b18027b6810027b6c08027b6700027b63707b64687b6060510aee017b69407b62487b6700017b6c08017b68100195672001956800017b6b18015020e203820a826738017b67388264300182602801826c200182627895281fd82807826a68c87a09d8a90ada770a826360c8a307977a3b989b05d4ba0a97993b988805d49808c8c8087b6c107b6830d8c808c88009c89a0ad30a097b6a28d80a0ada980ad83708826970c8980898770597893bd49707988805c84707c87a0a7b6a20d87a09d84707826a3864a3c8a808c8780884271fc898087b6818510763826b30826228d42b08888801826a20d88a09826c18c99c09c98a0888ba01c9a20a95bbff4926d8004926d0004926c8007b67c0007b6be0007b6ae8007b68f0009567e0009568c0007b69f8007b64087b605020e403e8f682608264088263380182684095871fd88708826a485022e603eea300826850c88a0ad88a08826b58c8b80898ab05978c3bd4cb0b98820597aa3b989c05d4ca0a97993b987705d49707826810c88707d88709c8900cc8ca0ad30a0cd80a08dac908c84b0bc8b808d8b809d84b0bc83202c82b0bc8b909826b307b6ba000826b287b6ba800826b207b6bb000826b187b6bb8007b6780007b6a88007b6890009567a000956880007b6998005020e80341fb826b7898b73f8269685022ea030ca700826a7097aa01d48a0a97b8015022ec035fa4002853027b6828647a8897209427826358826450d4340894875207a4017b6a207b6ac0017b6c187b6cc8018267287b67d0019567e0019568c0017b6b107b6bd8017b62487b69405020ee0373088263e0018267e80182684095891fd8890a826b48c8ab08d8b80bdaaa0b826250c82b0b97ba3b988c05d4ca0a97883b989905d49808c838087b6848d83808c88709c8a900d37009d8700cda980c8264f8018269f001d82b08826a58c88a0a98bb0597a83bd4b80898aa05c89808d8980bc84a0ac8ba0ac88c0cd88c0bc8ab0b953301883801c88707d47308888801c89808d89809c84909826a487b6a80017b63a0017b67a8017b6088017b68b0017b6c90017b69b8019567a001956880017b6b98015020f0030afa826770956a00017ba7588267607ba7508267687ba7488267787ba7408267107ba7788267287ba7708267187ba76895676001956840018269207ba9603300f203951180fe7b1078017b1570017b166801951580018411e08289187b19788289107b19608289087b19708286827818827910827a08827b7b1858017b1950017b1a48017b1b40017b18b8007b19b0007b1aa8009517c0009518a0007b1ba0003300d40328030728a5008267789778037b68588d8980003307ff3308ff5020f40345ab007b67187b68508267788a79033307ff3308ff5020f60352ab005022f80318a6005020fa0344ab005022fc03a5a100826830e0a802826838e07804826840e0b803826848e0c80a826968989b3f826860978c01d4cb0b988c3f826870978801d4c808826c7898c73f979901d4790997cc01d4c407d492095022fe03cea100956700025020000473a9005022020445a30032009511e0fe7b1018017b1510017b160801951520018411e0641682ac0882ab82941895c2ff7b6c7088cc017b6b7888bb01db2c0b829c107b6c58829c0882997b69508289187b69488289107b69408289087b693882887b683082a21882a810827318827010827908827a64377b67187b67f80064077b67207b67f0007b69287b69e8007b62687b6860d42807947b7b6ae000510b7a018ecb826850888920859901dbcb098268588e8b8e4cda4b0cd4480bdab90c520c8a00826b7888b9208268709489947952099f00826730847700ff8268387b68c8007b67c0008267407b67d0008267487b67d8008267187b6798008267207b6790008267287b6788009567a000956880007b6a80005020040449058268a0008269a800826ab000826bb8009517e08477e064717b7b187b7a107b79087b789568c000502006042da800826b7898b73f8269705022080445a300826a6897aa01d48a0a97b80150220a0498a00028970097b8037b68588d8980003307ff3308ff50200c043aa9007b67187b68508267788a79033307ff3308ff50200e0447a900502210040da4005020120439a900502214049a9f00826838e0a802826830e07804826840e0b803826848e0c80a826970989b3f826860978c01d4cb0b988c3f826868978801d4c808826c7898c73f979901d4790997cc01d4c407d4920950221604c39f009567e0005020180468a70050221a0474a000320050201c043ea19511e0fd951900027b90187b95107b9608951520028411e082897b19588289087b19288289107b1960828618827818827910827a0882777b18f8017b19f0017b1ae8017b17e0019517c0019518e00150201e0480a6008217d8018218d001821ac8018219c0017b17507b1798017b18487b1890017b1a387b1a88019517a001951880017b19407b1980015020200457c9821228821358821c6064678218b8018210b0018219a8018216a001d3780a7b17787b1870d87807d8c008dba708d3290b7b1968d829076434d836097b1b30dbb70964c3d3c007d4a707db78095109a200821be0018218e8018219f0017b1a10821af8017b1208017b17087b1400018217687b1728017b1620017b16188216387b1648018216407b1640017b1a78017b1970017b1868017b1b60017b1310017b1030018217487b1750018217787b1718018217707b173801951760019518400195192001951a00018216507b16580164267b1020502022048cfc821708821a10821020646282161882145882136001d8640b821868d88208821930da9b08d8030c821978821b70d8b909daac09da780951097e8217e0018218e8018219f001821af8017b1288007b148000821b687b1ba8007b16a000821b387b1bc800821b407b1bc0007b1af8007b19f0007b18e8007b17e0007b1390007b10b0008217487b17d0008217787b1798008217707b17b8009517e0009518c0009519a000951a8000821b507b1bd80050202404faf650222604a19e0032009511b07b10487b15409515505022280472980050202a04a3a300491118491110490111330704641849110850202c048ba30039086c020256183f0b20036c020240013308800202838833070133092433002e040a0c019511a07b10587b15507b16487b17388294188293828b828c08829a10829908d63b07ca3c06c86707d86706d63c05c86505ca9b06c867077b1730d86707d69b06c86707c85707d85706d69c05c86502ca9c05c87500d85007c827077b1740828618828210caac077b1428cab405c87508ca2907ca3605c87505caba07ca3204c847077b1a20d6ba0a7b1a08c88a0ad632087b1818c85808d8470564647b18107b1ac88a0ac85a0ad46c05d42b08d45808c87006d80605821740c87a0ac85a0a51088000d37a00d87a08db08057b16408217088218d878008ec88216287b1a088e6ad2a808d6b60a8eaad4a808821720d67c0a8eaad4a808d40800821818821a10d88a088e9a8e4cd2ca0ad6340c8eccd4ca0ad629098e99d4a909d49808d46709d4420a8e998eaad2a909821a08d49808d40807821640d45707847701520725ca3b078218387b878217307b87087b86107b8a1882105882155082164895116032005020300449fe9511b07b10487b154095155050223204ca9800502034040afc50223604959e0032009511a07b10587b15507b164895156050223804af9a0050203a04b4a2008217108218188219821a087b67107b68187b697b6a0850223c04fc950032009511a07b10587b15507b16489515608411e064168289828a08828b108288187b67187b68387b6b307b6a289568207b6920330750203e0468a10039086c020256181f0b20036c020220019517e08479e07b691064913307800202837783993308200a09826a1082a71882a81082a90882aa6f776f886f996faa826b187bba187bb9107bb8087bb7502240046c95003200827218827310827608827c01821708d87c07821910d39608d89609da8709821b18d8b307821a20d3a208d8a20ada870ad3b307d48707da790a510a467b1c407b16487b13509517407b12587b12387b1c307b132850204404befe821c3082123895cc0188c701c87606d46c07887701821828c88707d88708c882026473288f50224604a295003200951120ff7b10d8007b15d0007b16c8009515e0008411f0829a8284829b08828008829210828c10829318828618d30b087b1b30d80b097b1a38d84a0adb890ad36308d86309d8c20bdb890bd3c209d49808db8b0a510af100827918827810827a0882777b1780007b1a88007b1890009517a000951880007b1998007b1c287b16207b12107b13187b14086406502048045cfe821ba800821aa000821830c8b808821238c8a202d8a209c89804d3b408d8b40cda890cc86b08821308c8a303d8a30ac8a8088210b8008219b000d3b806d8b80bda6a0b821a10c89a0a821618c80606d89a07c86707c8ac0cd8ac0ac87a0a821720c87000821728c89707d89709c80909c87b0bd87b07c897077b13407b12607b18487b14687b1b507b1c707b17589517609518407b1a7833004a049511807b10787b15707b1668951580003302420428769d0050224c045c9c0032009511e0fe7b1018017b1510017b160801951520018411e08283828b08828c1082881882721895b9ff88b601883a01db960a82761082790882777b12f8007b16f0007b19e8007b17e0007b18d8007b1cd0007b1bc800d4c808948a7b13c000510a97007b1780007b1988007b1690009517a000951880007b12980050204e04e4fc50225004e99b005020520424a0008217c0008218c8008219d000821bd8008212e000821ce800821af0008216f8007b1b387b19307b18287b172082177b17588217087b17508217107b17488217187b17407b16787b1a707b1c689517609518409519207b126050205404ccfd50225604d298003200502058049c999511b07b10487b154095155050225a040b950050205c04f2fe50225e04d69a003200951120ff7b10d8007b15d0007b16c8009515e0008411f0829a8284829b08828008829210828c10829318828618d30b087b1b30d80b097b1a38d84a0adb890ad36308d86309d8c20bdb890bd3c209d49808db8b0a510adb00827918827810827a0882777b1780007b1a88007b1890009517a000951880007b1998007b1c287b16207b12107b13187b1408640650206004f1fb821ba800821aa000821830c8b808821238c8a202d8a209c89804d3b408d8b40cda890cc86b08821308c8a303d8a30ac8a8088210b8008219b000d3b806d8b80bda6a0b821a10c89a0a821618c80606d89a07c86707c8ac0cd8ac0ac87a0a821720c87000821728c89707d89709c80909c87b0bd87b07c897077b13407b12607b18487b14687b1b507b1c707b17589517609518407b1a7850206204b3ed50226404079a0032009511e0fe7b1018017b1510017b160801951520018411e08283828b08828c1082881882721895b9ff88b601883a01db960a82761082790882777b12f8007b16f0007b19e8007b17e0007b18d8007b1cd0007b1bc800d4c808948a7b13c000510a97007b1780007b1988007b1690009517a000951880007b129800502066048ffa5022680494990050206a04cf9d008217c0008218c8008219d000821bd8008212e000821ce800821af0008216f8007b1b387b19307b18287b172082177b17588217087b17508217107b17488217187b17407b16787b1a707b1c689517609518409519207b126050206c04e2fd50226e047d960032005020700447979511b07b10487b154095155050227204b6920050207404f2fe502276048198003200956701887801821910c89808d48709889901821ac8a909d8a90a821b18c8ba0a7b1828017b1720017b193001951720017b1a380150207a0455fd7b1608956802d86807821a10c87a09d8a90ada770a8216c86a0ad86a07821b18c8b7077b1718017b1a10017b190801951700017b18000150207c046dff821708957803d87807821a10c87a09d8a90ada770ac86a0ad86a07821b18c8b7077b17f8007b1af0007b19e8009517e0007b18e00050207e0432ff821808958704502280040496007b18d8017b1ad0017b19c8017b17c0014921b8014921b0014921a8014921a0019517c0019518a00150208204529c00821708957905502284045b92004921b8004921b0004921a8004921a0007b17d8007b1ad0007b18c8009517c0009518a0007b19c0005020860400eb821808958706502288048d95007b1898017b1a90017b1988017b17800149217801492170014921680149216001951780019518600150208a04db9b0082170895790750228c04e491004911784911704911684911607b1798007b1a90007b188800951780009518607b19800050208e048eea82170895790850229004ae91004911384911304911284911207b17587b1a507b18489517409518207b1940502092045dea955100fe8210f8018215f0018216e8019511000232008218e0017b1820821cf8017b1c388219e8017b1928821bf0017b1b30958706d88708c88906d8960ada880ac8ba0ad8ba08c88c0b7b1760017b1668017b1a700195178001951860017b1b7801502096042bc2821798017b1718821788017b1710821780017b1708821790017b1733068002038367330098040a0601826708826881691050229a04d893009777206f99989920d497079888208219d39808821908d39707d48707821810d3a808821918d49808d4870788770149215801492150017b174001951740014921480133009c04951140ff7b10b8007b15b0007b16a8009515c00033025c0328eb8c00821720957904d87907821a2850229e04059300821730c87a0ad87a07821b38c8b7077b1718017b1a10017b18080195172001951800017b1900015020a0041cc1821820018217280182193001821a38017b1af8007b19f0007b17e8009517e0007b18e0003300a204951140ff7b10b8007b15b0007b16a8009515c0003302940328678c008217487b1798008217507b1790008217587b1788008217407b1780004921b8004921b0004921a8009517c0009518a000951980004921a0005020a4045bbb8218c0008217c8008219d000821ad8007b1a787b19707b17689517607b18603300a604951100fe7b10f8017b15f0017b16e801951500028411e082768278087b1810827a107b1a8277187b17187b1758017b1a50017b184801951740017b1640013300780428d5f55022a804ad920032005208489511d07b10287b15209515308411f03a084000023a094800023a0a5000027b18187b19107b1a081409000000006465726964187b195020ac048a97005022ae04d78e0032000033071c5022b204b38b005020b40400cd5022b6047b8a003300b8043302aa0428cb8a009567205022ba046489003200828a10828218828c08828bd42c08d4ab09d48909989920d4a808978820d4980852087a951160ff7b1098007b1590007b1688009515a0008411f0647695b7207b1710d8b707c87c087b1808d8c808da7708c8a8087b18d8a807c827075022bc04c98a005020be04e796005022c004738a003300c204951140ff7b10b8007b15b0007b16a8009515c0003302b00428c88a005022c4046e890032000051070c5022c804d38a003200951780005020ca04a08f5022cc047b89005207545022ce04e289005020d0048896005022d204d388005020d40430ff821748821258821340821a50821810d3870bd8870c6484821918d89308dab80cc96a0bd86a0a821608c962065022d604cf88005107040082171864685020d804c398005022da04aa8f003300dc040a0c3302de04285b89005022de0457890032005208439511d07b10287b15209515308411f03a085800023a096000027b18187b1910140800000000000073657b1808641849015020e204e095005022e4042d8d003200003307125022e804098a005020ea0456cb5022ec04d188003300ee043302e004282189009567205022f004ba87003200828a10828218828c08828bd42c08d4ab09d48909989920d4a808978820d4980852087a951160ff7b1098007b1590007b1688009515a0008411f0647695b7207b1710d8b707c87c087b1808d8c808da7708c8a8087b18d8a807c827075022f2041f89005020f4043d95005022f604c988003300f804951140ff7b10b8007b15b0007b16a8009515c0003302e604281e89005022fa04c4870032000051070c5022fe0429890032009517800050200005f68d50220205d187005207545022040538880050200605de94005022080529870050200a0530ff821748821258821340821a50821810d3870bd8870c6484821918d89308dab80cc96a0bd86a0a821608c9620650220c0525870051070400821718646850200e0519970050221005008e00330012050a0c019511807b10787b15707b166895158000502214055189005207653a076800027b17583a077000023a087800023a098000027b17507b18489518407b19406467502016053a940050221805f18a0051082f8367203a088800023a099000027b18384911287b193095182049112050201a050d940050221c051c890032000033072e502220053688005020220583c950222405fe8600502026056cff95674050222805ed85003200828a10828218828c08828bd42c08d4ab09d48909989920d4a808978820d4980852087a951160ff7b1098007b1590007b1688009515a0008411f0647695b7207b1710d8b707c87c087b1808d8c808da7708c8a8087b18d8a807c8270750222a0552870050202c0570930050222e05fc860033003005951140ff7b10b8007b15b0007b16a8009515c00033021e052851870050223205f7850032000051070c502236055c870032009517800050203805298c50223a0504860052075450223c056b860050203e05119300502240055c85005020420530ff821748821258821340821a50821810d3870bd8870c6484821918d89308dab80cc96a0bd86a0a821608c9620650224405588500510704008217186468502046054c950050224805338c0033004a050a0c33024c0528e4850050224c05e0850032005207743a079800027b17583a07a000023a08a800023a09b000027b17507b18489518407b1940646750205005749200502252052b890051083e8367203a08b800023a09c000023a0ac800027b18387b19307b1a28140900000029253031209518207b1920502054053892005022560547870032000033073d50225a0561860050205c05aec750225e05298500330060059511807b10787b15707b16689515800033024e0528e08600956740502262050284003200828a10828218828c08828bd42c08d4ab09d48909989920d4a808978820d4980852087a951160ff7b1098007b1590007b1688009515a0008411f0647695b7207b1710d8b707c87c087b1808d8c808da7708c8a8087b18d8a807c8270750226405678500502066058591005022680511850033006a05951140ff7b10b8007b15b0007b16a8009515c000330258052866850050226c050c840032000051070c50227005718500320095178000502072053e8a50227405198400520754502276058084005020780526910050227a0571830050207c0530ff821748821258821340821a50821810d3870bd8870c6484821918d89308dab80cc96a0bd86a0a821608c9620650227e056d83005107040082171864685020800561930050228205488a00330084050a0c3302860528f9830050228605f5830032009511b07b10487b1540951550502288056d850050208a059e9000491118491110490132330704641849110850208c0586900039086c020256183f0b20036c020240013308800202838833070133092433008e050a0c01951160ff7b1098007b1590007b1688009515a0008411f0829a7b1a30829a087b1a28829a107b1a38829618828b828a088289108288187b17207b18107b18587b19187b19507b1a087b1a489517609518407b1b7b1b403300900533029402287f89006462821b28821330821778821460821970821a68d37606d87208821738d8970cdb680cd3ba00d8ab0ad84308db0a08d37909d46909db9c0851088800647a98773b972805d4780298b83b97a605d4680898393b97ba05d4a909973a058217c87a0ad87a0b821c08c8c909c8b909d3c907d8c906da7b06821c18c8c808c88606d8860bd8c808821c10c82c07c88707c8b70795a820d8a80ac8a90bd89b09daaa09c86909d8690ac8a707821a207ba87bab087ba9107ba71850229205f4830032005020940588fe9511e87b10107b15087b16828b188294188282828c08829a088295828610829810c8ca09c82503d85305c85909d3a900d8a90ada050ac86805c85a0ad85a00c8b404d88508c84808c88000d86a05d3b008d8b00bda850bd3a606d46808d3c906d8c90cd82305db6c05db8b0552051b7b737b79087b7a107b70188210108215088216951118320050209605f6ea50229805e18100320052076a3a07d000027b17583a07d800023a08e000023a09e800027b17507b18489518407b1940646750209c05758e0050229e052c85005108348367203a08f000024911287b1838140800000000000000297b18309518204911205020a005438e005022a2055283003200003307295022a6056c82005020a805b9c35022aa053481003300ac059511807b10787b15707b16689515800033029a0528eb82009567405022ae050d80003200828a10828218828c08828bd42c08d4ab09d48909989920d4a808978820d4980852087a951160ff7b1098007b1590007b1688009515a0008411f0647695b7207b1710d8b707c87c087b1808d8c808da7708c8a8087b18d8a807c827075022b0057281005020b205908d005022b4051c81003300b605951140ff7b10b8007b15b0007b16a8009515c0003302a405287181005022b80517800032000051070c5022bc057c81003200951780005020be0549865022c0052480005207525022c2058b80005020c405318d005022c6057c7f5020c80531ff821748821258821340821a50821810d3870bd8870c6484821918d89308dab80cc96a0bd86a0a821608c962065022ca05797f5107040082171864685020cc056e8f005022ce055586003300d0050a0c018289828218828a08828c10959b0188b901c8a909d49b0a88aa01c8ca0ad8ca0cc82c0cd4c902d4ab08d428085108107b7b7b79087b7a107b7c1832009511f87b105020d205d7e85022d405c27f3200951160ff7b1098007b1590007b1688009515a0008411e082897b19188289087b19108289107b19088286185022d605c289005020d805408d007b16588217087b17508217107b17488217187b17409517609518405020da05a18d005022dc05d680003200951110ff7b10e8007b15e0007b16d8009515f0008411f0828218828c10828b828608d42c0888ba20946a948a520a8c018298187b18488298107b18408298087b183082987b1828827918827810827a0882777b1790007b1a98007b18a0009517b000951890007b19a8007b12387b1c187b16107b1b085020de050aea82192895971fd897086496821930c8890ad89a03649cda8803821b40c83b087b182097883b98a905d4890997aa3b987705d4a702886a2094ca821748d4b707947a8213b00094a9821cb80094a2c832027b1230d83208c88c0bc89b0b7b1b28d3cb09d8cb00da980082170895791fd87906821810c86807d88708da6608821418c8840297263b987b05d46b0b97773b989905d49707c87306d83609c89c07c8b703d3c30bd8c30cdab90c821b20821740d87b09821748c8970798bb0597793bd4b909987705821bc8008218c00094a994a7c8b707c88909d8890ac8a707c89000d8900ac87a0ad84207821938c8790998220597973bd47207989905c8b909c88707d88708c89808c87c0cd87c07c887077b16508218307b18707b13588218287b18787b1c607b1080007b17689517709518507b1a88005020e0052ddb955110ff8210e8008215e0008216d8009511f0003200951180fd951900027b90787b95707b9668951580028411e064168283828908828b10828c18827818827210827a0882777b6858027b6250027b6a48027b6740027b6c487b6c18027b6b507b6b10027b69407b69080295672002956800027b63387b6300023300e2053302940228638300956a000282a73882a83082a9287b67107b6818d478087b69208897017b689800948751079905826720027b67289567e001956840025020e4059b8a008269e0018267e8018268f001826af8015022e6056185005020e8058fad8262c0018263c8018264d001826ad801956c000282c95882c85082c74882cb40826c107b6c5801826c187b6c5001826c207b6c4801826c287b6c4001956c00017bca787b6470017b6368017b6260017b69707bc998007b68787bc890007b6780007bc788009567800195686001956940017b6b90007bcb80005020ea05f0fc826b288262208e2788b820858801db2708826c188ec7826a108ea9daa70982679800da78095109d10184bbe07b6b309517e08477e07b67880064718267707b67f8008267787b67f000826780007b67e800956700019568e000826990007b69e0005020ec0509e73300492698003303330b33043302330c956800018287107b6790008287187b6780008289828a0882678800826890007b7810826880007b78187b797b7a08330920017b6990008267307b6b8000d87b07857b01944b01d4c207947b01826838c89808826a40c80a0a82695082679800c87909826748c83707520b93017b64607b62687b6c707b6378826b9000d8b80bc8ba0ad30a02d80a0cda2b0cc89c0cd89c02826b9800d8b909c89707c82707d4c809d4a707d47909989920d4c707977720d497077b60585207b5039567a0005020ee059586008267a0008269a800826ab000826bb8009518e08488e064817b8b187b8a107b89087b87826788005020f005188900826c880082c782c80882c910957701887a01c8a80882ca18d4870b88bb01c89b0bd89b09c8a9097bc77bc8087bcb107bc91882679000957220d87208826758c88709d8790ada880a82679800c87a0ad87a08826378c8830382678000957820d8780b826760c8b704d87407dabb07826b68c8b707d8b70b826c70c8bc0c649064297b6a9800648b647228b6fe64a8d4cb07d48208d487075107e301826738957820d87807826a40c87a09d8a90ada770a826750c87a0ad87a07826b48c8b707d4a80bd49707d47b0b98bb20d4a707977720d4b7075207a402956720015020f205848500956800018287387b6790008287307b6788008287287b67788287207b678000826b2828850182649000826328826b30d33b0b826c18d4cb0b826210826c20d42c0cd4cb0b510b2601d8480bc8ba0ad30a02d80a0cda2b0cc89c0cd89c02826b9800d8b909c89707c82707d4c809d4a707d47909989920d4c707977720d49707520716029567c0005020f405f684008267d8007b6790008267d0007b6780008267c8007b67788267c0007b677082672897773b9878387b6898009a8980003307ff3308ff5020f605b588007b67687b68503307ff3308ff826998005020f805c488007b67587b6860826750d487077b6750826798009579803307ff3308ff5020fa05a18800826b980088b98000826a50db9a08826c58826a68d4ca0ada970a93b8ff93baff826b60939b939c826770e0a707826978e0890982688000e0c80a82689000e0b80b9518e08488e064817b8b187b8a107b89087b87826788005020fc05d286008263288262100198373f826920979801d4870798983f826a1897a901d4890998a83f972a01d48a0a9738015022fe052e7f28df004926800049167849268800492690000197bb037b6b98008db980003307ff3308ff50200006c087007b67587b68708267288a79033307ff3308ff50200206cd87007b67687b6860826858d487077b6758826798008379803307ff3308ff50200406aa8700826b980088b98000826a58db9a07826c60826a70d4ca0ada980a93b7ff93baff939c826b68939b826878e0a80282688000e0780482688800e0b80382689000e0c80a826920989b3f826818978c01d4cb0b988c3f826810978801d4c808826c2898c73f979901d4790997cc01d4c407d4920950220606117e9567400250200806b78500955180fd951700028270788275708276689511800232000050200a067e7fff9511b07b10487b15409515508411f08272827308827b10827718828c828908828a108288187b18187b1a107b19087b1c7b17387b1b307b132895172064187b122050200c068df950220e0689800032008217b8018218b0018219a801821aa0017b17187b1758017b18107b1850017b19087b1948017b1a7b1a40017b1678018217787b1770018217707b17680195176001951840018216687b166001502012064ae48217607b1718018217787b1710018217707b17080195172001951800017b16000150201406bde1821338821630821738017b1768821730017b1758821728017b1760821720017b17483300330c491170491178018217d87007821908d39c08d89c09da8709821b10821770d8b702821a18821878d3a804d8a80ada420ad3b707d44707da790a510a07019568207b1830d86807c8730a7b1a28d83a06da7706821740c876067b1620d87607821950c879097b18c0007b1ac8007b16d0009517e0009518c0007b19507b19d8007b10407b1c38330016063302940228217c8217e0008218e8008219f000821af8007b1a98007b1990007b1888007b1780008217687b17b8008217587b17b0008217607b17a8009517a000951880008216487b16a000502018060bf8821c38821040956601886701821860c878087b18607b1648d48607887701821858c88707d88708821968c889097b1968950001880801c88c0cd4c008888801821970c89808d89809821a78c89a0a7b1a788216308213288219207b19407b17587b187028cafe955120fe8210d8018215d0018216c8019511e00132009511e87b10107b15087b16828910828a18828b088285d4ba0ad49508d4a808988820d4a909979920d4890952094b6478827918827a108277828808d4a70bd49808d48b0b98bb20d4a808978820d4b8085208263906680202645850201a0607840083778358646982101082150882169511180a033200009511e0fe7b1018017b1510017b160801951520018411f082897b1910828a087b1a08828b107b1b8286187b17207b16d8007b1bd0007b1ac8009517e0009518c0007b19c00050201c0656698217f8007b17188217f0007b17308217e8007b17288217e0007b17387b16980082177b1790008217087b1788009517a000951880008219107b19800050201e066e828212b8008214b000821aa000821ca800821738957320d8730695a0e0d8a009c89c0a95aaffd3ca07d8ca0cda790c821828c86807d88708da6608884601c96206821930c8890b9548ffc88c0cd88c08c88602d89b08821618c868087b10407b17687b13607b1b707b1a487b18787b1c509517609518407b12585020200683fe8217207b76188218307b78108218287b78088218387b7850222206c57a3200951140fe7b10b8017b15b0017b16a8019515c0018411e064168279187b69688279107b69708279087b69800082777b679800828a828b088289108287187b67787b6778017b6990007b6970017b6b88007b6b680195678001956860017b6a607b6a60013300240633029402284b799567000182799800827a9000827b8800d49a0788b801947851082a02826780017b67387b672001826798007b6740017b6b407b6b2801826780007b6748017b6a487b6a30018267707b6750017b69507b69380195674001956820018269687b6958015020260684e28267687b67f8008267707b67f000826780007b67e800956700019568e000826998007b69e000502028069ddd956800018287187b67308287107b67288287087b672082877b67183302330c49269800330382606001826738d87207826940d39c08d89c09da8709826b4882679800d8b704826a50d3a308d8a30ada840ad3b707d48707da790a510a3e01950820d80807648a7b686082688800c87809d88908649b7b6968da770882679000c878087b6870d87807826978c879099517e08477e07b675864717b68b0007b6ba8007b6aa0009567c0009568a0007b69787b69b8007b6288007b6c90007b63800033002a063302940228ec778267d0008268d8008269c000826ac800826358643b7bb7107bb8187bb97bba0882681882678800c8870282678800d87207826920826a9000c8a909c87909826a9000d39a0a826b9000d8b90bdaa70b82672882689800c88707d8870a826c3082688000c88c0cc8ca0ac87b0bd87b07c87a0a9517e08477e064717b7a187b7b107b79087b72643850202c06567f82638000826c900082628800952201882701c87c0cd4c20788770182689800c88707d88708c883038260608268687b6888008268707b6890007b6798002894fe955140fe8210b8018215b0018216a8019511c001320050202e06e078ff9511b07b10487b15409515508411f08272827308827b10827718828c828908828a108288187b18187b1a107b19087b1c7b17387b1b307b132895172064187b12205020300608fd50223206eb79320050203606217e801734977720821838d467078219107b19488219187b19407b18587b1750951760951840502038067a7e50223a06b07132009511a0fe7b1058017b1550017b164801951560018411f0828c108282188283088286d42308d4c60bd48b0b98bb20d4c808978820d4b8087b17785208700182a7187b175882a7107b176082a7087b176882a77b17708297187b17488297107b17509567407b1728d86707c873087b1808d83808da77088297087b171082977b1718c8c8087b18d8c807c827077b173849213801492130014921280195182001492120014064677b1c307b12407b132050203c06477c8217087b17c8008217287b17c0008217487b17f8008217507b17f0008217107b17e8008217187b17e00082177b17d000951700019518e0009519c000821a387b1ad80050203e0628b2821700017b1750821708017b1748821710017b1738821718017b1728956720d86708821a20c88a09d8a90ada880a821830c88a0ad88a08821b40c8b8087b1898007b1a90007b1988007b1780008217587b17b8008217607b17b0008217687b17a8009517a000951880008219707b19a00033004006330246022823758217788218287b78188218387b78108218487b78088218507b789551a0fe82105801821550018216480195116001320000826720826818826908826a108e7b8e8cdb7b0c8eab889902859901dbab09d48707db7c0995170010492728f895170010492720f8951700107b7910f89517ff0795771195180010492818f833004406951140ff7b10b8007b15b0007b16a8009515c0003302c60428d66e821760951900077b97e8008217687b97e0008217507b97d8009517f0079518d0078216587b96d000330046063302940228337495170010827708f895180010828800f8951b000782b9f00082baf800d4870788980694a89478492bc800492bc0007bb8b0009517b007492bb80033004806951140ff7b10b8007b15b0007b16a8009515c0003302fc04284a6e821760951900077b9788008217687b9780008217507b977895179007951870077b967033004a063302940228ac73951a000782a790007b17c80082a7a0007b17c00082a798007b17b80082a6a800821798007ba7488217a0007ba7408217a8007ba73895175007951830078219b0007ba93033004c0633029402285d73951c000782c76882c85882c95082ca60d36707821bb800d3b808d487078218c000d3a808821ac800d3a909d49808d48707887701491c28491c207bc71095171007491c1833004e06951140ff7b10b8007b15b0007b16a8009515c00033023405286a6d8218289587f6d88708821b20c88b099599ffd3b90ad8b90bdaa80b821a1895a8ffc88b0bd88b0888aa01821c10c9ac0ac8a808d4b8088877df039497948749210807492100077b17f0069517f0064921f80633005006951140ff7b10b8007b15b0007b16a8009515c00033026e0528f96c4921900049218000492188004911784921b80033064921c0004921c800018217b000951a00067ba7b0008217a8007ba7b8008217a0007ba7c0009517d0069518b006821998007ba9c8003300520633029402283472951900068297e8008298d0008293e000829ad800821bc800d37b02d87b078219c000d8390cdb270cd3a607646bd8a60a8216b800d88608db7a08d33909d42909db9c0851082c018216b8007b1670018217b0007b1790017b1b707b1b78018217a8007b1798018217c0007b1780018217a0007b17a0018217c8007b1788019517b0019518900195197001821a98007b1aa80150205406c2e78219b0018217b8018218c001821ac8017b1a48017b1840017b17380195175001951830017b1930013300560633029402286971821750018218580182196001821a68017b1ae8007b19e0007b18d8007b17d0008217787b170801821788007b170001821780007b17f800951710019518f0009519d000821a90007b1af0005020580666e8821728017b1778821720017b178800821718017b178000821710017b179000956601886701821870c878087b16b800d4860764868877018218c000c88707d887088219c800c889097b19c8007b17c000285dfe82178000821878d487071408000064a7b3b6e00d82199000d3980882198800d49707d48707887701951800064928a8004928a0007b879000951790064928980033005a06951140ff7b10b8007b15b0007b16a8009515c0003302ba0528d66a951a0006491a68491a60491a589517700695185006491a500133060150205c06eed4951b000682b97082b77882b8800082ba88007bba287bb8207bb71895173006951810067bb91050205e06cbe9951b000682b73082b83882b94082ba48951c00057bcae8007bc9e0007bc8d8007bc7d000491b08490b492cf8009517f0059518d0057bc6f00050206006dbe9951900054929a8004929a000492998009517b005951890057b9690005020620661d4951b000582b7b00082b8b80082b9c00082bac8007bba487bb9407bb8387bb730491b68491b60491b58951770059518500595193005491b50502064061c99951a000582a67082a9787b19c00082ab80007b1bb80082a888007b18c8008217307ba7088217387ba78217407b17f8048217487b17f0047ba8287bab207ba918951710059518f0047ba6107b1690005020660658eb9567018878018219c000c89808d48709889901821ab800c8a909d8a90a821bc800c8ba0a821b60951c00047bcbc800821b687bcbc0008216507bc6b800821b587bcbb0007bc8d8007bc7d0007bc9e0009517d0049518b0047bcae80033006806951120fe7b10d8017b15d0017b16c8019515e0018411f082797b19688279087b19708279107b19788276187b166082897b1930828a087b1a38828b107b1b408287187b17507b1798017b1b90017b1a88019517a001951880017b1980013300100633029402285c6e821760951a00047ba788008217687ba780007ba67895179004951870048219587ba97033006a0633029402282e6e951b000482b9900082b7980082b8a00082baa8007bba487bb8407bb73895175004951830047bb93050206c0622f3821250048213580482196004821a680482179000957b02d87b0c8217c000c8c706d87607dacc078218b800c88707d8870c8218c800c88c0c7b1a0804951a00047ba97b13f8037b12f0037bac287ba7207ba618951710049518f0037bab1050206e06e9f382179000957903d87907821ac00050227006256e8217b800c87a0ad87a07821bc800c8b707821b9800951c00037bcbc800821ba0007bcbc000821ba8007bcbb800821bb0007bcbb0007bc7e8007bcae0007bc8d8009517d0039518b0037bc9d0005020720682f3330680020383677b17b0000a067b16a8003a0788020339089002033a0a8002036f779779206f88988820d498029877206fa8978a20d47a0398882082179000957a06d87a0b64768217c000c8b70cd87c09dabb098217b800c87909d8790b8217c800c87b0b492188037b1ba803951b00037bb9a0007bbc98007bba90007bb880007bb37895179003951870037bb27033007406951160ff7b1098007b1590007b1688009515a0008411e082897b19188289087b191080861033023406286270956907d86907821ac00050227606036d8216b800c86a0ad86a07821bc800c8b707951b0003491b48330c491b40491b38491b307bb7687bba607bb85895175003951830037bb950502078062be682179000957908d87907821ac000c87a08d8a80ada770ac86a0ad86a07821bc800c8b707821b10951c00037bcb08821b187bcb821b207b1bf802821b287b1bf0027bc7287bca207bc818951710039518f0027bc91050207a06d0e5951900024929c8004929c0004929b000019517d0029518b0024929b80050207c0655d0951800028287e8007b1798008287e0007b1790008287d8007b1788008287d0007b1780008217b00033007e060a068219a80033028006282d698219a8005022800626697b18c00050228206f06f7b17b8009888207b18b0009517900250208406cb6aff951c000282c8a8007b18c80082c6a00082c998007b19a80082cb90007b1ba000491c288217b0007bc7208217b8007bc7188217c0007bc7108217307bc7488217387bc7408217407bc7388217487bc7307bc8687bc6607bc958951770029518500295193002951a10027bcb505020860661f48219a8008214a0008217c800d49707d46408d47808988820d46707977720d487075207b0009518000282877882828800828370828a8000d3970bd8970cd84308dab80cc96a0bc9cb00d8cb0bd86a0a821cc800c9c20c50228806226b520775821780007b17d001821788007b17d8013a07f800023a090001023a0a0801023a0b1001027b1708027b1900027b1af8017b1bf001821790007b17e0019519f001951ad001821798007b17e801644750208a068372955100f8951170ff9511a0068210e8018215e0018216d8019511f00132000052083c9511d07b10287b15209515308411f03a081801023a092001023a0a2801027b18187b19107b1a086418490150208e065170502290069f67320000330717502294067c6450209606caa550229806456333009a0633028c0628966395672050229c0630623200828a10828218828c08828bd42c08d4ab09d48909989920d4a808978820d49808520875951160ff7b1098007b1590007b1688009515a0008411f0647695b7207b1710d8b707c87c087b1808d8c808da7708c8a8087b18d8a807c8270750229e0696635020a006b56f5022a20642633300a406951140ff7b10b8007b15b0007b16a8009515c000330292062898635022a6063f62320000951140ff7b10b8007b15b0007b16a8009515c0005022a8065f6351070b5022aa068b633200951780005020ac065968ff5022ae0633625207505022b0069b625020b206426f5022b4068e615020b6061fff821748821258821340821a50821810d3870bd8870c6484821918d89308dab80cc96a0bd86a0a821608c962065022b8068b615107040082171864685020ba0680715022bc0668683300be060a0c3302c0062850625022c0064d625208379511d07b10287b15209515308411f03a083001023a093801027b18184911087b1910641849015020c206ad6e5022c406fb6532000033070f5022c806d8625020ca0626a45022cc06a1613300ce063302c00628f2619567205022d0068c603200828a10828218828c08828bd42c08d4ab09d48909989920d4a808978820d49808520875951160ff7b1098007b1590007b1688009515a0008411f0647695b7207b1710d8b707c87c087b1808d8c808da7708c8a8087b18d8a807c827075022d206f2615020d406116e5022d6069e613300d806951140ff7b10b8007b15b0007b16a8009515c0003302c60628f4615022da069b60320000951140ff7b10b8007b15b0007b16a8009515c0005022dc06bb6151070b5022de06e7613200951780005020e006b566ff5022e2068f605207505022e406f7605020e6069e6d5022e806ea5f5020ea061fff821748821258821340821a50821810d3870bd8870c6484821918d89308dab80cc96a0bd86a0a821608c962065022ec06e75f5107040082171864685020ee06dc6f5022f006c4663300f2060a0c3302f40628ac605022f406a96052083c9511d07b10287b15209515308411f03a084001023a094801023a0a5001027b18187b19107b1a08641849015020f606046d5022f80652643200005020fc0686a25022fe060160330000073302f40628526095672050220207ec5e3200828a10828218828c08828bd42c08d4ab09d48909989920d4a808978820d4980852089300951160ff7b1098007b1590007b1688009515a0008411f0647695b7207b1710d8b707c87c087b1808d8c808da7708c8a8087b18d8a807c8270750220407516050200607706c50220807fd5f33000a07951140ff7b10b8007b15b0007b16a8009515c0008411f0828a828908828b108288187b17184911584911504911483307183302fa0628686050220c07dd5e32000051070b502210074360320095178000502012071165ff50221407eb5e52075050221607535f50201807fa6b50221a07465e50201c071bff821748821258821340821a50821810d3870bd8870c6484821918d89308dab80cc96a0bd86a0a821608c9620650221e07435e51070400821718646850202007386e502222072065330024070a0c01951120ff7b10d8007b15d0007b16c8009515e0008411f0829a7b1a28829a087b1a20829a107b1a308299187b19388289828a08828b1082881864767b18187b1898007b1b7b1b90007b1a087b1a88009517a000951880007b19107b1980005020260765c98217b8008212a0008219b000821aa800821838d3870bd87808821730d8970cdbb80c821820d38a03d8a80a821828d82808db3a08d39707d4b707db7c0851088a008217107b17408217087b174882177b17509517609518408219187b1958502028073dc9821768821860821278821a70821b20c87b0b821328c88303d88308c88b0bd37b09d87b07da9807821830c8a808c88707d88709821c38c8c202d8a808c82808c8980833094916304916384916204916287b637b6b087b67107b681850222a079567320050202c07bed99511b07b10487b154095155050222e07255f50203007576a491118491110490112330704641849110850203207406a39086c020256183f0b20036c0202400133088002028388330701330924330034070a0c01951140ff7b10b8007b15b0007b16a800829510829b18829c088296d4bc09d4560ad4a9097b1710510916048284188282108287828008889a01d42708d44009d49808888801d4a8087b18a000685895884068badab80a7b1648686895884068c97b1c50dac809959880007b1b587b1540d45b0bdab80ad8980994b96828958840684bda480b6878958840680cda080c95c88000d44206da680bd8c80c946cd3c908d8c906d8ba05da85068868019583ffc9c90c64499a64c95c05c9ba088e4a8e3bda3a0b7b189800888a000185aa018e5cdb5c0adb6b0a8218a000d4a808649694867b123894827b1060640b948b647c948c52082a0364707b1930821798008578ff00d44809d43508d49808821710510811038217980095780164797b18a000888701c857077b1778d48707887701c847077b1768d84707c837077b17709a96ff009a6980007b162064077b102882186050203607ab6b7b1790007b18880082173882153064586469502038076d6b7b17800082178800d487077b178800821898009a897f821628646782186050203a07496b821920889b8000821a8800dbba08821a60da95087b18880082189000821c8000d4c808dab70864b5821738da97087b189000646764a664a850203c070b6b821970821c78d49c0c821ba000821968d49b0bd4cb0b93587b18800093577b179800510be1018215a00095598082173882183050203e07f86a7b17207b18088217286468645950204007e56a7b177b18189a59800082173882183050204207aa6a821918d49808885980007b1918821a08da9a08db58067b16608218d48707821820da9807821628db5706821738821830645950204407986a6462821360330482191893989397821a4888a901821b50c99b097b1930d4ba09889901821640c9960b7b1b28d89609821b58c99b0b7b1b2095aaff7b1a1801491138982b3f973a01d4ba0a972b018210880098093fd49b02821b30d3ab09d8ab05821618648b644cd82604db950497bb0198793fd4b9097b196098393f977701d49703970701821b900098b93fd4970797b90182168000986b3fd4b909976b018216980098603fd40b0b976501d45c0c7b1c980086bb7b1b800086997b19900086777b178800821928c93907d84707d83909821b20821860c98b0bc99b0bc97b0b99bb3f821748d27b04821c50d2bc0cd3ca07d8ca05d84200da7005821940d2b909c99306c95607d85605d89309821658d2b606c96808c99808c95808c9ca0ac90a03c942028215a000821678d46509889901821c68d89c0ac99c09885c01c9c606821c70c9ac0c9555ff7b16787b1c70d4c60a7b15a000d4950cd4ca0a84b4017b1968520adbfe2808330449113801821a900098a73f82188800978801d487078216800098683f97aa01d4a808821c980098ca3f97660197cc01d4c40c821938d49a0ad46a0bd48902d479068217102806821710017b7c7b7b087b72107b76188210b8008215b0008216a8009511c00032005020460770fb502248070e593200951160ff7b1098007b1590007b1688009515a00050224a0753618099107b67384916787b69707b68689568607b6a60330750204c079a6550224e07c661502050078e6539086c020256183f0b20036c020240019517e08479e07b693064913307800202837783993308400a09826a3082a71882a81082a90882aa6f776f886f996faa826b387bba187bb9107bb8087bb750225207ed5932009511a0fe7b1058017b1550017b164801951560018411f08286828c087b17609567607b1758d8670264607b1670c82c077b1750d8c70364c47b1c68da220382b77b174882b7087b174082b7107b173882b7187b173082a77b171882a7087b171082a7107b170882a7187b17828a188286108292829708829810829918c8360c7b1c28d86c0b7b1a78c8ab0b7b1b207b1a18017b1610017b1408017b1000017b1938017b1830017b17280195172001951800017b1220013300540733023a0128195e82187095872050225607ee5fc88b0b7b19c8007b17c00082177b17f8008217087b17f0008217107b17e8008217187b17e0007b1ad0009517e0009518c0007b1bd8003300580733023a0128cc5d82187095874050225a07a15fc8b8087b1898007b1a90007b1988007b1780008217307b17b8008217387b17b0008217407b17a8009517a000951880008219487b19a00033005c0733024602287e5d8217608218207b78188218287b78108218507b78088218587b789551a0fe8210580182155001821648019511600132008268f0047b18c800826b08057b1bd800826af8047b1ac000826c00057b1cd000958704d88708c88a09d8a90ada880ac8ca0ad8ca08c88b0b7b6770047b6978047b6a80049517ff07957781059518ff07958861057b6b880450206007b08b8267a0048268a80482699804826a9004d49808d4a707d4870788770149266804492660047b6750049517ff0795774105492658045020620794f38219c8009599018897018218c000c87808d48907887701821bd000c87b0ad8ba07821bd800c8b7077b17387b6728047b1a207b6a20047b18287b6818049517ff07957721059518ff07958801057b19307b69100450206407e4c0826748048262300482634004826a38048218e000d3870bd878078219e800d8390cdbb70c8218f000d38a07d8a80a8218f800d82808db7a08d39307d4b707db7c0849260804492600047b68f0039517ff079577e1044926f803502066077ff44926280549262005492618054926100595170010837700fe0a0f956b000582b72882b81882b91082ba20821b8000d3b707821b9000d3b808d4870782188800d3a808821a9800d3a909d49808d487078877014926e8034926e0037b67d0039517ff079577c1044926d80333006807951140ff7b10b8007b15b0007b16a8009515c00033020e0728c2558217c800957903d87907649a7b19708218c000c8780bd88b087b1b68da77088217d000c8870c7b1c60d87c078218d800c878087b18788217e0007b6768038217e8007b6760038217f0007b6758038217f8007b6750037b6888037b6c80037b6b78039517ff07957781049518ff07958861049519ff07959941047b6a700350206a07b5f5826a9003826798038268a0038269a80349260803492600034926f8024926f0027b6928037b6820037b6718039517ff07957721049518ff07958801049519ff079599e1037b6a100350206c073a77ff956b000382b73082b83882b94082ba487b6aa8027b69a0027b6898027b679002821780007b67c802821788007b67c002821790007b67b8029517ff079577c1039518ff079588a1039519ff0795998103821a98007b6ab00250206e078cf68267e8027b17a0008267e0027b17a8008267d8027b17b0008267d0027b17b8008217c800957a02d87a078219c00050227007fb5d8217d000c87909d87907821bd800c8b707821be0007b6b2802821be8007b6b2002821bf0007b6b1802821bf8007b6b10027b6748027b6940027b6838029517ff07957741039518ff07958821039519ff07959901037b6a30025020720775f4826a50027b1a7801826758027b177001826860027b186801826968027b1960014926c8014926c0014926b8014926b0017b69e8017b68e0017b67d8019517ff079577e1029518ff079588c1029519ff079599a1027b6ad00150207407ea75ff826af0018267f8018268000282690802821ba0007b6b6801821ba8007b6b6001821bb0007b6b5801821bb8007b6b50017b6988017b6880017b6778019517ff07957781029518ff07958861029519ff07959941027b6a7001502076071fd0956b000182b7900082b8980082b9a00082baa8007bba087bb97b68f8007b67f00049262801492620014926180149261001821760017bb748821768017bb740821770017bb7389517ff07957721029518ff07958801029519ff079599e101821a78017bba305020780795ad8217e0007b6788008217e8007b6780008217f0007b67788217f8007b67708217787b67a8008217607b67a0008217687b6798009517ff079577a1019518ff07958881019519ff0795996101821a707b6a900050207a07f5f2826ab0008267b8008268c0008269c8004916284916204916184916107b69487b68407b67389517ff07957741019518ff07958821019519ff07959901017b6a3050207c078274ff8267507b1778018267587b1770018267607b1768018267687b1760018217c800957908d87907821ac00050227e0734588217d000c87a0ad87a07821bd800c8b707951b00107bb7d8f8951700107b7ad0f8951700107b78c8f89517ff079577e1009518ff079588c100951a00107ba9c0f850208007fabb951700108277e0f8951800108288e8f88269826a08951b00107bba78f8951a00107ba970f8951900107b9868f8951800107b8760f895170010492798f895170010492790f895170010492788f89517ff079577a1009518ff07958881009519ff07959961492118011027951b0010492b80f810275020820724ce951700108277a0f8951800108288a8f8951900108299b0f8951a001082aab8f8951b00107bba18f8951a00107ba910f8951900107b9808f8951800107b8700f882176001951800107b8738f882176801951800107b8730f882177001951800107b8728f89517ff079577419518ff079588219519ff07959901821a7801951b00107bba20f8502084076cb995170010827058f895170010827350f895170010827248f895170010827940f87b19300168076838958a40db070a68276898958840db270895878000d40309da970ad8870c949c8ecb88a7f300857901dac90b88b7019574ff9ab89accc99c099aa7f2007b1860018e8a8e4cda4a0c7b176801887a000185aa018e96db960adbbc0ad4020b82183001d4380cd4cb0b88bb01d4ba0a640794a77b177001643694a67b12780194a2648c94ac520a300364877b132801821a680185aaff0082186001d48a0ad4490bd4ba0a510a1103821c680195cb017b1b700188ba01c8a9097b194801d4b909889901c889097b193801d88908c848087b1840019ac9ff007b1950019a9980008218780164067b102001502086079c5e7b1760017b18580182172801646882195001502088075e5e7b17100182175801d487077b175801821868019a897f8217300182167801646850208a07385e82195001889c80007b1c6801821a5801dbca08821b2001da9b087b18580182186001821b1001d4b808dac70882172801da97087b18600182173001646850208c07f55d82193801821a4001821c4801d4ac0c82167001d49606d46c0c8219680193987b18500193977b176801510cd30182167001956980821728018218200150208e07d95d7b1710017b1800018217300182187801646950209007c15d7b17187b1808019a698000821728018218200150209207825d82190801d49808886980007b190801821a0001da9a08821a7801db680a7b1a7801821818d4870782181001da980782183001db67087b18300182172801821820016469502094075f5d330c821908019398939782191801959aff7b1a08018e909500ff7b1000018212300182140001017b1820017b1c28014921100198293f821c780197ca01d49a0a97220182135801983b3fd4b2087b183001d3a400d8a40b82160801d88602db0b0282182001978801987b3fd4b80098cb3f977701d47b0b9737018218600198863fd4670397860182185001988c3fd46c0c9787018216680198683fd4780897660182172801d476067b16680186887b18500186c87b18600186377b175801c9b407d82707d8b408c9040cc98c0cc97c0c99cc3f82171801d2c70782183001c97802d87808c98a077b17780194a8c98b07d88b08c9800882167001821a4801d4a609889901821b3801d89b03c99b09886b01c9ba0a821b4001c93b0b9566ff7b1a48017b1b4001d4ba0a7b167001d4960bd4ba0a84cc017b193801520aedfe280749211001018219600198973f82185801978801d48707821a500198a83f979901d49808821b680198b93f97aa0197bb01d4bc0c821b1001d49b06d4a602d48b06d4b7077b177001017b1268017b1c78018217f800951b00077bb780008217707bb7a0008217f0007bb788008217687bb7a8008217e8007bb790008217607bb7b0008217e0007bb798009517c0079518a00795198007821a787bbab80050209607fdec951c000782cac00082c7c80082c8d00082c9d800821b70017bcb387bc630821b68017bcb28821b78017bcb20491c58491c50491c48491c407bc9787bc8707bc7689517600795184007951920077bca6050209807efa68217c800957807d8780764897b1878018218c000c8780a7b1a7001d88a06da77068217d000c87606d876078218d800c887077b176801951b00067bb7f8007bb6f0007bbae800951700079518e0067bb9e00050209a0712b6951b000782ba82b70882b81082b918821b8000951c00067bcb9800821b88007bcb9000821b90007bcb8800821b98007bcb80007bc9b8007bc8b0007bc7a8009517c0069518a006951980067bcaa00050209c0761c8951b000682b7c00082b8c80082b9d00082bad8007bba587bb9507bb8487bb740821768017bb7787bb670821770017bb7689517600695184006821978017bb96050209e07cfca8217c8009578097b186801d878078218c000c878097b196001d88908da77088217d000c878087b185801d878078218d800c887077b175001330680020383677b1770013300a0070a06018267088168107b16780182695022a207714c951b0005492bf80082195001951c00067bc918821958017bc910821960017bc908821968017bc97bb8f0007bb7e80095172006951800069519e0057bbae0005020a407e2f0951b000682b92082b72882b83082ba38951b00057bbab8007bb8b0007bb7a8009517c0059518a0057bb9a0005020a607a4b4951b000582b7d00082b8d80082b9c80082bac000d49808d4a707d4870752071e01821730951a00057ba7608217287ba7688217207ba77095178005951860058219387ba9785020a80759b4951b000582b9800082b7880082b8900082ba98007bba387bb8307bb72895174005951820057bb9205020aa07a3d4951800058286408287487b1748018287507b1740018287587b173801821770013300ac070a063302ae0728f34e5022ae07f04e492bd800821950017bb9f800821958017bb9f000821960017bb9e800821968017bb9e0007bb8d0007bb7c800951700059518e0049519c0047bbac0005020b007c2ef951b000582b982b70882b81082ba18821b3801951c00047bcb9800821b40017bcb9000821b48017bcb88007bc680007bcab8007bc8b0007bc7a8009517a004951880047bc9a0005020b2070cd5821770013300b4070a063302b607284d4e5022b6074a4e491b38821950017bb958821958017bb950821960017bb948821968017bb9407bb8307bb7289517600495184004951920047bba205020b80724ef951b000482ba6082b76882b87082b978821be000951c00037bcbb800821be8007bcbb000821bf0007bcba800821bf8007bcba0007bc9d8007bc8d0007bc7c8009517e0039518c0039519a0037bcac0005020ba07ffe88212e0038217e8037b1768018218f0037b1860018219f8037b195801821b00047b1b5001821c08047b1c4801821610047b164001821a18047b1a38017b1a5803951a00037ba6507bac487bab407ba9787ba8707ba7689517800395186003951940037ba26064265020bc07656aff951c000382ca800082c7880082c8900082c99800821ba0007b1bf802821ba8007b1bf002821bb0007b1be802821bb8007b1be0027bc9187bc8107bc70895172003951800039519e0027bca5020be07a7c4951b000382b72082b82882b93082ba38951b00027bba98007bb990007bb888007bb78000821738017bb7b800821740017bb7b000821748017bb7a800821750017bb7a000821758017bb7d800821760017bb7d000821768017bb7c8009517c0029518a002951980027bb6c0005020c00716a2821770013300c2070a06821978013302c407288d4a821978015022c407864a7b1870015022c60750517b1760019888207b185001951760025020c8072b4cff821878027b18680182167002821968027b195801821c60027b1c7801821750017b17d001821760017b17c801821770017b17c0014921d8018217a0007b17f8018217a8007b17f0018217b0007b17e8018217b8007b17e0018217e0007b1718028217e8007b1710028217f0007b1708028217f8007b1700027b1838027b1630027b192802951740029518200295190002951ae001951bc0017b1c20025020ca0754ed8210680182195801d4090782187801d46808d478089888207b167001d46707977720d487075207da00951b000282b74882b8587b18600182b44082ba50d3970bd8970c82127801d82408dab80c82137001c93a0bc9cb06d8cb0bd83a0a821c6001c90c0cc9ac0cc9bc0cc99707c98707c92408d4c707d46809d47909d46707989920977720d497075207778217487b1780018217407b1788013a075801023a096001023a0a6801023a0b7001027b17b8017b19b0017b1aa8017b1ba0018217507b1790019519a001951a80018217587b179801821778015020cc078953955100f89511c0f995114806951700078270f0008275e8008276e0009511f80732000052083c9511d07b10287b15209515308411f03a087801024911087b1818140800000000726f74617b1810641849015020d00753515022d207a14832000033070c5022d6077e455020d807cc865022da0747443300dc073302ce072898449567205022de0732433200828a10828218828c08828bd42c08d4ab09d48909989920d4a808978820d49808520875951160ff7b1098007b1590007b1688009515a0008411f0647695b7207b1710d8b707c87c087b1808d8c808da7708c8a8087b18d8a807c827075022e00798445020e207b7505022e40744443300e607951140ff7b10b8007b15b0007b16a8009515c0003302d407289a445022e807414332000051070b5022ec07a7443200951780005020ee077549ff5022f0074f435207505022f207b7435020f4075e505022f607aa425020f80739ff821748821258821340821a50821810d3870bd8870c6484821918d89308dab80cc96a0bd86a0a821608c962065022fa07a7425107040082171864685020fc079c525022fe078449330000080a0c33020208286c435022020869435208419511d07b10287b15209515308411f03a088001023a098801027b18187b1910140800000000006465767b18086418490150200408bf4f502206080d4732000033071350220a08ea4350200c08388550220e08b3423300100833020208280443956720502212089e413200828a10828218828c08828bd42c08d4ab09d48909989920d4a808978820d49808520875951160ff7b1098007b1590007b1688009515a0008411f0647695b7207b1710d8b707c87c087b1808d8c808da7708c8a8087b18d8a807c8270750221408044350201608234f50221808b04233001a08951140ff7b10b8007b15b0007b16a8009515c0003302080828064350221c08ad41320000951140ff7b10b8007b15b0007b16a8009515c00050221e08cd4251070b50222008f94232009517800050202208c747ff50222408a14152075050222608094250202808b04e50222a08fc4050202c081fff821748821258821340821a50821810d3870bd8870c6484821918d89308dab80cc96a0bd86a0a821608c9620650222e08f94051070400821718646850203008ee5050223208d647330034080a0c019511a07b10587b15507b16489515608411e06416956720502036083a47ff8267387b67108267307b67088267287b678267207b67180a0b018268108269d49808826a08826918d4a909d48909989920d4a808978820d4980852084b647998772052074383977b671082671864987b6908502038086b509518f88489e07b6964918268087a988377839833090a0a0182678177826810ac870e0a0b016478987720510704008267187b681050203a083150837881691033070133003c080a0c01951140fe7b10b8017b15b0017b16a8019515c0018411e06416827a827808827910827718492658014926500149264801492640017b6738017b6930017b6828019567600195684001956920017b6a200150203e086370ff826778017b6750826770017b6748826768017b6738826760017b674033078002037b673083777b6758330040080a060182693082970882988199105022420879477b6a289777206f99989920d497077b67209888207b6818826840958706d88708826a3850224408b245826848c88a0ad88a08826b50c88b0b7b69e8007b67e0007b6af000956700019568e0007b6bf800502046083f75ff826710018268000182691801826a0801826b18d3b707826b20d3b808d48707826828d3a808d49808d487078877014926d8004926d0007b67c0009567c0004926c80033004808951140ff7b10b8007b15b0007b16a8009515c0003302ea07283640826740957904d87907826a3850224a085146826748c87a0ad87a07826b50c8b7077b6798007b6a90007b6888009567a000956880007b69800050204c086974ff8268a0008267a8008269b000826ab8007b6a787b69707b67689567607b686050204e08f3fc8267580a836880018267580a010195670001827c9800827b9000827a880082798000d4ca07d4b908d487075107538267587b69587b6a507b6b487b6c40330050080a06019517e08478e064818269407b89188269487b89108269507b8908826958502252089f41330b800202d4790a826730502254089f460a0201520719955140fe8210b8018215b0018216a8019511c001320050205608f8fc50225808b33e52083c9511d07b10287b15209515308411f03a089001023a099801023a0aa001027b18187b19107b1a086418490150205a080e4b50225c085c42320000502060089080502262080b3e3300640833025808285c3e95672050226608f63c3200828a10828218828c08828bd42c08d4ab09d48909989920d4a808978820d4980852089300951160ff7b1098007b1590007b1688009515a0008411f0647695b7207b1710d8b707c87c087b1808d8c808da7708c8a8087b18d8a807c82707502268085b3e50206a087a4a50226c08073e33006e08951140ff7b10b8007b15b0007b16a8009515c0008411f0828a828908828b108288187b171849115849115049114833071833025e0828723e50227008e73c32000051070b502274084d3e320095178000502076081b43ff50227808f53c52075050227a085d3d50207c08044a50227e08503c502080081bff821748821258821340821a50821810d3870bd8870c6484821918d89308dab80cc96a0bd86a0a821608c96206502282084d3c51070400821718646850208408424c502286082a43330088080a0c01828a08828b7c99828c1882881084bb00ffd4b9097b7c187b78107b7a087b7932008217821808821918821a10847700ffd467077b19387b1a307b18287b172095174095182050208c08d54a50228e086f3e3200951800038287387b17408287307b17688287287b17708287207b177833068002038367330092080a060182670882688169105022940899437b1a389777206f99989920d497077b17309888207b1828821878958706d88708821a7050229608d241821868c88a0ad88a08821640c8860b951c00027bc9a8007bc7a0007bcab0009517c0029518a0027bcbb800502098085b71ff951c000282c7d00082c8c00082c9d80082cac800821b28d3b707821b30d3b808d48707821838d3a808d49808d48707887701492c9800492c90007bc7800095178002492c880033009a08951140ff7b10b8007b15b0007b16a8009515c00033027208284e3c821778957804d87807648a7b1838821870c8780b7b1b30d88b08da7708821768c878087b1828d87807c867077b1720951900027b97587b98507b9b4895176002951840027b9a4050209c087370ff951b000282b77082b87882b96882ba60d49808d4a707d48707887701491b38491b307bb72095172002491b2850209e085ed8821978959901889701821870c88707d47908888801821a68c8a808d8a80ac86a0a7b1af8017b18f0017b17e801951700029518e0017b19e0015020a008c9a5951b000282b71882b882b91082ba08821c50d3c70bd87c07821648d8960cdbb70c821758d37a02d8a70a821760d88708db2a08d36907d4b707db7c084921d8014921d0017b18c0019517c0014921c8015020a2086dd949219801492190014921880149218001018217207b17b8018217287b17b0018217307b17a8019517a001951880018219387b19a0013300a4089511807b10787b15707b1668951580008411e08282108283828b18828808827c18827910827a0882777b1c587b19507b1a487b1740d4b808d42307d487078e76641795184033008a0828b547821778957905d87907821a705022a608cf40821768c87a0ad87a07821b40c8b707821b507b1b58017b165001821b587b1b4801821b607b1b40017b1778017b1a70017b18680195176001951840017b1960015020a808eeb9951720015020aa08643fff82163801821830017b1878821928017b1970821a20017b1a688217507b17d8008217487b17d0008217587b17c8008217607b17c0007b16f8007b18f0007b19e800951700019518e0009519c0007b1ae0005020ac08eb5dff8219708214687b1660d46907821678d46408d47808988820d46707977720d487075207a100821708018212180182130001821a1001d3970bd8970cd84308dab80cc96a0bc9cb00d8cb0bd86a0a821c60c9c20c5022ae08d83f5207698217087b17800082177b1788003a07a801023a09b001023a0ab801023a0bc001027b17b8007b19b0007b1aa8007b1ba0008217107b1790009519a000951a80008217187b17980064475020b0083e479551a0fc95170003827058827550827648951160033200005208419511d07b10287b15209515308411f03a08c801023a09d001027b18187b1910140800000000000000737b1808641849015020b4080e455022b6085c3c3200005020ba08907aff5022bc080a383300be083302b208285b389567205022c008f5363200828a10828218828c08828bd42c08d4ab09d48909989920d4a808978820d4980852089300951160ff7b1098007b1590007b1688009515a0008411f0647695b7207b1710d8b707c87c087b1808d8c808da7708c8a8087b18d8a807c827075022c2085a385020c40879445022c60806383300c808951140ff7b10b8007b15b0007b16a8009515c0008411f0828a828908828b108288187b17184911584911504911483307113302b8082871385022ca08e63632000051070b5022ce084c383200951780005020d0081a3dff5022d208f4365207505022d4085c375020d60803445022d8084f365020da081bff821748821258821340821a50821810d3870bd8870c6484821918d89308dab80cc96a0bd86a0a821608c962065022dc084c365107040082171864685020de0841465022e008293d3300e2080a0c3302e4082811375022e4080e375208469511d07b10287b15209515308411f03a08d801023a09e001023a0ae801027b18187b19107b1a0814090000000000656c6264187b195020e6085f435022e808ad3a32000033071b5022ec088a375020ee08d878ff5022f00852363300f2083302e40828a3369567205022f4083d353200828a10828218828c08828bd42c08d4ab09d48909989920d4a808978820d49808520875951160ff7b1098007b1590007b1688009515a0008411f0647695b7207b1710d8b707c87c087b1808d8c808da7708c8a8087b18d8a807c827075022f608a3365020f808c2425022fa084f363300fc08951140ff7b10b8007b15b0007b16a8009515c0003302ea0828a5365022fe084c3532000051070b50220209b23632009517800050200409803bff502206095a3552075050220809c23550200a09694250220c09b53450200e0939ff821748821258821340821a50821810d3870bd8870c6484821918d89308dab80cc96a0bd86a0a821608c9620650221009b23451070400821718646850201209a744502214098f3b330016090a0c33021809284135502218093e3532009511c87b10307b15287b1620829b828a829608828408829010828c10829918828218d364057b1608d864067b1b187b1a10d8ba087b18da5806d39208d89203d80c05da8503d30c0bd4b808da8603520342c90c08d8680bc99209c95909c9b909c96808821a08c9a40a821bc9ba0a821b18821c10c9bc0b7b7b7b7a087b78107b7918821030821528821620951138320050201a09b59d951110fe7b10e8017b15e0017b16d8019515f0019511b0f88411e06416827a827908827810827718956bff0795bbb100330c491b48491b40491b38491b307b67307bb7287b68287bb8207b69187bb91850221c09673d7b6a207bba1050201e092b64ff9567ff079577b1008278507b6828018272687b6238018279587b692001827c607b6c3001958704d88708c8890bd89b0ada880ac8ca0ad8ca08c88202956800107b8780f8956700107b7b88f8956700107b7a90f89567ff079577a1009568ff0795888100956900107b9298f850202009f768ff956700108278a0f8956700108277a8f8956aff0795aab10082a982aa08956b00107bba78f8956a00107ba970f8956900107b9768f89567ff07957761956900107b9860f8502022095cf182672801957905502224091f3a956b00107bb738f8956700107b7a30f8956700107b7828f89567ff079577419568ff07958821956a00107ba920f850202609339e95670010827758f87b67a00095670010827750f87b67a80095670010827748f87b67b00095670010827740f87b67b800826728019578097b6870d8780782682001c878097b6968d88908da770882673001c878087b6860d8780782683801c887077b675833078002037b67980083777b678800330028090a060182699800829708819810829950222a09fd344926d8078269587b69f8078269607b69f0078269687b69e8078269707b69e0077b68d0077b67c8079567ff079577019568e0079569c0077b6ac00750202c0972d995670010827a00f895670010827708f895680010828810f895690010829918f8826ba0007b6b5807826ba8007b6b5007826bb0007b6b4807826bb8007b6b40077b6978077b6870077b6768079567800795686007956940077b6a600750202e0941d3826a80078267880782689007826998074926f8064926f0064926e8064926e0067b6918077b6810077b67080795672007956800079569e0067b6a000750203009d254ff956b000782ba387b6a3882b9307b694082b7287b674882b8207b6850d4a707d49808d487078e774926d8064926d0067b67c0069567c0064926c80633003209951140ff7b10b8007b15b0007b16a8009515c0003302cc08282d3282672801957a02d87a078269200150223409b73b82673001c87909d87907826b3801c8b707826ba0007b6b5806826ba8007b6b5006826bb0007b6b4806826bb8007b6b40067b6778067b6970067b6868069567800695686006956940067b6a6006502036093dd2826a80068267880682689006826998064926f8054926f0054926e8054926e0057b6918067b6810067b67080695672006956800069569e0057b6a000650203809ce53ff956b000682b9307b69000182b8387b68080182b7287b67100182ba207b6a1801d48707d49a08d487078e774926d8054926d0057b67c0059567c0054926c80533003a09951140ff7b10b8007b15b0007b16a8009515c000330200092825318267280195790750223c090a377b6798057b6a90057b6888059567a005956880057b69800550203e09349b8267a0058268a8058269b005826ab8057b6a38057b6930057b6828057b6720058267387b6758058267407b6750058267487b674805956760059568400595692005826a507b6a4005502040095d99826a6005826768058268700582697805826b0801956c00047bcbd800826b00017bcbd000826b10017bcbc800826b18017bcbc0007bc9f8007bc8f0007bc7e800956700059568e0049569c0047bcae0005020420951d28262180582601005826408057b649000826700057b67c000647968276808958a40db270a68476898958840db470895878000d42009da970ad8870c949c8ecb88a7fa00857901dac90b88b7019573ff9ab79accc99c099aa8f9007b6728018e7a64378e3cda3a0c7b683001888a000185aa018e98db980adbbc0ad424088263c000d4030bd4b808888801d4a8087b627894827b60800094809484643c948c52083603826830018588ff00826b2801d4b808d4790ad4a80851081d03826c300195ca017b6a380188a801c898087b681801d4a808888801c8b8087b680801d8b808c887077b6710019ac8ff007b6820019a8980008267c00082689000502044094c3e7b6728017b68f8008267800082687882692001502046090d3e7b6700018267f800d487077b67f800826830019a897f8267c0008268900050204809e93d82692001889a80007b6a3001826bf800dbab08826b78da9b087b68f00082682801826b0001d4b808daa70882678000da97087b6828018267c0008268900050204a09a53d826b0801826c100182691801d49c0c826a3801d4ba0ad4ca0a956b000182b93093987bb82093977bb730510ae201826738019579808267800082687850204c09893d7b67f8007b6800018267c000826890008269380150204e096f3d7b67e0007b68e800826838019a89800082678000826878502050092c3d8269e800d49808956c000182c938889a80007b6ae80082cbdaab08826b9000da9b087bc88268e000d487078268f800daa8078268c000da98077b67f8008267800082687850205209083d330c8269e800939893974926d000634926c8008260f000017b68e0007b6ce8004926d8008268f80098893f826c000197ca01d49a03978901980b3fd49b0b7b6bf000826ac800d33a087b68f800d83a088269d000d8b9028269f800db98028268e000978801987b3fd4b8087b68e00098cb3f977701d47b0b97070182682801988c3fd4c7077b670001978c018267200198783fd4c808977c018267300198703fd40c0c9777018269e800d497077b67300186c77b67200186877b672801826700018670c9ba07d82707d8ba088264e000c94a0cc98c0cc97c0c99c23f8427648269f000c979087b68f800d87908c983077b6700019438c98b07d88b08c98408826a3801826c1801d4ca09889901826b0801d89b03c99b0b88a901c99c0c82691001c9390995aaff7b6c18017b691001d4c9097b6a3801d4ba0ad4a909842c017b6b08015209d5fe280d330c4926d8008260f000018269280198973f970801d48707826a200198a83f979901d49808826b300198b93f97aa0197bb01d4bc0c826bd800d4b909d4a904d48b00d47b02017b6220017b6028017b6430017b6c38014926980449269004492688049567a004956880044926800402502054098d96826aa0048267a8048268b0048269b804826b20017b6b3804826b28017b6b3004826b30017b6b2804826b38017b6b20047b6958047b6850047b6748049567600495684004956920047b6a400450205609dfa8956b000482b76082b86882b97082ba787b6af8037b69f0037b68e8037b67e003492618044926100449260804956700049568e003490b025020580956ab826720017b679803826728017b679003826730017b678803826738017b6780038267787b67b803826780007b67b003826790007b67a8039567c0039568a00395698003826ac0007b6aa00350205a0989f58267c0037b6738018267c8037b6730018267d0037b6728018267d8037b6720018267880033005c090a060182699800829708819810829950225e09c62c492638038269587b6958038269607b6950038269687b6948038269707b6940037b6830037b6728039567600395684003956920037b6a2003502060093ed1956b000382ba6082b76882b87082b978826ba0007b6bb802826ba8007b6bb002826bb0007b6ba802826bb8007b6ba0027b69d8027b68d0027b67c8029567e0029568c0029569a0027b6ac002502062091dcb956b000282bae00082b7e80082b8f00082b9f80049265802492650024926480249264002492678024926700249266802492660027bb998007bb890007bb788009567800295686002956940027bba8000502064090f8582678800330066090a06019517e08478e06481956a000182a9207b891882a9287b891082a9307b890882a93850226809532c330b800202d4790a8267980050226a0952310a02015207e7018267880033006c090a068269980033026e09283b2d8269980050226e09342d7b68280150227009fe337b6718019888207b6810019567200250207209d92eff956700028279387b6930018278307b682001827a287b6a0801827c207b6c3801826710017b679001826718017b678801826728017b678001492698018267387b67b8018267407b67b0018267487b67a8018267507b67a0018267a0007b67d8018267a8007b67d0018267b0007b67c8018267b8007b67c0017b69f8017b68f0017b6ae801956700029568e0019569c001956aa001956b80017b6ce0015020740902d0956b000182b90882b730d4970782ba2082b838d4a808d47808988820d4a707977720d487075207dc0064a0956b000282b70882b8187b6828018263000282ba10d3970bd8970c82623801d82308dab80cc90a0bc9cb04d8cb0b7b6b1801d80a0a826c3001826b2801c9cb0cc9ac0c826a1801c9ac0cc99707c98707c92308d4c707d4480ad47a0ad4470798aa20977720d4a70752076e826720956c00017bc7408267187bc7483a07f001023a09f801023a0a0002023a0b0802027bc7787bc9707bca687bcb608267287bc75095696001956a40018267307bc75882c738502076093136955100f89511c0fe951150078210e8018215e0018216d8019511f00132000050207809dde550227a09933232007b1970828a087b1a68828b107b1b608286187b177b16d8017b1bd0017b1ac8019517e0019518c0017b19c00150207e091c928217f8018218f0018219e801821ae0017b17207b1778017b18187b1870017b19107b1968017b1a087b1a60018217487b1798018217507b1790018217587b1788019517a0019518800195196001821a787b1a8001502080092a69ff8217b8017b17588217b0017b17508217a8017b17488217a0017b17407b1638018217607b1730018217687b17280195174001951820018219707b19200150208209ba91821758017b1768821750017b17608214480182104001330c330649117049117801821708d87c07821910d39608d89609da8709821b18821770d8b702821a20821878d3a803d8a80ada320ad3b707d43707da790a510af0007b10e0007b14e8008217607b17f000951700019518e000821a687b1af8007b14387b10307b1c2850208409f990821a0001821708018218100182191801821b587b1b9800821b507b1b9000821b487b1b8800821b407b1b80007b19b8007b18b0007b17a8009517c0009518a000951980007b1aa000502086094a50ff821c288210308214388217d8007b17588217d0007b17508217c8007b17488217c0007b1740950001880701c87404d44007887701821860c88707d88708821968c889097b196895cc0188c801c88606d46c08888801821970c89808d89809821a78c89a0a7b1a787b17607b187028e0fe82178218407b788218487b78088218507b78108218587b781850228809d42c32009511d0fe7b1028017b1520017b1618019515300150228a09e52d50208c09d12aff50228e09012a330090099511e0fd951a00027ba0187ba5107ba6089515200233027c0928892e50229209662ed84302dab20c821848c98a0bd88a0a821630821928c96909c9a909d8cb0ac9a909c9cb0b7b1008c90707c92707502294095a2d50209609182dff50229809b02b3200821700018218180182190801821a1001957b09d87b07c8790cd89c09da7709c8a909d8a907c8780a82177b17788217087b17708217107b17688217187b17607b1b80007b1c88007b1990009517a000951880009519607b1a980050209c0936cb8219a0008217a8008218b000821ab8007b1a387b18307b17289517409518207b192050209e09effe821750821858821940821a487b67107b68187b697b6a089551c0fe8210380182153001821628019511400132005208379511d07b10287b15209515308411f03a081002023a091802027b18184911087b1910641849015020a2097d305022a409cb273200003307105022a809a8245020aa09f665ff5022ac0970233300ae093302a00928c1239567205022b0095b223200828a10828218828c08828bd42c08d4ab09d48909989920d4a808978820d49808520875951160ff7b1098007b1590007b1688009515a0008411f0647695b7207b1710d8b707c87c087b1808d8c808da7708c8a8087b18d8a807c827075022b209c1235020b409e02f5022b6096d233300b809951140ff7b10b8007b15b0007b16a8009515c0003302a60928c3235022ba096a2232000051070b5022be09d0233200951780005020c0099e28ff5022c20978225207505022c409e0225020c609872f5022c809d3215020ca0939ff821748821258821340821a50821810d3870bd8870c6484821918d89308dab80cc96a0bd86a0a821608c962065022cc09d0215107040082171864685020ce09c5315022d009ad283300d2090a0c01951180fe7b1078017b1570017b166801951580018411e04921d8004921d0004921c8003306029517e0009518c0007b16c0005020d4091e8d5022d609872c8e774921b8004921b0007b17a0009517a0004921a8003300d809951140ff7b10b8007b15b0007b16a8009515c0003302bc0928a922491178491170491168951780009518607b16605020da09ca8c821780007b1718821788007b1710821790007b1708821798007b174911384911304911284911204911584911507b16409517409518204911485020dc09e3a1330680020383670a0682177b1758018217087b1750018217107b1748018217187b1740014821200149211801492110014921080149210001976720987720951840019788209888203309800202951a000197aa20d48a0a979920989b2095182001978820d4b80c3308ff3309ff0a0201520719955180fe8210780182157001821668019511800132005020de0983df5022e0093e215208419511d07b10287b15209515308411f03a082002023a092802027b18187b1910140800000000000000737b1808641849015020e209942d5022e409e2243200005020e8091663ff5022ea0990203300ec093302e00928e1209567205022ee097b1f3200828a10828218828c08828bd42c08d4ab09d48909989920d4a808978820d4980852089300951160ff7b1098007b1590007b1688009515a0008411f0647695b7207b1710d8b707c87c087b1808d8c808da7708c8a8087b18d8a807c827075022f009e0205020f209ff2c5022f4098c203300f609951140ff7b10b8007b15b0007b16a8009515c0008411f0828a828908828b108288187b17184911584911504911483307113302e60928f7205022f8096c1f32000051070b5022fc09d2203200951780005020fe09a025ff5022000a7a1f5207505022020ae21f5020040a892c5022060ad51e5020080a1bff821748821258821340821a50821810d3870bd8870c6484821918d89308dab80cc96a0bd86a0a821608c9620650220a0ad21e51070400821718646850200c0ac72e50220e0aaf253300100a0a0c3302120a28971f5022120a941f5208469511d07b10287b15209515308411f03a083002023a093802023a0a4002027b18187b19107b1a08140900000065636e616c64187b195020140ae52b5022160a332332000033071d50221a0a102050201c0a5e61ff50221e0ad81e3300200a3302120a28291f9567205022220ac31d3200828a10828218828c08828bd42c08d4ab09d48909989920d4a808978820d49808520875951160ff7b1098007b1590007b1688009515a0008411f0647695b7207b1710d8b707c87c087b1808d8c808da7708c8a8087b18d8a807c827075022240a291f5020260a482b5022280ad51e33002a0a951140ff7b10b8007b15b0007b16a8009515c0003302180a282b1f50222c0ad21d32000051070b5022300a381f3200951780005020320a0624ff5022340ae01d5207505022360a481e5020380aef2a50223a0a3b1d50203c0a39ff821748821258821340821a50821810d3870bd8870c6484821918d89308dab80cc96a0bd86a0a821608c9620650223e0a381d5107040082171864685020400a2d2d5022420a15243300440a0a0c01951108f8951a00077ba0f0007ba5e8007ba6e0009515f807951198fa8411e06416829a7b6a9800829a087b6a9000829a107b6a88008299187b69800082897b69d8008289087b69d0008289107b69c8008288187b68c000827a827908827810827718956bff0795bbd900492b2004492b1804492b1004492b08047b67287bb700047b682095bc00037bc8f8007b69107bc9f0009567ff07957701059568ff079588e1049569ff079599c1047b6a187bcae8005020460aff4cff956bff0795bbd90095b700048278287b68a80082b240047b62b800827a307b6aa000827c387b6cb000958704d88708c88a09d8a90ada880ac8ca0ad8ca08c8820295b800037b87a8007b89b0007b8ab8009567ff079577a1049568ff07958881047bb2c0035020480ad251ff956bff0795bbd90095bc000382c7d80082c8e00082c9d00082cac800d49808d4a707d48707887701492ba003492b98037bc788009567ff0795776104492b900350204a0aa9b98269a8009599018897018268a000c88707d47908888801826ab000c8a808d8a80a826bb800c8ba0a956bff0795bbd90095bc00037bca607bc8587bc7509567ff07957741049568ff07958821047bc94850204c0afd86956bff0795bbd90095bc000382c77082c86882c97882ca800064b2826cd000d3c70bd87c07826cd800d88c08dbb708826bc000d3ba07d8ab0a826cc800d89c0bdb7a0bd3c909d49707db7b0849224003492238037b2828039567ff07957701044922300350204e0a8dba8267a800957802d87807648a7b6858018268a000c87809d889087b6950015022500add26c878087b6840018267c000956cff0795ccd9007bc7c0028267c8007bc7b8028267d0007bc7b0028267d8007bc7a8027bc8e0027bcbd8027bc9d0029567ff079577c1039568ff079588a1039569ff07959981037bcac8025020520a4fbc956bff0795bbd90095bc000282cae80082c7f00082c8f80082b90003492b6002492b5802492b5002492b48027bc980007bc8787bc7709567ff07957761039568ff07958841039569ff07959921037bca685020540acb3dff956bff0795bbd90095bc000282c7900082c8880082c9980082caa00064b2826c9000d3c70bd8c707826c9800d8c808dbb708826b8000d3ba07d8ba0a826c8800d8c90bdb7a0bd3c909d49707db7b0885870149224002492238027b2728029567ff0795770103492230023300560a951140ff7b10b8007b15b0007b16a8009515c0003302fa0928f71a8267a800957803d87807648a7b68408268a000c87809d889087b6938da77088267b000c8870b7b6b30d87b078268b800c878087b68488267c000956cff0795ccd9007bc7c0018267c8007bc7b8018267d0007bc7b0018267d8007bc7a8017bc8e0017bcbd8017bc9d0019567ff079577c1029568ff079588a1029569ff07959981027bcac8015020580ae2ba956bff0795bbd90095bc000182cae80082c7f00082c8f80082b90002492b6001492b5801492b5001492b48017bc980007bc8787bc7709567ff07957761029568ff07958841029569ff07959921027bca6850205a0a5e3cff956bff0795bbd90095bc000182c7880082c8900082c9980082caa0007bca7bb9f8007bb8f0007bb7e800826780007bc720826788007bc718826790007bc7109567ff07957701029568ff079588e1019569ff079599c101826a98007bca0850205c0a60829568ff079588d900958900018297407b67588297387b67608297307b67688297287b677033078002037b675083777b67780a95670010837820fd8267780a01956bff0795bbd90095bc000482c75082c84882c95882ca6064b2826c68d3c70bd8c707826c70d8c808dbb708826b58d3ba07d8ba0a826c60d8c90bdb7a0bd3c909d49707db7b088587014922e0004922d8007b27c8009567ff079577a1014922d00033005e0a951140ff7b10b8007b15b0007b16a8009515c00033022e0a28ef188267c0009568ff079588d9007b87608267c8007b87588267d0007b87508267d8007b8748826740017b878000826748017b8778826750017b8770648b9567ff07957761019568ff07958841019569ff0795992101826a58017bba685020600a05b99567ff079577d900827a88007b6a5001827890007b685801827998007b694801827ba0007b6b400149074917f8956c0010492cc8f8956c0010492cc0f87b7b207b79187b7810647b5022620aa3207bba085020640a813aff9569ff079599d900829a28829730829838829940826b8000956c00107bcb78f8826b8800956c00107bcb70f8826b9000956c00107bcb68f8826b9800956c00107bcb60f8956b00107bb998f8956900107b9890f8956800107b8788f89567ff079577a1009568ff07958881009569ff07959961956b00107bba80f85020660acbe1956700108277a0f8956800108288a8f8956900108299b0f8956a001082aab8f8956b00107bba18f8956a00107ba910f8956900107b9808f8956800107b8700f895670010492738f895670010492730f895670010492728f895670010492720f882674001956800107b8758f882674801956800107b8750f882675801956800107b8748f89567ff079577419568ff079588219569ff07959901826a5001956b00107bba40f85020680ac971ff8267c0007b6798078267c8007b6790078267d0007b6788078267d8007b6780078267487b67b8078267307b67b0078267387b67a8079567c0079568a00795698007826a407b6aa00750206a0a32b7826ac0078267c8078268d0078269d807492638074926300749262807492620077b6958077b6850077b6748079567600795684007956920077b6a400750206c0ac338ff826760077b675801826768077b675001826770077b674801826778077b6740018267a800957908d87907826aa00050226e0a711c8267b000c87a0ad87a07826bb800c8b7077b67f8067b6af0067b68e806956700079568e0067b69e0065020700a4f80956b000782b782b80882b91082ba187b6a98067b6990067b6888067b6780064926b8064926b0064926a8069567c0069568a006956980064926f80010274926a00610275020720ae2df8267c0068268c8068269d006826ad8067b6a38067b6930067b6828067b672006826740017b675806826748017b675006826750017b674806956760069568400695692006826a58017b6a40065020740a2b7eff826078068262700682676806826b60067b6b180168096828958a40db090a687968b8958840db7908958b8000d40209da9b0ad88b0c949c8ecb88a8f300858901dac90b88b4019544ff9ab39accc99c099aa8f2007b6340018e3a64738e4cda4a0c7b685001888a000185aa018e98db980adbbc0ad40708956c000182c718d4270bd4b808888801d4a808640b948b642a948a7bca48643a948a7bca58647c948c52085403826850018588ff00826a4001d4a808d4490ad4a80851083b03826b500195ba017b6a580188a801c898087b683001d4a80888880182694001c898087b682001d89808c848087b6828019ab9ff007b6938019a99800064387b6310017b6008017b6200015020760a63237b6748017b6840018267000182680801826938015020780a23237b67f00082674001d487077b674001826850019a897f826718018268100150207a0aff2282693801889b80007b6b5001826a4001dbba08826a0801da9a087b68400182684801826af000d4a808dab70882670001da97087b684801826718018268100150207c0aba22826a2001826b280182693001d4b909956b000182bc58d4ac0cd4c90982ba5093a87bb83893a77bb7505109ed0182675801957980826700018268080150207e0a9e227b67f0007b68e0008267180182681001826958015020800a84227b67087b68e800826858019a89800082670001826808015020820a41228269e800d49808956c000182ca5888ab80007b6be8008269e000dab90882c910dba8097bc910826808d487078268f000dab80782c818dba70864a97bc81882c782c8085020840a1e22330c8269e800939893978269f800959aff7b6ae8008e999599ff7b69e0008264100182621801017b6800017b6c10014926f00098293f974a01d49a0397290182604001980b3fd49b0b7b6b18018269e000d3390c7b6c0801d83908826ce800d8bc02826b0801dbb80282680001978801987b3fd4b8087b680801984b3f977701d47b0b97070182684801988c3fd4c7077b674001978c018267380198783fd48c04977c018267500198703fd40c0c97770182681001d487077b67500186c77b67380186477b6748018267400186777b674001c9b907d82707d8b908826a0801c9a90cc98c0cc97c0c99c03f8267f800d2700782681801c97802d87808c983049438c98b07d88b08c98a08826a5801826c3001d4ca09889901826b2001d89b03c99b0b88a901c99c0c82692801c9390995aaff7b6c30017b692801d4c9097b6a5801d4ba0ad4a909840c017b6b20015209d9fe2809330c4926f000018269480198973f82684001978801d48707826a380198a83f979901d49808826b500198b93f97aa0197bb01d4bc0c826bf000d4b909d4a9097b695801d4b8087b684801d47b0b017b6b40017b6c50018267d8007b67a0058267407b67c0058267d0007b67a8058267387b67c8058267c8007b67b0058267307b67d0058267c0007b67b8059567e0059568c0059569a005826a487b6ad8055020860aa6b1826ae0058267e8058268f0058269f805826b40017b6b5805826b48017b6b5005826b58017b6b4805826b50017b6b4005492678054926700549266805492660057b6998057b6890057b6788059567800595686005956940057b6a80055020880a8c6bff8267a800957807d8780764897b6858018268a000c8780a7b6a5001d88a0850228a0a501bc887077b6740017b6718057b6b10057b6a080595672005956800057b69000550208c0abd7aff956b000582ba2082b72882b83082b938826b587b6bb804826b607b6bb004826b687b6ba804826b707b6ba0047b69d8047b68d0047b67c8049567e0049568c0049569a0047b6ac00450208e0a4ada8267e0048268e8048269f004826af8047b6a78047b6970047b6868047b676004826740017b679804826748017b679004826750017b6788049567800495686004826958017b6980045020900a788f8267a8009578097b685801d878078268a000c878097b695001d88908da77088267b000c878087b684801d878078268b800c887077b6740018267783300920a0a060182695082970881981082995022940a231149261804826940017b693804826948017b693004826950017b692804826958017b6920047b6810047b6708049567400495682004956900047b6a00045020960a97b5956b000482ba4082b74882b85082b958826bc0007b6b9803826bc8007b6b9003826bd0007b6b8803826bd8007b6b80037b69b8037b68b0037b67a8039567c0039568a003956980037b6aa0035020980a76af826ac0037b6a58018267c8037b6750018268d0037b6848018269d8037b694001492638034926300349262803492620037b6958037b6850037b6748039567600395684003956920037b6a400350209a0af730ff826a6003826768038268700382697803826b80007b6bd802826b88007b6bd002826b90007b6bc802826b98007b6bc0027b69f8027b68f0027b67e802956700039568e0029569c0027b6ae00250209c0a70d8956b000382b782b80882b91082ba18956b00027bba787bb9707bb8687bb76049269802492690024926880249268002956c000182c7407bb7b80082c7487bb7b00082c7507bb7a8009567a002956880029569600282ca587bbaa00050209e0ab868ff8267783300a00a0a06019517e08478e064818269587b89188269607b89108269687b89088269705022a20a0010330b800202d4790a8267505022a40a00150a02015207f0018267783300a60a0a068269503302a80a28eb108269505022a80ae5107b6848015022aa0aaf177b6738019888207b683001956740025020ac0a8a12ff826958027b695001826850027b684001826a48027b6a2801826c40027b6c5801826730017b67b001826738017b67a801826748017b67a0014926b801826780007b67d801826788007b67d001826790007b67c801826798007b67c0018267c0007b67f8018267c8007b67f0018267d0007b67e8018267d8007b67e0017b6918027b6810027b6a080295672002956800029569e001956ac001956ba0017b6c00025020ae0aafb3956b000182b92882b750d4970782ba4082b858d4a808d47808988820d4a707977720d487075207e40064a0956b000282b72882b8387b6848018263200282ba30d3970bd8970c82625801d82308dab80cc90a0bc9cb04d8cb0b7b6b3801d80a0a826c5001826b4801c9cb0cc9ac0c826a3801c9ac0cc99707c98707c92308d4c707d4480ad47a0ad4470798aa20977720d4a707520776826718956c00017bc7608267107bc7683a074802023a095002023a0a5802023a0b6002027bc798007bc990007bca88007bcb80008267207bc77095698001956a60018267287bc77882c7585020b00ada19955100f89511a0fa95116805951700078270f0008275e8008276e0009511f8073200005020b20a82c95022b40a38163200951100ff7b10f8007b15f0007b16e800951500018411f08289828a08828b108288187b17387b18307b18b8007b1b187b1bb0007b1a207b1aa8009517c0009518a0007b19287b19a0005020b60a1119ff8219c0008217c8008218d000821ad8007b1a787b18707b1768951780009518607b19605020b80ad813ff821898008219900082178800821680007b17107b18d48707d49608d478089888207b1908d49707977720d487075207528217287b17408217207b17488217187b17509518408217307b175864675020ba0afd1682173882187b78188218087b78108218107b78087b76955100ff8210f8008215f0008216e800951100013200008217c8018218c0018219b801821ab0017b17487b1768017b18407b1860017b19387b19580195177001951850017b1a307b1a50015020be0ad2fe821788017b1728821780017b1720821778017b171882167001821790007b172801821798007b1720018217a0007b17180195173001951810018219a8007b1910015020c00ab474ff821748017b17a800821740017b17a000821738017b17980082103001330c330b33087b1608646333068214188212208217287b178000018217307b1c78d87c0a82173864bcd37b0b7b1c70d87c0cdaba0c821740d87609646a821648d3680bd86806dab9067b1a68d37a0ad4ba0adaac0651061a017b18589537207b1760d83708c884077b179000d84706da8806c826067b168800d8260782168000c876067b10d000821798007b17d8008217a0007b17e0009517f0009518d0008219a8007b19e8007b10505020c20a6b3dff821760647b82198800d497077b16800082189000d46808d48707987720d49808978820d487075207ba0082170801821800018219f800821af0007b1ab0007b19b8007b18c0009518b0007b17c80064b664b75020c40a291582105095000188070182189800c878087b189800d480078877018218a000c8780ad88a078218a800c878087b18a800821c7895cc0188c701821b70c87b0bd4bc07887701821868c87809d88907821858c87808646382149000821288007b1aa000649628affe8217108218085022c60ad512955110fe8210e8018215e0018216d8019511f001320000821a40037b1af00082125003821848037b18e80095a4017b14980095a7037b17d800d8a707c878097b19d000d8890cda770c95a304d8a309c8980ad88a0bda990b884901c889097b199000821758037b17f800d494098899017b12e000c829097b198000d82909c879097b1978c8c2087b18a800d82808c878087b18a000c82b0bd82b08c88709951c00027bc3c0007bcac8007bcbd0009517e0029518c0027bc9d8005020ca0a583cff951c000282c7e8007b17c80082c7e0007b17c00082c7f8007b17b80082c7f0007b17b0008217f0009579055022cc0a61097bc798007bca90007bc888009517a002951880027bc980005020ce0ad071ff951c000282c7a8007b17880082c7a0007b177082c7b8007b176882c7b0007b17608217f0009579065022d00a14097bc7587bca507bc84895176002951840027bc9405020d20af43bff951c000282c7687b175882c7607b175082c7787b174882c7707b17408217f0009579085022d40ad0087bc7187bca107bc80895172002951800027bc95020d60a4471ff951800028287287b17388287207b17308287387b17288287307b17208217f0009579075022d80a8d087b17d8017b1ad0017b18c8019517e0019518c0017b19c0015020da0afc70ff8217e8017b17188217e0017b17108217f8017b17088217f0017b178217f8007b1798018217e0007b1790018217e8007b1788019517a001951880018219f0007b1980015020dc0a723aff8217a8017b17f8008217a0017b17f0008217b8017b17e8008217b0017b17e0008217787b175801821780007b175001821790007b1748019517600195184001821998007b1940013300de0a951110fe7b10e8017b15e0017b16d8019515f0018411f082897b19a800828a087b1aa000828b107b1b98008288187b1890007b17107b18a8017b1ba0017b1a98019517b001951890017b1990013300bc0a280f70ff821768017b179800821760017b179000821778017b178000821770017b17788217a0007b1718018217a8007b1710018217d0007b17080195172001951800018219d8007b1900015020e00ab1df821728018218200182193801821a3001821b7b6bf000821b087b6bf800821b107b6be000821b187b6be800821b207b6bd000821b287b6bd800821b307b6bc000821b387b6bc800821b407b6bb000821b487b6bb800821b507b6ba000821b587b6ba800821b607b6b9000821b687b6b9800821b707b6b8000821b88007b6b8800821bb0007b6b70821bb8007b6b78821bc0007b6b60821bc8007b6b687b6a507b69587b68407b67488217787b6730821780007b6738821790007b6720821798007b67288217e0007b67108217e8007b67188217f0007b678217f8007b6708955180fc95170003827078827570827668951180033200827910827a18827b088277d4ba0ad4970bd4ab0b98bb20d4a909979920d4b9095209389511d07b10287b15209515308411f0828918828a10828b0882887b187b1b087b1a1064187b19185020e20a56105022e40aa407320000951b000282b93082b73882b84082ba487b1ae8017b18e0017b17d8019517f0019518d0017b19d0015020e80ac08e821708027b1728821700027b17208217f8017b17188217f0017b17104911404911383306330701017b17484921a8014921a001492198019517b0019518900149219001015020ea0afe6dff8217c8018218b0018219c001821ab801d3760b6463d86707821638d8690cdbb70c821740d3a702d87a0a821748d87808db2a08d39607d4b707db7c085208130149214801492140014921380149213001018217487b1750018217407b1758018217387b1760019517700195185001951930017b13680164367b13305020ec0a58cd821770018218780182198001821a88017b1ae8007b19e0007b18d8007b17d0008217287b1708018217207b1700018217187b17f800951710019518f0009519d000821a107b1af0005020ee0aaa7eff821910018217180182182001821a28017b16a8008216387b16a000821b407b1b9800821b487b1b90007b1ac8007b18c0007b17b8009517b000951890007b19b0005020f00a1dfe8217307b17687b16608217407b17589517709518508219487b19505020f20ace8182168800821780007b17388217787b17408217702891fe8217088218105022f40a970c955190fd951700028270688275608276589511700232009511f87b1033075020f60a5804ff9511f87b103307015020f80a4904ff9511b07b10487b15409515508411f08272827308827b10827718828c828908828a108288187b18187b1a107b19087b1c7b17387b1b307b132895172064187b12205020fa0ac25eff5022fc0aac0a3200d86708821ac88a09d8a90ada880a821808c88a0ad88a08821b10c8b808821b187bb9087bb77bba107bb818955140ff8210b8008215b0008216a8009511c0003202821818958704d88708821a10c88a09d8a90ada880ac86a0ad86a08821b08c88b0b7b19287b17207b1a309517409518207b1b383202c9a606d8cb0ac9a606c9cb0bc94707c98707c99308d467076486d4b808d47808d4b707988820977720d487073202821750821858821940821a487b67107b68187b697b6a08955160ff8210980082159000821688009511a0003202821998008216900082178800821880007b17107b1908d497077b1818d46808d47808988820d46707977720d48707320282168000821988007b19821890007b1808821798007b17107b17387b18307b19289517207b16203202828918828a10828b0882887b79187b7a107b7b087b783202491170491168491160140700000000a079c3089518607b17788217183202827810827918827a088277d4a909d4870ad49a0a98aa20d49808978820d4a80832028217087b17288217107b172082177b17309517409518208219187b19383202821750821858821940821a487b67107b68187b697b6a089551808210788215708216689511800032027b17184911784911704911602095186049116864b732028411f0827810827918827a088277d4a909d48707d4970732028411f0828a828908828b108288187b17184911584911504911483202955140ff8210b8008215b0008216a8009511c00032027b17407b18787b1b707b1968951780009518609519407b1a6032029551a082105882155082164895116032028217b8007b17188216b0008218a8007b1810821aa0007b1a088219207b19588219287b19508219307b19488219387b19407b17787b16707b1868951780009518609519407b1a603202955160ff8210980082159000821688009511a00032028411f0491130491128491120140700000000717b484e9518207b1738330732028411f0827910827a1882780882767b18187b1a08d4a807d49608d478089888207b1910d49707977720d487073202955180821078821570821668951180003202646482178800821898007b183882138000821a9000d3b706d8b70cd80308da680cc94a0632027b67307b64389517e0847ae064a1826758d40707826850826948d49808d487079877207b6018d40808978820d4870732026f77977a206f88988820d48a0a9877206f98978920d497079888203202d87907821ae800c87a08d8a80ada770a8217e000c87a0ad87a07821bf800c8b7073202d87907821aa000c87a08d8a80ada770a8217a800c87a0ad87a07821bb800c8b7073202821918821b10821008d49b07d46008d47808988820d46707977720d487073202821818821910821a088217d4a808d4970ad48a0a98aa20d49808978820d4a80832027b899518f88488e06481330a48089519e08499e0649149191849191049190849098b770597770597992032028217e8007b17288217e0007b17208217f8007b17188217f0007b1710821838958720d88708821ac88a09d8a90ada880a821830c88a0ad88a08821b08c88b0b7b1a707b19687b1760951780009518609519407b1b783202d4a808d4970ad48a0a98aa20d49808978820d4a8083202821710821808d487071408e0ffffff00000000d886088219189498947832028411f08279827808827a1082771849111849111049110849017b17387b1a307b182895172064187b192032028267d0008268d8008269c000826ac800826b307bb7107bb8187bb97bba08955100ff8210f8008215f0008216e80095110001320282970881981082996f77977a206f88988820d4a80832029551d0821028821520951130320238076802024911584911504911487b174049117849117049116004951780009518609519404911683202d87907821a10c87a08d8a80ada770ac86a0ad86a07821b18c8b70732028217108218188219821a087b67107b68187b697b6a089551c08210388215308216289511403202d88708821ae800c88a09d8a90ada880a8218f800c88a0ad88a08c868083202821790008218980082198000821a88007b67307b68387b69207b6a288217107b67108217187b67188217207b678217287b67089551e0fe8210180182151001821608019511200132028217f0007b17408216f800821900017b1948821808017b18307b18a8007b19a0007b1698007b1790008217107b17c8008217187b17c0008217207b17b8009517d0009518b00095199000821a287b1ab000320238076802024921f8004921f0004921e8007b17e00049211801492110014921000104951700019518e0004921080132027b67a8007b6ca0007b68b0009567c0009568a00095698000956a607b64b8003202c88a09d8a90ada880a32028411e06476828718828910828a0882887b17387b19307b1a287b1820641795182032028411e06416828b829408828008829395ba1f7b6b5832028219780182970881981082996f77977a206f88988820d48a0a9877206f98978920d49707988820951b00043202826b5888b98000826a18db9a07826c20826a50d4ca0ada980a3308ffdab807dab80a939c826b28939b3202837883693307013202828910828a18828b088288d4ba0ad4980bd4ab0b98bb20d4a909979920d4b9093202828a10828b18828c088289d4cb0bd4a908d4b808988820d4ba0a97aa20d4a8083202d48a0ad4b30b9518e08488e064817b8b107b8a187b89087b873202d87907826a2001c87a08d8a80ada770a82673001c87a0ad87a07826b3801c8b7073202958b019518e08488e064817b8a187b89107b87087b8b3202c87a08d8a80ada770a3202c9ac0cc9bc0cc99707c98707c94308d4c707d4080ad47a0ad4070798aa20977720d4a70732028217387b76188218487b78108218087b78088218407b789551d0fe8210280182152001821618019511300132026f77987a206f88978b20d4ba0a32029551e0fe821018018215100182160801951120013202821880008217880082199000821a98007b1a387b19307b17289517207b182032028217c0007b17388217c8007b17308217d0007b17288217d8007b17209517a00032029551e0fd95170002827018827510827608951120023202d88708821a10c88a09d8a90ada880ac86a0ad86a08821b18c8b8083202d88708821a4801c88a09d8a90ada880ac86a0ad86a08821b3801c8b808320297772098772097bb2098bb20978820d4b80c3308ff3309ff32029551c0fd95170002827038827530827628951140023202d88708821a4801c88a09d8a90ada880a82183001c88a0ad88a083202d88708821a68c88a09d8a90ada880ac86a0ad86a08821b7832028411e06416828a7b6a30828a087b6a28828a107b6a208288187b6818829a8298083202c8b909c88909d3b90ad8b90bdaa80b32027b6ab8017b68b0017b67a8019567c0019568a0017b69a0013202c9430c7b1c507b1688007b1880007b10787b14707b17587b1b609517709518507b196832028411f082897b19288289087b19208289107b19188288187b18107b17389517f00032028267187b67588267207b67508267287b67483307209568408269307b694032029567ff07957701019568ff079588e1009569ff079599c10032028411e0492138014921300149212801492120018317200132028411e04921b8004921b0004921a8004921a0008317a0003202979801d4870798983f826a6097a901d4890998a83f32029551b082104882154095115032028217d8008218e8007b18288213d000821ae000d3670bd8670c646082144032028411f0829a7b1a78829a087b1a58829a107b1a508299187b194882893202c8c808c8a808d4b70ad49808d48a0a98aa20d4b808978820d4a8083202955120ff8210d8008215d0008216c8009511e00032028217a0007b17188217a8007b17108217b0007b17088217b8007b179517e0009518c0003202c88609d8690ada880a8218f800c88a0ad88a083202827818827910827a0882777b18787b19707b1a687b17609517209518603202c87908d89809da770932028217f0008218f8008219e800821ae000d49808d4a707d4870732027b67287b6820826818d487077b67188267588379803307ff3308ff320238076802024921b8004921b0004921a8007b17a0004921d8004921d0003307047b17c00032028217b0008218b8008219a800821aa000d49808d4a707d4870732029877206f98978920d4970732027b788218187b78088218207b78108218287b781832028411f08289187b19208289107b19188289087b191082887b18083202c88a09d8a90ada880a821850c88a0ad88a08320283788369330732024917184917104917083308607b783202821730018218380182192801821a2001d49808d4a707d487073202da77088267b000c8870b7b6b4801d87b078268b8003202390870020251080cf8fe3307a0020383770a0d28fef7fe9511f07b10087b156489647533082064975020fe0ab5037c78017c797c7a027c7b03978808d4980897aa1097bb18d4ba0ad4a8087c79057c7a047c7b067c7c07979908d4a90997bb1097cc18d4cb0bd4b909979920d489027c79097c7a087c7b0a7c7c0b979908d4a90997bb1097cc18d4cb0bd4b9097c7a0d7c7b0c7c7c0e7c780f97aa08d4ba0a97cc10978818d4c808d4a808978820d498037c78117c7a107c7b127c7c13978808d4a80897bb1097cc18d4cb0bd4b8087c7a157c7b147c7c167c791797aa08d4ba0a97cc10979918d4c909d4a909979920d4890a7c78197c79187c7b1a7c7c1b978808d4980897bb1097cc18d4cb0bd4b8087c791d7c7b1c7c7c1e7c771f979908d4b90997cc10977718d4c707d49707977720d487076f776fa86f396f2a7b5a187b59107b58087b57821008821595111032009511d87b10207b15187b161082897b19088289087b198285108286183308205020000b6c026f686f59821a6faa821b086fbb787b18787a10787908787898bc38787c1f98bc30787c1e98bc28787c1d98bc20787c1c98bc18787c1b98bc10787c1a98bb08787b1998ab38787b1798ab30787b1698ab28787b1598ab20787b1498ab18787b1398ab10787b1298aa08787a11989a38787a0f989a30787a0e989a28787a0d989a20787a0c989a18787a0b989a10787a0a98990878790998893878790798893078790698892878790598892078790498891878790398891078790298880878780182102082151882161095112832009511807b10787b15707b1668951580008411e06476828718828910828a0882886f776f996faa6f887b18587b1a507b19487b1740491138491130491128491120480120831840831a20831b3309ff33070a08821738821830821928821a206f776f886f996faa7b6a187b69107b68087b679551808210788215708216689511800032009511a07b10587b15509515608411e08272827a08827b108277188283828908828c108288186f746fbb6faa6f276f826fcc6f996f387b17387b1a307b1b287b14207b18187b19107b1c087b12831820831a3309ff330b2033070a0e9551a08210588215509511603200951160ff7b1098007b1590007b1688009515a0008411e082ab7b1b3882ab087b1b3082ab107b1b2882aa187b1a20829a7b1a18829a087b1a10829a107b1a088299187b1964865020020b6682186f888219086f99821a106faa821b186fbb7b1b587b1a507b19487b18408218206f888219286f99821a306faa821b386fbb7b1b787b1a707b19687b18608379836a8317403308020a07955160ff8210980082159000821688009511a00032008b7910520931c8780883881f8488e056380000012533096c0202390a6c0202ae8a093d086c02020133088002028377c88707320000849a40520a195109148d9a40d0a70acf9707cf9808d4a808320032009598c0cf870833073200849a40520a195109148d9a40cfa80ad09808d09707d4a707320032009597c0d078073308320049922425494b2a252da9944c494949694884248924214990246992244921494992244305555141952649521292042124a9d2242020202020882002820808082288802021242222229124511291241249122584444444444844442422224a22222222111189101211118988881242922495202849925425294949924644449294922449499224499224494a524a92922449121149522222a210941241042148449248499224222222222222852023a8d2144a6949922449529292240892a4042182a1244d92a49292244992244992244992a49292244992244992244192a410111129499214218a442249922449928424492a2849524a922449529214922492a424491249499224912429499224494a0595b4240992244912244912048d8888888808111149922449441211119140922449922449244924499224491249922449928844444444444444449024498a8888061111114892244992244992244924812889a624499224499224491211118888884892242549925292444424222209144c9294922449922449929294828824911249521289445192444444444404519240101111499224494444444444241089249244924412499248924892449224492489244944049088128944629224494992249212912492445134925452a2482249124924491249228924119120228944455224928888441211111188249244128988884852922481061111114892244992244992244924812889a6244992244992244912111108020523222222228288882449922422221189041249924492244992249248922449922449922489aa0092248949922449922422222222a22412492449454444529224492222220249042289544992241011110d22222290244992244992244992480251124d49922449922449922422221011119124494a2291282549221111119140c1882491924a92482212494a49924824a92491a4484492481295344992a2482249124924492222222222228988044911092012a588244992a4344992a248224912492449222222222222222288482412892402914492442412490144a2149124499294264952144924492249224944444444444444049194244992244992244992a4242249148c884812212222224444049148241289888888888824898888884422918888242222222249929424494a9148244a9224911211894444448224096410a8a21111912495244992244992922449529252922891484424221189442249124822222222118944a22409244922222222111191242549922449494444144444444244444488880822111111111191244912912449444444448a44225124128992444444241289888888442441920432504523220251442081201028086410a8a249924a92244992822449499224a5522449522990942490440a4452244992244912118854aa32494952444424499292a48888442049922449922449522495242905922449a0244aa0244a922449922450a554494aa040499224a9a41408344922a9244992244992922449928848925202451181080411491229494924251208024120812449922449926450814034222292a4922449922449529224494a524a921245222211894024020511118988882822102149224244228888888848922449222249a42449529248498948141191881404320854d18888401411482008040a021904aa6852924a0248924a2994a288409224522925499224099224a940232222492a499224499224254992a424a524295124221291084444a020492225a924494a92244922a2248124494a0245444420498948442422222222914824128944442482221151354992244992249124499224499224499288042222128944222222228248442449922449a5922422221a1111495292244924495292a42449224244819224499224922488884852028d88481221222222444404111111111111111111111111919224a924454444444444241289442208048104922449922449924105025144a0888808244992140804420493142a2549554952a04092944088602889262525499224494992a49492a4144912119124528a442291a4485244202222894422228288884422918888888888882011119124892449129188442402559224299324499224499294245092a22411111141aa224992324992244992444444041249229048124992244912111111111148499224494a12490422895465444404824010489224499224812050922410a824054a920402294909141111111149220a229148242289402491888888201289442281888888201289442281888888201289442281888888201289449140444444101111115124128924499224499224499248248a44444414118924294992445292244924495292244992a8049202a5204912489224492049924044249a2449529294540a049a24495292520a041a111149522449248948a288242249248a44225124495292242949929494242592484444445004221229499224222241444444442289402449499244241111492012119148242212111109444424128988444444042222222222222222222210111111111111111191442251444444234992448824251111092249224944222222222529922449442412894422914824121111111111111191482412894422910822912445a24422914824128944444444444444444444444444444444444444444490224992241111912449129124499224c9a0028168444492244d92240949924492205010c82050452322221111118d8848128188882012111111111149922411114922902049021904aa28229024492a10689224494a9224494a92922405920492242525d08888484992a4922489888888884824128988482412119108229148a42449922449922422222222124192409224499224499224298988882291482422222222222222a8149124499248124992242249924422892491484c922429499224924422922489884822492489244992244924922449121111292210451249924414888888888888888888882022224904222289449224894892444422518a2291484492684444244911892491242289444422919448148924124552921449929424494a9224259148148944a28844221111111488888888888888888888082201440091288a888888481125954822499292441211818844128944221111898824911289444912291111111111894451444444448a484a24912449928888084444444424128988480411111111110944922491482292888808249224499288242222128148221111894422222222220211111111111111111111888888888888888888884422514492682449920811111111222282284944444444449248498a24258988442222222222222222228a4422914824128944229148241291482412894422114422918844225122914824128944444444444444444444444444444444444444444444444444444444444490244992a42289244992249224499224195420108d88884014118840101191249248121191401008020924499224499224830a04a24912294949242508144504120822048240104820499224499224195420108d888844444414118840440411442212491249922408a4a4244992a42449922449061508441181922409092124150834812010110994a42449928888484992242581402022222222d0048a2090402010244992922449205320104d9208242484902405024912409240a0090481208192942449121111294992a424100844444444049a40110412080482244952922409640a04a211119124252922224992242945494a49895422254924812491049224910412494a92a4524a25114892244992249140a01489241091244902459214491295528a224a092411114895404912499244221148a52a91249224499224494a22228a88889424494a92244911111181888824499224491211114944444492a4489224499214492a254922512489241111111111118188882849529292242949922425489222222290a449922449922449922449922049922449058a8888888808442249922449921425a94412492481244902499224092492244952499224499224499224499224494444442022222210111145248994944a499224494a92a424292222492411111141242292244992244992244992244992242949922449922489888888884841c924092449922449922449922449924824121111114192409204925292229148442492202249922449922449924424499224499224499288888888882091244992248948222222922449498a888888888824492481244902814020499224499224499224108140111191529224495292242949924a94482429a22449258924158944241289442222828888a4244520492049024922092449120804024992244992244992248108040a2292444a92244911111181888844221191089214119124499292942422221189442491888888482412111189122429c92449922489888848442211111191482422221241a024090492a404420443493449924a92244992244992244992244992244992529224491249925252529292249594942495244992942449529024812050922410484a520225495249922429102298a4502949aa4a9202256992244992244992244990244992a4024544442a499224499224492429222222495210912449922449449224499224499224499224892489884011119192244992222222224544444404814044444444929424499224491028489240102822225249922449922449224911111149928288244992244922922449922449922449922449102822225292244952444444a4888888882010888888884892922449922409020549120802254952924444449024494a92888808922449924444449004222222222202492022222222224802111111111181249024111189200924499224414444148944224992241111114124128942d194404a529224491211111111111149124892444444041111111111111111914824121111111144442449222222529292888888044a9224849024800a049a40108888044a529224494444a4244992924020101111111168024510482010089224494992249029108822022549124212402a1068024120221228494992241111919224494a02814044444444a00914412081402048922425499240a640209a241148480821490a0492109224814013080241022529499224222252922449492010888888880834812208241008044992a4244912c814084411811212424892028124849024802410680241209224221228494992241111919224494a02814044444444a00914412081402048922425499240a640208a0894248140929440886028894644444a92a42449922429115192244992244912254992242549922449922449922425091424292929499224499224499224494a92948240090921244981401292009204024d20084492444402252949922422225292244949201088888888083481220824100882244952922409320502d1922449922449494a41504444a424490281244992040245444492925424495292141111912441929294244992a4a4284a922449922449922449922449922489a82449922449922449922489241144444411492295244911118944222211119124491245242210111108222222491289442212118944444444044949524a2492244a2422222282a2aa48244a44222523912449924492489248922491244992242210119194a40844499224494a124992449244922449928a4a49224992244992244944201289249144922449224992449224491211888888449244248124894092249204229224495249128924252902c924499224091289988824902449204912490211499224a524128924499224499204118848120d24494a5292242549090245442412892212898844904824222248229148a4922549922449924492244992242222124944222222221289444422489224499224499224499224492222a22425294992a4a4244992840255526a4444a4242989888808229148248a44442288884892244992244992244992244912244992822222222549a228492222222211918888a48844442222914844248244222222228824494a4599244922499224921249492449921411118988884844444a4a2291441289249124922449492a888824492449221189888802499292942449495282a0204992244982a088884892922449224992922449922429294944442849904824128944111189201289449224499244442412898844449224498a88882649a52449444444242222222292884422221191888888482a222222222222894824118948444444442412898844249224914422499244222222224992244992244954444444444444222251c48888888888884844444412494a2449222222111111111111114144444444444422222222121111111111442222229224522289442492002291242222222222221249222241241149221244924444448a880822222222888888244912110922898888242512492212411249228924229148444444444444a42449529224898888884822128948221211114922124444441249228944149124224124114412898888888888888820144508a194a4249114492289444444442212111191922492441049245292241109228924492491944824894810112122828888888888282211441089084444444424128924499224898848101149922422914892248904898808218488888888888288888868922421842415044d10041149509292244922222225499294044110111111091a111141822210240882204992942449824c41104582244942485241d00441109104252949922422225292244949100411111191a011111124280241822008922449499224c8140451244892248490a482a04110910425294992444444a4244992922008222222529224492468822210240882204992942449824c41108d88889424494a52a2484424828888244992244912495292244892244992244992a42429495090244190242508110c25d18888242549242549922825a524922495524a242949925452894849a452aaa2442449448a244992242225414452414422921224224944242551054922495144240992545022099248929424490a4aa924499224499249924892a4922449924812492249a2288a24499224499224499224499248922449922492242a2391449248922449ca92444414044544449024490a8220443049a15292549524054544444a929424252549929224292949922411111111111149824414894422222222499088884422119188489224491111514444444492244944444444101191241111114124912492482291888848041111914412492449222222828888882249229144224922222222222222919448924812494444444444444444441011111111111111111188248988888888888888880822222222228920924844444444444444444410111111111111111111111188888888888888888888880822222245444444229188888848101111892412898888884410119124492222221248241289482288241211111111111144449488888888888888888848104110111111111111111111111111914824228288888888a8a4924852912495884a444a12495251514511114922124924892422228a20228a2022118928888848242292484441442492288a8844041111058988082211914824914844141415891211232291249248228924491249224924894451144992241249a224114924492411892411c5482491249224922446444422221191888888441011119144224992242212445244228924121111111144492222222222222222828888489248221191201289441289442214d1240a22221289441111114124494444440411119124124992882488888824110922894422a24810111111111111114194242222222222222288281224128944928848104912111111111111111144444444444444444492241191021111111111119124220a22492222222222222222222222228828221144108908444444444444444444444444444444444444444410914812492292489248224922499224499244228410222212118908222222229a24494802480541130441441294a4244992888848499224254110444444448226280241822008922449499224c8140451244892248424805410344110442441494a9224898888942449521204414444442468444404098a4090200882244952922409320541344992124892943425499224252525482a55ada42593a0241a1111a9241111111111118844229190124d4a90942449922049121111118888489224492222222222229224419224222222101191240932d2888848922449342949920421099a888828089224092124a9206810442441494a9224111111294992a424088288888894244912099aa00804098220489224254992205310445349244995249224491014499224a1684a90942449922049121111118188884892244922222222222292a42449922489241109449224499248902449922422222288942449922449928888082222241289884424492425494a9224954892044992442412111111410422128924128944444444049224499244444492244912245184104244442222511091249a2449084900a920682088488292942449222222529224494910041111112949922412344111081204419024494a922441a620882241922421842401541034412088488292942449121111294992a424088288888848d0044520481004419224294992049982208a042549254992244949922449922429494a922405111111a9241125499224411288482412892449928888888888884044444489888888440491202222221289082222222222222249244924892444118da420128944222212114144444444444444444444440411111111111111118824499224454444444444249208228944444444444444441011111111111111814824128924454444444444241244444404111111118944222212414444444444444444444410111151259544928a24a944548948492249525445442489482491249288888820221241442212114444248988241211414424924829118904111111444444824824a2448a442211098a0a11232212499288442291481249124924924492481445942492249148a2241149244924118924111531924492489248921111111111828888888888888888880822492222222222414444444422222222228288888888884652108944221111111144924444444444444444101111111111111111111144342992244910124123a288441041242210894422111111118944221111111111111111114124499224892289481249924844124992244992481242084992442409222222a241509224454444041111894422914824222211884422914824221241241251c9244992244992444422229124888848241289888888082489442291244992244992244992949224098a888820104444928804499224499224080445442449929424492222221144442449122449522222a2244942485241d004812022094a529224494444a42449929220082222222241131481204110044992a4244912640a826844442422121141504444444444449244124422912849922409421589442222229248422449244913111105419224212401a482a0812022094a52922489888848499224254110444444a424499248d0044520481004419224294992049982208a044992841092045041d004812022094a529224494444a42449929220082222222241131481204110044992a4244912640a8268444444a4229148148944a224111111894424222222128188484424124992241111111111888888882489888808228924914422224944448288481245124924912489888808222922892011111111111111111111114444444444442411111109444444449144124924491211111111111189a444924492482222222222222222222282888888888888242222228188888828222291484444442488882449929032224544929424499224491211111111111189884422918848a48888884810111111115122229214241091241111111111111111111111918820222222222222222222222222222222222291484404222222221289444424828888888888888808444444444412412491888888204a1211111111110441444444444444444444042222a2924a224945925422aa44a4249124a94aa522229244249248229144441411414444041189484410119148442491880822229124a544242288888820111111442211912449242925282a12252246449244129148241249224922894492481289a28822492449249294242289248924229124a2622492481249124924322222119188484444442288888888888888888888888840244524122422222202912489442211111111414444444444444444441089442289442291689282888888888888880822492222222222222222888888888888888888884044444444444444444404519248928888482412119108249a9424498290048d448924882012118888888888888888888888888888888888888888082249922449144944924892442292489224499244921042888848229204111111110d8222222225492291884804222292441288884849922449922449414a921411118d88482412118920128944444444444420222222aa549298242549529224492449224924121111111109a44844922411111111111524894412492492244992a48828491011118d888844228924499244441289248924924444444420222222222241444444202222914824481291402449924482241105224992241244444404229148141111111111888888884844444444444444a448241289888888888888884444444444041111452291482412894422914824121191482492244924128944a24844922849499224499224959420682449444444108944224999888808818888942449922489880889442222a2041111111189442222128188884824121111114192244982882449124424895281944092a424254952929440504a9224494a2222a22449922449929424495292242549522222a28888244992a48822912449494a524902485292922449495292a424494a92444922a92429492949921411112549242949522422912449922491a48888284902482a494a9224494a92a8884424494a9292244992544a52921249228994481249a4244992a4242549924aaaa4242529128944929424499224929424494a124052a524494a925244449212111125959292a490244944929224495252929224299124921411912449929288882812914844442291888844212222224444111111899294929424a554525224959294244a244992a454a524254992929424494a929254224924919294a49294244992242549922222a2525244441411912429128944a28824519224494a2449222549921491244a2489a4244992524992a49424292222a22422499294922449a2244992a48888881211112522224a922425491189484a294992549224498a8888229148145192484a529224252922224949922429444444248a8848524a2a4992922449294992aa92a42222929448240a215424550a52922449922449922449922449922449922449922449922449922449922449922455494a29494a4a1254a52425499224499224499224499224499224499224499224494912294955499224494a2549559292244a9294a42455554992a4945492141111294992942449854a2925494a292549254544444992208484a1344992a4924a9224a9a40000","linkReferences":{}},"methodIdentifiers":{"accumulatedFees()":"587f5ed7","buy(uint256,uint256,uint256)":"40993b26","claimFees()":"d294f093","claimWinnings(uint256)":"677bd9ff","createMarket(string,string[],uint256,uint256[])":"2aa7a9dd","emergencyWithdraw(uint256)":"5312ea8e","getMarket(uint256)":"eb44fdd3","getMarkets()":"ec2c9016","getUserShares(uint256,address)":"835dc40b","marketCount()":"ec979082","markets(uint256)":"b1283e77","removeMarket(uint256)":"054660e6","resolveMarket(uint256,uint256)":"60557333","sell(uint256,uint256,uint256)":"d3c9727c","test()":"f8a8fd6d"},"id":0}