{"abi":[{"type":"function","name":"accumulatedFees","inputs":[],"outputs":[{"name":"","type":"uint256","internalType":"uint256"}],"stateMutability":"view"},{"type":"function","name":"buy","inputs":[{"name":"_marketId","type":"uint256","internalType":"uint256"},{"name":"_outcome","type":"uint256","internalType":"uint256"},{"name":"_amount","type":"uint256","internalType":"uint256"}],"outputs":[],"stateMutability":"payable"},{"type":"function","name":"claimCreatorFees","inputs":[{"name":"_marketId","type":"uint256","internalType":"uint256"}],"outputs":[],"stateMutability":"nonpayable"},{"type":"function","name":"claimFees","inputs":[],"outputs":[],"stateMutability":"nonpayable"},{"type":"function","name":"claimWinnings","inputs":[{"name":"_marketId","type":"uint256","internalType":"uint256"}],"outputs":[],"stateMutability":"nonpayable"},{"type":"function","name":"createMarket","inputs":[{"name":"_question","type":"string","internalType":"string"},{"name":"_outcomes","type":"string[]","internalType":"string[]"},{"name":"_spread","type":"uint256","internalType":"uint256"},{"name":"_initialLiquidity","type":"uint256[]","internalType":"uint256[]"}],"outputs":[],"stateMutability":"payable"},{"type":"function","name":"emergencyWithdraw","inputs":[{"name":"_marketId","type":"uint256","internalType":"uint256"}],"outputs":[],"stateMutability":"nonpayable"},{"type":"function","name":"getMarket","inputs":[{"name":"_marketId","type":"uint256","internalType":"uint256"}],"outputs":[{"name":"question","type":"string","internalType":"string"},{"name":"outcomes","type":"string[]","internalType":"string[]"},{"name":"prices","type":"uint256[]","internalType":"uint256[]"},{"name":"resolved","type":"bool","internalType":"bool"},{"name":"winningOutcome","type":"uint256","internalType":"uint256"},{"name":"creator","type":"address","internalType":"address"},{"name":"spread","type":"uint256","internalType":"uint256"},{"name":"totalLiquidity","type":"uint256","internalType":"uint256"},{"name":"creatorFees","type":"uint256","internalType":"uint256"}],"stateMutability":"view"},{"type":"function","name":"getMarketShares","inputs":[{"name":"_marketId","type":"uint256","internalType":"uint256"}],"outputs":[{"name":"","type":"uint256[]","internalType":"uint256[]"}],"stateMutability":"view"},{"type":"function","name":"getMarkets","inputs":[],"outputs":[{"name":"","type":"uint256[]","internalType":"uint256[]"}],"stateMutability":"view"},{"type":"function","name":"getUserShares","inputs":[{"name":"_marketId","type":"uint256","internalType":"uint256"},{"name":"_user","type":"address","internalType":"address"}],"outputs":[{"name":"","type":"uint256[]","internalType":"uint256[]"}],"stateMutability":"view"},{"type":"function","name":"marketCount","inputs":[],"outputs":[{"name":"","type":"uint256","internalType":"uint256"}],"stateMutability":"view"},{"type":"function","name":"markets","inputs":[{"name":"","type":"uint256","internalType":"uint256"}],"outputs":[{"name":"question","type":"string","internalType":"string"},{"name":"resolved","type":"bool","internalType":"bool"},{"name":"winningOutcome","type":"uint256","internalType":"uint256"},{"name":"creator","type":"address","internalType":"address"},{"name":"totalLiquidity","type":"uint256","internalType":"uint256"},{"name":"spread","type":"uint256","internalType":"uint256"},{"name":"creatorFees","type":"uint256","internalType":"uint256"}],"stateMutability":"view"},{"type":"function","name":"owner","inputs":[],"outputs":[{"name":"","type":"address","internalType":"address"}],"stateMutability":"view"},{"type":"function","name":"removeMarket","inputs":[{"name":"_marketId","type":"uint256","internalType":"uint256"}],"outputs":[],"stateMutability":"nonpayable"},{"type":"function","name":"resolveMarket","inputs":[{"name":"_marketId","type":"uint256","internalType":"uint256"},{"name":"_winningOutcome","type":"uint256","internalType":"uint256"}],"outputs":[],"stateMutability":"nonpayable"},{"type":"function","name":"sell","inputs":[{"name":"_marketId","type":"uint256","internalType":"uint256"},{"name":"_outcome","type":"uint256","internalType":"uint256"},{"name":"_shares","type":"uint256","internalType":"uint256"}],"outputs":[],"stateMutability":"nonpayable"},{"type":"function","name":"test","inputs":[],"outputs":[{"name":"","type":"uint256","internalType":"uint256"}],"stateMutability":"view"},{"type":"event","name":"MarketCreated","inputs":[{"name":"marketId","type":"uint256","indexed":true,"internalType":"uint256"},{"name":"question","type":"string","indexed":false,"internalType":"string"},{"name":"creator","type":"address","indexed":false,"internalType":"address"}],"anonymous":false},{"type":"event","name":"MarketResolved","inputs":[{"name":"marketId","type":"uint256","indexed":true,"internalType":"uint256"},{"name":"winningOutcome","type":"uint256","indexed":false,"internalType":"uint256"}],"anonymous":false},{"type":"event","name":"SharesBought","inputs":[{"name":"marketId","type":"uint256","indexed":true,"internalType":"uint256"},{"name":"outcome","type":"uint256","indexed":false,"internalType":"uint256"},{"name":"shares","type":"uint256","indexed":false,"internalType":"uint256"},{"name":"buyer","type":"address","indexed":false,"internalType":"address"}],"anonymous":false},{"type":"event","name":"SharesSold","inputs":[{"name":"marketId","type":"uint256","indexed":true,"internalType":"uint256"},{"name":"outcome","type":"uint256","indexed":false,"internalType":"uint256"},{"name":"shares","type":"uint256","indexed":false,"internalType":"uint256"},{"name":"seller","type":"address","indexed":false,"internalType":"address"}],"anonymous":false}],"bytecode":{"object":"0x50564d0000f673010000000000010700c1e002c000800382b065726320796c6e4f6e616320726f74612065766f6d657220000074656b72616d6d2074656b72614d7220656220747375206465766c6f7365766f6d6572206f74747361656c2074416f6374756f203220757165722073656d206d756d6978614d6d6f6374756f20356f207265626d754e6d6f6374756f2066207473756d207365756e20686374616d20666f207265626d746964697571696c6d20646165727053622065622074737531206e6565777465303120646e61203073697361622030302073746e696f70206f742025312e30286e6573207473754d206c61746f742064206c616974696e69746964697571696c746e756f6d6120798b1071a64a99fe6b16ab972a1cb3fcc4000121017267b9ddf6ac5ebf34e8b232612074656b72614d722079646165726c006465766c6f73652064696c61766e4900656d6f6374756f636572726f636e496e656d7961702074746e756f6d612074c2179fc3fc72b1221ec2c3e6be451e1e4c65e650e0bd7f2b26dbb2556daafaa465726320796c6e4f6e2074656b72614d6c6f73657220746f72616d20796c6e4f616572632074656b206e616320726f747263206d69616c63656620726f7461652073656566206f4e6d69616c63206f7465726320796c6e4f6e616320726f746165766c6f73657220e442fbf2f024fc6d14bb8afa3ffab49f5b33b81f8a90ab8cf14a59b2088a123f696e6e6977206f4e657261687320676e696e6e6977206f4e657261687320676e616c69617661207386c3fcb9da84fd5b53322eb0b4455be6a62e2d6a4e632d33c52338c5c2931fd26e776f20796c6e4f63206e61632072656f7270206d69616c6566206c6f636f74756f6e6520746f4e65726168732068676369666675736e496e6f6320746e6569616220746361727486c3fcb9da84fd5b53322eb0b4455be6a62e2d6a4e632d33c52338c5c2931fd2048106100000000007000000110000001500000023000000310000003f00000045000000520000005d0000006c0000007c0000008c00000097000000a9000000b40000006164647265737362616c616e63655f6f6663616c6c63616c6c5f646174615f636f707963616c6c5f646174615f6c6f616463616c6c5f646174615f73697a6563616c6c65726465706f7369745f6576656e746765745f73746f72616765686173685f6b656363616b5f32353672657475726e5f646174615f636f707972657475726e5f646174615f73697a657365616c5f72657475726e7365745f696d6d757461626c655f646174617365745f73746f7261676576616c75655f7472616e73666572726564051302c16c200463616c6cc17a20066465706c6f7906c10a70867d03c1d2358a00008f0000bc0000ed00001601002001003601004201007001008f01003902003e02007902007e02009d0200bc0200c10200db0200e00200e50200ea02003d03005c03006103009c0300a10300a60300ab0300de0300fd03000304000504000005003405003a05003c05004805004e05005805005d0500630500c80500cf0500d50500de0500e40500f005004f06006006008006009c0600d306002c0700dd07002a08007e08001309004e0900720900c90900100a00350a003b0a00410a00480a00520a008e0a00990a00a00a00a70a00bf0a00050b000c0b00240b00480b000c0c00230c005d0c00a80c00c50c00140d00b40d00c20d00d70d00f90d00120e00190e001c0e004a0e00a80e008e0f00c20f00dd0f003910004c1000ad10002e11003511003d1100a211002b1200411200471200af1200a014001615007a15008315009e1500fa15000d16006e16007416007b1600831600841600b216000c17003b1800ab1800bc1800ef18000c1900271900831900961900f719007a1a00811a00891a00f31b00e61c001b1d004b1d00331e00b51e00b61e000d20001620002920003420004120000521003421005d21008b2100bd21002322007222008e2300972300aa2300b52300c22300d92300e72300ee2300f82300fe23000524000c24001424001b24002524002c2400392400782400d52400ed24000325004525004c25006625009a2500a125000d26002926004126004826004f26007826007a26008f2600962600982600cb2600d226004b27006827006a27007827007f27008a2700902700b02700b72700bd2700c42700ca2700d12700db27001828002328002a28003128004828005628005d28006728006d28007428007b28008328008a28009428009b2800a828006a29007129007c29008329008b2900052a00c42a00cc2a00d32a00dd2a00e42a00f12a00082b00162b001d2b00272b002d2b00342b003b2b00432b004a2b00542b005b2b00682b00c12b00c82b00132c00302c00f52c00fc2c00082d000f2d00172d009a2d00ed2d00132e001a2e00202e00272e00312e006e2e00792e00802e00872e00002f001c2f00342f00742f007b2f00aa2f00b12f001d30003930005130005830005f30008a30008c3000bb3000c23000c43000fa30000131000431002131002331003131003831004331004931006931007031007631007d3100f73100fe31000832004532005032005732006532006c3200893200aa3200b13200b832000c33000e33001533002d3300513300d333003434006e3400cc3400373500a33500dd35005036006b3600d236001837005037005637005d37006337006a37009e3700a43700ab3700c33700ca3700e03700f83700ff37001938001b38005138008f3800c83800f338002139003f3900683900863900b03900ce3900f83900163a003f3a005d3a00d73b00e63b00f33b00093c002b3c00443c005a3c00983c009f3c00f53d00473e00cd3e00e23e00253f00363f007b3f008a3f00ce3f00dd3f002140003040007440000441005141005c4100674100894100bc42004243004d43005443005b4300c24300c94300d14300d84300e24300e94300f643002844004c4400624400d14400da4400ed4400f74400fe4400124500194500394500404500a64500b64500d945004446009e4600234700334700964700f04700994900d04900224a00464a007e4c00cd4c00854d00404e00d64e001d4f004b4f00964f00a54f00ea4f000050004e50005d50009e5000ad5000f15000005100445100d251002152008052008b52009552001a5400a45400af5400b65400bd5400d85400e65400ed5400f85400fe54004155004855004e55005555005b55006255006c5500a95500b45500bb5500c25500d95500ee5500f55500f755000556000c56001656001c56002556002c56003256003956003f56004656005056008d56009856009f5600a65600d85600fc56000e5700185700595700605700be5700c95700d05700de5700e55700e757002158002858002b58003558003b58004258004e5800585800bd5800c45800cb5800eb5800f25800f55800ff58000b59001259001c59002359002a59003059006359007359007a5900815900985900c75900ce5900f45900fb5900fe5900085a000e5a00155a001b5a00255a008a5a00915a00985a00b85a00bf5a00c25a00cc5a00d85a00df5a00e95a00f05a00f75a00fd5a00305b00405b00475b004e5b00055c001f5c003f5c00895c00c45c00cb5c00cd5c00ea5c000e5d00685d00815d00945d00d15d00ad5e00ae5f00dd5f00496000726000db6000076100096100386100ad6100c66100e86100936200b262007c63006c64008864001c65002c65003f65008b6500536600f866001567002e67003567003c67004367009267009d6700a46700b56800e36800f368000669002069003969004069004769004e69009d6900a86900af6900b769000d6a00476a00206b00d46b00db6b00f06b00f76b000f6c00336c009a6d00ad6d00b36d00ba6d00d26d00d96d00f66d00326e00866e00886e00e26e000e6f00a26f005570005c7000de7000e57000ec70004a71005171005971006c71007271007971000d7200aa7200b172003373003a73004173009f7300a67300ae7300c17300c77300ce7300d073000a74004774008274008f7400bd7400ca7400f874000575003475004175006f75007c7500a57500b27500d67500dd7500df7500317600617600687600ca7600dd76000a77004e77008c7700f57700fc7700fe77003078008a7800cd7800527900a07900307a004d7a00537a005a7a007b7a00827a00b67a00bc7a00c37a00c57a00ed7a00077b001d7b003b7b003d7b007c7b00837b00867b00907b00967b009d7b00a97b00b37b00187c001f7c00267c00467c004d7c00507c005a7c00667c006d7c00777c007e7c00857c008b7c00be7c00ce7c00d57c00e37c00ea7c00ec7c00267d002d7d00307d003a7d00407d00477d00537d005d7d00c27d00c97d00d07d00f07d00f77d00fa7d00047e00107e00177e00217e00287e002f7e00357e00687e00787e007f7e00867e009d7e00cc7e00d37e00037f000a7f000d7f00177f001d7f00247f002a7f00347f00997f00a07f00a77f00c77f00ce7f00d17f00db7f00e77f00ee7f00f87f00ff7f000680000c80003f80004f80005680006480006b80006d80009c8000a38000d88000df8000e28000ec8000f28000f980001581001f81008481008b8100928100b28100b98100bc8100c68100d28100d98100e38100ea8100f18100f781002a82003a82004182004f82005682008482008b8200b68200bd8200d28200d98200f182001583007783003584003d8400ca8400d18400d384000285000985002a85003185003485003e85004485004b8500678500718500d68500dd8500e485000486000b86000e86001886002586002c86003686003d86004486004a86007d86008d86009486009b8600fc86005e8700a087001f88003d88003f88004688005e8800828800da8900f38900188a00578a00918a00a58a00bb8a00f48a00df8c00308d00378d00818d00cb8d00d28d00f48d00fb8d00798e00b58f003b90007790008e90009490001391007a91004f92007d9200609300ee93002a9400419400649400c39400f594002095003995005c9500d59500e09500ff95004696004d96004f9600a19600c896007f9700c99700b498001c9900489900149a00a29a00e99a00f29a00399b00409b00a69b000a9c006c9c00749c008f9c00ad9c00b49c00bb9c000f9d00c79d00109e008d9e00be9e001e9f00539f00a19f00d59f0035a00056a0008aa00004a1002da10064a10077a100b8a100d1a10019a2003ca20092a200a9a200b5a20007a30032a300d5a300f4a3002ba4006fa400b1a400e4a4002ca5004ea500a4a500d8a5001da6006fa600e1a6002ba70035a70069a700a4a700f7a70026a8007ca800e5a800c2a90007aa0045aa00caaa00d1aa0018ab003aab008bab00beab002cac009dac00a7ac00bcac0019ad00b5ad00c1ad000fae001bae0069ae0075ae00b7ae00faae0036af00aaaf00b4af0008b0005fb00065b000a4b000beb0000fb10042b1006ab1007cb100beb1000fb20085b2008fb200c9b2000bb30015b3001fb30038b300d2b300e4b30077b400d4b400f6b4002ab50030b50033b5003cb50042b50048b50053b5005cb500c0b500c6b500ccb500ebb500f1b5000eb60017b60024b6002ab60033b60039b6003fb60045b60077b60086b6008cb60099b6009fb600ceb600d4b600d7b600e0b600e6b600ecb600f7b60000b70064b7006ab70070b7008fb70095b700b2b700bbb700c8b700ceb700d7b700ddb700e3b700e9b7001bb8002ab80030b8003db80043b80077b8007db80080b80086b8008cb80097b800a0b80005b9000bb90011b9004db90053b90056b9005fb9006cb90072b9007bb90081b90087b9008db900bfb900ceb900d4b900e1b900e7b900aaba00b6ba00f7ba0003bb0045bb0075bb00d4bb000ebc0068bc00c7bc0050bd00d4bd0023be0081be00b5be0014bf0073bf00d1bf003cc00094c000ddc00057c100d1c1005cc2005cc30074c30094c300d7c30019c40031c4004ac40093c40075c600cbc600c9c700e1c70001c80044c8008ec800a6c800c0c8000ac900f6ca0047cb0091cb00dbcb00edcb0032cc0064cc00afcc00ddcc000acd0010cd0052cd009fcd00b0cd00b6cd00f0cd0046ce00b4ce0005cf0077cf008ccf0096cf00a0cf00b6cf0058d00035d10047d1004ad1007ed10084d10087d10090d10097d1009dd100a8d100b1d10015d2001bd20021d20040d20046d20049d20052d2005fd20065d2006ed20074d2007ad20080d200b2d200c1d200c7d200d4d200dad20013d30019d3001cd30025d3002cd30032d3003dd30046d300aad300b0d300b6d300d5d300dbd300f8d30001d4000ed40014d4001dd40023d40029d4002fd40061d40070d40076d4007dd4009bd400f3d4002dd5003cd50093d500c3d50004d60032d60093d600a5d600d3d600f8d6003cd7005fd70070d7007cd70084d7009ad700c8d700ced700f8d700fed70001d8000ad80011d80017d8001dd80026d8008ad80090d80096d800b5d800bbd800bed800c7d800d4d800dad800e3d800e9d800efd800f5d80027d90036d9003cd90049d9004fd9007ed90084d90087d90090d90097d9009dd900a8d900b1d90015da001bda0021da0040da0046da0063da006cda0079da007fda0088da008eda0094da009ada00ccda00dbda00e1da00e8da0041db0093db00bddb0042dc00a3dc00eddc002edd0060dd00eedd00f4dd0028de002ede0031de0038de003ede0049de0052de00b7de00bdde00c3de00ffde0005df0008df0011df001edf0024df002ddf0033df0039df003fdf0071df0080df0086df008ddf00aedf00d8df00dedf00e0df0010e00016e0003fe00071e000d6e00024e10056e10095e100ebe10070e20082e200c8e200d3e2002be300f4e3000ce40045e4004be4004ee40055e4005be40066e4006fe400d4e400dae400e0e4001ce50022e50025e5002ee5003be50041e5004ae50050e50056e5005ce5008ee5009de500a3e500b0e500b6e500f4e500fae500fde50006e6000de60013e6001ee60027e6008be60091e60097e600b6e600bce600bfe600c8e600d5e600dbe600e4e600eae600f0e600f6e60028e70037e7003de7004ae70050e700e8e70067e800d0e80004e90011e9003fe900bfe900c9e90016ea0091ea0004eb0084eb0098eb0001ec0054ec00b2ec00bfec00ddec002fed0075ed00c2ed00baee00c0ee00c6ee00ccee00d2ee00d8ee00deee00e4ee00eaee0003ef0009ef000fef0015ef001bef0021ef0027ef004eef003af10040f10046f1004cf10052f10058f1005ef10064f1006af10083f10089f1008ff10095f1009bf100a1f100a7f100cef1003ef30090f300cff30028f40079f400c7f40015f50040f50052f50094f500e6f5003df60048f60073f60085f600a1f600abf600b5f600cbf60070f700f7f70050f80062f8006bf800d8f800f1f80029f90051f9007ef900acf900b2f900d7f900ddf900e0f900e9f900f0f900f6f90011fa001afa007efa0084fa008afa00a9fa00affa00b2fa00bbfa00c8fa00cefa00d7fa00ddfa00e3fa00e9fa001bfb002afb0030fb0037fb0068fb0071fb00a5fb0003fc0023fc0061fc0086fc00fcfc0004fd000afd0043fd0049fd004cfd0053fd0059fd0064fd006dfd00d2fd00d8fd00defd001afe0020fe0023fe002cfe0039fe003ffe0048fe004efe0054fe005afe008cfe009bfe00a1fe00aefe00b4fe00f2fe00f8fe00fbfe0004ff000bff0011ff001cff0025ff0089ff008fff0095ff00b4ff00baff00bdff00c6ff00d3ff00d9ff00e2ff00e8ff00eeff00f4ff002600013500013b0001420001f90001650101ab01010202016c0201900201ed0201450301cc0301580401b00401130501d70501380601a20601210701ab0701be07010c08014f0801830801b30801fc08014f0901540a016e0a01920a01d70a011a0b01340b01510b019a0b01100d01800d01e30d01d10e01e90e010d0f01500f01990f01b30f01cf0f01191001951101d81101fe11015012019f1201e11201f21201341301861301d913012914018b1401951401ba1401cb1401e51401ee1401f814010e1501b215013616018a16019c1601a51601b916010b1701351701881701b51701ef17013718010419015c1901ce1901e51901181a01bf1a01ec1a010b1b01371b01561b01831b019e1b01cb1b01e61b010f1c012e1c01771c01181d01671d017e1e01ad1e01f81e01791f01c81f011020013220015520017a2001892001d12001d72001a23101eb3201f03401aa876e978a2098aa20977b2098bb20c89b0bc9ba0a979b019abbaeab20ae873751094ec87909647a017c8b95880195ac0178ab64caab9cf42836510934c87909647a017c8b95880195ac0178ab64caab9cf4281c51091a839aff01c8a80b7cbb9599ffc8a70c78cb83aaff5209f032009511f07b10087b158475010a05013d07b0020251050750100209501004b8009511807b10787b15707b1668951580008411e049113849113049112080003307409518204911285010061032014911584911504911484911408317400a0f01821750821858821948821a40d49808d4a707d4870752072e6417501008f6028217188218108219088216d49707d48609d47909989920d48707977720d497075107090050100a96096467330850100c3734018377330833090a03284c30016467330850100e2134018378330733093300100a0c019511a07b10587b15507b16489515608411e0641649163849163049162080003307409568204916285010125c31013907b00202531704c4009517e08477e07b67186471837733083300140a040182671881771c51470bc45d830c0233085bcba58daa879a015147773e28b19700514793f094d2310151477c72c9d3c2005147d3fd44eba201330816902cecaa87ef003308829097ecaa87a70051476dfda8f8cb013308e6604605aa87d8005147b7e5a705be015147dda9a72af5005147263b99409f0133088eea1253aa8751013308d75e7f58aa8788003308afcfd558aa87c600514733735560b8003308ffd97b67ab8708501016bd285010186e0833001a951100fc951700037b70f8007b75f0007b76e800951500048411e0951700034927d8004927d0004927c8004927c0008317c0030a0f28353e50101c7d4133001e9511a0fe7b1058017b1550017b164801951560013302980328102a013300209511a0fe7b1058017b1550017b1648019515600133027c0128f129015010220152330024951120ff7b10d8007b15d0009515e00033024828eb2901501026b0265010287b4050102a4c2533002c951150fe7b10a8017b15a0017b1698019515b0018411f03807b002024921e8004921e0004921d8007b17d00049210801492100014921f00004951710019518f0009519d0004921f8003300120128501733002e9511a0fe7b1058017b1550017b1648019515600133023602285129015010306620330032951120fb951700047b70d8007b75d0007b76c8009515e0048411e0951700044927b8004927b0004927a8004927a0008317a0040a0f28e44d501034871e5010367629501038005333003a951160fe7b1098017b1590017b1688019515a0018411e049217801492170014921680149216001831760010a0f289a059511c07b10387b15307b16289515408411f06476641733084050103c942d0150123ef3240132005209449511c07b10387b15307b16289515408411e06476838883170a04821718821810821908821a7b67187b68107b69087b6a9551c0821038821530821628951140320000951150ff7b10a8007b15a0007b1698009515b0008411f0828410828308829608828c7b1c10829b829210d3360a7b1a28d8360ad8cb0c821028da0c0a64308288187b18208298187b1818c94209c9a9087b1828d8a9087b1408d8420a821420821310821918c94909c9a909c98909c90606c9c608c93b0a8e8c88aa2085aa01db8c0a8f968218288e8cdb960cd49808db8c0a510a5364767b13507b10588217087b17609517709518507b146833004233024028e125018217800082188800821970821a787b67107b68187b697b6a08955150ff8210a8008215a000821698009511b00032005010447805501246ed1c01320033004a0a0f33024c28fa280150124cf6280152078b0050124ea12001501050f2fe5012523e26013300549511e0fd951800027b80187b85107b8608951520028411f0827a7b1a408278087b18588279107b19508277187b17484921d8014921d0014921c8014921c0017b17b8017b19b0017b18a8019517e0019518c0019519a0017b1aa0013300280528a92c641750105614fe501258291f015108090050105ace0450105c732f0183783307330933005e0a0c019511807b10787b15707b1668951580008411f08282828308828410828818829c7b1c829b087b1b08829a107b1a108299187b191864767b19387b1a307b1b287b1c207b18587b14507b13489517409518207b12403300603302720128b424018218958720d88708821a08501262132201821810c88a0ad88a08821b18c8b8087b69087b677b6a107b6818501264ed1d013200951140fe7b10b8017b15b0017b16a8019515c001501266d92801828a088286108288187b177b18707b1878017b1670017b1a607b1a680195178001951860017b19687b19600133006833021a03280e2401821798018218900182198801821a80017b17207b1718017b18187b1810017b19107b1908017b1a087b1a00018217487b1738018217507b1730018217587b172801951740019518200195190001821a787b1a200150106a1c3e646c821758017b17788213500182144801821040013309330a33023306018217087b1958d87907821910d39a087b1a50d89a09da8709821b18d8b207821a20d3a608d8a60ada870ad3b207d48707da790a510aeb007b12287b16307b10387b14407b1348821768957820d87807821960c8790ad89a06da7706c8c606d8c607821970c87909d468077b19707b1a60d4a909d49707987720d46909979920d497075207b4009517e0007b186850106cb42901821ae0008217e8008218f0008219f800821b787b1b9800821b487b1b9000821b407b1b8800821b387b1b80007b19b8007b18b0007b17a8009517c0009518a000951980007b1aa00050106ecbfd8217d8007b17788213d0008214c8008210c000821958959901889701821a50c87a0ad4a907887701821828c87802d88208821b30c88b0b646c64b628e5fe82177b707b74087b73108218787b78185012705c2701320000951120ff7b10d8007b15d0007b16c8009515e0008411f0828b10828218828608828cd42608d4bc0ad48a0a98aa20d4b808978820d4a8087b17385208b9008297187b17188297107b17208297087b172882977b173095c7207b1708d8c707c876087b18d86806da7706c8b606d8b607c827077b17104921b8004921b0004921a000209518a0004921a80064c7501072b9290182177b17488217087b17408217187b17788217207b17708217287b17688217307b17607b165095178000951860951940821a107b1a5850107439fd821790008218980082198000821a8800821b387bb7107bb8187bb97bba08501276dc2701320000821770018218780182196801821a6001d49808d4a707d487075207fb003807b002024921180149211001492108017b170001492138014921300149212001049517400195182001951900014921280150107886fa821940018217480182185001821a58017b1ad8007b18d0007b17c8009517e0009518c0007b19c00033007a951140ff7b10b8007b15b0007b16a8009515c00033025c0528b926018217e0007b17388217e8007b17308217f0007b17288217f8007b17209517a00050107caef950127eba18015020800046fe50228200061a0152074050228400901901c9c602d8c606d84a0a821c38c99c0cc9ac0cc96c0cc9b707c98707c90306d4c707d42608d47808d42707988820977720d4870751070900502086001e6407646850208800bf2a0150228a0089240133008c000a0c019511f87b103308c002028388330701330933008e000a0c018289828218828b08828810959c1fd89c09c89b0ad8ba0bda990bc88b0bd88b08c8280884cce07b7c7b7a087b7b107b781832009511b07b10487b1540951550502290009a190150209200c12701491118491110490141330704641849110850209400a927013908b4020256183f0b2003b4020240013308c002028388330701330924330096000a0c019511b07b10487b15407b16389515508411f064728289827408828c088273959a1fd89a00c80c0984aae07b1308c8a303d8a30bc8490ac8ba0ad39a06d89a07da6b07822b18d8c90c828610822210828818da000cc86c0cd86c06c82c09c89707d8c90cd89709c8b808c86808c8c808c8980c8ec88e79dbc809d4c7088ea6db8906520654821808d88308d34a09d84a06da9806d82708d3bc09d8bc0bda980bd32708d49808da860b520b2d7b13107b1a187b17203307409518107b1c2850209800c126019551b0821048821540821638951150320050209a00d5fe951140ff7b10b8007b15b0007b16a8009515c0008411f082897b19388289087b19308289107b19288288187b182064769517800050209c0087f7821980007b19821788007b1718821a90007b1a10821b98007b1b088218207b18588218287b18508218307b18488218387b18407b1b787b1a707b17689517609518407b196050209e00a6fe8217087b67188217107b67108217187b670882177b675022a0007a16013200828a18828b10828908d4ba0a889b0194ab510b318288958a1fd88a08c8980884880184aae095a920d8a90ac8a80bd88b08daaa084917187b797b7b087b78102816019511f87b105020a200e4fd9511807b10787b15707b1668951580008411f0827a10827b18827c088272d4cb0bd4a20cd4bc0c98cc20d4ba0a97aa20d4ca0a520ad400829b18829c108296829708d4c609d4b70ad4a909989920d4ca0a97aa20d4a9095209b0007b17287b1c307b1b38828b18828a108287828908d4a7087b1b207b1910d4b909d498089888207b1a18d4a909979920d4980852087a83227b120864687b175020a400a42701837783688219083300a6000a03018217c86707d86708821b288219105022a800d92001821c30821818c8c808c88b0bd88b0ad8c808821c38821620c86c0c5022aa007a22015208224911584911504911489518404911405020ac00bb24015022ae00551601320000821970018217780182188001821a88017b1a28017b1820017b17180195173001951810017b1910015020b200dffd82194801821a400182183801821730017b18687b1960d48909d4a708d498089888207b1a08d4a909979920d49808520843017b16f0007b16708216787b16f800821880007b1800019518f000821988007b1908017b17585020b400252401821038821770c80708d87809821340c83607c8970ad36a0bd86a07dab907821b18d3ba09d8ab0a821b20d88b08821248821c8000c82c0bdb9a08d8cb09821c50821a8800c8ca0ac8a909c8b707d8b70ac8a909821b28d3b90ad89b09821630d8760bdaab09d36707d4a707db79085208a600821858958720d88708821a68c88a09d8a90ada880a821608c86a0ad86a08821460c884048218707b1890007b10d0008218787b1898007b17b0007b13d800821780007b17a0007b12e000821788007b17a8007b19b8007b1ce8007b1ac0009517d0009518b000951990007b14c8005020b6008cfd8217108218607b78187b76108218687b78088218587b78955150fe8210a8018215a001821698019511b0013200005020b800ebfa951100ff7b10f8007b15f0007b16e800951500015022ba00e11901d8ba02c8200c7b6340d83a03d34c0bd84c0adab30a7b6050d80c0bda220b828010828c18829318829210c80b0bd80b087b6c48c8c808d33809d93808d82b0cda9c08d32b0bd4b909db980a510a0f017b63207b62285022bc00e814015207040183a78168587b6a103300be000a04018267108272827308827910827a18826758957c20d87c0b826850c8b807d88708dabb08826b18c8b808d8b80b826448c8b404826b207b6b78826b287b6b70826b387b6b68826b407b6b607b6a98007b6990007b6388007b6280005022c0007a18013300c200951150fe7b10a8017b15a0017b1698019515b0018411f082ab187b1b2882ab107b1b3082ab087b1b1882aa7b1a20828a187b1a50828a107b1a48828a087b1a4082887b18388296829a08829b108298187b17107b1888007b1868017b1b80007b1b60017b1a787b1a580195177001951850017b1650013300b000289cfb5022c400e6160132005020c60070f900828b18828a10828908d4ba02889c01942c510c48828898ac3b97bb05d4cb02989c3b97aa05d4ca0a988c3b979905d4c909978805958c20d88c08c8890bd89b09da8809c8a909d8a908c828087b7c7b7b087b79107b781832009511f87b105020c80056f99511c0fd951b00027bb0387bb5307bb628951540028411e0641682ab187b6b800082ab107b6b7882ab087b6b7082aa7b6a68828a187b6aa000828a107b6a9800828a087b6a900082887b688800829a829808829b108299187b67187b69e0007b69f8017b6be8007b6bf0017b68f0007b68e801956700029568e0017b6af8007b6ae0015020ca0019ff956b000282b982b70882b81082ba185022cc00e718015020ce00e2f9956b000182bad80082b9d00082b8c80082b7c0007b6a387b6828d48a0ad49708d4a8089888207b6930d4a909979920d49808520803038268f800956a00017ba880008268f0007ba888008268e8007ba89000956880018269e0007ba998007b67205020d0001e20018269e80098973b8268e000978805d47802826af00098a83b979905d489078268f80098893b97aa05d4a909978a0582688800c8a808d8a80a826b9000c89b0bc8ab0bd39b0cd89b09daca09826a9800c87a0ac89a0cd8ac03d87a0a8267a000c82707c8a707c83707826278d8c2097b69f800826070d30b037b6b58d8b0097b6860826468d8840adb390a826b8000d3b7087b6748d87b098267f800da87097b6c50d32c07d48707db790a8263a00082699800520a1c021407e0ffffff000000007b6740826b880082649000649a8267207b67e8008267287b67e0008267307b67f0008267387b67f80001826760d87b07826958d3940cd89409dac709826250d82a0764a8826a48d3a300d8a30ada070ad32807d40707da790a510a91019517e0847ae064a1d48b077b63d0007b64c000d43409d497079877207b68c800d49808978820d487075207870183a77b6bb80083b87b6ad8000a0401826ad80082a71882a81082a9088e7c8e8bdb7c0bd478028e9cdb2b0c520c590182aa82628800c8a202d8a20a826c9000c89c0cc8ac0cd39c0bd89c09daba09826a9800c88a0ad88a08826ba000c8b707c88707c8a909d8a908c8870a826768956b00017bb7208267707bb7287b6240018267787bb730826780007bb7387bbc487bb9509567600195684001956920017bba585020d20028fb826cf8008269f000d4c907826840826ae800d88a08826be00094b894785108bf0095a820d8a80264877b68a800c82b087b68d800d8b808da2208826278018263700182646801826b6001c898087b68b000d89808c88c0c7b6cf8007b6b00017b6408017b631001956800017b6218015020d400b71d018268b800958b20d88b08826ac000c88a04d8a40ada880a8268c800c88a0ad88a088263d000c883038267a8007b67e8008267d8007b67e0008267b0007b67f0002843fe8267188268207b788268287b78088268307b78108268387b78185022d6004916013200005020d8002af5951100ff7b10f8007b15f0007b16e800951500015022da00201401d8ba02c8200c7b6340d83a03d34c0bd84c0adab30a7b6050d80c0bda220b828010828c18829318829210c80b0bd80b087b6c48c8c808d33809d93808d82b0cda9c08d32b0bd4b909db980a510a94007b63207b62285022dc00270f015207890083a78168587b6a103300de000a04018267108272827308827910827a18826758957c20d87c0b826850c8b807d88708dabb08826b18c8b808d8b80b826448c8b404826b207b6b78826b287b6b70826b387b6b68826b407b6b607b6a98007b6990007b6388007b6280005022e000b912015020e20034fb5022e400a0110132005020e6002af4008219a0018217a8018218b001821ab8017b1a58017b1850017b17480195176001951840017b1940015020ea0077f5821a78018219700182186801821760017b1a287b1818d48a0ad49708d4a8089888207b1920d4a909979920d49808520825027b162001821880007b1828018218787b183001951820018219707b1938017b17105020ec00c11b0198673b821a800097a805d48707976605821058c8060bd86b0882148800c84709c8890cd37c09d87c07da980782187898863b821970979905d4960698a93b978a05d4a90982139000c8390ad89a0982129800c82608c89808c87a06d8a607c8780a821850d38c077b1c48d8c8087b1b50821940d8b909db7809821b68d86b07821c60d3ca087b1a38d8ac0ada870a7b1640d3b607d48707db7a0952096001642b643c644264031407e0ffffff000000007b17308210108217187b17788214208217287b17800001821750d87307821948d39208d89209da8709821740d87c06821a38d3ab08d8ab0ada860ad3c707d48707da790a510ae2007b13e0007b12e8007b1cf000951700019518e0007b1bf8007b1b98007b1c90007b12880064367b14707b10683300ee0033024028a61201821b68821a7082198000d49a07821830d88b08821c7894c894785108b0008212180182131001821408018210000195b820d8b80b64877b1858c8bc087b1868d8c80cdabb0cc8ac0c7b1c60d8ac0bc8b9097b1980007b10a0007b14a8007b13b0009518a0007b12b8005020f000221a01956720d86708821a88005022f200b80f0182189000c88a0ad88a08821b9800c88b0b6473649264ac8210588217687b177882146028f4fe8217088218105022f400c71701955120fe8210d8018215d0018216c8019511e0013200005020f600a1f1951100ff7b10f8007b15f0007b16e800951500015022f800971001d8ba02c8200c7b6340d83a03d34c0bd84c0adab30a7b6050d80c0bda220b828010828c18829318829210c80b0bd80b087b6c48c8c808d33809d93808d82b0cda9c08d32b0bd4b909db980a510a11017b63207b62285022fa009e0b015207060183a78168587b6a103300fc000a04018267108272827308827910827a18826758957c20d87c0b826850c8b807d88708dabb08826b18c8b808d8b80b826448c8b404826b207b6b78826b287b6b70826b387b6b68826b407b6b607b6a98007b6990007b6388007b6280005022fe00300f0133000001951120fe7b10d8017b15d0017b16c8019515e0018411f082ab187b1b6082ab107b1b6882ab087b1b5082aa7b1a40828a187b1a9800828a107b1a9000828a087b1a880082887b18588296829808829a108299187b17087b19707b1998017b1a787b1a90017b1880007b1888019517a001951880017b1680013300e80028c7f6502202019a0d0132005020040124f0009511a0fd951a00027ba0587ba5507ba648951560028411e06416829b08828408829c828ad34b02d84b00d8ac03da23007b6b9800c94b0bc93b027b6c90007b6ab800c9ac0b88bb800085bb01829a108283108e2cdb2c0b6432829c18828318c92a08c90809d808087b6a8800d82a0a7b6c8000c93c0cc9ac0cc98c0c8fc88e9adbc80ad4c909db9a0b510b9c037b67689517e0847ae064a18269b800d429077b64b0007b63a000d43408d487079877207b62a800d42808978820d4870752076e03839883a77b68787b6a700a0401826770827218827810827908d4280a889b0194ab510b4303827a826bb800c8ab0bd8ab0a826cb000c89c0cc8ac0cd39c07d89c09da7a098267a800c88707d88708826aa000c8a202c82808c87909d87907c8780a82679000956800017b87e000826798007b87e8007b6b0002826788007b87f000826780007b87f800956b00027bbc087bb91095672002956800029569e0017bba1850200601d5f39517e0847ae064a18267a8008268a000d478081407e0ffffff000000008269b800d879078269b00094977b6870948751079302956800028287387b67508287307b67408287287b67588287207b674882677883782083a77b6a600a0401826760827218827810827908d4280a889b0194ab510b4b02827a826bb800c8ab0bd8ab0a826cb000c89c0cc8ac0cd39c07d89c09da7a098267a800c88707d88708826aa000c8a202c82808c87909d87907c8780a826790007b678001826798007b6788017b6ba001826788007b679001826780007b6798017b6ca8017b69b0019567c0019568a001956980017b6ab80150200801a3f8956c000182c7d8007b673882c7d0007b672882c7c8007b676082c7c0007b67308267b800957a40d87a078269b00050220a010c14018267a800c87909d87907826ba000c8b7077bc7587bc9507bc84895676001956840017bca4033000c0133024028960d019517e08479e064911407a0ffffff000000008268b800d878078268b0009487826870948751074601956800018287787b67208287707b67108287687b67708287607b671882677883786083977b69780a0401826778827218827810827908d4280a889b0194ab510bfe00827a826bb800c8ab0bd8ab0a826cb000c89c0cc8ac0cd39c07d89c09da7a098267a800c88707c87909d8790ad887078268a000c88202c82707c87a0a826790007b67c000826798007b67c8007b6be000826788007b67d000826780007b67d8007b6ce8007b69f000956700019568e0009569c0007b6af80050200e01dffa956b000182b71082b81882b982ba08826b687bb7707bb8787bb9607bba688267107bb7508267207bb7588267187bb7408267707bb7488267287bb7308267387bb7388267307bb7208267607bb7288267407bb7108267507bb7188267487bb78267587bb7089551a0fd9517000282705882755082764895116002320050201001f8eb00821710017b1728821718017b1720821720017b1718821728017b1710821730017b17088210380182144001821348018212500182165801821c6001821b6801821a70018219780182188001821788017b17687b18607b19587b1a507b1b88007b1c80007b16787b12707b13a8007b14a0007b1098008217087b1790008217107b17c8008217187b17c0008217207b17b8009517b00095189000951970951a50821b287b1bb00033001401951110fe7b10e8017b15e0017b16d8019515f001951100f8951110f88411e06416827b187b6b40827b107b6b48827b087b6b5082777b67588297187b67208297107b67288297087b673082977b673882a77b67380182a7087b67300182a7107b67280182a7187b67200182897b69d8008287087b67d000828a107b6ac8008288187b68c000956bb8107bb8e0007bbad8007bb7d0009567a011956880117bb9c80033002e0733021a0328d40a0195173050201601cee3821848821940821a38821730502218017105015108040050201a0124150183783307330933001c010a0c01951160fe7b1098017b1590017b1688019515a0018411f0828310828208829a08828c829b7b1b30829410d32a067b1648d82a06d8cb00821b48dab006828b188298187b1828c93409c969087b1838d869087b1350d8340664b4821928c9b909c96909c98909c92a08c908087b1c58821a30c9ca0a8e8b88aa6085aa01db8b0a8f98821c388ecbdb980bd49c08db8b0a510a4d0164768217587b1740017b12407b1248018217507b17500195176001951840017b14487b14580133001e0133024028dc0901821768017b1738821760017b1730821778017b1728821770017b1720821858958720d88708821a40502220012b0f01821b48c88b0b7b1af0007b19e8007b17e000951700019518e0007b1bf8003300220133024028840901821708017b1718821700017b1710821718017b1708821710017b17821758957a40d87a07821940502224019c0f01821750c87909d87907821b48c8b7077b1798007b1990007b1888009517a000951880007b1a800033002601330240282409018217b0008218b8008219a000821aa8007b67507b68587b69407b6a4882177b67308217087b67388217107b67208217187b67288217207b67108217287b67188217307b678217387b6708955160fe8210980182159001821688019511a0013200502028018ae89511b0fe7b1048017b1540017b163801951550018411f03807b002024921a8004921a000492198007b1790004921c8004921c0004921b000049517d0009518b000951990004921b80050202a01d5fd8217d0007b17088213d8008214e0008210e8008212f000821cf800821b0001821a0801821810018216180182192001821728017b17487b19407b16387b18307b1a687b1b607b1c587b12507b1088007b1480007b1378951770951850951930821a087b1a7033002c01951108f8951a00077ba0f0007ba5e8007ba6e0009515f8079511b8f98411e0829a7b1ab000829a107b1aa800829a087b1a78018299187b19a00082897b19f0008289087b19e8008289107b19e0008288187b18d800827a8279088278108277189516ff079566f1004926e8044926e0044926d8044926d0047b17587b67c8047b18507b68c0047b19407b69b8049517ff079577e1059518ff079588c1059519ff079599a1057b1a487b6ab0043300860828e30e95171050202e014de0821828821920821a1882171050223001f001015108040050203201a31101837833073309330034010a0c01951120ff7b10d8007b15d0009515e00050223601f00801330038010a0f33023a01285b0a0150223a01570a0152073150223c0102020150203e0152e0502240019d07015020420137b100641750204401d0df50224601e4000151080a005020480188e650204a012c110183783307330933004c010a0c01827218828318827b10827c088289088274828a828810d3c907d8c909d84a0adb790ac9b807d8a707d8b808c92309c98909c97909570905320050204e0135e69511887b10707b15687b16607b174082977b17508297087b17588297107b174882921882861882891082858288088e6a8e9bdb6a0b8e8a885c000185cc01db8a0cd46909db9b0c7b1c388359807b1564267b1218642850205001de10017b17307b182083597b192882175082185850205201c610017b17107b18088d5980008217486468502054018a100133025601821508d485058219889a80007b1a08821820daa805821858da9805821610d47606821730daa706821750da970682174882181882192833005801286b10015020580167100133025a01821908939893978219389496949594979498821940017b98187b97107b95087b968210708215688216609511783200951140ff7b10b8007b15b0007b16a8009515c00050225c01a8050150205e011f0e018217607b17508217687b17588212708218787b1848821c3898c73d976903d4970798663d821a2897a903d4960698a93d821a4097aa03d4a90997cc037b1c408e7a88cb000185bb01db7a0b8e978e6adb970ad46909db9a0b7b1b2883c98064267b1210642750206001a60f017b17187b18208217388a79037b1938821750821858502062018a0f017b177b18088218408d8980006467821848502064014c0f015022660175020150206801640f018219939793988219289496821a50949a949894978219307b97107b98187b9a7b960850226a01c7fc00320049112002951740951820641949112850206e01f6fe50227001ebfb00320052083c9511d07b10287b15209515308411f0827a18827810827b0882777b177b1b087b181064187b1a18649750207401020c01502276019401013200009511807b10787b15707b1668951580008411f07b171082878292828b08829308957a207b1a18d87a06c86b0a7b1a08d8ba0cda660c828a10828818829410829918c8ca06d8a60cc88c0c7b1c7b18387b1a307b1b287b17207b19587b14507b13489517409518207b1240330078013302720128b803018218108217087b87088217187b877b861082177b871850227a0106fd00320033007e010a0f3302800128790601502280017506015207930050228201f2ff0050208401affc9517c000330086019511807b10787b15707b16689515800033026c0128f8050150228801c9030150208a0127dc50228c0132fb0050208e0111ff502290017dfc005207405022920107fc00c9c602d8c606d84a0a821c38c99c0cc9ac0cc96c0cc9b707c98707c90306d4c707d42608d47808d42707988820977720d4870751070a005020940195e26407646850209601350d0150229801ff060133009a010a0c01951120ff7b10d8007b15d0009515e00050229c0181040133009e010a0f3302a00128ec05015022a001e805015207315022a20193fd005020a401e3db5022a6012e03015020a80174b20064175020aa0161db5022ac0175fc0051080a005020ae0119e25020b001bd0c018378330733093300b2010a0c019511e0fe7b1018017b1510017b160801951520018411f0828310828208829a08828c829b7b1b20829410d32a067b1638d82a06d8cb00821b38dab006828b188298187b1838c93409c969087b1828d869087b1330d8340664b4821938c9b909c96909c98909c92a08c908087b1c38821a20c9ca0a8e8b88aa4085aa01db8b0a8f98821c288ecbdb980bd49c08db8b0a510a4e64768217387b17c0007b127b12c8008217307b17d0009517e0009518c0007b14087b14d8003300b401330240287701015022b601f1fc003300b801330240286501015022ba0152000132005020bc0122e19511e0fe7b1018017b151001951520018411e04921f8004921f0004921e8004921e0008317e0000a0f018217f0008218f8008219e800821ae000d49808d4a707d48707520709013807b002024911784911704911687b1760492198004921900049218000049517a00095188000951960492188005020be01a9fe8212a0008213a8008218b000821ab800821bc000821cc8008219d0008217d8007b17387b19307b1c287b1b207b1a587b18507b13489517409518207b12403300c0019511a0fc951900037b90587b95507b9648951560038411f082897b19608289087b19588289107b19488288187b1850827a827908827810827718951b0003491b18330c491b10491b08490b7b1718951b00027bb7f8007b18107bb8f0007b197bb9e80095172003951800039519e0027b1a087bbae0003300460a28ad0764175020c20118d95022c4012cfa0051080a005020c601d0df5020c801740a018378330733093300ca010a0c01951120ff7b10d8007b15d0009515e0005022cc01c101013300ce010a0f3302d001282c03015022d0012803015207315022d201d3fa005020d40123d95022d6016e00015020d801b4bc0064175020da01a1d85022dc01b5f90051080a005020de0159df5020e001fd09018378330733093300e2010a0c01808910828a0882884917187b79107b7a087b78320082781082771814090000000001000000d38909d479099888208888019478939851080528739511f87b103308c00202838833070133093300e4010a0c3302e6012820ff005022e6011cff0052096a9511807b10787b15707b1668951580008411e0647683888317400a048218407b188217487b17188219507b1910821a587b1a087b1a387b19307b17289517207b18205020e80170ff8217087b67188217107b67108217187b670882177b675022ea013ef8003200009511e0fe7b1018017b1510017b160801951520018411f0828310828208829a08828c829b7b1b20829410d32a067b1638d82a06d8cb00821b38dab006828b188298187b1838c93409c969087b1828d869087b1330d8340664b4821938c9b909c96909c98909c92a08c908087b1c38821a20c9ca0a8e8b88aa4085aa01db8b0a8f98821c288ecbdb980bd49c08db8b0a510a4f64768217387b17c0007b127b12c8008217307b17d0009517e0009518c0007b14087b14d8003300ec0133024028ecfd005022ee0166f9003300f0013302e60128d9fd005022f201c6fc0032005020f40196dd951120fe7b10d8017b15d0017b16c8019515e0018411e04921b8014921b0014921a8014921a0018317a0010a0f018217b0018218b8018219a801821aa001d49808d4a707d4870752070a013807b002024921380149213001492128017b17200149215801492150014921400104951760019518400195192001492148015020f6019ffe82126001821768018218700182197801821b8001821c880182169001821a98017b1ad8007b16d0007b1cc8007b1bc0007b19f8007b18f0007b17e800951700019518e0009519c0007b12e0005020f80185ca00821700017b1738821708017b1730821710017b1728821718017b17209517a0005020fa01d1d55022fc01dcf4005020fe0167da5022000227f60052074050220202b1f500c9c602d8c606d84a0a821c38c99c0cc9ac0cc96c0cc9b707c98707c90306d4c707d42608d47808d42707988820977720d4870751070a00502004023fdc6407646850200602df060150220802a9000133000a020a0c019511907b10687b15607b16587b173882877b17508287087b17488282108288187b1840829a7b1a20829708829c1882991098a63d977b03d46b0598773d979b03d4b70798993d97cc03d49c0c97a6038e59886b000185bb01db590b8ec98e7adbc90ad4c707db7a0b7b1b308369806425642750200c02b306017b17287b18188217208a79037b192082175082184850200e029706017b17087b188d6980007b1510645782184050201002590601330212028215d48505886980007b19821818da9805821848da68056468821608d47606821728da9706821750da870682171082184082192033001402283c060150201402380601821893879777209877208218309486948594878218384918187b87107b85087b868210688215608216589511703200502018020f04018217607b17508217687b17588212708218787b1848821c3898c73d976903d4970798663d821a2897a903d4960698a93d821a4097aa03d4a90997cc037b1c408e7a88cb000185bb01db7a0b8e978e6adb970ad46909db9a0b7b1b2883c98064267b1210642750201a029605017b17187b18208217388a79037b193882175082185850201c027a05017b177b18088218408d898000646782184850201e023c05015022200265f80050202202540501821893879777209877208218289486821950948994878218304918187b87107b897b860850222402b5f200320049112003951740951820641949112833002802951140ff7b10b8007b15b0007b16a8009515c000330216022884fa0050222a02bff100320052083f9511d07b10287b15209515308411f0827810827a088277978820988b204911187b177b1a0864187b1b10649750202e02d301015022300265f7003200008218108217087b87088217187b877b861082177b8718502234024df3003200330038020a0f33023a0228c0fc0050223a02bcfc005207070150223c0239f60050203e02f6f29517c000330040029511807b10787b15707b16689515800033022602283ffc005022420210fa00502044026ed25022460279f100330048029511807b10787b15707b1668951580008411f07b171082878292828b08829308957a207b1a18d87a06c86b0a7b1a08d8ba0cda660c828a10828818829410829918c8ca06d8a60cc88c0c7b1c7b18387b1a307b1b287b17207b19587b14507b13489517409518207b12403300320233022c02280cf90050224a0250f20052074050224c02daf100c9c602d8c606d84a0a821c38c99c0cc9ac0cc96c0cc9b707c98707c90306d4c707d42608d47808d42707988820977720d4870751070a0050204e0268d8640764685020500208030150225202d2fc00330054020a0c3302560228c0ef0050225602bcef003200951160ff7b1098007b1590007b1688009515a00050225802eefb00829b108299187b67387b69787b6b707b68689568607b6a60330750205a0223000150225c0258fc0050205e021500013908b4020256183f0b2003b4020240019517e08479e07b693064913307c00202837783993308400a09826a3082a71882a81082a90882aa6f776f886f996faa826b387bba187bb9107bb8087bb750226002fcf000320050206402b8ff00491118491110490122330704641849110850206602a0ff003908b4020256183f0b2003b4020240013308c002028388330701330924330068020a0c019511f07b10087b15828910828c08828b82881897923f98ca01d42a02978a3f989901d49a0a97cc3f98b901d49c0c98830184bb019ab888b50184c97fd2a804d2280adbbc09d2380b88982094a8d4b40c94c8ab85187b797b7a087b74107b7b188210088215951110320033006a029511b07b10487b15409515503302620228c9f0009511c0fd951a00027ba0387ba5307ba628951540028411e064167b673082977b6798008297087b6790008297107b6788008297187b678000828718828910828a088288956b00027bb7187bb9107bba087bb89567e0019568000250206c028cff008267f8018268f0018269e801826ae0017b6a387b67287b67b8017b68207b68b0017b69187b69a8019567c0019568a0017b6aa00150206e02e9fe8267d8018269d0018268c801826ac0017b67687b6758017b69587b6950017b68607b6848017b6a507b6a4001826780007b677801826788007b677001826790007b676801956780019568600195694001826a98007b6a6001502070027d10826c38956b000182b8980082b9900082ba880082b7800084cb017b68787b69707b6a487b6740520bb300d4970bd4a808d48b0b98bb20d49808978820d4b8085208290284c800ff8269187b69a8007b68a0008268207b68b0009568a0008269287b69b8005020720296fd00330433033302826758826850d48707826868826960d49808d487078e7797700501826740c80707d80708826948c84909c88909d3490ad8490bdaa80b826870c83808c88b0bd88b0ad83808826c78c82c0cc8c808c8a808826a307ba77ba9087bab107ba8185022740220f60032009517e08477e07b67386471956b000282b982b70882b81082ba187b6a18017b6810017b67080195672001956800017b6900015020760221388268383300330433033302956c000182c73082cb3882c92082ca287b87107b8b187b897b8a0801826750d87007826960d3940ad89409daa709826b58d8b307826a68d3a20cd8a20adac70ad3b307d4c707da790a510a27ff9567e0007b6298007b6390007b6488007b6080005020780270fd0082674082688000c88707d88708826948826b880050227a0245f800826870826a9000c8a808d8a802826c78826a9800c8ac0cc82c0ac88b0bd88b08c8a808d49808d4b709d48909d4b808989920978820d49808520891008269f8008268f000826ae800826be0007b6bc0007b6ac8007b68d0009568c0007b69d80050207c02fbfb00826c3882c782c81882c90882ca10957701887b01c8b909d4970b88bb01c8ab0bd8ab0ac8a8087bc77bc9087bcb107bc81882688000958720d88708826a880050227e025cf10082689000c88a0ad88a0882629800c882026470649464a364c828d3fe009511d0fe7b1028017b1520017b161801951530015022800296f700502082028ecc50228402ebf1005020860276fc50228802c7f700d84302dab20c821848c98a0bd88a0a821630821928c96909c9a909d8cb0ac9a909c9cb0b7b1008c90707c9270750228a0223f70050208c02aad350228e02d3f50032009511a07b10587b15507b164895156050229002d8f10050209202f6fb007c1733084916184916104916087b675022940290eb0032009511a07b10587b15507b164895156050229602a3f10050209802c1fb0080171082188219087b67104916187b687b690850229a0257eb003200951c00027bc8b8007bcbb0007bcaa8007bc9a000492cd800492cd000492cc8009517e0029518c0029519a002492cc00050209e0223fa951b000282bae0007b1ad00082b9e8007b19c00082b8f0007b18c80082b7f8007b17d8007bb7787bb8707bb96895178002951860027bba605020a002acfe951c000282c788007b17b80082c780007b17b00082c798007b17a80082c790007b17a0008218d000958704d88708821ac0005022a202acef008218c800c88a0ad88a08821bd800c88b0b7bc9287bc7207bca3095174002951820027bcb385020a402c0fe951800028287487b1798008287407b1790008287587b1788008287507b1780008217d0009579055022a6029eeb007b17f8017b1af0017b18e801951700029518e0017b19e0015020a8028334951800028287087b177882877b17708287187b17688287107b17608217d0009579065022aa0257eb007b17b8017b1ab0017b18a8019517c0019518a0017b19a0015020ac0262fe8217c8017b17588217c0017b17508217d8017b17488217d0017b17408217d0009579075022ae020feb007b1778017b1a70017b18680195178001951860017b1960015020b002f433821788017b1738821780017b1730821798017b1728821790017b17208217d0009579085022b202c7ea007b1738017b1a30017b18280195174001951820017b1920015020b402ac33821748017b1718821740017b1710821758017b1708821750017b178217d0009579095022b60280ea007b17f8007b1af0007b18e800951700019518e0007b19e0005020b8026533821710018218180182190001821a08017b67d0007b68d8007b69c0007b6ac80082177b67b0008217087b67b8008217107b67a0008217187b67a8008217207b6790008217287b6798008217307b6780008217387b6788008217407b67708217487b67788217507b67608217587b67688217607b67508217687b67588217707b67408217787b6748821780007b6730821788007b6738821790007b6720821798007b67288217a0007b67108217a8007b67188217b0007b678217b8007b67089551e0fc95170003827018827510827608951120033200951170ff7b1088007b1580007b1678951590008411f08286108282188284088283d42408d4630ad48a0a98aa20d46808978820d4a8085208f100827818827a10827c827708d4ac0bd48707d47b0b98bb20d4a707977720d4b7075207cd007b1c207b14387b16407b1248829818829a108296829908d4a6077b18307b1918d49808d487079877207b1a28d4a808978820d4870752079400643764687b13105020ba0281f9007b170882172064685020bc0272f900647882170864695020be0213c4821710c86707d86708821938821b185022c002a7f200821840821c28c8c808c88b0bd88b0ad8c808821c48821630c86c0c5022c20248f40052082e4911684911604911589518504911505020c40289f600955170ff8210880082158000821678951190003200005208479511d07b10287b15209515308411f0827818827a10827b827708d4ba0ad48707d4a7078e774911184911107b17641849110864975020c80235f6005022ca02c7eb003200009511b0fc7b1048037b1540037b163803951550038411f082831082861882820882807b161801d46208d43006d486069866207b132801d43808978820d468087b1708015208c5038257108278187b1800018258089506e0007b16c000d80603c832067b16b8007b122001d82604da33048276107b16e8008276087b16f00082777b17f8008287187b17d80082578286107b16c8008286087b16d00082887b18e0008278187b1888008278107b1890008278087b18980082777b17b00082c7187b176882c7107b177082c7087b177882c77b17800082b7187b174882b7107b175082b7087b175882b77b176082a7187b172882a7107b173082a7087b173882a77b17408297187b17108297107b17188297087b172082977b17a00082172801c874047b1408d8740782181801c887077b17a8009519000349192849192049191895181003491910e000640764065020cc02d8f4008217b800951b00027bb7b8008217c0007bb7b0008217107bb7e8008217187bb7e0008217207bb7d8008217a0007bb7d0008217087bb7c0009517f0029518d0029519b002821aa8007bbac8005020ce029b07951c000282c7f0007b17c00082c7f8007b17b800821700037b17a800821708037b17a000956720d86708821a2001c88a09d8a90ada880a82182801c88a0ad88a08821b1801c8b8087bc888007bca80007bc9787bc7708217287bc7a8008217307bc7a0008217387bc7980095179002951870028219407bc990003300d0023302c6022836ec007b161001956740d86708821620015022d202e4f000821b1801c8b808951b00027bb8487bba407bb9387bb7308217487bb7688217507bb7608217587bb75895175002951830028219607bb9503300d4023302720128deeb0082181001958760d887085022d60290f00082161801c86808951b00027bb8087bba7b19f8017b17f0018217687bb7288217707bb7208217787bb718951710029518f001821980007bb9103300d80233022c022888eb0082181001958780005022da0214e9007b18c8017b1ac0017b19b8017b17b001821788007b17e801821790007b17e001821798007b17d8019517d0019518b0018219b0007b19d0013300dc02330272012835eb00821810019587a0005022de02c1e8007b1888017b1a80017b1978017b1770018217d8007b17a8018217c8007b17a0018217d0007b17980195179001951870018219e0007b1990013300e0023302720128e2ea00821810019587c0005022e2026ee8007b1848017b1a40017b1938017b173001821700017b1768018217e8007b1760018217f0007b17580195175001951830018219f8007b1950013300e40233027201288fea00821708018218a0007b78188218a8007b78108218b8007b78088218c0007b789551b0fc9517000382704882754082763895115003320000951b000382b7d00082b8d80082b9c80082bac000d49808d4a707d48707520774023807b00202951a0003491a78491a70491a687ba760492a9800492a9000492a8000049517a0039518800395196003492a88005020e6024cc3951b000382b9a00082b7a80082b8b00082bab800951b00027bba787bb8707bb76895178002951860027bb9603300e8029511e0fc951900037b90187b95107b96089515200333029c022878ef00951800025022ea029ee500951800035022ec0202eb008287407b17588287487b17508287507b17488287587b1738951740025020ee025bc2821858027b1830821a50027b1a40821948027b192882164002951720017b1710951740017b1708951760017b178217387b1738018217487b1730018217507b1728018217587b1720018217607b1758018217687b1750018217707b1748018217787b174001821780007b177801821788007b177001821790007b176801821798007b1760018217a0007b1798018217a8007b1790018217b0007b1788018217b8007b1780018217c0007b17b8018217c8007b17b0018217d0007b17a8018217d8007b17a0018217e0007b17d8018217e8007b17d0018217f0007b17c8018217f8007b17c001821700017b17f801821708017b17f001821710017b17e801821718017b17e0017b1818027b1a10027b19080295172002951800029519e001951ac001951ba001951c80017b1600025020f002ecf9821930821b28d49b07821a40d4a608d47808988820d4a707977720d48707520761646264a4951c000282c72882c8387b18180182c62082ca30d3b708d8b70cd82600da800cc94a08c9c803d8c808d84a0a821c1801c99c0cc9ac0cc98c0cc9b707c90707c92606d4c707d43609d47909d43707989920977720d4970751070a005020f2026bc7642764685020f4020bf2005022f602d5eb003300f8020a0c01951160ff7b1098007b1590009515a0008411e04911784911704911684911608317600a0f01821770821878821968821a60d49808d4a707d487075207473807b002024911384911304911287b1720491158491150491140049517409518204911485020fa027de05020fc0275b70064175020fe0213c05022000327e10051080a0050200203cbc6502004036ff100837833073309330006030a0c01951180fe7b1078017b1570017b166801951580018411e04921580149215001492148014921400183174001330008030a0f01821750018218580182194801821a4001d49808d4a707d487075207b00050220a0344ec009517e0009518c0009519a0004921c80050200c03e5db8217e0007b17188213e8008214f0008210f80082120001821c0801821b1001821a1801821820018216280182193001821738017b17587b19507b16487b18407b1a787b1b707b1c687b12607b1098007b1490007b13880095178000951860951940821a187b1a800050200e0378bb00951720502010030abf821838821930821a2882172050221203ade00051080a0050201403b6c5502016035af000837833073309330018030a0c33021a0328cfe50050221a03cbe5005209299511c07b10387b15307b16289515408411f06476641750201c0359ec0050221e03b7e3003200009511a07b10587b15507b16489515608411f0828b10828a18828c0882867b1a107b1c08d4ac08d4b60ad48a0a98aa207b1b18d4b808978820d4a8087b1752085b829718829810829a0882997b19207b1a287b18309518207b173864675020200327ed00956720d86708821a0850222203bee200821818c88a0ad88a08821b10c8b808821b7bba107bb9087bb77bb8185022240397dd00320000951180fe7b1078017b1570017b166801951580018411f0829a7b1a30829a087b1a20829a107b1a188299187b1908828a7b1a8289087b19288286108288187b18387b17407b1838017b1630017b19280195174001951820017b1a20013300260333021a03289de400821a40017b1a10821948017b1948821850017b1850821758017b17587b17d8007b18d0007b19c8007b1ac0008217087b17f8008217187b17f0008217207b17e800951700019518e0009519c000821a307b1ae00050202803abfe821300017b1330821408017b1420821a10017b1a08821c18017b1c188217957220d87207821928c87908d89809da7709c86909d86907821b38c8b707821b587b1b78821b507b1b70821b487b1b688216107b16607b1c98007b1a90007b1488007b1380007b17b8007b19b0007b18a8009517a000951880009519607b12a00050202a0315f495671fd86708821a4850222c032ce9008477e0821b08c8ab0bd8ab0a821c58821618c86c0cc8c808c8a808821a20c89a0a821c30c87c0cd87c07c87a0ad39a06d89a09da6709c8b909d8b907c887078218407b8a087b8c7b89107b8718955180fe821078018215700182166801951180013200821808027b1840821900027b19388217f8017b1730821af0017b1a287b1888017b1980017b1778017b1a70018217b8007b17a8018217c0007b17a0018217c8007b1798019517b00195189001951970017b1690015020300359fd330c33064911783302821bb801821ab00182172898793b821430974805d48909977805c8b9097b1a20c8a8087b18c000d8a808c88909d3b90a7b19c800d8b909daa809821a3898a73b821840978805d478038210c8018217c00198483b97aa05d4a808c87808c80303d8780ac83a0a82139000c889097b19b800d88908c8a8087b18b000821a788214207b1b187b1b98007b17087b17a0007b10107b10a80001821728d87c07821930d39608d89609da8709821b38d8ba0064a7821a40d3a208d8a20ada800a7b1778d3b707d48707da790a510aec017b12487b16507b1c588219a000d494078218a800821a9800d4a808d48707987720d49808978820d48707821cc8008210c000821bb8005207e6018217609578207b188000d87807821868c878097b199000d88906da7706c836067b168800d83607821670c87606821220d82003821818d38c0ad88c09daa309821a08c9ab07d8ab0a7b1a707b1bb800821b10821ab000c9ba0b821a70c9ab0bd8970ac9ab0bc9970ac98c09c93909c920077b1750017b1958017b1a6001951850017b1b68017b146864477b1cc8007b10c0005020320334e900821780006479821a8800d4a7077b167082189000d46808d48707987720d4a808978820d487075207230195173001649850203403c2e700821a3001821738018218400182194801821bb0007b1be800821bb8007b1be000821bc8007b1bd800821bc0007b1bd0007b1908017b1800017b17f800951710019518f0009519d0007b1af00050203603c0fb821728017b17b000821720017b17b800821868958420d88408821a9800502238032ede00821818017b18c8008218a000c88a0ad88a08821ba800c88b0b7b1ba800821c5895cc0188c801821650c88606d46c08888801821b10017b1bc000821b78c8b808d8b80b821248c8b2027b1998007b1aa000821780007b1760821790007b176882138800648a28e5fd82178218c0007b788218c8007b78088218b8007b78108218b0007b78189551d0fd9517000282702882752082761895113002320000951170fb7b1088047b1580047b167804951590048411f082821082831882860882887b1358017b166801d436037b186001d42806d436069866207b125001d42308978820d468087b17080152084e068253208238187b18e00082501882146001954820017b184801d8480682176801c867087b184001d87802da660264388286107b16c8008286087b16d00082877b17d8008207187b17b8008257108206107b16a8008206087b16b00082087b18c0008278187b1898008258088276107b1688008276087b16900082777b17a0008287187b177882578286107b16688286087b167082887b1880008278187b18488278107b18508278087b185882777b176082c7187b172882c7107b173082c7087b173882c77b174082b7187b170882b7107b171082b7087b171882b77b172082a7187b17e80082a7107b17f00082a7087b17f80082a77b1700018297187b1718018297107b1720018297087b17280182977b17300182165001c862027b121001d8620782185801c887077b17380195190004491968491960491958951850044919502001644750203a034fe600821740017b17f803821748017b17f00382171801951b00047bb728821720017bb720821728017bb718821730017bb710821710017bb795173004951810049519f003821a38017bba0850203c0315f982195801d46909140700000000010000007b1740011407e0ffffff0000000082186001d878078218680194877b194801949751077d04951900048297308298388296487b163001829b407b1b3801821c6001d8c70264737b172801821a68016487d3a808d8a709647464a7da8209821a5001c9ab08d8ab0a821b5801c9b60bc9ab0bd8980ac9ab0bc99808c974096446c92909c9c30a83c720951c00037bcad0007bc9d8007bc8e0009518d0037bcbe80050203e0348e50082173001951b00037bb78800821738017bb780007bb678821728017bb7708217e8007bb7a8008217f0007bb7a0008217f8007bb798009517b0039518900395197003821a00017bba9000330040039511d0fd951a00027ba0287ba5207ba618951530028411f08296829a087b1ac800829a107b1ac0008299187b19b800828b7b1b608289087b1968828a107b1a90008288187b177b18707b18e8017b1ae0017b19d8019517f0019518d0017b1bd00133002e0333021a0328a1dc00821740019577c082186001d87807821868019487821848019487510722038218b0038216b8038217c8037b174001821bc0037b1b480182126001d8280464837b183801821a6801d3a608d8a60964acda8409821a5001c9ab08d8ab0a821b5801c9b70bc9ab0bd8980ac9ab0bc99808c9c609c94909c9230a832740951c00037bca507bc9587bc860951850037bcb6850204203f7e30082174001951b00037bb708821748017bb77b16f802821738017b17f0028217087bb7288217107bb7208217187bb71895173003951810039519f002821a207bba10502044036bb7951800038287307b1748018287387b1740018287407b1738018287487b1730018218600195876050224603c4de0082165801c86808951b00027bb8c8007bbac0007bb9b8007bb7b0008217287bb7e8008217307bb7e0008217387bb7d8009517d0029518b0028219407bb9d000330048033302c602286ddb00821860019587800050224a036ade00c86808951b00027bb888007bba80007bb9787bb7708217487bb7a8008217507bb7a0008217587bb7980095179002951870028219607bb9900033004c03330272012819db00821860019587a000d88708821a680150224e0374d80082165001c86a0ad86a08821b5801c8b808951b00027bb8487bba407bb9387bb7308217787bb7688217687bb7608217707bb7589517500295183002821980007bb9503300500333022c0228b5da00821860019587c0005022520322d800951b00027bb8087bba7b19f8017b17f001821798007bb728821788007bb720821790007bb718951710029518f0018219a0007bb91033005403330272012865da00821860019587e00050225603d2d7007b18c8017b1ac0017b19b8017b17b0018217b8007b17e8018217a8007b17e0018217b0007b17d8019517d0019518b0018219c0007b19d00133005803330272012812da00821860019587000150225a037fd7007b1888017b1a80017b1978017b1770018217e0007b17a8018217c8007b17a0018217d0007b17980195179001951870018219d8007b19900133005c033302720128bfd90082170801821830017b7818821838017b7810821840017b7808821848017b78955170fb95170004827088008275800082767895119004320000951b000482b7b00082b8b80082b9a80082baa000d49808d4a707d48707520704033807b00202951a0004491a58491a50491a487ba740491a78491a70491a6004951780049518600495194004491a6850205e037eb2951b000482b9800082b7880082b8900082ba9800951b00037bba187bb8107bb70895172003951800037bb933006003951120fc951900037b90d8007b95d0007b96c8009515e0033302be0c28a8de00951800038287207b1778018287287b1770018287307b1768018287387b1760018287407b1758018287487b1750018287507b1748018287587b1740018287607b1738018287687b1730018287707b1728018287787b172001502262037ad4009518000450226403ded9009517e002502066034fb18218f8027b1850821af0027b1a588219e8027b19488216e002951780017b17209517a0017b17189517c0017b17109517e0017b1708951700027b178217607b1798018217687b1790018217707b1788018217787b178001821780007b17b801821788007b17b001821790007b17a801821798007b17a0018217a0007b17d8018217a8007b17d0018217b0007b17c8018217b8007b17c0018217c0007b17f8018217c8007b17f0018217d0007b17e8018217d8007b17e0018217e0007b1718028217e8007b1710028217f0007b1708028217f8007b170002821700017b173802821708017b173002821710017b172802821718017b172002821720017b175802821728017b175002821730017b174802821738017b174002821740017b177802821748017b177002821750017b176802821758017b176002821760017b179802821768017b179002821770017b178802821778017b1780027b18b8027b1ab0027b19a8029517c0029518a00295198002951a6002951b4002951c20027b16a00250206803cff6821950821b48d49b07821a58d4a608d47808988820d4a707977720d48707520765646264a4951c000282c7c80082c8d8007b18780182c6c00082cad000d3b708d8b70cd82600da800cc94a08c9c803d8c808d84a0a821c7801c99c0cc9ac0cc98c0cc9b707c90707c92606d4c707d43609d47909d43707989920977720d4970751070a0050206a0309b66427646850206c03a9e00050226e0373da00330070030a0c019511a0fe7b1058017b1550017b1648019515600150227203d8d700330074030a0f33027603280bd9005022760307d9005207b6005022780384d20050207a0341cf9517c00033007c03951190fd951800027b80687b85607b8658951570028411f07b1708951a0002491a28491a20491a189517300295181002491a10013300de0c287e1850227e0338d6005020800396ae50228203a1cd00502084032cb350228603ecce005207405022880376ce00c9c602d8c606d84a0a821c38c99c0cc9ac0cc96c0cc9b707c98707c90306d4c707d42608d47808d42707988820977720d4870751070a0050208a0304b56407646850208c03a4df0050228e036ed900330090030a0c019511807b10787b15707b16689515800050229203d2d7004911200195174095182064194911285020940397cf502296038ccc00320033009a030a0f33029c0328ecd70050229c03e8d70052077b50229e0366d1005020a00323ce9517c0005020a203a25022a40354d5005020a603b2ad5022a803bdcc005020aa039cd05022ac0308ce005207405022ae0392cd00c9c602d8c606d84a0a821c38c99c0cc9ac0cc96c0cc9b707c98707c90306d4c707d42608d47808d42707988820977720d4870751070a005020b00320b4640764685020b203c0de005022b4038ad8003300b6030a0c019511e0fe7b1018017b1510017b160801951520018411e04921f8004921f0004921e8004921e0008317e0003300b8030a0f018217f0008218f8008219e800821ae000d49808d4a707d487075207c7005022ba0394d9009517c0009518a0004921c8005020bc0331cd951780005020be03ccac821898007b181882169000821988007b1910821a80007b1a084911384911304911284911202a7b18587b16507b19489517609518409519207b1a405020c00382cf5022c203eecc0052075764648217688218787b18821360821a70d3b706d8b70cd80308da680cc94a06c9c602d8c606d84a0a821cc99c0cc9ac0cc96c0cc9b707c98707c90306d4c707d42608d47808d42707988820977720d4870751070a005020c403efb2640764685020c6038fdd005022c80359d7003300ca030a0c3302cc032847ca005022cc0343ca0032005208439511d07b10287b15209515308411f03a080000027b18183a080800023a091000023a0a1800027b18107b190864187b1a5020d003acda005022d2033ed00032000033071e5022d60320cb005020d8030eed5022da039fc9003300dc033302ce03280eca009567205022de0388c8003200828a10828218828c08828bd42c08d4ab09d48909989920d4a808978820d4980852087a951160ff7b1098007b1590007b1688009515a0008411f0647695b7207b1710d8b707c87c087b1808d8c808da7708c8a8087b18d8a807c827075022e003edc9005020e20309da005022e40375c9003300e603951140ff7b10b8007b15b0007b16a8009515c0003302d40328ecc9005022e803c2c80032000051070c5022ec0340ca003200951780005020ee03d9aa5022f00372c8005207545022f203eec8005020f403aad9005022f603f7c7005020f80330ff821748821258821340821a50821810d3870bd8870c6484821918d89308dab80cc96a0bd86a0a821608c962065022fa03f3c7005107040082171864685020fc03e5db005022fe03a4cf00330000040a0c019511807b10787b15707b166895158000502202041cca005207653a072000027b17583a072800023a083000023a093800027b17507b18489518407b194064675020040406d90050220604b2ca0051082f836720491130491128140800000000000000657b183895182049112050200804d9d80050220a0473ca0032000033072150220e044dc900502010043beb50221204ccc700502014046cff95674050221604bbc6003200828a10828218828c08828bd42c08d4ab09d48909989920d4a808978820d4980852087a951160ff7b1098007b1590007b1688009515a0008411f0647695b7207b1710d8b707c87c087b1808d8c808da7708c8a8087b18d8a807c827075022180420c80050201a043cd80050221c04a8c70033001e04951140ff7b10b8007b15b0007b16a8009515c00033020c04281fc80050222004f5c60032000051070c5022240473c800320095178000502026040ca950222804a5c60052075450222a0421c70050202c04ddd70050222e042ac6005020300430ff821748821258821340821a50821810d3870bd8870c6484821918d89308dab80cc96a0bd86a0a821608c962065022320426c6005107040082171864685020340418da0050223604d7cd00330038040a0c01951140ff7b10b8007b15b0007b16a8009515c0008411e0828218828a10828b088286827818827c1082790882777b1898007b1c90007b1988007b17800098673d97b803d4870798a83d972203d4820898bb3d97aa03d4ba0a9766038ea9c898088e79886b0101646c7b161085bb01da7b099aaad89a069a88c96808c99a0a9a77c9b7079ac600017b16208e898eabdb890b886900018599018e7cda790cd4a808db8b0c7b1c288d6980003307ff3308ff50203a0488d9007b17087b18188216108d6900013307ff3308ff50203c0494d9007b17307b1838821808d487077b17088d6980003307ff3308ff50203e0474d900821920889b8000821a08dbba079397ff647c821a38821618d4a606dab8069396ff82183093b893ba821728947a7b1a3894787b18309476947c7b1c28951740951880005020400437d700821740821848821950821a58821b28d2b707d26808821b30d2b909821b38d2ba0a7b1a787b19707b18687b176095178000951860502042047fd7005022440474c60032007b173864868217a8008a79037b1988003307ff3308ff50204804a3d8007b17a8007b18a000d468087b18308216708369807b19183307ff3308ff50204a047fd800646a886c80007b1c68821930dbc90893a8ff648b8219a800821838d49808dac70893a8ff8217a00093c793c97b152094587b1838945b7b1b3094597b19a80094577b17a000821580006457821678646882191850204c0425d8007b17187b181082179800821890008219880050204e040cd8007b17087b1864576468821928502050041fd8008215d48505821968821810da980582189000821a70daa805821608d47606821718da970682179800daa706821780008218788219880050205204bcd700821968939893978219209496949594979498821940821aa000e0a902d2a808821a488219a800e09a0ad29707821b50821c30e0cb0bd25c0c821558821938e09505d29606d46505d4cb0bd4a707d482088219607b98087b977b9b187b95108210c0008215b8008216b0009511c80032009511c0fe7b1038017b1530017b162801951540018411e0828a7b1a38828a087b1a30828a107b1a288288187b182082987b18188298087b18108298107b1808829618827818827910827a0882777b1818017b1910017b1a08017b1700019517c000951800015020540413d500821bc0008217c8008218d0008219d8007b1658821a087b1a50821a107b1a48821a187b1a40821a207b1a78821a287b1a70821a307b1a68821a387b1a607b1998007b1890007b1788009517a00095188000951960951a407b1b800033005604951138ff7b10c0007b15b8007b16b0007b17608287107b17588287187b175082957b15a800829608829b18829910985c3d976703d4c70798663d979c03d46c0298993d97bb03d4b909975c038e7b88c600017b1c70856501db7b058e978e2bdb970b82877b17488287087b1740d4920982a7107b17980082a7187b17900082a77b17800082a7087b1778db9b058dc980007b19283307ff3308ff330046042802d6008217b8008218b0008219a800821aa0007b17f8007b18f0007b19e8007b1ae000951700019518e0005020580466d4009551c0fe8210380182153001821628019511400132009511907b10687b15609515708411f08272827308827b10827718828c828a0882891082881849111849111049110849017b18387b19307b1a287b1c207b17587b1b507b134895174095182064197b124050205a04fefd9551908210688215609511703200951160ff7b1098007b1590007b1688009515a00050225c046cd000827218827310827608827c01821708d87c07821910d39608d89609da8709821b18d8b307821a20d3a208d8a20ada870ad3b307d48707da790a510a554911584911504911484911407b1c607b16687b13709517609518407b12787b12387b1c307b132850205e041eff821c3082123895cc0188c701c87606d46c07887701821828c88707d88708c88202647328805022600401c30032008217d8008218d0008219c800821ac0007b1738017b1830017b1928017b1a200195178000951820015020640488d200821780007b1750821788007b17487b166898673d821970979803d4870798983d821a6097a903d4980898a93d821a7897aa03d4a9099766038e7a886b0001646c7b165885b601db7a068e978e8adb970a821790007b1740d49808821798007b1738db8a068dc980003307ff3308ff50206604e0d3007b17187b18308217688a79033307ff3308ff50206804edd3007b17287b1820821818d487077b17188217588379803307ff3308ff50206a04cbd300821b5888b98000821a18db9a07821c20821a30d4ca0ada980a93b7ff93baff821b28939b939c85a8ff8577ff85c9ff85baff9467ff9468ff946aff9469ff821b38d29b02821940d2a903821948d29808821950d29707821660986b3f821c7897cc01d4cb0b821970989c3f976601d46c0c821668986a3f979901d4a909976601d46707d49808d4c30ad4b2097b1918017b1a10017b1808017b170001951740019518000150206c04b0d1004921f8004921f0004921e8004921e000951720019518e00050206e0491d100955180fe8210780182157001821668019511800132009511c0fd951b00027bb0387bb5307bb628951540028411e0641682a31882a01082ac82a4088e3a8e0bdb3a0b8e427b6c7888ca2085aa01db420ad4300cdbcb0a829b187b6b58829b107b6b508292088299828b187b6b48828b107b6b40828b087b6b3082887b6838827b18827810827c0882777b6b18027b6810027b6c08027b6700027b63707b64687b6060510aee017b69407b62487b6700017b6c08017b68100195672001956800017b6b180150207004820a826738017b67388264300182602801826c200182627895281fd82807826a68c87a09d8a90ada770a826360c8a307977a3b989b05d4ba0a97993b988805d49808c8c8087b6c107b6830d8c808c88009c89a0ad30a097b6a28d80a0ada980ad83708826970c8980898770597893bd49707988805c84707c87a0a7b6a20d87a09d84707826a3864a3c8a808c8780884271fc898087b6818510763826b30826228d42b08888801826a20d88a09826c18c99c09c98a0888ba01c9a20a95bbff4926d8004926d0004926c8007b67c0007b6be0007b6ae8007b68f0009567e0009568c0007b69f8007b64087b6050207204e8f682608264088263380182684095871fd88708826a4850227404ecc300826850c88a0ad88a08826b58c8b80898ab05978c3bd4cb0b98820597aa3b989c05d4ca0a97993b987705d49707826810c88707d88709c8900cc8ca0ad30a0cd80a08dac908c84b0bc8b808d8b809d84b0bc83202c82b0bc8b909826b307b6ba000826b287b6ba800826b207b6bb000826b187b6bb8007b6780007b6a88007b6890009567a000956880007b6998005020760441fb826b7898b73f8269685022780483ca00826a7097aa01d48a0a97b80150227a04a3c7002853027b6828647a8897209427826358826450d4340894875207a4017b6a207b6ac0017b6c187b6cc8018267287b67d0019567e0019568c0017b6b107b6bd8017b62487b694050207c0473088263e0018267e80182684095891fd8890a826b48c8ab08d8b80bdaaa0b826250c82b0b97ba3b988c05d4ca0a97883b989905d49808c838087b6848d83808c88709c8a900d37009d8700cda980c8264f8018269f001d82b08826a58c88a0a98bb0597a83bd4b80898aa05c89808d8980bc84a0ac8ba0ac88c0cd88c0bc8ab0b953301883801c88707d47308888801c89808d89809c84909826a487b6a80017b63a0017b67a8017b6088017b68b0017b6c90017b69b8019567a001956880017b6b980150207e040afa826770956a00017ba7588267607ba7508267687ba7488267787ba7408267107ba7788267287ba7708267187ba76895676001956840018269207ba96033008004951180fe7b1078017b1570017b166801951580018411e08289187b19788289107b19608289087b19708286827818827910827a08827b7b1858017b1950017b1a48017b1b40017b18b8007b19b0007b1aa8009517c0009518a0007b1ba0003300620428030728a5008267789778037b68588d8980003307ff3308ff5020820478ce007b67187b68508267788a79033307ff3308ff5020840485ce0050228604fdc9005020880477ce0050228a04dbc200826830e0a802826838e07804826840e0b803826848e0c80a826968989b3f826860978c01d4cb0b988c3f826870978801d4c808826c7898c73f979901d4790997cc01d4c407d4920950228c0448c4009567000250208e04a6cc00502290041fc40032009511e0fe7b1018017b1510017b160801951520018411e0641682ac0882ab82941895c2ff7b6c7088cc017b6b7888bb01db2c0b829c107b6c58829c0882997b69508289187b69488289107b69408289087b693882887b683082a21882a810827318827010827908827a64377b67187b67f80064077b67207b67f0007b69287b69e8007b62687b6860d42807947b7b6ae000510b7a018ecb826850888920859901dbcb098268588e8b8e4cda4b0cd4480bdab90c520c8a00826b7888b9208268709489947952099f00826730847700ff8268387b68c8007b67c0008267407b67d0008267487b67d8008267187b6798008267207b6790008267287b6788009567a000956880007b6a80005020920449058268a0008269a800826ab000826bb8009517e08477e064717b7b187b7a107b79087b789568c0005020940460cb00826b7898b73f82697050229604bcc600826a6897aa01d48a0a97b80150229804dcc30028970097b8037b68588d8980003307ff3308ff50209a046dcc007b67187b68508267788a79033307ff3308ff50209c047acc0050229e04f2c7005020a0046ccc005022a204d0c000826838e0a802826830e07804826840e0b803826848e0c80a826970989b3f826860978c01d4cb0b988c3f826868978801d4c808826c7898c73f979901d4790997cc01d4c407d492095022a4043dc2009567e0005020a6049bca005022a80485c30032005020aa0441a19511e0fd951900027b90187b95107b9608951520028411e082897b19588289087b19288289107b1960828618827818827910827a0882777b18f8017b19f0017b1ae8017b17e0019517c0019518e0015020ac04b3c9008217d8018218d001821ac8018219c0017b17507b1798017b18487b1890017b1a387b1a88019517a001951880017b19407b1980015020ae0410c9821228821358821c6064678218b8018210b0018219a8018216a001d3780a7b17787b1870d87807d8c008dba708d3290b7b1968d829076434d836097b1b30dbb70964c3d3c007d4a707db78095109a200821be0018218e8018219f0017b1a10821af8017b1208017b17087b1400018217687b1728017b1620017b16188216387b1648018216407b1640017b1a78017b1970017b1868017b1b60017b1310017b1030018217487b1750018217787b1718018217707b173801951760019518400195192001951a00018216507b16580164267b10205020b0048cfc821708821a10821020646282161882145882136001d8640b821868d88208821930da9b08d8030c821978821b70d8b909daac09da780951097e8217e0018218e8018219f001821af8017b1288007b148000821b687b1ba8007b16a000821b387b1bc800821b407b1bc0007b1af8007b19f0007b18e8007b17e0007b1390007b10b0008217487b17d0008217787b1798008217707b17b8009517e0009518c0009519a000951a8000821b507b1bd8005020b204faf65022b4048cc10032009511b07b10487b15409515505022b604afb8005020b804d6c60049111849111049011133070464184911085020ba04bec6003908b4020256183f0b2003b4020240013308c0020283883307013309243300bc040a0c019511a07b10587b15507b16487b17388294188293828b828c08829a10829908d63b07ca3c06c86707d86706d63c05c86505ca9b06c867077b1730d86707d69b06c86707c85707d85706d69c05c86502ca9c05c87500d85007c827077b1740828618828210caac077b1428cab405c87508ca2907ca3605c87505caba07ca3204c847077b1a20d6ba0a7b1a08c88a0ad632087b1818c85808d8470564647b18107b1ac88a0ac85a0ad46c05d42b08d45808c87006d80605821740c87a0ac85a0a51088000d37a00d87a08db08057b16408217088218d878008ec88216287b1a088e6ad2a808d6b60a8eaad4a808821720d67c0a8eaad4a808d40800821818821a10d88a088e9a8e4cd2ca0ad6340c8eccd4ca0ad629098e99d4a909d49808d46709d4420a8e998eaad2a909821a08d49808d40807821640d45707847701520725ca3b078218387b878217307b87087b86107b8a1882105882155082164895116032005020be0449fe9511b07b10487b15409515505022c004ffb9005020c2040afc5022c40497c10032009511a07b10587b15507b16489515605022c604c9bb005020c804e7c5008217108218188219821a087b67107b68187b697b6a085022ca047ab50032009511a07b10587b15507b16489515608411e064168289828a08828b108288187b67187b68387b6b307b6a289568207b692033075020cc049bc4003908b4020256181f0b2003b4020220019517e08479e07b691064913307c00202837783993308200a09826a1082a71882a81082a90882aa6f776f886f996faa826b187bba187bb9107bb8087bb75022ce04eab4003200827218827310827608827c01821708d87c07821910d39608d89609da8709821b18d8b307821a20d3a208d8a20ada870ad3b307d48707da790a510a467b1c407b16487b13509517407b12587b12387b1c307b13285020d204befe821c3082123895cc0188c701c87606d46c07887701821828c88707d88708c882026473288f5022d40460b5003200951120ff7b10d8007b15d0007b16c8009515e0008411f0829a8284829b08828008829210828c10829318828618d30b087b1b30d80b097b1a38d84a0adb890ad36308d86309d8c20bdb890bd3c209d49808db8b0a510af100827918827810827a0882777b1780007b1a88007b1890009517a000951880007b1998007b1c287b16207b12107b13187b140864065020d6045cfe821ba800821aa000821830c8b808821238c8a202d8a209c89804d3b408d8b40cda890cc86b08821308c8a303d8a30ac8a8088210b8008219b000d3b806d8b80bda6a0b821a10c89a0a821618c80606d89a07c86707c8ac0cd8ac0ac87a0a821720c87000821728c89707d89709c80909c87b0bd87b07c897077b13407b12607b18487b14687b1b507b1c707b17589517609518407b1a783300d8049511807b10787b15707b1668951580003302d0042886c0005022da04f3c00032009511e0fe7b1018017b1510017b160801951520018411e08283828b08828c1082881882721895b9ff88b601883a01db960a82761082790882777b12f8007b16f0007b19e8007b17e0007b18d8007b1cd0007b1bc800d4c808948a7b13c000510a97007b1780007b1988007b1690009517a000951880007b1298005020dc04e4fc5022de044abf005020e00457c3008217c0008218c8008219d000821bd8008212e000821ce800821af0008216f8007b1b387b19307b18287b172082177b17588217087b17508217107b17488217187b17407b16787b1a707b1c689517609518409519207b12605020e204ccfd5022e404e3bb0032005020e6049f999511b07b10487b15409515505022e80440b6005020ea04f2fe5022ec04d8bd003200951120ff7b10d8007b15d0007b16c8009515e0008411f0829a8284829b08828008829210828c10829318828618d30b087b1b30d80b097b1a38d84a0adb890ad36308d86309d8c20bdb890bd3c209d49808db8b0a510adb00827918827810827a0882777b1780007b1a88007b1890009517a000951880007b1998007b1c287b16207b12107b13187b140864065020ee04f1fb821ba800821aa000821830c8b808821238c8a202d8a209c89804d3b408d8b40cda890cc86b08821308c8a303d8a30ac8a8088210b8008219b000d3b806d8b80bda6a0b821a10c89a0a821618c80606d89a07c86707c8ac0cd8ac0ac87a0a821720c87000821728c89707d89709c80909c87b0bd87b07c897077b13407b12607b18487b14687b1b507b1c707b17589517609518407b1a785020f004b3ed5022f2049ebe0032009511e0fe7b1018017b1510017b160801951520018411e08283828b08828c1082881882721895b9ff88b601883a01db960a82761082790882777b12f8007b16f0007b19e8007b17e0007b18d8007b1cd0007b1bc800d4c808948a7b13c000510a97007b1780007b1988007b1690009517a000951880007b1298005020f4048ffa5022f604f5bc005020f80402c1008217c0008218c8008219d000821bd8008212e000821ce800821af0008216f8007b1b387b19307b18287b172082177b17588217087b17508217107b17488217187b17407b16787b1a707b1c689517609518409519207b12605020fa04e2fd5022fc048eb90032005020fe044a979511b07b10487b154095155050220005ebb30050200205f2fe5022040583bb003200956701887801821910c89808d48709889901821ac8a909d8a90a821b18c8ba0a7b1868017b1760017b197001951760017b1a78015020080555fd7b1608956802d86807821a10c87a09d8a90ada770a8216c86a0ad86a07821b18c8b7077b1758017b1a50017b194801951740017b18400150200a056dff821708957803d87807821a10c87a09d8a90ada770ac86a0ad86a07821b18c8b7077b1738017b1a30017b192801951720017b18200150200c0532ff82180895870450220e05bbb800951b00027bb8187bba107bb9087bb74921f8014921f0014921e8014921e001951700029518e0015020100586bf008217089579055022120513b1004921f8004921f0004921e8004921e0007b1718017b1a10017b180801951700019518e0007b1900015020140501eb8218089587065022160545b8007b18d8017b1ad0017b19c8017b17c0014921b8014921b0014921a8014921a0019517c0019518a001502018050fbf0082170895790750221a059cb0004921b8004921b0004921a8004921a0007b17d8007b1ad0007b18c8009517c0009518a0007b19c00050201c058aea82170895790850221e0561b0004911784911704911684911607b1798007b1a90007b188800951780009518607b1980005020200554ea821708957909502222052bb0004911384911304911284911207b17587b1a507b18489517409518207b19405020240523ea50222605e6b50032008218e0017b1820821cf8017b1c388219e8017b1928821bf0017b1b30958706d88708c88906d8960ada880ac8ba0ad8ba08c88c0b7b1760017b1668017b1a700195178001951860017b1b780150202a05b7c1821798017b1718821788017b1710821780017b1708821790017b173306c00203836733002c050a0633022e052869b40050222e0565b4009777206f99989920d497079888208219d39808821908d39707d48707821810d3a808821918d49808d4870788770149215801492150017b174001951740014921480133003005951140ff7b10b8007b15b0007b16a8009515c0003302ea0328f4ab00821720957904d87907821a285022320577b900821730c87a0ad87a07821b38c8b7077b1718017b1a10017b18080195172001951800017b19000150203405a9c0821820018217280182193001821a38017b1af8007b19f0007b17e8009517e0007b18e00033003605951140ff7b10b8007b15b0007b16a8009515c000330222042870ab008217487b1798008217507b1790008217587b1788008217407b1780004921b8004921b0004921a8009517c0009518a000951980004921a00050203805e8ba8218c0008217c8008219d000821ad8007b1a787b19707b17689517607b186033003a059511c0fd951800027b80387b85307b8628951540028411e082768278087b1810827a107b1a8277187b17187b1798017b1a90017b188801951780017b1680013300060528a8f550223c056bb50032007b1970828a087b1a68828b107b1b608286187b177b16d8017b1bd0017b1ac8019517e0019518c0017b19c0015020400592f58217f8018218f0018219e801821ae0017b17207b1778017b18187b1870017b19107b1968017b1a087b1a60018217487b1798018217507b1790018217587b1788019517a0019518800195196001821a787b1a800150204205bfcc8217b8017b17588217b0017b17508217a8017b17488217a0017b17407b1638018217607b1730018217687b17280195174001951820018219707b1920015020440531f5821758017b1768821750017b17608214480182104001330c330649117049117801821708d87c07821910d39608d89609da8709821b18821770d8b702821a20821878d3a803d8a80ada320ad3b707d43707da790a510aef007b10e0007b14e8008217607b17f000951700019518e000821a687b1af8007b14387b10307b1c285020460570f4821a0001821708018218100182191801821b587b1b9800821b507b1b9000821b487b1b8800821b407b1b80007b19b8007b18b0007b17a8009517c0009518a000951980007b1aa00050204805568c821c288210308214388217d8007b17588217d0007b17508217c8007b17488217c0007b1740950001880701c87404d44007887701821860c88707d88708821968c889097b196895cc0188c801c88606d46c08888801821970c89808d89809821a78c89a0a7b1a787b17607b187028e1fe82178218407b788218487b78088218507b78108218587b781850224a0537b30032009511d0fe7b1028017b1520017b1618019515300150224c0599b40050204e05918950225005eeae00330052059511e0fd951a00027ba0187ba5107ba6089515200233023e0528f8b40050225405afb400d84302dab20c821848c98a0bd88a0a821630821928c96909c9a909d8cb0ac9a909c9cb0b7b1008c90707c92707502256050bb40050205805929050225a05bbb20032007b18587b1b507b1a487b19404911784911704911689517800095186095194049116050205e0587b7821780008218980082198800821a9000957b025022600559b3007b1b7b1c087b191095172064187b1a18502062051bff821730821838821920821a287b67107b68187b697b6a085022640504a80032005208489511d07b10287b15209515308411f03a084000023a094800023a0a5000027b18187b19107b1a081409000000006465726964187b195020680551b70050226a05e3ac0032000033071c50226e05c5a70050207005b3c95022720544a600330074053302660528b3a600956720502276052da5003200828a10828218828c08828bd42c08d4ab09d48909989920d4a808978820d4980852087a951160ff7b1098007b1590007b1688009515a0008411f0647695b7207b1710d8b707c87c087b1808d8c808da7708c8a8087b18d8a807c827075022780592a60050207a05aeb60050227c051aa60033007e05951140ff7b10b8007b15b0007b16a8009515c00033026c052891a6005022800567a50032000051070c50228405e5a600320095178000502086057e875022880517a50052075450228a0593a50050208c054fb60050228e059ca4005020900530ff821748821258821340821a50821810d3870bd8870c6484821918d89308dab80cc96a0bd86a0a821608c962065022920598a400510704008217186468502094058ab8005022960549ac00330098050a0c33029a052842a50050229a053ea50032005208439511d07b10287b15209515308411f03a085800023a096000027b18187b1910140800000000000073657b18086418490150209e05a7b5005022a00539ab003200003307125022a4051ba6005020a60509c85022a8059aa4003300aa0533029c052809a5009567205022ac0583a3003200828a10828218828c08828bd42c08d4ab09d48909989920d4a808978820d4980852087a951160ff7b1098007b1590007b1688009515a0008411f0647695b7207b1710d8b707c87c087b1808d8c808da7708c8a8087b18d8a807c827075022ae05e8a4005020b00504b5005022b20570a4003300b405951140ff7b10b8007b15b0007b16a8009515c0003302a20528e7a4005022b605bda30032000051070c5022ba053ba5003200951780005020bc05d4855022be056da3005207545022c005e9a3005020c205a5b4005022c405f2a2005020c60530ff821748821258821340821a50821810d3870bd8870c6484821918d89308dab80cc96a0bd86a0a821608c962065022c805eea2005107040082171864685020ca05e0b6005022cc059faa003300ce050a0c019511807b10787b15707b1668951580005022d00517a50052076f3a076800027b17583a077000023a087800023a098000027b17507b18489518407b194064675020d20501b4005022d405ada5005108398367203a088800023a099000027b18387b1930140800000000000000797b18289518204911205020d605cab3005022d80564a5003200003307315022dc053ea4005020de052cc65022e005bda2005020e20562ff9567405022e405aca1003200828a10828218828c08828bd42c08d4ab09d48909989920d4a808978820d4980852087a951160ff7b1098007b1590007b1688009515a0008411f0647695b7207b1710d8b707c87c087b1808d8c808da7708c8a8087b18d8a807c827075022e60511a3005020e8052db3005022ea0599a2003300ec05951140ff7b10b8007b15b0007b16a8009515c0003302da052810a3005022ee05e6a10032000051070c5022f20564a3003200951780005020f405fd835022f60596a1005207545022f80512a2005020fa05ceb2005022fc051ba1005020fe0530ff821748821258821340821a50821810d3870bd8870c6484821918d89308dab80cc96a0bd86a0a821608c962065022000617a1005107040082171864685020020609b50050220406c8a800330006060a0c3302080628c1a10050220806bda10032005207743a079800027b17583a07a000023a08a800023a09b000027b17507b18489518407b1940646750200c0631b20050220e06dda30051083e8367203a08b800023a09c000023a0ac800027b18387b19307b1a28140900000029253031209518207b192050201006f5b100502212068fa30032000033073d5022160669a2005020180657c450221a06e8a00033001c069511807b10787b15707b16689515800033020a06289ca20095674050221e06c19f003200828a10828218828c08828bd42c08d4ab09d48909989920d4a808978820d4980852087a951160ff7b1098007b1590007b1688009515a0008411f0647695b7207b1710d8b707c87c087b1808d8c808da7708c8a8087b18d8a807c827075022200626a1005020220642b10050222406aea00033002606951140ff7b10b8007b15b0007b16a8009515c000330214062825a10050222806fb9f0032000051070c50222c0679a10032009517800050202e06128250223006ab9f005207545022320627a00050203406e3b00050223606309f005020380630ff821748821258821340821a50821810d3870bd8870c6484821918d89308dab80cc96a0bd86a0a821608c9620650223a062c9f0051070400821718646850203c061eb30050223e06dda600330040060a0c3302420628d69f0050224206d29f003200951160ff7b1098007b1590007b1688009515a0008411e082897b19188289087b1910808610502244068cad005020460635b100801734977720821838d467078219107b19488219187b19407b18587b1750951760951840502048068db10050224a064ba10032009511b07b10487b154095155050224c06cda10050204e06f4af00491118491110490132330704641849110850205006dcaf003908b4020256183f0b2003b4020240013308c002028388330701330924330052060a0c01951160ff7b1098007b1590007b1688009515a0008411f0829a7b1a30829a087b1a28829a107b1a38829618828b828a088289108288187b17207b18107b18587b19187b19507b1a087b1a489517609518407b1b7b1b403300540633021a03286aa7006462821b28821330821778821460821970821a68d37606d87208821738d8970cdb680cd3ba00d8ab0ad84308db0a08d37909d46909db9c0851088800647a98773b972805d4780298b83b97a605d4680898393b97ba05d4a909973a058217c87a0ad87a0b821c08c8c909c8b909d3c907d8c906da7b06821c18c8c808c88606d8860bd8c808821c10c82c07c88707c8b70795a820d8a80ac8a90bd89b09daaa09c86909d8690ac8a707821a207ba87bab087ba9107ba71850225606d39f0032005020580688fe9511e87b10107b15087b16828b188294188282828c08829a088295828610829810c8ca09c82503d85305c85909d3a900d8a90ada050ac86805c85a0ad85a00c8b404d88508c84808c88000d86a05d3b008d8b00bda850bd3a606d46808d3c906d8c90cd82305db6c05db8b0552051b7b737b79087b7a107b70188210108215088216951118320050205a0619e750225c06579d0032005207603a07d000027b17583a07d800023a08e000023a09e800027b17507b18489518407b1940646750206006cbad0050226206779f0051082a8367203a08f000024911304911287b183895182049112050206406a3ad00502266063d9f0032000033072850226a06179e0050206c0605c050226e06969c00330070069511807b10787b15707b16689515800033025e06284a9e00956740502272066f9b003200828a10828218828c08828bd42c08d4ab09d48909989920d4a808978820d4980852087a951160ff7b1098007b1590007b1688009515a0008411f0647695b7207b1710d8b707c87c087b1808d8c808da7708c8a8087b18d8a807c8270750227406d49c0050207606f0ac00502278065c9c0033007a06951140ff7b10b8007b15b0007b16a8009515c0003302680628d39c0050227c06a99b0032000051070c50228006279d0032009517800050208206c07dff50228406589b0052075450228606d49b005020880690ac0050228a06dd9a0050208c062fff821748821258821340821a50821810d3870bd8870c6484821918d89308dab80cc96a0bd86a0a821608c9620650228e06d99a0051070400821718646850209006cbae00502292068aa200330094060a0c019511e87b10107b15087b16828910828a18828b088285d4ba0ad49508d4a808988820d4a909979920d4890952094b6478827918827a108277828808d4a70bd49808d48b0b98bb20d4a808978820d4b8085208263906b002026458502096065cae0083778358646982101082150882169511180a033200009511e0fe7b1018017b1510017b160801951520018411f082897b1910828a087b1a08828b107b1b8286187b17207b16d8007b1bd0007b1ac8009517e0009518c0007b19c00050209806648f008217f8007b17188217f0007b17308217e8007b17288217e0007b17387b16980082177b1790008217087b1788009517a000951880008219107b19800050209a06a4898212b8008214b000821aa000821ca800821738957320d8730695a0e0d8a009c89c0a95aaffd3ca07d8ca0cda790c821828c86807d88708da6608884601c96206821930c8890b9548ffc88c0cd88c08c88602d89b08821618c868087b10407b17687b13607b1b707b1a487b18787b1c509517609518407b125850209c0682fe8217207b76188218307b78108218287b78088218387b7850229e06f7a40032005020a20687aa0049111849111049011233070464184911085020a4066faa003908b4020256183f0b2003b4020240013308c0020283883307013309243300a6060a0c01951140ff7b10b8007b15b0007b16a800829510829b18829c088296d4bc09d4560ad4a9097b171051091e048284188282108287828008889a01d42708d44009d49808888801d4a8087b18a000685895884068badab80a7b1648686895884068c97b1c50dac809959880007b1b587b1540d45b0bdab80ad8980994b96828958840684bda480b6878958840680cda080c95c88000d44206da680bd8c80c946cd3c908d8c906d8ba05da85068868019583ffc9c90c64499a64c95c05c9ba088e4a8e3bda3a0b7b189800888a000185aa018e5cdb5c0adb6b0a8218a000d4a808649694867b123894827b1060640b948b647c948c5208320364707b1930821798008578ff00d44809d43508d49808821710510819038217980095780164797b18a000888701c857077b1778d48707887701c847077b1768d84707c837077b17709a96ff009a6980007b162064077b10288218605020a806d9ab007b1790007b188800821738821530645864695020aa069aab007b17800082178800d487077b178800821898009a897f82162864678218605020ac0675ab00821920889b8000821a8800dbba08821a60da95087b18880082189000821c8000d4c808dab70864b5821738da97087b189000646764a664a85020ae0636ab00821970821c78d49c0c821ba000821968d49b0bd4cb0b93587b18800093577b179800510be5018215a0009559808217388218305020b00622ab007b17207b1808821728646864595020b2060eab007b177b18189a5980008217388218305020b406d2aa00821918d49808885980007b1918821a08da9a08db58067b16608218d48707821820da9807821628db570682173882183064595020b606bfaa006462821360330482191893989397821a4888a901821b50c99b097b1930d4ba09889901821640c9960b7b1b28d89609821b58c99b0b7b1b2095aaff7b1a1801491138982b3f973a01d4ba0a972b018210880098093fd49b02821b30d3ab09d8ab05821618648b644cd82604db950497bb0198793fd4b9097b196098393f977701d49703970701821b900098b93fd4970797b90182168000986b3fd4b909976b018216980098603fd40b0b976501d45c0c7b1c980086bb7b1b800086997b19900086777b178800821928c93907d84707d83909821b20821860c98b0bc99b0bc97b0b99bb3f821748d27b04821c50d2bc0cd3ca07d8ca05d84200da7005821940d2b909c99306c95607d85605d89309821658d2b606c96808c99808c95808c9ca0ac90a03c942028215a000821678d46509889901821c68d89c0ac99c09885c01c9c606821c70c9ac0c9555ff7b16787b1c70d4c60a7b15a000d4950cd4ca0a84b4017b1968520adbfe2808330449113801821a900098a73f82188800978801d487078216800098683f97aa01d4a808821c980098ca3f97660197cc01d4c40c821938d49a0ad46a0bd48902d479068217102806821710017b7c7b7b087b72107b76188210b8008215b0008216a8009511c00032003300b8069511b07b10487b15409515503302a00628bd9700827910827a18827b088277d4ba0ad4970bd4ab0b98bb20d4a909979920d4b90952093a9511d07b10287b15209515308411f0828918828a10828b0882887b187b1b087b1a1064187b19185020ba069da5005022bc062f9b003200008289828218828a08828c10959b0188b901c8a909d49b0a88aa01c8ca0ad8ca0cc82c0cd4c902d4ab08d428085108107b7b7b79087b7a107b7c1832009511f87b105020be0662de829818829a10829b0882997b78187b7a107b7b087b793200951160ff7b1098007b1590007b1688009515a0008411e082897b19188289087b19108289107b19088286185022c00645a2005020c206eea5007b16588217087b17508217107b17488217187b17409517609518405020c4064fa6005022c6060d96003200951110ff7b10e8007b15e0007b16d8009515f0008411f0828218828c10828b828608d42c0888ba20946a948a520a8c018298187b18488298107b18408298087b183082987b1828827918827810827a0882777b1790007b1a98007b18a0009517b000951890007b19a8007b12387b1c187b16107b1b085020c80685df82192895971fd897086496821930c8890ad89a03649cda8803821b40c83b087b182097883b98a905d4890997aa3b987705d4a702886a2094ca821748d4b707947a8213b00094a9821cb80094a2c832027b1230d83208c88c0bc89b0b7b1b28d3cb09d8cb00da980082170895791fd87906821810c86807d88708da6608821418c8840297263b987b05d46b0b97773b989905d49707c87306d83609c89c07c8b703d3c30bd8c30cdab90c821b20821740d87b09821748c8970798bb0597793bd4b909987705821bc8008218c00094a994a7c8b707c88909d8890ac8a707c89000d8900ac87a0ad84207821938c8790998220597973bd47207989905c8b909c88707d88708c89808c87c0cd87c07c887077b16508218307b18707b13588218287b18787b1c607b1080007b17689517709518507b1a88005020ca06a8d0955110ff8210e8008215e0008216d8009511f0003200951180fd951900027b90787b95707b9668951580028411e064168283828908828b10828c18827818827210827a0882777b6858027b6250027b6a48027b6740027b6c487b6c18027b6b507b6b10027b69407b69080295672002956800027b63387b6300023300cc0633021a0328a69a00956a000282a73882a83082a9287b67107b6818d478087b69208897017b689800948751079b05826720027b67289567e001956840025020ce0649a3008269e0018267e8018268f001826af8015022d0069a9a005020d206c3a28262c0018263c8018264d001826ad801956c000282c95882c85082c74882cb40826c107b6c5801826c187b6c5001826c207b6c4801826c287b6c4001956c00017bca787b6470017b6368017b6260017b69707bc998007b68787bc890007b6780007bc788009567800195686001956940017b6b90007bcb80005020d406f0fc826b288262208e2788b820858801db2708826c188ec7826a108ea9daa70982679800da78095109d10184bbe07b6b309517e08477e07b67880064718267707b67f8008267787b67f000826780007b67e800956700019568e000826990007b69e0005020d60684dc3300492698003303330b33043302330c956800018287107b6790008287187b6780008289828a0882678800826890007b7810826880007b78187b797b7a08330920017b6990008267307b6b8000d87b07857b01944b01d4c207947b01826838c89808826a40c80a0a82695082679800c87909826748c83707520b93017b64607b62687b6c707b6378826b9000d8b80bc8ba0ad30a02d80a0cda2b0cc89c0cd89c02826b9800d8b909c89707c82707d4c809d4a707d47909989920d4c707977720d497077b60585207b7039567a0005020d806439f008267a0008269a800826ab000826bb8009518e08488e064817b8b187b8a107b89087b87826788005020da06c6a100826c880082c782c80882c910957701887a01c8a80882ca18d4870b88bb01c89b0bd89b09c8a9097bc77bc8087bcb107bc91882679000957220d87208826758c88709d8790ada880a82679800c87a0ad87a08826378c8830382678000957820d8780b826760c8b704d87407dabb07826b68c8b707d8b70b826c70c8bc0c649064297b6a9800648b647228b6fe64a8d4cb07d48208d487075107e401826738957820d87807826a40c87a09d8a90ada770a826750c87a0ad87a07826b48c8b707d4a80bd49707d47b0b98bb20d4a707977720d4b7075207a602956720015020dc06329e00956800018287387b6790008287307b6788008287287b67788287207b678000826b2828860182649000826328826b30d33b0b826c18d4cb0b826210826c20d42c0cd4cb0b510b2601d8480bc8ba0ad30a02d80a0cda2b0cc89c0cd89c02826b9800d8b909c89707c82707d4c809d4a707d47909989920d4c707977720d49707520718029567c0005020de06a49d008267d8007b6790008267d0007b6780008267c8007b67788267c0007b677082672897773b9878387b6898009a8980003307ff3308ff5020e00663a1007b67687b68503307ff3308ff826998005020e20672a1007b67587b6860826750d487077b6750826798009579803307ff3308ff5020e4064fa100826b980088b98000826a50db9a08826c58826a68d4ca0ada970a93b8ff93baff826b60939b939c826770e0a707826978e0890982688000e0c80a82689000e0b80b9518e08488e064817b8b187b8a107b89087b87826788005020e606809f008263288262100198373f826920979801d4870798983f826a1897a901d4890998a83f972a01d48a0a9738015022e806ed970028e0004926800049167849268800492690000197bb037b6b98008db980003307ff3308ff5020ea066da0007b67587b68708267288a79033307ff3308ff5020ec067aa0007b67687b6860826858d487077b6758826798008379803307ff3308ff5020ee0657a000826b980088b98000826a58db9a07826c60826a70d4ca0ada980a93b7ff93baff939c826b68939b826878e0a80282688000e0780482688800e0b80382689000e0c80a826920989b3f826818978c01d4cb0b988c3f826810978801d4c808826c2898c73f979901d4790997cc01d4c407d492095022f006059600956740025020f206639e00955180fd95170002827078827570827668951180023200005020f406fa74ff9511b07b10487b15409515508411f08272827308827b10827718828c828908828a108288187b18187b1a107b19087b1c7b17387b1b307b132895172064187b12205020f6068bf95022f80604990032008217b8018218b0018219a801821aa0017b17187b1758017b18107b1850017b19087b1948017b1a7b1a40017b1678018217787b1770018217707b17680195176001951840018216687b1660015020fc06c3d98217607b1718018217787b1710018217707b17080195172001951800017b1600015020fe0636d7821338821630821738017b1768821730017b1758821728017b1760821720017b17483300330c491170491178018217d87007821908d39c08d89c09da8709821b10821770d8b702821a18821878d3a804d8a80ada420ad3b707d44707da790a510a08019568207b1830d86807c8730a7b1a28d83a06da7706821740c876067b1620d87607821950c879097b18c0007b1ac8007b16d0009517e0009518c0007b19507b19d8007b10407b1c383300000733021a03286293008217e0008218e8008219f000821af8007b1a98007b1990007b1888007b1780008217687b17b8008217587b17b0008217607b17a8009517a000951880008216487b16a0005020020708f8821c38821040956601886701821860c878087b18607b1648d48607887701821858c88707d88708821968c889097b1968950001880801c88c0cd4c008888801821970c89808d89809821a78c89a0a7b1a788216308213288219207b19407b17587b187028c9fe955120fe8210d8018215d0018216c8019511e0013200951140fe7b10b8017b15b0017b16a8019515c0018411e064168279187b69688279107b69708279087b69800082777b679800828a828b088289108287187b67787b6778017b6990007b6970017b6b88007b6b680195678001956860017b6a607b6a60013300040733021a03282d92009567000182799800827a9000827b8800d49a0788b801947851081f02826780017b67387b672001826798007b6740017b6b407b6b2801826780007b6748017b6a487b6a30018267707b6750017b69507b69380195674001956820018269687b695801502006079dd98267687b67f8008267707b67f000826780007b67e800956700019568e000826998007b69e00050200807b6d4956800018287187b67308287107b67288287087b672082877b67183302330c49269800330382606001826738d87207826940d39c08d89c09da8709826b4882679800d8b704826a50d3a308d8a30ada840ad3b707d48707da790a510a4001950820d80807648a7b686082688800c87809d88908649b7b6968da770882679000c878087b6870d87807826978c879099517e08477e07b675864717b68b0007b6ba8007b6aa0009567c0009568a0007b69787b69b8007b6288007b6c90007b63800033000a0733021a0328cd90008267d0008268d8008269c000826ac800826358643b7bb7107bb8187bb97bba0882681882678800c8870282678800d87207826920826a9000c8a909c87909826a9000d39a0a826b9000d8b90bdaa70b82672882689800c88707d8870a826c3082688000c88c0cc8ca0ac87b0bd87b07c87a0a9517e08477e064717b7a187b7b107b79087b72643850200c07a1990082638000826c900082628800952201882701c87c0cd4c20788770182689800c88707d88708c883038260608268687b6888008268707b6890007b6798002892fe50220e07f294003200502010070770ff9511b07b10487b15409515508411f08272827308827b10827718828c828908828a108288187b18187b1a107b19087b1c7b17387b1b307b132895172064187b12205020120712fd502214071194003200951120ff7b10d8007b15d0007b16c8009515e0008411f0829a7b1a28829a087b1a20829a107b1a308299187b19388289828a08828b1082881864767b18187b1898007b1b7b1b90007b1a087b1a88009517a000951880007b19107b198000502016071cd28217b8008212a0008219b000821aa800821838d3870bd87808821730d8970cdbb80c821820d38a03d8a80a821828d82808db3a08d39707d4b707db7c0851088b008217107b17408217087b174882177b17509517609518408219187b195850201807f4d1821768821860821278821a70821b20c87b0b821328c88303d88308c88b0bd37b09d87b07da9807821830c8a808c88707d88709821c38c8c202d8a808c82808c8980833094916304916384916204916287b637b6b087b67107b681850221a07e39400320050201c0751e6951160ff7b1098007b1590007b1688009515a00050221e07e891008099107b67384916787b69707b68689568607b6a6033075020200720960050222207559200502024071296003908b4020256183f0b2003b4020240019517e08479e07b693064913307c00202837783993308400a09826a3082a71882a81082a90882aa6f776f886f996faa826b387bba187bb9107bb8087bb750222607f9860032009511a0fe7b1058017b1550017b164801951560018411f0828c108282188283088286d42308d4c60bd48b0b98bb20d4c808978820d4b8087b17785208720182a7187b175882a7107b176082a7087b176882a77b17708297187b17488297107b17509567407b1728d86707c873087b1808d83808da77088297087b171082977b1718c8c8087b18d8c807c827077b173849213801492130014921280195182001492120014064677b1c307b12407b1320502028070695008217087b17c8008217287b17c0008217487b17f8008217507b17f0008217107b17e8008217187b17e00082177b17d000951700019518e0009519c000821a387b1ad80050202a07d2a7821700017b1750821708017b1748821710017b1738821718017b1728956720d86708821a20c88a09d8a90ada880a821830c88a0ad88a08821b40c8b8087b1898007b1a90007b1988007b1780008217587b17b8008217607b17b0008217687b17a8009517a000951880008219707b19a00033002c0733022c0228768c008217788218287b78188218387b78108218487b78088218507b789551a0fe82105801821550018216480195116001320000956bb81082b7000182b8f80082b2e80082baf0008e798e8cdb790c8ea3882902859901dba309d48707db7c09492bc000492bb8007bb9a80095676011492bb00033003007951140ff7b10b8007b15b0007b16a8009515c0003302820528a083008267c000956ab8107ba780008267c8007ba7788267d0007ba77095674011956820118269d8007ba9683300320733021a03288e8b00956bb81082b7a00082b8980082b9880082ba9000d4870788980694a89478491b60491b587bb84895670011491b5033003407951140ff7b10b8007b15b0007b16a8009515c0003302b805281d83008267c000956ab8107ba7208267c8007ba7188267d0007ba7109567e0109568c0108269d8007ba9083300360733021a03280c8b009567b8108278287b6818018278387b6810018278307b6808018278407b680001956aff0795aab9008267200195ab00077bb7e000826728017bb7d800826730017bb7d0009567a01095688010826938017bb9c8003300380733021a0328ac8a009567b8108277956bff0795bbb90082b8f00782b9e80782baf80750223a079f8b00492bc007492bb8077bb7a80795676010492bb00733003c07951140ff7b10b8007b15b0007b16a8009515c0003302f005283482008268389587f6d88708826b30c88b099599ffd3b90ad8b90bdaa80b826a2895a8ffc88b0bd88b0888aa01826c20c9ac0ac8a808d4b8088877df03949794879568ff079588b9004928a007492898077b878807956740104928900733003e07951140ff7b10b8007b15b0007b16a8009515c00033022a0628ba81009567ff079577b900492760074927580749275007647a9567201095680010492a48070350204007bb96956aff0795aab90095ab000782b77882b8800082b97082ba68d49808d4a707d487075207693307c002037b6718018377330042070a0601826918018297088198108299502244076b83009569ff079599b90049292007492940074929380749293007330b03959c00077bcb287bc8187bc7109567ff079577e1079568ff079588c1077bca0850204607a6e033074926f8004926f0004926e8004926e00050224807cd8a00956aff0795aab9008267380195ab00067bb7c800826730017bb7d000826728017bb7d8009567ff079577a1079568ff0795888107826920017bb9e00033004a0733021a0328c88800956aff0795aab90095ab000682b7f00082b8e80082b9f80082aa000750224c074581005108f900826718017b67e001826738017b670002826710017b67e801826730017b670802826700017b67f001826728017b671002826708017b67f80195672002956800029569e001826a20017b6a180250204e0789e0956b000282b92082b72882b83082ba38502250077f88003300520733021a03282c88008267c0018268c8018269d001826ad8017b6a58017b6950017b6848017b6740018267e0007b6778018267e8007b6770018267f0007b676801956780019568600195694001826af8007b6a6001502054073ce1956a000182a798007b67e00082a790007b67e80082a788007b67f00082a780007b67f80050225607ec8000289ffe9517e08477e07b6700016471491718491710491708490783770a0f8268000182877b6718018287107b6710018287087b6708018287187b6700019568ff079588b90049288006492878064928700649167800e1f5059589000649196800e1f5058267e0007b97a0008267e8007b9798008267f0007b979000648b9567ff07957761079568ff07958841079569ff0795992107826af8007bba88065020580764c8956bff0795bbb90082b7c00682b8b00682b9a80682bab80650225a07018800492b6006492b58067bb748069567ff0795770107492b500633005c07951140ff7b10b8007b15b0007b16a8009515c00033027e0628927e8267c000956aff0795aab90095ab00067bb7208267c8007bb7188267d0007bb7109567ff079577e1069568ff079588c1068269d8007bb90833005e0733021a0328728600956bff0795bbb90095bc000682c92882c73082c83882ca4095bc00057bcae0007bc8d8007bc7d0009567ff079577a1069568ff07958881067bc9c8005020600767e29568ff079588b900828700067b679800958900058297f8007b6790008297f0007b6788008297e8007b67800050226207ba8700956aff0795aab9008267d80095ab00057bb788008267d0007bb790008267c8007bb798009567ff07957761069568ff07958841068269c0007bb9a0003300640733021a0328b58500956aff0795aab90095ab000582b7b00082b8a80082b9b80082bac00050226607327e5108ea01826718017b67e003826738017b670004826710017b67e803826730017b670804826700017b67f003826728017b671004826708017b67f80395672004956800049569e003826a20017b6a18045020680777dd956b000482b92082b72882b83082ba387b6ab8037b68b0037b67a8039567c0039568a0037b69a00333006a0733021a0328098500826ac0038267c8038268d0038269d803492658034926500349264803826b787b6b40037b6978037b6870037b6768039567800395686003956940037b6a600350206c071cc6826a8003826788038268900382699803826be0007b6bf802826be8007b6bf002826bf0007b6be802826bf8007b6be0027b6918037b6810037b67080395672003956800039569e0027b6a000350206e0719e2956800038287207b67b8008287287b67b0008287307b67a8008287387b67a000826708017b679802826700017b679002826710017b678802826718017b678002826798007b67b802826790007b67b002826788007b67a8029567c0029568a00295698002826a80007b6aa002502070073adc956c000282c9c00082c7c80082c8d00082cad800826ba0007bcb58826ba8007bcb50826bb0007bcb48826bb8007bcb407bca787bc8707bc76895676002956840027bc96050207207bae5956a000150227407e87c28affd9567ff079577b900492760054927580549275005647a9567ff07957721069568ff0795880106492a4805015020760759c6956bff0795bbb90095bc000582c96882c77082c87882ca80007bca207bc8187bc7109567ff079577e1059568ff079588c1057bc908502078079ce5956bff0795bbb90095bc000582c72882c83082c93882ca4095bc00047bcae0007bc9d8007bc8d0007bc7c800492b0005492bf804492bf0049567ff079577a1059568ff0795888105492ce8000150207a07a8e59569ff079599b9004929a0044929980449298804019567ff07957761059568ff07958841054929900450207c079cc5956bff0795bbb90095bc000482c7a80082c8b00082c9b80082cac0007bca407bc9387bc8307bc728492b6004492b5804492b50049567ff07957721059568ff07958801059569ff079599e104492b480450207e07f8899568ff079588b900828980047b6978828c78047b6c70828a70047b6a68828b68047b6b608267407b8700048267487b87f8038267507b87f0038267587b87e803958700047b79207b7c187b7a1064899567ff079577c1049568ff079588a1047b9b080450208007ece6826760957701887801826968c89808d48709889901826a70c8a909d8a90a826b78c8ba0a956bff0795bbb900826cc0007bbcc003826cc8007bbcb803826cd0007bbcb003826cd8007bbca80395bc00037bc8d0007bc7c8007bc9d8009567ff07957781049568ff07958861047bcae00033008207951120fe7b10d8017b15d0017b16c8019515e0018411f082797b19688279087b19708279107b19788276187b166082897b1930828a087b1a38828b107b1b408287187b17507b1798017b1b90017b1a88019517a001951880017b1980013300fa0633021a03281f8100956aff0795aab9008267c00095ab00037bb780008267c8007bb7788267d0007bb7709567ff07957741049568ff07958821048269d8007bb9683300840733021a0328da8000956bff0795bbb90095bc000382c9880082c7900082c8980082caa0007bca407bc8387bc7309567ff07957701049568ff079588e1037bc92850208607d3dc9567ff079577b90082724803827350038274580382706003826860958902d8890b826a68c8ba08d8a80cdabb0c826a70c8ac0cd8ac0b826a78c8ab0b7b7000037b74f8027b73f0027b72e8027b6ba000957a00037bab207b6ca8007bac187b68b0007ba810647a9567ff079577c1039568ff079588a1037b69b8007ba908035020880781ed50228a07cd8100956aff0795aab9008267d80095ab00027bb7a8008267d0007bb7b0008267c8007bb7b8009567ff07957781039568ff07958861038269c0007bb9c00033008c0733021a0328c87f956aff0795aab90095ab000282b7d00082b8c80082b9d80082bae00050228e07467851087001956b000182b7187b67600582b7387b67800582b7107b67680582b7307b67880582b77b67700582b7287b67900582b7087b6778059567a005956880059569600582ba207b6a98055020900790d78269a0058267a8058268b005826ab8057b6a38057b6830057b67280595674005956820057b6920053300920733021a0328227f956b000582b75082b85882b94882ba40d49808d4a707d487075107c600956800018287187b67a0048267b8007b67c0048287107b67a8048267b0007b67c80482877b67b0048267a8007b67d0048287087b67b8049567e0049568c0049569a004826aa0007b6ad804502094071cef8262e0048263e8048264f0048269f80495680005828b828c08828a108287188268e0007b6858048268e8007b6850048268f0007b6848048268f8007b684004956800047b87787b8a707b8c687b8b607b8998007b6490047b6388049567800495686004956940047b62800450209607aab1956a0001502298077677282afe826860958703d88708826a6850229a07b77b826870c88a0ad88a08826b78c88b0b956cff0795ccb900826880007bc86802826888007bc870027bc78802826790007bc77802826798007bc780027bc990027bca98029567ff07957741039568ff07958821037bcba00250209c0732eb3307c002037b67b80083777b67b0000a068269b800829708819810829a6f779779206f88988820d498029877206fa8978a20d47a03988820826760957a06d87a0b826768c8b70cd87c09dabb09826770c87909d8790b826778c87b0b9567ff079577b900492740027b7b6002957b00027bb9587bbc507bba487bb8387b73300264799567ff07957701039568ff079588e1027b92280250209e07a9d48267609579075022a007397a826be000956cff0795ccb9007bcb0002826be8007bcbf801826bf0007bcbf001826bf8007bcbe80195cb00027bb7207bba187bb8109567ff079577c1029568ff079588a1027bb9085020a20790df8267609579085022a407df79826b20956cff0795ccb9007bcbc001826b287bcbb801826b307bcbb001826b387bcba80195cb00017bb7e0007bbad8007bb8d0009567ff07957781029568ff07958861027bb9c8005020a60736df8267609579095022a8078579956bff0795bbb900492b8001492b7801492b7001492b680195bc00017bc7a0007bca98007bc890009567ff07957741029568ff07958821027bc988005020aa07e8de8267c000956aff0795aab90095ab00017bb7408267c8007bb7388267d0007bb7309567ff07957701029568ff079588e1018269d8007bb9283300ac0733021a0328e67b956bff0795bbb90095bc000182c94882c75082c85882ca607bca7bb8f8007bb7f0009567ff079577c1019568ff079588a1017bb9e8005020ae07e2d79568ff079588b900958900018297087b6718018297107b67100182971864897b67080182676095780a7b68a800d87807826868c8780a7b6aa000d88a08da7708829720017b670001826770c878087b689800d87807826878c887077b6790008267b0003300b0070a068269b8003302b20728c87a8269b8005022b207c17a95aab900492aa000826b90007babc000826b98007babb800826ba0007babb0007ba998007ba790007ba8880064ab9567ff07957781019568ff07958861019569ff0795994101826aa8007bbaa8005020b40772ec956bff0795bbb90082b9c80082b7d00082b8d80082bae000826c00017bbc60826c08017bbc58826c10017bbc50826c18017bbc487bba80007bb8787bb7709567ff07957721019568ff07958801017bb9685020b607ece75022b807387c956aff0795aab9008267d8007ba7088267d0007ba7108267c8007ba7189567ff079577e1009568ff079588c1008269c0007ba9203300ba0733021a03283c7a956aff0795aab90082a73082a82882a93882aa405022bc07c2725108d401956b000182b7187b67400782b7387b67600782b7107b67480782b7307b67680782b77b67500782b7287b67700782b7087b67580795678007956860079569400782ba207b6a78075020be070cd2826980078267880782689007826a98077b6a18077b6810077b67080795672007956800077b6900073300c00733021a03289e79956b000782b73082b83882b92882ba20d49808d4a707d4870751072a018267b0003300c2070a06018269b80082970881981082995022c40765734926b806826990007b69d806826998007b69d0068269a0007b69c8068269a8007b69c0067b68b0067b67a8069567e0069568c0069569a0067b6aa0065020c607bcea826ae0068267e8068268f0068269f806956c000182cb087b6b380682cb7b6b300682cb107b6b280682cb187b6b20067b6958067b6850067b6748069567600695684006956920067b6a40065020c80739e982626006826368068264700682697806826b8006826c8806826a9006826798068268e0007b68d8058268e8007b68d0058268f0007b68c8058268f8007b68c005956800057b87f8007b8af0007b8ce8007b8be0007b6918067b6410067b630806956700069568e0059569c0057b6200065020ca07c2ab956a00015022cc078e7128d6fd95670010492798f895670010492790f895680010492880f8019567ff079577a1009568ff079588810095690010492988f85020ce07f9ba9567ff079577b90082787b6800018277f87b67f800956700108277a8f87b67f000956700108277a0f87b67e8008267b0003300d0070a068269b8003302d2072840758269b8005022d20739757b6828015022d407d17c7b6718019888207b6810019567ff079577615020d607ad50ff95670010827978f87b69300195670010827870f87b68200195670010827a68f87b6a080195670010827b60f87b6b380182671001956c00077bc7f000826718017bc7e800826728017bc7e0004926f807826740956c00107bc718f8826748956c00107bc710f8826750956c00107bc708f8826758956c00107bc700f8956700107b7938f8956700107b7830f8956700107b7a28f85022d8078c7b956ae007956c00107bcb20f85020da0733e9956b000182b90882b730d4970782ba2082b838d4a808d47808988820d4a707977720d487075207ec0064a095670010827748f895680010828858f87b68280195680010828340f895680010828a50f8d3970bd8970c82623801d82308dab80cc90a0bc9cb04d8cb0b7b6b1801d80a0a826c3001826b2801c9cb0cc9ac0c826a1801c9ac0cc99707c98707c923085022dc074b7952077e8267e800956c00077bc7a0008267f0007bc7a8003a07f800023a090001023a0a0801023a0b1001027bc7d8007bc9d0007bcac8007bcbc0008267f8007bc7b0009569c007956aa007826700017bc7b800826738015020de07d77f3307e011c975019511f8079511f8078210e8018215e0018216d8019511f00132000052083c9511d07b10287b15209515308411f03a081801023a092001023a0a2801027b18187b19107b1a08641849015020e207a27d5022e40735733200003307175022e807186e5020ea0707905022ec07986c3300ee073302e00728086d9567205022f007836b3200828a10828218828c08828bd42c08d4ab09d48909989920d4a808978820d49808520875951160ff7b1098007b1590007b1688009515a0008411f0647695b7207b1710d8b707c87c087b1808d8c808da7708c8a8087b18d8a807c827075022f207e96c5020f407067d5022f607736c3300f807951140ff7b10b8007b15b0007b16a8009515c0003302e60728eb6c5022fa07c26b320000951140ff7b10b8007b15b0007b16a8009515c0005022fc07b26c51070b5022fe07276d32009517800050200008c14dff50220208596b52075050220408d66b50200608937c50220808e16a50200a081fff821748821258821340821a50821810d3870bd8870c6484821918d89308dab80cc96a0bd86a0a821608c9620650220c08de6a51070400821718646850200e08d17e502210089172330012080a0c3302140828c26b50221408bf6b5208379511d07b10287b15209515308411f03a083001023a093801027b18184911087b19106418490150201608fe7b50221808917132000033070f50221c08746c50201e08638e50222008f46a330022083302140828646b95672050222408df693200828a10828218828c08828bd42c08d4ab09d48909989920d4a808978820d49808520875951160ff7b1098007b1590007b1688009515a0008411f0647695b7207b1710d8b707c87c087b1808d8c808da7708c8a8087b18d8a807c8270750222608456b50202808627b50222a08cf6a33002c08951140ff7b10b8007b15b0007b16a8009515c00033021a0828476b50222e081e6a320000951140ff7b10b8007b15b0007b16a8009515c000502230080e6b51070b50223208836b320095178000502034081d4cff50223608b56952075050223808326a50203a08ef7a50223c083d6950203e081fff821748821258821340821a50821810d3870bd8870c6484821918d89308dab80cc96a0bd86a0a821608c96206502240083a69510704008217186468502042082d7d50224408ed70330046080a0c33024808281e6a502248081b6a52083c9511d07b10287b15209515308411f03a084001023a094801023a0a5001027b18187b19107b1a086418490150204a08557a50224c08e86f32000050205008c38c502252085469330054083302480828c469956720502256083f683200828a10828218828c08828bd42c08d4ab09d48909989920d4a808978820d4980852089300951160ff7b1098007b1590007b1688009515a0008411f0647695b7207b1710d8b707c87c087b1808d8c808da7708c8a8087b18d8a807c8270750225808a46950205a08c17950225c082e6933005e08951140ff7b10b8007b15b0007b16a8009515c0008411f0828a828908828b108288187b171849115849115049114833071833024e0828046a50226008606832000051070b50226408df6932009517800050206608794aff50226808116852075050226a088e6850206c084b7950226e089967502070081bff821748821258821340821a50821810d3870bd8870c6484821918d89308dab80cc96a0bd86a0a821608c9620650227208966751070400821718646850207408897b50227608496f330078080a0c33027a0828436850227a08406832009511a0fe7b1058017b1550017b164801951560018411f08286828c087b17609567607b1758d8670264607b1670c82c077b1750d8c70364c47b1c68da220382b77b174882b7087b174082b7107b173882b7187b173082a77b171882a7087b171082a7107b170882a7187b17828a188286108292829708829810829918c8360c7b1c28d86c0b7b1a78c8ab0b7b1b207b1a18017b1610017b1408017b1000017b1938017b1830017b17280195172001951800017b12200133007c083302720128587082187095872050227e087473c88b0b7b19c8007b17c00082177b17f8008217087b17f0008217107b17e8008217187b17e0007b1ad0009517e0009518c0007b1bd8003300800833027201280b70821870958740502282082773c8b8087b1898007b1a90007b1988007b1780008217307b17b8008217387b17b0008217407b17a8009517a000951880008219487b19a0003300840833022c0228bd6f8217608218207b78188218287b78108218507b78088218587b789551a0fe8210580182155001821648019511600132008268f0047b18c000826b08057b1bd000826af8047b1ab800826c00057b1cc800958704d88708c88a09d8a90ada880ac8ca0ad8ca08c88b0b7b6770047b6978047b6a80049517ff07957781059518ff07958861057b6b880450208808e07bff8267a0048268a80482699804826a9004d49808d4a707d4870788770149266804492660047b6750049517ff07957741054926580450208a08ecf98219c0009599018897018218b800c87808d48907887701821bc800c87b0ad8ba07821bd000c8b7077b17387b6728047b1a207b6a20047b18287b6818049517ff07957721059518ff07958801057b19307b69100450208c085ab1826748048262300482634004826a38048218d800d3870bd878078219e000d8390cdbb70c8218e800d38a07d8a80a8218f000d82808db7a08d39307d4b707db7c0849260804492600047b68f0039517ff079577e1044926f80350208e08d7fa4926280549262005492618054926100595170010837700fe0a0f956b000582b72882b81882b91082ba20821ba000d3b707821b7801d3b808d487078218a800d3a808821ab000d3a909d49808d487078877014926e8034926e0037b67d0039517ff079577c1044926d80333009008951140ff7b10b8007b15b0007b16a8009515c00033026208286d658217c000957903d87907649a7b19708218b800c8780bd88b087b1b68da77088217c800c8870c7b1c60d87c078218d000c878087b18788217d8007b6768038217e0007b6760038217e8007b6758038217f0007b6750037b6888037b6c80037b6b78039517ff07957781049518ff07958861049519ff07959941047b6a70035020920874dd826a9003826798038268a0038269a80349260803492600034926f8024926f0027b6928037b6820037b6718039517ff07957721049518ff07958801049519ff079599e1037b6a1003502094086367ff956b000382b73082b83882b94082ba487b6aa8027b69a0027b6898027b6790028217a0007b67c8028217a8007b67c002821778017b67b8029517ff079577c1039518ff079588a1039519ff0795998103821ab0007b6ab0025020960807ca8267e8027b1780008267e0027b1788008267d8027b1790008267d0027b1798008217c000957a02d87a078219b8005022980871728217c800c87909d87907821bd000c8b707821bd8007b6b2802821be0007b6b2002821be8007b6b1802821bf0007b6b10027b6748027b6940027b6838029517ff07957741039518ff07958821039519ff07959901037b6a300250209a0834dc826a50027b1a7001826758027b176801826860027b186001826968027b1958014926c8014926c0014926b8014926b0017b69e8017b68e0017b67d8019517ff079577e1029518ff079588c1029519ff079599a1027b6ad00150209c081366ff826af0018267f8018268000282690802821b80007b6b6801821b88007b6b6001821b90007b6b5801821b98007b6b50017b6988017b6880017b6778019517ff07957781029518ff07958861029519ff07959941027b6a700150209e0872c4956b000182b7900082b8980082b9a00082baa8007bba087bb97b68f8007b67f00049262801492620014926180149261001821758017bb748821760017bb740821768017bb7389517ff07957721029518ff07958801029519ff079599e101821a70017bba305020a0080b9e8217d8007b6788008217e0007b6780008217e8007b67788217f0007b67708217787b67a8008217607b67a0008217687b6798009517ff079577a1019518ff07958881019519ff0795996101821a707b6a90005020a208b4da826ab0008267b8008268c0008269c800330b4916284916204916184916107b69487b68407b67389517ff07957741019518ff07958821019519ff07959901017b6a305020a408a964ff8267507b1770018267587b1768018267607b1760018267687b1758018217c000957908d87907821ab800c87a08d8a80ada770a8217c800c87a0ad87a07821bd000c8b707951b00107bb7d8f8951700107b7ad0f8951700107b78c8f89517ff079577e1009518ff079588c100951a00107ba9c0f85020a6086bac951700108277e0f8951800108288e8f88269826a08951b00107bba78f8951a00107ba970f8951900107b9868f8951800107b8760f895170010492798f895170010492790f895170010492788f89517ff079577a1009518ff07958881009519ff07959961492110011027951b0010492b80f810275020a80872c2951700108277a0f8951800108288a8f8951900108299b0f8951a001082aab8f8951b00107bba18f8951a00107ba910f8951900107b9808f8951800107b8700f882175801951800107b8738f882176001951800107b8730f882176801951800107b8728f89517ff079577419518ff079588219519ff07959901821a7001951b00107bba20f85020aa08dda995170010827058f895170010827250f895170010827348f895170010827440f868076828958940db070968376848958840db370895878000d4020adaa709d8870c94ac8ecb8897f300857a01daca0b88b7019577ff9ab89accc9ac0a9a99f2007b1860018e8c8e76da7c06889c000185cc018ea8dba80cdbb60cd40308d4240bd4b808640b888801d4c808640694867b122801948264309483644c948452081e037b1b18018598ff00821b6001d4b808d47a0bd4b80851080503959b017b1b680188b801c8a8087b184001d4b808888801821a6001c8a8087b183001d8a808c887077b1738019a96ff009a69800064c77b1c200164087b1070015020ac0856727b1760017b185001821728018218180164695020ae0818727b17580182175001d487077b17500195698082172001821870015020b008f871886980007b190801821a5001db9a08821a1801da6a087b18500182186001821a5801d4a808da970882172801da67087b185801821720018218700164695020b208b57182193001821a3801821c4001d4ac0c82166801d49606d46c0c8219080193987b18480193977b176001510cd3018216680195698082172801821818015020b40899717b1708017b18f800821720018218700164695020b60881717b17187b1800019a69800082172801821818015020b808427182190001d49808886980007b190001821af800da9a08821a7001db680a7b1a7001821818d4870782180801da980782182001db67087b182001821728018218180164695020ba081f71330c821900019398939782191001959aff7b1a00018e909500ff7b10f800821220018214f800017b1818017b1c20014921080198293f821c700197ca01d49a0a97220182135001983b3fd4b2087b182801d3a400d8a40b82160001d88602db0b0282181801978801987b3fd4b80098cb3f977701d47b0b9737018218580198863fd4670397860182184801988c3fd46c0c9787018216600198683fd4780897660182172001d476067b16600186887b18480186c87b18580186377b175001c9b407d82707d8b408c9040cc98c0cc97c0c99cc3f82171001d2c70782182801c97802d87808c98a077b17700194a8c98b07d88b08c9800882166801821a4001d4a609889901821b3001d89b03c99b09886b01c9ba0a821b3801c93b0b9566ff7b1a40017b1b3801d4ba0a7b166801d4960bd4ba0a84cc017b193001520aedfe280749210801018219580198973f82185001978801d48707821a480198a83f979901d49808821b600198b93f97aa0197bb01d4bc04821b0801d49b06d4a603d48b02d47b06017b1260017b1368017b1470018217f000951b00077bb780008217707bb7a0008217e8007bb788008217687bb7a8008217e0007bb790008217607bb7b0008217d8007bb798009517c0079518a00795198007821a787bbab8005020bc08d3d4951c000782cac00082c7c80082c8d00082c9d8007bc638821b60017bcb30821b68017bcb28821b70017bcb20491c58491c50491c48491c407bc9787bc8707bc7689517600795184007951920077bca605020be087c978213b0008210a800d40307821478018212a000d42408d487078877017b17700168079577406829da270968379577406848da470895878000d4200adaa709d8870c94ac8ec68897e600857a01daca068867019577ff9a689accc9ac0a9a99e5007b1868018e8c8e7b7b175801da7c0b8eac7b19600188980001858901dbac09db6b09640b821c7001d4c9096420949064b6949664479497643c949c520928036448821960018599ff00821b6801d4b90982145801d44a0bd4b90951090903821c600195cb017b1b700188b901c8a9097b194801d4b909889901821a6801c8a9097b193801d8a909c894077b1740019ac6ff009a69800064375020c008e96d7b1768017b1858018217a8008218a00064695020c208ab6d7b17600182175801d487077b1758019569808217b000821878015020c4088b6d886a80007b1a300182195801dba9088219a000da69087b1858018218680182196001d49808daa7088217a800da67087b1860018217b0008218780164695020c608486d82193801821a4001821c4801d4ac0c82167001d49606d46c0c8219300193987b18500193977b176801510cdd014921100100e1f505821670019569808217a8008218a0005020c808246d7b1730017b1820018217b0008218780164695020ca080c6d7b1718017b1828019a6980008217a8008218a0005020cc08cc6c82192801d49808886980007b192801821a2001da9a08821a7801db680a7b1a780182181801d4870782183001da98078218b000db67087b18b0008217a8008218a00064695020ce08a86c330c8219280193989397821a100195a9ff7b1908018ea09500ff7b1000018212b00082140001017b1820017b1c28014921180198293f821c780197ca01d49a0a97220182135801983b3fd4b2087b183001d3a400d8a40b82160801d88602db0b0282182001978801987b3fd4b80098cb3f977701d47b0b9737018218600198863fd4670397860182185001988c3fd46c0c9787018216680198683fd4780897660182172801d476067b16680186887b18500186c87b18600186377b175801c9b407d82707d8b408c9040cc98c0cc97c0c99cc3f82171001d2c70782183001c97802d87808c98a077b17780194a8c98b07d88b08c9800882167001821a4801d4a609889901821b3801d89b03c99b09886b01c9ba0a821b4001c93b0b9566ff7b1a48017b1b4001d4ba0a7b167001d4960bd4ba0a84cc017b193801520aedfe280749211801018219600198973f82185801978801d47802821a500198a83f979901d49808821b680198b93f97aa0197bb01d4bc0c821b1801d4b909d4a907d48b06d42b00017b1748017b1c50017b1658018217c0009579077b197801d879078218b800c8780a7b1a7001d88a06da77068217c800c876067b166801d876078218d000c8780b7b1b6001951c00067bc9e0007bcae8007bc6f000951700079518e0067bcbf80064065020d008cca2951b000782ba82b70882b81082b918951c00067bc69800821b58017bcb9000821b48017bcb8800821b50017bcb80007bc9b8007bc8b0007bc7a8009517c0069518a006951980067bcaa0005020d208fcb8951b000682b7c00082b8c80082b9d00082bad8007bba587bb9507bb8487bb740821760017bb778821768017bb770821770017bb7689517600695184006821978017bb9605020d4080ec28217c00095780a7b186801d878078218b800c878097b196001d88908da77088217c800c878087b185801d878078218d000c887077b1750013306c0020383677b1770013300d6080a06018267088168107b16780182695022d808f458951b0005492bf80082195001951c00067bc918821958017bc910821960017bc908821968017bc97bb8f0007bb7e80095172006951800069519e0057bbae0005020da0848d0951b000682b92082b72882b83082ba38951b00057bbab8007bb8b0007bb7a8009517c0059518a0057bb9a0005020dc085ea1951b000582b7d00082b8d80082b9c80082bac000d49808d4a707d4870752071e01821730951a00057ba7608217287ba7688217207ba77095178005951860058219387ba9785020de0813a1951b000582b9800082b7880082b8900082ba98007bba387bb8307bb72895174005951820057bb9205020e0083bba951800058286408287487b1748018287507b1740018287587b173801821770013300e2080a063302e408283b5d5022e408385d492bd800821950017bb9f800821958017bb9f000821960017bb9e800821968017bb9e0007bb8d0007bb7c800951700059518e0049519c0047bbac0005020e60828cf951b000582b982b70882b81082ba18821b3801951c00047bcb9800821b40017bcb9000821b48017bcb88007bc680007bcab8007bc8b0007bc7a8009517a004951880047bc9a0005020e808acca821770013300ea080a063302ec0828955c5022ec08925c491b38821950017bb958821958017bb950821960017bb948821968017bb9407bb8307bb7289517600495184004951920047bba205020ee088ace951b000482ba6082b76882b87082b978821bd800951c00037bcbb800821be0007bcbb000821be8007bcba800821bf0007bcba0007bc9d8007bc8d0007bc7c8009517e0039518c0039519a0037bcac0005020f00802cd8212e0038217e8037b1768018218f0037b1860018219f8037b195801821b00047b1b5001821c08047b1c4801821610047b164001821a18047b1a38017b1a5803951a00037ba6507bac487bab407ba9787ba8707ba7689517800395186003951940037ba26064265020f208d256ff951c000382ca800082c7880082c8900082c99800821b80007b1bf802821b88007b1bf002821b90007b1be802821b98007b1be0027bc9187bc8107bc70895172003951800039519e0027bca5020f4083eb5951b000382b72082b82882b93082ba38951b00027bba98007bb990007bb888007bb78000821738017bb7b800821740017bb7b000821748017bb7a800821750017bb7a000821758017bb7d800821760017bb7d000821768017bb7c8009517c0029518a002951980027bb6c0005020f608d08e821770013300f8080a06821978013302fa0828bf58821978015022fa08b8587b1870015022fc0850607b1760019888207b185001951760025020fe082f34ff821878027b18680182167002821968027b195801821c60027b1c7801821750017b17d001821760017b17c801821770017b17c0014921d801821780007b17f801821788007b17f001821790007b17e801821798007b17e0018217d8007b1718028217e0007b1710028217e8007b1708028217f0007b1700027b1838027b1630027b192802951740029518200295190002951ae001951bc0017b1c20025020000997e98210680182195801d4090782187801d46808d478089888207b167001d46707977720d487075207cc00951b000282b74882b8587b18600182b44082ba50d3970bd8970c82127801d82408dab80c82137001c93a0bc9cb06d8cb0bd83a0a821c6001c90c0cc9ac0cc9bc0cc99707c98707c92408d4c707d46809d47909d46707989920977720d497075207698217487b1780018217407b1788013a075801023a096001023a0a6801023a0b7001027b17b8017b19b0017b1aa8017b1ba0018217507b1790019519a001951a80018217587b17980182177801502002097663955100f89511c0f99511480650220409525d32000052083c9511d07b10287b15209515308411f03a087801024911087b1818140800000000726f74617b181064184901502008094e6150220a09e15632000033070c50220e09c45150201009b373ff502212094350330014093302060928b350956720502216092e4f3200828a10828218828c08828bd42c08d4ab09d48909989920d4a808978820d49808520875951160ff7b1098007b1590007b1688009515a0008411f0647695b7207b1710d8b707c87c087b1808d8c808da7708c8a8087b18d8a807c8270750221809945050201a09b16050221c091e5033001e09951140ff7b10b8007b15b0007b16a8009515c00033020c09289650502220096d4f32000051070b50222409ec50320095178000502026098631ff502228091e4f52075050222a099b4f50202c09586050222e09a64e5020300939ff821748821258821340821a50821810d3870bd8870c6484821918d89308dab80cc96a0bd86a0a821608c9620650223209a34e510704008217186468502034099662502236095656330038090a0c33023a0928874f50223a09844f5208419511d07b10287b15209515308411f03a088001023a098801027b18187b1910140800000000006465767b18086418490150203c09b95f50223e094c55320000330713502242092f50502044091e72ff50224609ae4e3300480933023a09281e4f95672050224a09994d3200828a10828218828c08828bd42c08d4ab09d48909989920d4a808978820d49808520875951160ff7b1098007b1590007b1688009515a0008411f0647695b7207b1710d8b707c87c087b1808d8c808da7708c8a8087b18d8a807c8270750224c09ff4e50204e091c5f50225009894e33005209951140ff7b10b8007b15b0007b16a8009515c0003302400928014f50225409d84d320000951140ff7b10b8007b15b0007b16a8009515c00050225609c84e51070b502258093d4f32009517800050205a09d72fff50225c096f4d52075050225e09ec4d50206009a95e50226209f74c502064091fff821748821258821340821a50821810d3870bd8870c6484821918d89308dab80cc96a0bd86a0a821608c9620650226609f44c51070400821718646850206809e76050226a09a75433006c090a0c019511a07b10587b15507b16489515608411e0641695672050206e094a2fff8267387b67108267307b67088267287b678267207b67180a0b018268108269d49808826a08826918d4a909d48909989920d4a808978820d4980852084b647998772052074383977b671082671864987b69085020700964609518f88489e07b6964918268087a988377839833090a0a0182678177826810ac870e0a0b016478987720510704008267187b6810502072092a608378816910330701330074090a0c01951140fe7b10b8017b15b0017b16a8019515c0018411e06416827a827808827910827718492658014926500149264801492640017b6738017b6930017b6828019567600195684001956920017b6a200150207609e25cff826778017b6750826770017b6748826768017b6738826760017b67403307c002037b673083777b6758330078090a060182693082970882988199106f77987a206f88978b20d4ba0a7b6a289777206f99989920d497077b67209888207b6818826840958706d88708826a3850227a096f52826848c88a0ad88a08826b50c88b0b7b69e8007b67e0007b6af000956700019568e0007b6bf80050207c09b761ff826710018268000182691801826a0801826b18d3b707826b20d3b808d48707826828d3a808d49808d487078877014926d8004926d0007b67c0009567c0004926c80033007e09951140ff7b10b8007b15b0007b16a8009515c00033022209282a4c826740957904d87907826a3850228009ae59826748c87a0ad87a07826b50c8b7077b6798007b6a90007b6888009567a000956880007b69800050208209e160ff8268a0008267a8008269b000826ab8007b6a787b69707b67689567607b686050208409ecfc8267580a836880018267580a010195670001827c9800827b9000827a880082798000d4ca07d4b908d487075107538267587b69587b6a507b6b487b6c40330086090a06019517e08478e064818269407b89188269487b89108269507b890882695850228809514e330bc00202d4790a82673050228a0969560a020152070b50228c095e58320050208e09fffc9511807b10787b15707b16689515800050229009194c5207663a079001027b17583a079801023a08a001023a09a801027b17507b18489518407b1940646750209209045b50229409b14c5108328367203a08b001024911287b1838140800000000000073657b183095182049112050209609d45a502298096f4c32000033072a50229c094a4b50209e09396dff5022a009c9495020a2096dff9567405022a409b9483200828a10828218828c08828bd42c08d4ab09d48909989920d4a808978820d49808520875951160ff7b1098007b1590007b1688009515a0008411f0647695b7207b1710d8b707c87c087b1808d8c808da7708c8a8087b18d8a807c827075022a6091f4a5020a8093c5a5022aa09a9493300ac09951140ff7b10b8007b15b0007b16a8009515c00033029a0928214a5022ae09f84832000051070b5022b209774a3200951780005020b409112bff5022b609a9485207505022b80926495020ba09e3595022bc0931485020be0939ff821748821258821340821a50821810d3870bd8870c6484821918d89308dab80cc96a0bd86a0a821608c962065022c0092e485107040082171864685020c209215c5022c409e14f3300c6090a0c3302c8092812495022c8090f495208379511d07b10287b15209515308411f03a08b801023a09c001027b18184911087b1910641849015020ca094e595022cc09e14e3200003307105022d009c4495020d209b36bff5022d40943483300d6093302c80928b3489567205022d8092e473200828a10828218828c08828bd42c08d4ab09d48909989920d4a808978820d49808520875951160ff7b1098007b1590007b1688009515a0008411f0647695b7207b1710d8b707c87c087b1808d8c808da7708c8a8087b18d8a807c827075022da0994485020dc09b1585022de091e483300e009951140ff7b10b8007b15b0007b16a8009515c0003302ce092896485022e2096d47320000951140ff7b10b8007b15b0007b16a8009515c0005022e4095d4851070b5022e609d2483200951780005020e8096c29ff5022ea0904475207505022ec0981475020ee093e585022f0098c465020f2091fff821748821258821340821a50821810d3870bd8870c6484821918d89308dab80cc96a0bd86a0a821608c962065022f40989465107040082171864685020f6097c5a5022f8093c4e3300fa090a0c01951160fd951800027b8098007b8590007b8688009515a0028411e0827a8278088279108277184921f8014921f0014921e8014921e0017b17d8017b19d0017b18c801951700029518e0019519c0017b1ac0015020fc093457ff9517000282787b1848827b187b1b588279087b1930827c107b1c50958704d88708c88906d8960ada880ac8ca0ad8ca08c88b0b7b1780017b1688017b1a90019517a001951880017b1b98015020fe09215cff8218a0018217a8018219b001821ab8017b1a78017b1970017b176801951760017b1860015020000a27f83306c0020383677b17380a067b16403a07c802033a08c002033909d002036f77987a206f86976820d4a8087b18289777206f98988820d487077b17209866207b1618821748957906d87907821630c87608d8680ada770a821750c87a0ad87a07821b58c8b7077b1738017b1a30017b18280195174001951820017b1920015020020aa75bff821750018218400182195801821a4801821b18d3b707821b20d3b808d48707821828d3a808d49808d4870788770149211801492110017b17000195170001492108013300040a951140ff7b10b8007b15b0007b16a8009515c0003302b009281a46821748957809d8780764897b1828c8760a7b1a48d86a06da7706821750c87606d87607821858c887077b17307b17d8007b16d0007b1ac8009517e0009518c0007b19c0005020060ad5908219f0007b19188218f8007b18208217e8007b1750821ae0007b1a58d48707d49a08d487078e774921b8004921b0007b17a0009517a0004921a8005020080a21fd4911784911704911684911608217307b1798007b1690008217487b178800951780009518608219287b19800050200a0a3fb08217380a06821720951800027b87788217187b87708217507b87688217587b8760481840491838491830491828491820821740977720987720951860029788209888203309c00202951a200297aa20d48a0a979920989b2095184002978820d4b80c3308ff3309ff0a020152071d955160fd951700028270980082759000827688009511a002320050200c0a95f650220e0a6a4452083c9511d07b10287b15209515308411f03a08c801023a09d001023a0ad801027b18187b19107b1a08641849015020100aa4545022120a374a3200005020160a1267ff5022180aa24333001a0a33020e0a28124495672050221c0a8d423200828a10828218828c08828bd42c08d4ab09d48909989920d4a808978820d4980852089300951160ff7b1098007b1590007b1688009515a0008411f0647695b7207b1710d8b707c87c087b1808d8c808da7708c8a8087b18d8a807c8270750221e0af2435020200a0f545022220a7c433300240a951140ff7b10b8007b15b0007b16a8009515c0008411f0828a828908828b108288187b17184911584911504911483307183302140a2852445022260aae4232000051070b50222a0a2d4432009517800050202c0ac724ff50222e0a5f425207505022300adc425020320a99535022340ae7415020360a1bff821748821258821340821a50821810d3870bd8870c6484821918d89308dab80cc96a0bd86a0a821608c962065022380ae44151070400821718646850203a0ad75550223c0a974933003e0a0a0c01828a08828b7c99828c1882881084bb00ffd4b9097b7c187b78107b7a087b7932008217821808821918821a10847700ffd467077b19387b1a307b18287b17209517409518205020420a6a545022440a8f443200951800038287387b17408287307b17688287287b17708287207b17783306c0020383673300480a0a0633024a0a28b94a50224a0ab64a7b1a389777206f99989920d497077b17309888207b1828821878958706d88708821a7050224c0a3448821868c88a0ad88a08821640c8860b951c00027bc9a8007bc7a0007bcab0009517c0029518a0027bcbb80050204e0a7857ff951c000282c7d00082c8c00082c9d80082cac800821b28d3b707821b30d3b808d48707821838d3a808d49808d48707887701492c9800492c90007bc7800095178002492c88003300500a951140ff7b10b8007b15b0007b16a8009515c0003302280a28e741821778957804d87807648a7b1838821870c8780b7b1b30d88b08da7708821768c878087b1828d87807c867077b1720951900027b97587b98507b9b4895176002951840027b9a405020520a9056ff951b000282b77082b87882b96882ba60d49808d4a707d48707887701491b38491b307bb72095172002491b285020540aa4d4821978959901889701821870c88707d47908888801821a68c8a808d8a80ac86a0a7b1af8017b18f0017b17e801951700029518e0017b19e0015020560a2d8c951b000282b71882b882b91082ba08821c50d3c70bd87c07821648d8960cdbb70c821758d37a02d8a70a821760d88708db2a08d36907d4b707db7c084921d8014921d0017b18c0019517c0014921c8015020580ab3d549219801492190014921880149218001018217207b17b8018217287b17b0018217307b17a8019517a001951880018219387b19a00133005a0a9511807b10787b15707b1668951580008411e08282108283828b18828808827c18827910827a0882777b1c587b19507b1a487b1740d4b808d42307d487078e7664179518403300400a284c51821778957905d87907821a7050225c0ad14d821768c87a0ad87a07821b40c8b707821b507b1b58017b165001821b587b1b4801821b607b1b40017b1778017b1a70017b18680195176001951840017b19600150205e0ad7aa951720015020600a1221ff82163801821830017b1878821928017b1970821a20017b1a688217507b17d8008217487b17d0008217587b17c8008217607b17c0007b16f8007b18f0007b19e800951700019518e0009519c0007b1ae0005020620ab143ff8219708214687b1660d46907821678d46408d47808988820d46707977720d487075207bf00821708018212180182130001821a1001d3970bd8970cd84308dab80cc96a0bc9cb00d8cb0bd86a0a821c60c9c20cc9ac0cc9bc0cc99707c98707c94308d4c707d4080ad47a0ad4070798aa20977720d4a7075207698217087b17800082177b1788003a07e001023a09e801023a0af001023a0bf801027b17b8007b19b0007b1aa8007b1ba0008217107b1790009519a000951a80008217187b17980064475020640ab7509551a0fc95170003827058827550827648951160033200005208419511d07b10287b15209515308411f03a080002023a090802027b18187b1910140800000000000000737b1808641849015020680a874e50226a0a1a4432000050206e0af560ff5022700a853d3300720a3302660a28f53d9567205022740a703c3200828a10828218828c08828bd42c08d4ab09d48909989920d4a808978820d4980852089300951160ff7b1098007b1590007b1688009515a0008411f0647695b7207b1710d8b707c87c087b1808d8c808da7708c8a8087b18d8a807c827075022760ad53d5020780af24d50227a0a5f3d33007c0a951140ff7b10b8007b15b0007b16a8009515c0008411f0828a828908828b108288187b171849115849115049114833071133026c0a28353e50227e0a913c32000051070b5022820a103e3200951780005020840aaa1eff5022860a423c5207505022880abf3c50208a0a7c4d50228c0aca3b50208e0a1bff821748821258821340821a50821810d3870bd8870c6484821918d89308dab80cc96a0bd86a0a821608c962065022900ac73b5107040082171864685020920aba4f5022940a7a433300960a0a0c3302980a28ab3c5022980aa83c5208469511d07b10287b15209515308411f03a081002023a091802023a0a2002027b18187b19107b1a0814090000000000656c6264187b1950209a0ad84c50229c0a6b4232000033071b5022a00a4e3d5020a20a3d5fff5022a40acd3b3300a60a3302980a283d3c9567205022a80ab83a3200828a10828218828c08828bd42c08d4ab09d48909989920d4a808978820d49808520875951160ff7b1098007b1590007b1688009515a0008411f0647695b7207b1710d8b707c87c087b1808d8c808da7708c8a8087b18d8a807c827075022aa0a1e3c5020ac0a3b4c5022ae0aa83b3300b00a951140ff7b10b8007b15b0007b16a8009515c00033029e0a28203c5022b20af73a32000051070b5022b60a763c3200951780005020b80a101dff5022ba0aa83a5207505022bc0a253b5020be0ae24b5022c00a303a5020c20a39ff821748821258821340821a50821810d3870bd8870c6484821918d89308dab80cc96a0bd86a0a821608c962065022c40a2d3a5107040082171864685020c60a204e5022c80ae0413300ca0a0a0c3302cc0a28da3a5022cc0ad73a32009511c87b10307b15287b1620829b828a829608828408829010828c10829918828218d364057b1608d864067b1b187b1a10d8ba087b18da5806d39208d89203d80c05da8503d30c0bd4b808da8603520342c90c08d8680bc99209c95909c9b909c96808821a08c9a40a821bc9ba0a821b18821c10c9bc0b7b7b7b7a087b78107b791882103082152882162095113832005020ce0afb83951108f8951800077b80f0007b85e8007b86e0009515f807951118fd8411e06416827a827908827810827718956bff0795bb1901492b8001492b7801492b7001492b68017b673095bc00017bc7607b68287bc8587b69187bc9509567ff079577a1029568ff07958881029569ff07959961027b6a207bca485020d00a0e4aff9567ff0795771901827888017b68f0008272a0017b620001827990017b69e800827c98017b6cf800958304d88308c8890bd89b0ada880ac8ca0ad8ca08c882027b7308017b7b10017b7a180164799567ff07957741029568ff07958821027b9220015020d20ae44eff956bff0795bb190195bc000182c82882c73082c93882ca407bca7bb9f8007bb7f0009567ff07957701027bb8e8005020d40ae0ea8267f0009579055022d60a3443956bff0795bb19017bb7c0007bbab8007bb8b0009567ff079577e1019568ff079588c1017bb9a8005020d80a83849568ff07958819018287e0007b67c8008287d8007b67d0008287d0007b67d8008287c8007b67e0008267f00095780a7b68b000d878078268e800c878097b69a800d88908da77088267f800c878087b68a000d8780782680001c887077b6798003307c002037b67c00083777b67b8003300da0a0a068269c0003302dc0a28b3408269c0005022dc0aac4095aa1901491a60826b98007bab8000826ba0007bab78826ba8007bab707ba9587ba7507ba84864ab9567ff079577a1019568ff07958881019569ff0795996101826ab0007bba685020de0a64b2956cff0795cc190182ca880082c7900082c8980082c9a000826bc800956200107b2bf8f8826bd000956200107b2bf0f8826bd800956200107b2be8f8826be000956200107b2be0f87bc97bc8f8956800107b8708f99567ff07957721019568ff07958801019569ff079599e100956b00107bba00f95020e00ab7b09569ff0795991901829a08829710829818829920956b0010492b98f8956b0010492b90f8956b0010492b88f8956b0010492b80f8956b00107bb9b8f8956900107b98b0f8956800107b87a8f89567ff079577c1009568ff079588a1009569ff0795998100956b00107bbaa0f85020e20a823aff95670010827ad8f87b6a78956700108279d0f87b698000956700108277c8f87b678800956800108288c0f87b689000d4a707d49808d487078e7795680010492878f895680010492870f8956800107b8760f89567ff0795776195680010492868f83300e40a951140ff7b10b8007b15b0007b16a8009515c0003302800a2839378267f000957a02d87a078269e8005022e60a8e458267f800c87909d87907826b0001c8b707826bc8007b6bf807826bd0007b6bf007826bd8007b6be807826be0007b6be007956b00107bb718f8956700107b7910f8956700107b7808f89567ff079577219568ff079588019569e007956b00107bba00f85020e80a47af95670010827a20f895670010827728f895680010828830f895690010829938f8492698074926900749268807492680077b69b8077b68b0077b67a8079567c0079568a007956980077b6aa0075020ea0a3239ff8269d0077b6980018268d8077b6888018267c8077b679001826ac0077b6a9801d48707d49a08d487078e7749267807492670077b67600795676007492668073300ec0a951140ff7b10b8007b15b0007b16a8009515c0003302b40a280b368267f0009579075022ee0a863f7b6738077b6a30077b68280795674007956820077b6920075020f00ae580826740078268480782695007826a58077b6ad8067b69d0067b68c8067b67c0068267787b67f806826780007b67f006826788007b67e806956700079568e0069569c006826a90007b6ae0065020f20a0b7fff956b000782ba82b70882b81082b9184926780649267006492668064926600600e1f5057b6998067b6890067b6788069567a00695688006956960067b6a80065020f40ac57eff956c000682caa00082c7a80082c8b00082c9b800826b88017bcb18826b80017bcb10826b90017bcb08826b98017bcb7bc9387bc8307bc7289567400695682006956900067bca205020f60ac69a8262580682645006826048068263400668276848958940db270968076838958840db070895878000d4240adaa709d8870c94ac8eca8897fb008577019ac8c97808647b7b6a487b6c40dbca0b88b7019577ff9aba7b6a90018eaa8e7c7b678801da7a0c7b69509a97fa00887900018599018e8adb8a09dbbc09d4200ad4430bd4ba0a88aa017b6a38d4a9097b62080194927b6410019494640c949c643b949b7b6320017b6018015209250264708579ff0082679001d4790982638801d4380ad4a90951090a02950a017b6a980188a901c898087b687801d4a808888801c878087b686801d87808c838087b6870019a08ff005022f80a43415020fa0af2465022fc0a9e425020fe0ac0465022000b273e5020020bb4465022040bda375020060ba8465022080bb43b510a5e0182679801957980826710018268080150200a0baf4650220c0b074250200e0ba3465022100b043e5020120b71465022140b30365020160b8b46330c3304956a000182a94893989397491a3031491a28826050013302180b28d8365022180bd536d8b90282695801db980282684001978801987b3fd4b8087b68400198cb3f977701d47b0b97070182688801988c3fd4c7077b676001978c018267800198783fd4c808977c018267900198703fd40c0c97770182694801d497077b679001d4c4077b678001d484077b67880182676001d47400c9ba07d82707d8ba0882644001c94a0cc98c0cc97c0c99c23f84273282695001c979087b685801d87908c983077b6760019438c98b07d88b08c98408826a9801826c7801d4ca09889901826b6801d89b03c99b0b88a901c99c0c82697001c9390995aaff7b6c78017b697001d4c9097b6a9801d4ba0ad4a909842c017b6b68013304520906ff280d330c4926380182605001018269880198973f970801d47802826a800198a83f979901d49808826b900198b93f97aa0197bb01d4cb0b82673801d47909d4a90cd48704d42702017b62587b64607b6c687b6b708268508887fa00857901826b48826a40daa90b88b7019574ff9ab29aaac99a0a9a83f9008e288e4cda480c8ea988380001858801dba908dbbc08826938d49808956b000182b708948782b910948982601801948082bc20948c52081b028538ff00d42808d44a0bd4b80851080a029537017b679801887801c8a8087b687801d47808888801c828087b686801d82808c848087b6870019a38ff0050221a0bc33e50201c0b724450221e0b1e405020200b40445022220ba73b5020240b34445022260b5a355020280b284450222a0b3439510a5e0182679801957980826710018268080150202c0b2f4450222e0b873f5020300b23445022320b843b5020340bf1435022360bb0335020380b0b44330c3304956a000182a94893989397491a3063491a288260500133023a0b28583450223a0b5534d8b90282695801db980282684001978801987b3fd4b8087b68400198cb3f977701d47b0b97070182688801988c3fd4c7077b676001978c018267800198783fd4c808977c018267900198703fd40c0c97770182694801d497077b679001d4c4077b678001d484077b67880182676001d47400c9ba07d82707d8ba0882644001c94a0cc98c0cc97c0c99c23f84276482695001c979087b685801d87908c983077b6760019438c98b07d88b08c98408826a9801826c7801d4ca09889901826b6801d89b03c99b0b88a901c99c0c82697001c9390995aaff7b6c78017b697001d4c9097b6a9801d4ba0ad4a909842c017b6b68013304520906ff280d330c4926380182605001018269880198973f970801d48707826a800198a83f979901d49808826b900198b93f97aa0197bb01d4bc0c826b3801d4b909d4a900d48b09d4b707017b6780017b6988017b6090017b6c98014926d8054926d0054926c8059567e0059568c0054926c0050250203c0b857aff826ae0058267e8058268f0058269f805826b80017b6b7805826b88017b6b7005826b90017b6b6805826b98017b6b60057b6998057b6890057b6788059567a00595688005956960057b6a800550203e0bb3908267a0058268a8058269b005826ab8057b6a38057b6930057b6828057b672005492658054926500549264805956740059568200549264005025020400bd0998267f000957809d8780764897b6878018268e800c8780a7b6a7001d88a08da77088267f800c8870b7b6b6801d87b0782680001c887077b6760017b67f8047b6bf0047b6ae804956700059568e0047b69e0045020420b9b79ff956b000582ba82b70882b81082b918826b80017b6b9804826b88017b6b9004826b90017b6b8804826b98017b6b80047b69b8047b68b0047b67a8049567c0049568a004956980047b6aa0045020440bca8f8267c0048268c8048269d004826ad8047b6a58047b6950047b6848047b674004826760017b677804826768017b677004826770017b6768049567600495684004826978017b6960045020460bd8988267587b67f8038267607b67f0038267687b67e8038267707b67e003826708017b671804826710017b671004826718017b67080495672004956800049569e003826a20017b6a00045020480b43f2956800048287207b6798018287287b6790018287307b6788018287387b6780018267b80033004a0b0a06018269c000829708819810829950224c0b8f2f49269803826998007b69b8038269a0007b69b0038269a8007b69a8038269b0007b69a0037b6890037b6788039567c0039568a003956980037b6a800350204e0be6a6826ac0038267c8038268d0038269d803826bc8007b6b1803826bd0007b6b1003826bd8007b6b0803826be0007b6b00037b6938037b6830037b6728039567400395682003956900037b6a20035020500b62a5956b000382ba4082b74882b85082b9584926b8024926b0024926a8024926a0024926d8024926d0024926c8024926c002956b00027bb9f8007bb8f0007bb7e8009567e0029568c0029569a0027bbae0005020520b0b68ff8267b8003300540b0a06019517e08478e06481956a000182a980007b891882a988007b891082a990007b890882a998005022560b3d2f330bc00202d4790a8267c0005022580b54370a02015207dd018267b80033005a0b0a068269c00033025c0b28aa318269c00050225c0ba3317b68880150225e0b3b397b6778019888207b687001956780025020600b1a0dff826998027b699001826890027b688001826a88027b6a6801826c80027b6c9801826770017b67f001826778017b67e801826788017b67e0014926f8018267787b671802826780007b671002826788007b670802826790007b6700028267c8007b6738028267d0007b6730028267d8007b6728028267e0007b6720027b6958027b6850027b6a4802956760029568400295692002956a0002956be0017b6c40025020620b7fc2956b000182b96882b79000d4970782ba800082b89800d4a808d47808988820d4a707977720d487075207cc0064a0956b000282b76882b8787b6888018263600282ba70d3970bd8970c82629801d82308dab80cc90a0bc9cb04d8cb0b7b6b7801d80a0a826c9001826b8801c9cb0cc9ac0c826a7801c9ac0cc99707c98707c923085022640bcb3552076d826720956c00017bc7a0008267187bc7a8003a072802023a093002023a0a3802023a0b4002027bc7d8007bc9d0007bcac8007bcbc0008267287bc7b0009569c001956aa0018267307bc7b80082c798005020660b5b3c955100f8951120fd9511e8025022680b373632000050206a0b18dc9511c0fe7b1038017b1530017b162801951540018411f0829a7b1a18829a087b1a10829a107b1a088299187b198289828a08828b1082881864767b18d8007b1bd0007b1ac8007b19c0004921f8004921f0004921e800951700019518e0009519c0004921e00050206c0b9d39ff821700018218180182190801821a1001957b0a50226e0b6e3582177b17788217087b17708217107b17688217187b17607b1b80007b1c88007b1990009517a000951880009519607b1a98005020700b51a38219a0008217a8008218b000821ab8007b1a387b18307b17289517409518207b19205020720be780821750821858821940821a487b67107b68187b697b6a089551c0fe8210380182153001821628019511400132005207613a074802027b17583a075002023a085802023a096002027b17507b18489518407b194064675020760b20395022780bcd2a51082d836720491130491128140800000000000073657b183895182049112050207a0bf53850227c0b902a3200003307225022800b6b295020820b5a4bff5022840bea273300860b9511807b10787b15707b1668951580003302740b289f299567405022880bc5263200828a10828218828c08828bd42c08d4ab09d48909989920d4a808978820d49808520875951160ff7b1098007b1590007b1688009515a0008411f0647695b7207b1710d8b707c87c087b1808d8c808da7708c8a8087b18d8a807c8270750228a0b2b2850208c0b483850228e0bb5273300900b951140ff7b10b8007b15b0007b16a8009515c00033027e0b282d285022920b042732000051070b5022960b83283200951780005020980b1d09ff50229a0bb52652075050229c0b322750209e0bef375022a00b3d265020a20b39ff821748821258821340821a50821810d3870bd8870c6484821918d89308dab80cc96a0bd86a0a821608c962065022a40b3a265107040082171864685020a60b2d3a5022a80bed2d3300aa0b0a0c01951140fe7b10b8017b15b0017b16a8019515c0018411e03306c0020383677b17303300ac0b0a067b16383302ae0b28612f7b16385022ae0b5b2f7b1a289777206f99989920d497077b1720988620492118014921100149210001039517200195180001492108015020b00b443cff821730018218200182193801821a2801d36707821b20d3b808d48707821828d3a808d49808d487078877014921f8004921f0007b17e0009517e0004921e8003300b20b951140ff7b10b8007b15b0007b16a8009515c0003302940b28ba264921b8004921b0004921a8009517c0009518a0004921a000025020b40ba071ff8218d0007b18188216d8008217c8007b1720821ac0007b1a28d46707d4a808d487078e7749219800492190007b17800095178000492188005020b60beedd491158491150491148491140491178491170491160029517609518404911685020b80b19918217300a067b1698018217187b1790018217207b1788018217287b1780014821600149215801492150014921480149214001821738977720987720951880019788209888203309c00202951a400197aa20d48a0a979920989b2095186001978820d4b80c3308ff3309ff0a020152070b5022ba0bde3232005020bc0b7fd75022be0b54255208419511d07b10287b15209515308411f03a086802023a097002027b18187b1910140800000000000000737b1808641849015020c00b89355022c20b1c2b3200005020c60bf747ff5022c80b87243300ca0b3302be0b28f7249567205022cc0b72233200828a10828218828c08828bd42c08d4ab09d48909989920d4a808978820d4980852089300951160ff7b1098007b1590007b1688009515a0008411f0647695b7207b1710d8b707c87c087b1808d8c808da7708c8a8087b18d8a807c827075022ce0bd7245020d00bf4345022d20b61243300d40b951140ff7b10b8007b15b0007b16a8009515c0008411f0828a828908828b108288187b17184911584911504911483307113302c40b2837255022d60b932332000051070b5022da0b12253200951780005020dc0bac05ff5022de0b44235207505022e00bc1235020e20b7e345022e40bcc225020e60b1bff821748821258821340821a50821810d3870bd8870c6484821918d89308dab80cc96a0bd86a0a821608c962065022e80bc9225107040082171864685020ea0bbc365022ec0b7c2a3300ee0b0a0c3302f00b28ad235022f00baa235208469511d07b10287b15209515308411f03a087802023a098002023a0a8802027b18187b19107b1a08140900000065636e616c64187b195020f20bda335022f40b6d2932000033071d5022f80b50245020fa0b3f46ff5022fc0bcf223300fe0b3302f00b283f239567205022000cba213200828a10828218828c08828bd42c08d4ab09d48909989920d4a808978820d49808520875951160ff7b1098007b1590007b1688009515a0008411f0647695b7207b1710d8b707c87c087b1808d8c808da7708c8a8087b18d8a807c827075022020c20235020040c3d335022060caa223300080c951140ff7b10b8007b15b0007b16a8009515c0003302f60b28222350220a0cf92132000051070b50220e0c78233200951780005020100c1204ff5022120caa215207505022140c27225020160ce4325022180c322150201a0c39ff821748821258821340821a50821810d3870bd8870c6484821918d89308dab80cc96a0bd86a0a821608c9620650221c0c2f2151070400821718646850201e0c22355022200ce2283300220c0a0c01951108f8951a00077ba0f0007ba5e8007ba6e0009515f807951198fa8411e06416829a7b6a8800829a087b6a8000829a107b6a788299187b697082897b69d8008289087b69d0008289107b69c8008288187b68c000827a827908827810827718956bff0795bbd900492b2004492b1804492b1004492b08047b67287bb700047b682095bc00037bc8f8007b69107bc9f0009567ff07957701059568ff079588e1049569ff079599c1047b6a187bcae8005020240c7c31ff956bff0795bbd90095b700048278287b68a80082b240047b62b800827a307b6aa000827c387b6cb000958704d88708c88a09d8a90ada880ac8ca0ad8ca08c8820295b800037b87a8007b89b0007b8ab8009567ff079577a1049568ff07958881047bb2c0035020260c4f36ff956bff0795bbd90095bc000382c7d80082c8e00082c9d00082cac800d49808d4a707d48707887701492ba003492b98037bc788009567ff0795776104492b90035020280c4fb48269a8009599018897018268a000c88707d47908888801826ab000c8a808d8a80a826bb800c8ba0a956bff0795bbd90095bc00037bca607bc8587bc7509567ff07957741049568ff07958821047bc94850202a0cc16bff956bff0795bbd90095bc000382c77082c86882c97882ca800064b2826cd000d3c70bd87c07826cd800d88c08dbb708826bc000d3ba07d8ab0a826cc800d89c0bdb7a0bd3c909d49707db7b0849224003492238037b2828039567ff07957701044922300350202c0c32b58267a800957802d87807648a7b6858018268a000c87809d889087b69500150222e0c692ec878087b6840018267c000956cff0795ccd9007bc7c0028267c8007bc7b8028267d0007bc7b0028267d8007bc7a8027bc8e0027bcbd8027bc9d0029567ff079577c1039568ff079588a1039569ff07959981037bcac8025020300c5b98956bff0795bbd90095bc000282cae80082c7f00082c8f80082b90003492b6002492b5802492b5002492b48027bc980007bc8787bc7709567ff07957761039568ff07958841039569ff07959921037bca685020320c4122ff956bff0795bbd90095bc000282c7900082c8880082c9980082caa00064b2826c8000d3c70bd8c707826c8800d8c808dbb708826b70d3ba07d8ba0a826c78d8c90bdb7a0bd3c909d49707db7b0885870149224002492238027b2728029567ff0795770103492230023300340c951140ff7b10b8007b15b0007b16a8009515c0003302d80b28f11e8267a800957803d87807648a7b68408268a000c87809d889087b6938da77088267b000c8870b7b6b30d87b078268b800c878087b68488267c000956cff0795ccd9007bc7c0018267c8007bc7b8018267d0007bc7b0018267d8007bc7a8017bc8e0017bcbd8017bc9d0019567ff079577c1029568ff079588a1029569ff07959981027bcac8015020360cf096956bff0795bbd90095bc000182cae80082c7f00082c8f80082b90002492b6001492b5801492b5001492b48017bc980007bc8787bc7709567ff07957761029568ff07958841029569ff07959921027bca685020380cd620ff956bff0795bbd90095bc000182c7880082c8900082c9980082caa0007bca7bb9f8007bb8f0007bb7e8008267707bc7208267787bc718826780007bc7109567ff07957701029568ff079588e1019569ff079599c101826a88007bca0850203a0c2767ff9568ff079588d900958900018297407b67608297387b67688297307b6790008297287b6798003307c002037b675083777b67580a95670010837820fd8267580a01956bff0795bbd90095bc000482c75082c84882c95882ca6064b2826c9000d3c70bd8c707826c9800d8c808dbb708826b60d3ba07d8ba0a826c68d8c90bdb7a0bd3c909d49707db7b088587014922e0004922d8007b27c8009567ff079577a1014922d00033003c0c951140ff7b10b8007b15b0007b16a8009515c00033020c0c28e61c8267c0009568ff079588d9007b87608267c8007b87588267d0007b87508267d8007b8748826740017b878000826748017b8778826750017b8770648b9567ff07957761019568ff07958841019569ff0795992101826a58017bba6850203e0c10959567ff079577d900827a88007b6a5001827890007b685801827998007b694801827ba0007b6b400149074917f8956c0010492cc8f8956c0010492cc0f87b7b207b79187b7810647b9567ff07957701019568ff079588e1009569ff079599c1007bba085020400ce41eff9569ff079599d900829a28829730829838829940826b70956c00107bcb78f8826b78956c00107bcb70f8826b8000956c00107bcb68f8826b8800956c00107bcb60f8956b00107bb998f8956900107b9890f8956800107b8788f89567ff079577a1009568ff07958881009569ff07959961956b00107bba80f85020420c37e0956700108277a0f8956800108288a8f8956900108299b0f8956a001082aab8f8956b00107bba18f8956a00107ba910f8956900107b9808f8956800107b8700f895670010492738f895670010492730f895670010492728f895670010492720f882674001956800107b8758f882674801956800107b8750f882675801956800107b8748f85022440cb327826a5001956b00107bba40f85020460c8a56ff8267c0007b6798078267c8007b6790078267d0007b6788078267d8007b6780078267487b67b8078267307b67b0078267387b67a8079567c0079568a00795698007826a407b6aa0075020480c3c93826ac0078267c8078268d0078269d807492638074926300749262807492620077b6958077b6850077b6748079567600795684007956920077b6a400750204a0c371dff826760077b675801826768077b675001826770077b674801826778077b6740018267a800957908d87907826aa00050224c0cd0278267b000c87a0ad87a07826bb800c8b7077b67f8067b6af0067b68e806956700079568e0067b69e00650204e0c1065ff956b000782b782b80882b91082ba187b6a98067b6990067b6888067b6780064926b8064926b0064926a8069567c0069568a006956980064926f80010274926a00610275020500c5cde8267c0068268c8068269d006826ad8067b6a38067b6930067b6828067b672006826740017b675806826748017b675006826750017b674806956760069568400695692006826a58017b6a40065020520ceb62ff826078068262700682646806826a60067b6a180168076828958940db0709684768a8958840db470895878000d4020adaa709d8870c94ac8ecb8897f300857a01daca0b88b7019577ff9ab89accc9ac0a9a93f2007b6840018e8c8e78da7c08883c000185cc018ea9dba90cdbb80c826b1801d40408d42b09d49808888801d4c80864099489956c00017bc948642994897bc950644994897bc95864bc948c520841038538ff0082694001d49808d47a09d4980851082c039539017b695801889801c8a8087b683001d4980888880182694001c898087b682001d89808c887077b6728019a38ff007b6850019a89800064b764487b6410017b6008017b6200015020540c5e2b7b6748017b6840018267000182680801826950015020560c1e2b7b67380182674001d487077b6740018267500195798082671801826810015020580cfa2a82695001889a80007b6af000826b4001dbab08826b0801da9b087b68400182684801826b3801d4b808daa70882670001da97087b684801826718018268100150205a0cb52a826a2001826b280182693001d4b909956b000182bc58d4ac0cd4c909826af00093a87bb83893a77bb7505109ed0182675801957980826700018268080150205c0c982a7b67f0007b68e00082671801826810018269580150205e0c7e2a7b67087b68e800826858019a89800082670001826808015020600c3b2a8269e800d49808956c000182ca5888ab80007b6be8008269e000dab90882c910dba8097bc910826808d487078268f000dab80782c818dba70864a97bc81882c782c8085020620c182a330c8269e800939893978269f800959aff7b6ae8008e999599ff7b69e0008264100182621801017b6800017b6c10014926f00098293f974a01d49a0397290182604001980b3fd49b0b7b6b18018269e000d3390c7b6c0801d83908826ce800d8bc02826b0801dbb80282680001978801987b3fd4b8087b680801984b3f977701d47b0b97070182684801988c3fd4c7077b674001978c018267380198783fd48c04977c018267500198703fd40c0c97770182681001d487077b67500186c77b67380186477b6748018267400186777b674001c9b907d82707d8b908826a0801c9a90cc98c0cc97c0c99c03f8267f800d2700782681801c97802d87808c983049438c98b07d88b08c98a08826a5801826c3001d4ca09889901826b2001d89b03c99b0b88a901c99c0c82692801c9390995aaff7b6c30017b692801d4c9097b6a5801d4ba0ad4a909840c017b6b20015209d9fe2809330c4926f000018269480198973f82684001978801d48707826a38015022640c8322826bf000d4b909d4a909956a00017ba958d4b8087ba850d4b7077ba748017b6c40018267d8007b67a0058267407b67c0058267d0007b67a8058267387b67c8058267c8007b67b0058267307b67d0058267c0007b67b8059567e0059568c0059569a005826a487b6ad8055020660cc88d956c000582cae00082c7e80082c8f00082c9f800826b48017bcb58826b50017bcb50826b58017bcb48826b40017bcb40492678054926700549266805492660057bc998007bc890007bc788009567800595686005956940057bca80005020680c6550ff826a9800826368d43a0782629000826460d44208d487078877017b67580168379577406849da470968a764a09577406828da270895878000d4430adaa709d8870b94ab8ebc8897e600857a01daba0c88c7019577ff9ac89abbc9ab0a9a99e5007b6850018e8b8e78da7b088eab7b69480188990001859901dbab09dbc80982685801d49808948494839482640c948c52083403826048018508ff00826b5001d4b808d47a09d4980851081b039509017b695801889801c8a8087b683801d49808888801c8b8087b682801d8b808c887077b6730019a08ff007b6850019a898000826798008268900050206a0ce1267b6748017b6820018267688268608269500150206c0ca3267b67400182672001d487077b67180182675001957980826798008268900050206e0c7f2682695001889a80007b6a2001826b1801dbab08826b60da9b087b68100182684801826b4001d4b808daa708826768da97087b68480182679800826890005020700c3c26826b2801826c300182693801d49c0c826a5801d4ba0ad4ca0a956b000182b92093987bb84093977bb750510af9014926f00000e1f505826758019579808267688268605020720c19267b6718017b6820018267980082689000826958015020740cff257b6700017b680801826858019a8980008267688268605020760cbd2582690801d4980882695801889a80007b6a0801826b2001daab08826b9000da9b087b68200182680001d4870782681801daa80782689800da98077b6718018267688268605020780c9925330c8269080193989397826bf00095b9ff7b69e8008eb99599ff7b69e00082601001017b6800017b6c08014926f8008268180198893f826c200197ca01d49a03978901980b3fd49b0b7b6b1001826ae000d33a087b681801d83a088269e800d8b90282691801db980282680001978801987b3fd4b8087b68000198cb3f977701d47b0b97070182684801988c3fd4c7077b672001978c018267400198783fd4c808977c018267500198703fd40c0c97770182690801d497077b67500186c77b67400186877b674801826720018670c9ba07d82707d8ba0882640001c94a0cc98c0cc97c0c99c23f8267f000d2720782691001c979087b681801d87908c983077b6720019438c98b07d88b08c98408826a5801826c3801d4ca09889901826b2801d89b03c99b0b88a901c99c0c82693001c9390995aaff7b6c38017b693001d4c9097b6a5801d4ba0ad4a909842c017b6b280133045209cffe280d330c4926f80082601001018269480198973f970801d48707826a400150227a0cfe1d826bf800d4b909d4a902d48b03d47b04017b6420017b6328017b6230017b6c38018267a8009579077b695801d879078268a000c8780a7b6a5001d88a0850227c0c211fc8780c7b6c40017b6900057b6a08057b6b100595672005956800057b6c180550207e0cc55bff956b000582ba2082b72882b83082b938826b20017b6bb804826b28017b6bb004826b30017b6ba804826b38017b6ba0047b69d8047b68d0047b67c8049567e0049568c0049569a0047b6ac0045020800c08d58267e0048268e8048269f004826af8047b6a78047b6970047b6868047b676004826740017b679804826748017b679004826750017b6788049567800495686004826958017b6980045020820c017bff8267a80095780a7b685801d878078268a000c878097b695001d88908da77088267b000c878087b684801d878078268b800c887077b6740018267583300840c0a060182695082970881981082995022860cef1149261804826940017b693804826948017b693004826950017b692804826958017b6920047b6810047b6708049567400495682004956900047b6a00045020880c4689956b000482ba4082b74882b85082b958826bc0007b6b9803826bc8007b6b9003826bd0007b6b8803826bd8007b6b80037b69b8037b68b0037b67a8039567c0039568a003956980037b6aa00350208a0cc287826ac0037b6a58018267c8037b6750018268d0037b6848018269d8037b694001492638034926300349262803492620037b6958037b6850037b6748039567600395684003956920037b6a400350208c0cad11ff826a6003826768038268700382697803826b707b6bd802826b787b6bd002826b80007b6bc802826b88007b6bc0027b69f8027b68f0027b67e802956700039568e0029569c0027b6ae00250208e0c2fd3956b000382b782b80882b91082ba18956b00027bba787bb9707bb8687bb76049269802492690024926880249268002956c000182c7407bb7b80082c7487bb7b00082c7507bb7a8009567a002956880029569600282ca587bbaa0005020900cbd49ff8267583300920c0a06019517e08478e064818269607b89188269687b8910826990007b8908826998005022940cf610330bc00202d4790a8267505022960c0e190a02015207d1018267583300980c0a0682695033029a0c28661382695050229a0c60137b68480150229c0cf81a7b6738019888207b6830019567400250209e0cd7eefe826958027b695001826850027b684001826a48027b6a2801826c40027b6c5801826730017b67b001826738017b67a801826748017b67a0014926b8018267707b67d8018267787b67d001826780007b67c801826788007b67c0018267c0007b67f8018267c8007b67f0018267d0007b67e8018267d8007b67e0017b6918027b6810027b6a080295672002956800029569e001956ac001956ba0017b6c00025020a00c3da4956b000182b92882b750d4970782ba4082b858d4a808d47808988820d4a707977720d487075207c70064a0956b000282b72882b8387b6848018263200282ba30d3970bd8970c82625801d82308dab80cc90a0bc9cb04d8cb0b7b6b3801d80a0a826c5001826b4801c9cb0cc9ac0c826a3801c9ac0cc99707c98707c923085022a20c8c17520768826718956c00017bc7608267107bc7683a079002023a099802023a0aa002023a0ba802027bc798007bc990007bca88007bcb80008267207bc77095698001956a60018267287bc77882c7585020a40c211e955100f89511a0fa951168055022a60cfd173200005020a80cdebd3302aa0c4917184917104917083308607b7832003200951100ff7b10f8007b15f0007b16e800951500018411f08289828a08828b108288187b17387b18307b18b8007b1b187b1bb0007b1a207b1aa8009517c0009518a0007b19287b19a0005020ac0c3afafe8219c0008217c8008218d000821ad8007b1a787b18707b1768951780009518607b19605020ae0cf5f4fe821898008219900082178800821680007b17107b18d48707d49608d478089888207b1908d49707977720d487075207528217287b17408217207b17488217187b17509518408217307b175864675020b00c441b82173882187b78188218087b78108218107b78087b76955100ff8210f8008215f0008216e800951100013200008217c8018218c0018219b801821ab0017b17487b1768017b18407b1860017b19387b19580195177001951850017b1a307b1a50015020b40cd2fe821788017b1728821780017b1720821778017b171882167001821790007b172801821798007b1720018217a0007b17180195173001951810018219a8007b1910015020b60cc855ff821748017b17a800821740017b17a000821738017b17980082103001330c330b33087b1608646333068214188212208217287b178000018217307b1c78d87c0a82173864bcd37b0b7b1c70d87c0cdaba0c821740d87609646a821648d3680bd86806dab9067b1a68d37a0ad4ba0adaac0651061a017b18589537207b1760d83708c884077b179000d84706da8806c826067b168800d8260782168000c876067b10d000821798007b17d8008217a0007b17e0009517f0009518d0008219a8007b19e8007b10505020b80c381eff821760647b82198800d497077b16800082189000d46808d48707987720d49808978820d487075207ba0082170801821800018219f800821af0007b1ab0007b19b8007b18c0009518b0007b17c80064b664b75020ba0c701982105095000188070182189800c878087b189800d480078877018218a000c8780ad88a078218a800c878087b18a800821c7895cc0188c701821b70c87b0bd4bc07887701821868c87809d88907821858c87808646382149000821288007b1aa000649628affe8217108218085022bc0ce716955110fe8210e8018215e0018216d8019511f001320000951c00037bc8787bcb707bca687bc960492c9800492c9000492c88009517a0039518800395196003492c80005020c00c5d18ff821aa0037b1a10018212b0038218a8037b18080195a4017b14b80095a7037b17f800d8a707c878097b19f000d8890cda770c95a304d8a309c8980ad88a0bda990b884901c889097b19a8008217b8037b171801d494098899017b120001c829097b199000d82909c879097b198800c8c2087b18c800d82808c878087b18c000c82b0bd82b08c88709951c00037bc3207bca287bcb3095174003951820037bc9385020c20cf51cff951800038287487b17e8008287407b17e0008287587b17d8008287507b17d000821710019579055022c40c32117bb7f8007bbaf0007bb8e800951700039518e0027bb9e0005020c60cb852ff951800038287087b17b00082877b17a0008287187b1798008287107b178000821710019579065022c80ce7107bb7b8007bbab0007bb8a8009517c0029518a0027bb9a0005020ca0c931cff951c000282c7c8007b177882c7c0007b177082c7d8007b176882c7d0007b1760821710019579085022cc0c540c7bc7787bca707bc86895178002951860027bc9605020ce0c2552ff951c000282c788007b175882c780007b175082c798007b174882c790007b1740821710019579075022d00c0c0c7bc7387bca307bc82895174002951820027bc9205020d20cdd51ff951800028287487b17388287407b17308287587b17288287507b1720821710019579095022d40cc80b7b17f8017b1af0017b18e801951700029518e0017b19e0015020d60c9551ff951800028287087b171882877b17108287187b17088287107b17821718017b17b801821700017b17b001821708017b17a8019517c0019518a001821910017b19a0015020d80cc51aff8217c8017b1718018217c0017b1710018217d8017b1708018217d0017b170001821788007b177801821790007b1770018217a8007b17680195178001951860018219b8007b1960013300da0c951110fe7b10e8017b15e0017b16d8019515f0018411f082897b19a800828a087b1aa000828b107b1b98008288187b1890007b17107b18a8017b1ba0017b1a98019517b001951890017b1990013300b20c28a850ff821788017b17b800821780017b17a800821798017b179000821790017b1788008217c0007b1738018217c8007b1730018217f0007b17280195174001951820018219f8007b1920015020dc0cd25cff821748018218400182195801821a5001821b956c00017bcb10821b087bcb18821b107bcb821b187bcb08821b207b6bf000821b287b6bf800821b307b6be000821b387b6be800821b407b6bd000821b487b6bd800821b507b6bc000821b587b6bc800821b607b6bb000821b687b6bb800821b707b6ba000821b787b6ba800821b80007b6b9000821b98007b6b9800821ba0007b6b8000821bb0007b6b8800821bd0007b6b70821bd8007b6b78821be0007b6b60821be8007b6b687b6a507b69587b68407b6748821788007b6730821790007b67388217a8007b67208217b8007b6728821700017b6710821708017b6718821710017b67821718017b6708955120fc951700038270d8008275d0008276c8009511e0033200951b000282b93082b73882b84082ba487b1ae8017b18e0017b17d8019517f0019518d0017b19d0015020e00c6c68ff821708027b1728821700027b17208217f8017b17188217f0017b17104911404911383306330701017b17484921a8014921a001492198019517b0019518900149219001015020e20ccb4eff8217c8018218b0018219c001821ab801d3760b6463d86707821638d8690cdbb70c821740d3a702d87a0a821748d87808db2a08d39607d4b707db7c085208150149214801492140014921380149213001018217487b1750018217407b1758018217387b1760019517700195185001951930017b13680164367b13305020e40cdfc7821770018218780182198001821a88017b1ae8007b19e0007b18d8007b17d0008217287b1708018217207b1700018217187b17f800951710019518f0009519d000821a107b1af0005020e60c5463ff821910018217180182182001821a28017b16a8008216387b16a000821b407b1b9800821b487b1b90007b1ac8007b18c0007b17b8009517b000951890007b19b0005020e80cd66cff8217307b17687b16608217407b17589517709518508219487b19505020ea0c0f6dff82168800821780007b17388217787b1740821770288ffe8217088218105022ec0c6010955190fd951700028270688275608276589511700232009511f87b1033075020ee0cfddffe9511f87b103307015020f00ceedffe9511b07b10487b15409515508411f08272827308827b10827718828c828908828a108288187b18187b1a107b19087b1c7b17387b1b307b132895172064187b12205020f20c8d3fff5022f40c790e3200d86708821ac88a09d8a90ada880a821808c88a0ad88a08821b10c8b808821b187bb9087bb77bba107bb818955140ff8210b8008215b0008216a8009511c0003202821818958704d88708821a10c88a09d8a90ada880ac86a0ad86a08821b08c88b0b7b19287b17207b1a309517409518207b1b383202c9a606d8cb0ac9a606c9cb0bc94707c98707c99308d467076486d4b808d47808d4b707988820977720d487073202821998008216900082178800821880007b17107b1908d497077b1818d46808d47808988820d46707977720d487073202821750821858821940821a487b67107b68187b697b6a08955160ff8210980082159000821688009511a000320282168000821988007b19821890007b1808821798007b17107b17387b18307b19289517207b16203202491170491168491160140700000000a079c3089518607b17788217183202828918828a10828b0882887b79187b7a107b7b087b7832028217087b17288217107b172082177b17309517409518208219187b19383202827810827918827a088277d4a909d4870ad49a0a98aa20d49808978820d4a8083202821750821858821940821a487b67107b68187b697b6a089551808210788215708216689511800032027b17184911784911704911602095186049116864b732028411f0827810827918827a088277d4a909d48707d4970732028411f0828a828908828b108288187b171849115849115049114832028217b8007b17188216b0008218a8007b1810821aa0007b1a088219207b19588219287b19508219307b19488219387b19407b17787b16707b1868951780009518609519407b1a603202955140ff8210b8008215b0008216a8009511c00032027b17407b18787b1b707b1968951780009518609519407b1a6032029551a08210588215508216489511603202826c1001d37c0bd87c07826c1801d88c08dbb708826b0801d3ab07d8ab0a826c0001d89c0bdb7a0bd3c909d49707db7b0832028411f0827910827a1882780882767b18187b1a08d4a807d49608d478089888207b1910d49707977720d487073202646482178800821898007b183882138000821a9000d3b706d8b70cd80308da680cc94a063202955160ff8210980082159000821688009511a000320282a81895880188870182a910c879097ba8187ba910d4980788770182a8c88707d8870882a908c889097ba9087ba73202821918821b10821008d49b07d46008d47808988820d46707977720d487073202955180821078821570821668951180003202821710821808d487071408e0ffffff00000000d886088219189498947832028411f0491130491128491120140700000000717b484e9518207b173833073202d87907821ac000c87a08d8a80ada770a8217c800c87a0ad87a07821bd800c8b70732026f77977a206f88988820d48a0a9877206f98978920d497079888203202821818821910821a088217d4a808d4970ad48a0a98aa20d49808978820d4a80832027b67307b64389517e0847ae064a1826758d40707826850826948d49808d487079877207b6018d40808978820d48707320282694801d4980882699801889a80007b6a4801826b6001daab08826b1801da9b087b68600182684001d4870782685801daa80782682001da98077b67580182671001826808013202d4a808d4970ad48a0a98aa20d49808978820d4a80832027b899518f88488e06481330a48089519e08499e0649149191849191049190849098b77059777059799203202d87907821a10c87a08d8a80ada770ac86a0ad86a07821b18c8b70732023807b002024911584911504911487b1740491178491170491160049517800095186095194049116832027b6840017b6c4801492638018268580198893f826c600197ca01d49a03978901980b3fd49b0b7b6b5001826a2801d33a087b685801d83a088269300132028217e8007b17288217e0007b17208217f8007b17188217f0007b1710821838958720d88708821ac88a09d8a90ada880a821830c88a0ad88a08821b08c88b0b7b1a707b19687b1760951780009518609519407b1b78320282699001889a80007b6a6001826b5801dbab08826b0801da9b087b68500182688801826b8001d4b808daa70882671001da97087b68880182672001826818013202828780007b171801828788007b171001828790007b170801828798007b1700018287a0007b17f8008287a8007b17f0008287b0007b17e8008287b8007b17e0008287c0007b17d8008287c8007b17d0008287d0007b17c8008287d8007b17c0008287e0007b17b8008287e8007b17b0008287f0007b17a8008287f8007b17a00032023807b002024921f8004921f0004921e8007b17e00049211801492110014921000104951700019518e0004921080132028411f08279827808827a1082771849111849111049110849017b17387b1a307b182895172064187b19203202d87907821a0801c87a08d8a80ada770a82170001c87a0ad87a07821b1801c8b7073202d87907826a68c87a08d8a80ada770a826770c87a0ad87a07826b78c8b70732028267d0008268d8008269c000826ac800826b307bb7107bb8187bb97bba08955100ff8210f8008215f0008216e80095110001320282970881981082996f77977a206f88988820d4a80832029551d08210288215209511303202c88a09d8a90ada880a3202d88708821a6801c88a09d8a90ada880ac86a0ad86a08821b5801c8b8083202d88708821a2001c88a09d8a90ada880a82182801c88a0ad88a08c868083202821ad47a0a821940889b80007b1b821718dab70a821750da970a7b1a50821608d48606821720dab706821758da970682171082184882193832028217108218188219821a087b67107b68187b697b6a089551c082103882153082162895114032028378836933070132027b67a8007b6ca0007b68b0009567c0009568a00095698000956a607b64b80032028217f0007b17408216f800821900017b1948821808017b18307b18a8007b19a0007b1698007b1790008217107b17c8008217187b17c0008217207b17b8009517d0009518b00095199000821a287b1ab00032028411e06476828718828910828a0882887b17387b19307b1a287b1820641795182032028411e06416828b829408828008829395ba1f7b6b583202821790008218980082198000821a88007b67307b68387b69207b6a288217107b67108217187b67188217207b678217287b67089551e0fe821018018215100182160801951120013202826b5888b98000826a18db9a07826c20826a50d4ca0ada980a3308ffdab807dab80a939c826b28939b32028219780182970881981082996f77977a206f88988820d48a0a9877206f98978920d49707988820951b0004320282970881981082996f77977a206f88988820d4a8089877206f99979a20d4a707989920956aff073202826b6801826c700182697801d49c0c826a9801d4ba0ad4ca0a956b000182b96093987bb8800093977bb79000320282670882688169106f77987a206f88978b20d4ba0a3202828910828a18828b088288d4ba0ad4980bd4ab0b98bb20d4a909979920d4b9093202828a10828b18828c088289d4cb0bd4a908d4b808988820d4ba0a97aa20d4a80832027b6ab8017b68b0017b67a8019567c0019568a0017b69a00132028411e07b17308297187b17408297107b172882960882977b1738828718828910828a0882887b1798007b1990007b1a88007b1880009517609518800032028217c0007b17388217c8007b17308217d0007b17288217d8007b17209517a0003202821880008217880082199000821a98007b1a387b19307b17289517207b182032029551c0fd95170002827038827530827628951140023202d48a0ad4b30b9518e08488e064817b8b107b8a187b89087b873202826c0001d3c707826c0801d3c808d4870782681001d3a808826a1801d3a909d49808d487078877013202d87907821a0801c87a08d8a80ada770a82170001c87a0ad87a07821b1801c8b707951b00023202d87907826ae800c87a08d8a80ada770a8267f800c87a0ad87a07826b0001c8b707320282877b1798008287087b1790008287107b1788008287187b1780008287207b17788287287b17708287307b17688287387b176032024926180149261001492600014926080132028411e0492138014921300149212801492120018317200132028411e04921b8004921b0004921a8004921a0008317a0003202958b019518e08488e064817b8a187b89107b87087b8b32027b67800182676001d487077b67580182679001957980826720018268180132027b6740017b684801826898019a898000826710018268080132029551e0fe821018018215100182160801951120013202d88708821a10c88a09d8a90ada880ac86a0ad86a08821b18c8b80832029551e0fd951700028270188275108276089511200232028217387b76188218487b78108218087b78088218407b789551d0fe8210280182152001821618019511300132028411f0647649111849111049110849014911384911303202d4c707d4480ad47a0ad4470798aa20977720d4a707320297772098772097bb2098bb20978820d4b80c3308ff3309ff3202821730018218380182192801821a2001d49808d4a707d487073202d88708821a6801c88a09d8a90ada880a82185001c88a0ad88a083202d88708821a68c88a09d8a90ada880ac86a0ad86a08821b7832028217b0008218b8008219a800821aa000d49808d4a707d487073202d87b07c8790cd89c09da7709c8a909d8a907c8780a32028411e06416828a7b6a30828a087b6a28828a107b6a208288187b6818829a8298083202951700078270f0008275e8008276e0009511f8073202c8b909c88909d3b90ad8b90bdaa80b3202c9430c7b1c507b1688007b1880007b10787b14707b17587b1b609517709518507b196832028411f082897b19288289087b19208289107b19188288187b18107b17389517f00032028267187b67588267207b67508267287b67483307209568408269307b6940320283788369330732028217d8008218e8007b18288213d000821ae000d3670bd8670c646082144032029551b082104882154095115032029567ff079577419568ff079588219569ff0795990132028411f0829a7b1a78829a087b1a58829a107b1a508299187b19488289320298a83f979901d49808826b500198b93f97aa0197bb01d4bc0c3202979801d4870798983f826a6097a901d4890998a83f3202c88609d8690ada880a82182801c88a0ad88a083202955140fe8210b8018215b0018216a8019511c00132029877206f98978920d4970732027b6890019a89800082672001826818013202827818827910827a0882777b18787b19707b1a687b176095172095186032028217a0007b17188217a8007b17108217b0007b17088217b8007b179517e0009518c0003202c87a08d8a80ada770a3202c88a09d8a90ada880a821850c88a0ad88a083202c8c808c8a808d4b70ad49808d48a0a98aa20d4b808978820d4a80832023807b002024921b8004921b0004921a8007b17a0004921d8004921d0003307047b17c00032027b788218187b78088218207b78108218287b781832028411f08289828a08828b10828818647632028411f08289187b19208289107b19188289087b191082887b18083202da77088267b000c8870b7b6b4801d87b078268b80032027b6758017b6860018267200182681801826998013202c87908d89809da770932027b67287b6820826818d487077b67188267588379803307ff3308ff3202955120ff8210d8008215d0008216c8009511e00032027b6788017b68600182671001826808018269900132023908b802025108b3cffe3307e0020383770a0d28a5cffe9511f07b10087b156489647533082064975020f60cb5037c78017c797c7a027c7b03978808d4980897aa1097bb18d4ba0ad4a8087c79057c7a047c7b067c7c07979908d4a90997bb1097cc18d4cb0bd4b909979920d489027c79097c7a087c7b0a7c7c0b979908d4a90997bb1097cc18d4cb0bd4b9097c7a0d7c7b0c7c7c0e7c780f97aa08d4ba0a97cc10978818d4c808d4a808978820d498037c78117c7a107c7b127c7c13978808d4a80897bb1097cc18d4cb0bd4b8087c7a157c7b147c7c167c791797aa08d4ba0a97cc10979918d4c909d4a909979920d4890a7c78197c79187c7b1a7c7c1b978808d4980897bb1097cc18d4cb0bd4b8087c791d7c7b1c7c7c1e7c771f979908d4b90997cc10977718d4c707d49707977720d487076f776fa86f396f2a7b5a187b59107b58087b57821008821595111032009511d87b10207b15187b161082897b19088289087b198285108286183308205020f80c6c026f686f59821a6faa821b086fbb787b18787a10787908787898bc38787c1f98bc30787c1e98bc28787c1d98bc20787c1c98bc18787c1b98bc10787c1a98bb08787b1998ab38787b1798ab30787b1698ab28787b1598ab20787b1498ab18787b1398ab10787b1298aa08787a11989a38787a0f989a30787a0e989a28787a0d989a20787a0c989a18787a0b989a10787a0a98990878790998893878790798893078790698892878790598892078790498891878790398891078790298880878780182102082151882161095112832009511807b10787b15707b1668951580008411e06476828718828910828a0882886f776f996faa6f887b18587b1a507b19487b1740491138491130491128491120480120831840831a20831b3309ff33070a08821738821830821928821a206f776f886f996faa7b6a187b69107b68087b679551808210788215708216689511800032009511a07b10587b15509515608411e08272827a08827b108277188283828908828c108288186f746fbb6faa6f276f826fcc6f996f387b17387b1a307b1b287b14207b18187b19107b1c087b12831820831a3309ff330b2033070a0e9551a08210588215509511603200951160ff7b1098007b1590007b1688009515a0008411e082ab7b1b3882ab087b1b3082ab107b1b2882aa187b1a20829a7b1a18829a087b1a10829a107b1a088299187b1964865020fa0c6682186f888219086f99821a106faa821b186fbb7b1b587b1a507b19487b18408218206f888219286f99821a306faa821b386fbb7b1b787b1a707b19687b18608379836a8317403308020a07955160ff8210980082159000821688009511a00032008b7910520931c8780883881f8488e05638000001253309b40202390ab40202ae8a093d08b40202013308c002028377c88707320000849a40520a195109148d9a40d0a70acf9707cf9808d4a808320032009598c0cf870833073200849a40520a195109148d9a40cfa80ad09808d09707d4a707320032009597c0d078073308320049922425494b2a252da9944c494949694884248924214990246992244921494992244305555141952649521292042124a9d2242088808080802082080822202020882082080812422222221211115142222222221111111112119108212422221222222242444424111111111211119188888812424844442422224a922495202849925425294949924644449294922449499224499224494a524a92922449121149522222a21094124104214844924849922422222222222285204350a549122949254952922449928892044992940445444490a444242212898888482412894422111189502422aa26499224499224922449922449922449129120222291482422222222442222499224492a952441232222494a92248924494a929424494488282849922449224942444492123422224984888888101111222222222212111111914824122108020924499224499224430502d1144ad192244992a4242549209024251022184aa24992545292244992244992244992545292244992244992249024298888889424498a208a4422499224499204499254a024492949922449495290249124254992484a922489244949922449522a508996248124499204922409041a1111111111444424499224114944444402499224499224912491244992244924499224492212111111111111114192242922221a444444204992244992244992249104a2249a92244992244992244944442022222249929424494a49121191888848a06092a49424499224499294a4144424899448929248248a92242222222222889204828888489224492222222222228148249124922492489244924492249224492249244922228044944824129324494a92249194882491248aa291a492124512499248224992481249248988041149242a92229144442492888888402491249248444444929224093488888840922449922449922449220944493425499224499224499288884010281811111111114444244992241111894824904892249224499224914492244992244992244954059024494c9224499224111111111125914822492a2222929224491211111148221049a44a9224818888681011118124499224499224499244128892684a922449922449922411118188888824495212894429491289888888040a46248994549244129148524a924422492589244522924492a8a449921445124992482249121111111111494424488a480091284524499224a549921445124992482249121111111111111141442291482411882492242291480a2012a588244992a4344992a248224912491249222222222222222288a424499224499224499224251149a26024128944222222222222492292884824128988241111111191922429499294229148148944222222222222419204325045232222492a499224499224254992a424a5245122918848442212894492249044444444221289444912489244444444222222494a9224499292888828888888848888881011114422222222222249922422499288888888148944a248241225898888482412111111894882240964a08a464404a288400241205010c8205045932495244992240549929224494aa54892a45220294920891488a44892244992242210a954659292a48888080492244992244992244552499252204992044aa20402812aa54a520245528240499224a9a41408344922a92449922449929224499288489252024511810804114912118120100412489224499224490615084423220251442081201028086410a8a2111191249524499224499292244952925292942812118948042211288888484444342222498424890811892022222222499224898824919224494922252522514444225210c820504523220251442081201028086410a8a249492a0920492aa5508a2202499248a594244992244892a4028d888824a924499224499294244992929492a444918848442210118182888848444434222249848888881011114444444444444444444420128944220804810492244992244992410502d124494992942449922449915492a40249922490222510254a929224491211a824559294240592244992244992244552499252204992044aa20402814a522a4909144989888888089424495292520a049a24a5048a22021108229224220241209224924a92244992242949922489884002499224499224c9a002812822504444049224490a04022182490a9592a4aa24295020494a2044309444939292244992a42449524a49528a24898848122945229148522429221011914422111141444422914844444444444490888848924492248948442212812a499294499224499224494a122849519288888820559124499924499224492222220289241148248924499224898888888808a424499224258924029144aa322222024120082449922449924010284912085492022549028194a4048a888888888808222222222249448288888888882402914492442488442291880422222282484a92440211111141241289440211111141241289440211111141241289228188888820222222a248241289442291244992244912894422914814894812454422494a92249194244912499294244992242a81a44029489204922449124892241011892649929424259502814644449214491249229248441291241245a244a2482412459224459224254992922449114922114922542022221289444422222282888888884822492491882491484424222292084422499224894822229240245244922411918888084444444444444444444420222222222222222222021111111111111111119148248a48128d888824112249224244441011119124221191242222108124499208229148442251229148241289444444444444444444444444444444444444444444444444444490244992a42289244992249224499224195420108d884892a44992242149924812040a021904aa684444242222a211114922101111442222222222224992242222490412244920834015450492244905024d92244949922449495292a440924092a4a4041a1111294992549224111111111189442211118944222212412412899424499224499244444444442248124892244992244992242511115124128944444444444444049522922449124922499244244992482491241289499224254992449248449224111149248924912449922489449224492222224504a24822499288021111111111111111111144442489404424914892241149928848244a5124128948128d8888242922912492442491884824921289229144a2482491289292a44892a42449529224298944a2482412452412894812a140444444229148141191201240041089a28824918814515289249224294944444420222212898888888888884812299148942491121111111191481445444444a488a444124992248924914044a2884892242292201289442212884444442291884844444420119124128988444444240291442249922489884444442052442412898844444420222222222222222222021111111111111111119148248a884834222292448824492222124444442489282222222222914824128944229148240211882012894424128944894422111111111111111111111111111111111111111111111111111111111111111111111111111124499224a988888824499248922449926450814034222202514420024144449248224944440241200824902449922449920c2a1088264904222941a02822904010211004824002499224499224c9a00281684444242222a2111149221011410491884492449224090229294992242949922449924105025144a024494242084905024d20084444022529499224222252922449492010888888880834812208241008044992a4244912c81408449324020909212449814092049024106802412048a0242549924444444a922429090402111111118126500481040281204992942449029902816844442449498a88489224494a51925252229548491249204924812449248144929224a99452490492244992244924102845220944244992409124459244a594a28852024944045225509244922491480452a94a2489244992244992928888222222254992922449524444442022224992244992444444121111912429922449922445924a499248144922494444444444442022224a9294a424494a9224490992a4888808246992244992244992244992244892244952812222222222029148922449922445492a9144124920499240922449028924499254922449922449922449922449121111118888880844444411492225a55292244992922429498a8848124944444410898824499224499224499224499224494a922449922449222222222252503249024992244992244992244992241289444444449024902481a494a448241211892488489224499224499224114992244992244992242222222222482449922449229288888824495292222222222222491249204992402010489224499224499224094420504444a4942449929424494a92a4122512498a284952492249452211894422918888202222294911481248924092480249920402814092244992244992244920028182882491922449524444442022229148442482244544244992a4242589884844221149242222221289444444a204494a3249922449222222129148444444241289888844102849028124298110c150124d92a492244992244992244992244992244992a4942449924492a4949494a424492525254925499224254992142449200894240904929294404992549224490a84082629544a92aa92a440499a24499224499224491224499224a9401111914a92244992244912498a88884892144424499224491291244992244992244992244922492222504444a4244992a488888848111111114120101111119124254992244912040a922410048a88885492244992244992485244444492a42022499224499288244992244992244992244912048a88889424499214111111292222222208042222222292a42449922449824041920482404992942411111124499292242222822449922411111124814852444444200944444444440449202222222222900422222222228224902411118920092449922441a048241249922489888808229148148a220229494992244944444444444424492049121111114444444444444444442291484444444410119124898824919294444444245092244544440411118944229148242222114422914824121189201289a864922449922449222211914812444424128944444444044922914824499224499224499224a5244902454444200844449288082449922449924010284992449220222281929420499212284992104292002a1068024120221228494992241111919224494a02814044444444a00914412081402048922425499240a640208a08942449084900a940a00904818848a0242549924444444a92242909040211111111812650048104028120499294244902990281689244202121842429104842480248120834812010245092922449222222254992940402818888888840132882400281409024494a9224814c81401411282121842429104842084902480281261004224922228192942449121111294992a424100844444444049a40110412080482244952922409640a04a28840111191922410489224499240a024090492a40442044349342222529224254992244989889224499224499228499224294992244992244992242949a020494949499224499224499224495292a414044a480821490a0492902409049a401088248988044a529224494444a424499292402010111111116802452090402010244992922449205320104d52929224494a4a922449285025a54644444a929288888840241289449188480411114992244992244992244992244982244952a04092944088602889464424294922294992442929259124a9945222494992a4924a444a22955215252249225224499224112909442415884844520289481211494954812491a4282292049254a0441248224952922429504a2549922449924c92449224952449924492481249124551244992244992244992244992449224499224912451198924924492244952962422a248928824254992244992545202819624499224494a520a9294a42222222549120824499224102822229294a422499292a488888824099294a42449922425455192244992244992244992244992244944254992244992244992244924892022228a4812a924498a88482412118988882449922822118188884010111149924824129188482422222222484a92522291245122111111111455452251221229198924499224924492449224892449922411818888a42445204a922449529248922492249224499254544a12499224499224492202914824892492244912499224922449928840444424922422092449049224912410912449924a9248242949114826499224492091888948024992049224912410912449524a22914892244992244920021149a2812449494a92a4242941a08888442251442211910812894444044924128954b224499224499248922449924444442289888888888844221191089224499224499224499224499288882822225292248a9224222222121111119114918848442412898844904844444404912449a928932449244992445222298924499222222211111111119192924824914422492489244952920a4444922492249188040a24494a529224254909024544444a9224252951242212414444922449922489242949122449922449922449529294245010111181244952201008114c52a8942455254981222222494a92248924494a92244992a4a4241111a1248144229148248a884804914824922449922422229148442422224992a48888684444544a9244444444444444444422119188888888a4924422222222221289444422221289442222222222222222228a8888404444444444442449922449922451111111111111111111114584202212499284281a498188888844928888044544042222222222222222222222222210111111111111111111114492042222222222222222222222828888888808248992545124128988880844202222a2888888882022222210111111111111898848241211118988884892888888880822222222222210111111111111111111111111414444444444444444444410491211111111111111918888888820222222222222222222824824128988888888888888888808222222128944924424882011115144440822224924898848101149121111111111118288881011114144444424494444444444101189442289442211498a8888204992244922222222222222222222222222254992922449444444444444442412111189888888884812119120222222499224492222221289141111110422222222222222222211111111442412894491484444228888888888884824499288444422a28848444444101111258988888888248988888820822449902489888888888888888808421445522949499224499224222292248a888820092222222222224944448224484424128988888888089220222222222222228288884422111191884444921411111141442412299248124944124922a288441011111111114544444404111111914824124944448220221289444444221291244144229148148944442482888888888888449224898846521011111111111111414444248a4422222222828888888888888888888888888888208244444488888808228a4444444444118920824844021111111111111111111189484422121111111144441049922449a28888888848224912894822498244444408214444444444441089888868922421842415044d10041149509292244922222225499294044110111111091a111141822210240882204992942449824c41104582244942485241d00441109104252949922422225292244949100411111191a011111124280241822008922449499224c8140451244892248490a482a04110910425294992444444a4244992922008222222529224492468822210240882204992942449824c4110458222222225494a9292922449499294942449928888888888882441228a442211111191244844442291884844244992a4888828222222224992242222222210119124111111412491249248229188884804111191441249244922222282888888224922914422492222222222222291944892481249444444444444444444101111111111111111118824898888888888888888082222222222892092484444444444444444441011111111111111111111118888888888888888888888082222224544444422918888884810111189241289888888441011519224898888482091482422892491442222222222228288881211111111111111111109220822222222222222222222222222128944441011111151492591a422492a1195484992928aaa22229244228924124944144510115110914844101189444412898882884824511411890822220a121111442222914822918828282a1225224644224924914412499224924492481289a228922449249244492292489248221249228a91482249244924c9888888444422221111118920222212894492244944248848449228a5944852912495888a1491a448555514118924229144128924220a22220a221289082222918848221151101189248a22022211414444414444049188482422914844141415891211232291249248228924491249224924894451144992241249a224114924492411892411c5482491249224926444442291482291484444444441942422222222222222828888489248241211092291482491482442114da220222291481411111144924444444410111149229124894882888848129120924824228a0411111111111111114449222222222222228288224122914824898804912411111111111111114144444444444444442449121129101111111111114922a22092242222222222222222222222828822124104918840444444444444444444444444444444444444440411892491242289248924922492244992244924420821222211918820228226491292005241d004812022094a529224494444a42449929220082222222241131481204110044992a4244912640a8228122449124212402a089a2010442441494a9224898888942449521204414444442468444404098a4090200882244952922409320541344992124892943425499224252525482a55ada42593a0241a1111a9241111111111118844229190124d4a29494a9224499024898888084444244992241111111111114992204912111111888848920419694444244992249a9424498290044d50902411242484902405411292009204411304822041494a9224898888942449521204414444442468822210240882204992942449824c41104582244942485241d004812022094a529224494444a4244992922008222222224123222248500482044110244992922449902908a21111112949444444444404a224499224491211111188888888882094124228254949922449922489888808444424499224111111111111495292244992888888201289449214111141922422114904299124499224492209912491244d4444444190244908214905410341441294a42449121111919224494a82208888884849922491a0098a40902008822449529224093205413495449254492249920441912449128a22415292244982244944444404222222499224898888888888489292244992249244241049922449224192244992888888205292244992244922222288889048242212912491942429499254224912244912914844444404118848249248241211111111489224491211114992244992244992245184104244442222511091249a2449084900a920682088488292942449222222529224494910041111112949922412344111081204419024494a922441a620882241922421842401541034412088488292942449121111294992a424088288888848d0044520481004419224294992049982208a042549254992244949922449922429494a922405111111914a121111914892444444248188888888882449928828222202119124454444100922222222228288888888884824124924128910451491082211914892222222224144444444444444444489888888880822922422222222222222222222221091888888884852444444242222222212490491442222222222222222918808222222222222222222221011111191a488888888888844828888882022222222111111111181284944044444444420222222914894242212444454524924a948294952542411294992248aaa22a288441289249244121104411004411044242208822008828a5424224122912492249248248924914824224922491289244a12914492441291481245458c2491249224926492249224a944a54892444a518a481289249244121104411004411044242208822008828a5424224122912492249248248924914824224922491289244a12914492441291481245458c24912492249264444444448440444444444444444444041111111111111182488a48249148242222220251928888888888888808222222222222222222824422918888888888882012894422a29114444444444444444410111111111111111111412449444444444444444420a249118944220889a011514422882012118888888888888888444444444444444444444444049148449224512411492249128948224982242211420811118988440411113488888894244925292222222222021111094a92241111910822229224099224291111514242084952102449004982a00902412449441294a4244992888848499224254110444444448226280241822008922449499224c81404d1888848285122099292242244442022224992241111111111118988881088442492a488880892248924418a4422111111492209912491244d50102449124212402a081a082292a024254992888888942449521204414444444a922489044d500482044110244992922449902908a2489024490821490015044d10082292a0242549924444444a92242909822022222212344111081204419024494a922441a62088464444442a12495224128992444444241291888888480422221191482449924444444444202222229224222222882492441289882411110944449228924822892449444444104911490489888888888888888888882022222222222289888848202222228a2492244992242222222222221249892489249144444444444444444444041111111111114944444402111111514424492422222212888824492442ca881411495224912449922411111111111191884824128988448a888888041111111111252222491111110944244922121111111111111111118908222222222222222222222222222222222288884044444444229188884410111111111111118188888888482288241211111188924444444444044110111111111111111111818888a8a4924852912495884aa424922415a9542a229244228924124944444544101111414422121144442412114924228288482489522212114444449088880822918848922492941214158912112322492289482412892491249144224924894451449124922412494a12914492441291481251311249049144926444242212118988884804111111894422111111111111882492244aa9944852912495884a114922554544248944124922898888082292082212918820222249442449440411914822a544402409222222888848824844442211894422098a8a448918119148924424128944924892482291249244a228a224912491482451928824922492884492282a6224892092644444241289048988888840244944444444444444041111111111111111118148241249241289449314444444444444444410491211111111111111414444444444444444440422221289888888888808a22491241111914824222211483429492211842468244a24410491884044444444444444241211111111111111111111114492244992289288249124894424912441124942082122228948124444d02092a48a8888942489442222118888481249202222254992244992240529495244443422229148442482482412111111111181888888a85249629294244949922491248924914844444444249022114992444444444454902412492491489224499222a2244144443492242222220211119148249124499288482291442289249124228148241289481011111188449148448288888840442291482448129140442291482448129140244992448288888840242549111111111181888888888888888888888888148944221111111111111111111111111181888822494a12894422914824128944222222222212894492241289442291281211115124494444442012894492321111110211112949922449121111128944444409222222221289444424021111914824222222024992240944244992202249940aa40492242529499292a404825292244952121111254992244992a4244992922429222249922429499212111145148924494a1240929294a492a42449494a922425495292244a12492549494a4992a4484422499224492249111151924492922445124924912429494a9224492a221149922222a22449929424a9244992a424899204905449124052892491442a252949494a92242549499224498a44442412914824224a9224955449494a529224490a4992442429222291248948248a4422912425499224892445442412114924228a8888888888888888888888888888882844444484882825495292941249228994244992141191a444444449a5a4242949892449a4449248524994244992244949494a92a44a111111892211894444241289884894929424a554525244449224494a2222a2449224494a4552294949a2a4529292441191482245514a2929494992a4242549922222224a92242549111189229148248a8848921491244a929254249248244989249144a244924822158944224992a488881211112522224a52928a4844228a88882822224a9224491149a224495244449492949424494a92242922224989249194244952444492922449a92449528a8888922425114992a49424491225499224554524222925499148a49424492a4924494992a42491141111a5a48888929424499148248a284949929424499242444444a292242925a92449524a2412454444494a92244911115144441442a848aa14a42449922449922449922449922449922449922449922449922449922449922449aa92945292949424a84a494a9224499224499224499224499224499224499224499292245292aa92244992944a92aa2425499424294949aaaa92244929a9242922225292242949920a95524a9294524a924a8a8888922441080943699224492595244952490100","linkReferences":{}},"methodIdentifiers":{"accumulatedFees()":"587f5ed7","buy(uint256,uint256,uint256)":"40993b26","claimCreatorFees(uint256)":"58d5cfaf","claimFees()":"d294f093","claimWinnings(uint256)":"677bd9ff","createMarket(string,string[],uint256,uint256[])":"2aa7a9dd","emergencyWithdraw(uint256)":"5312ea8e","getMarket(uint256)":"eb44fdd3","getMarketShares(uint256)":"05a7e5b7","getMarkets()":"ec2c9016","getUserShares(uint256,address)":"835dc40b","marketCount()":"ec979082","markets(uint256)":"b1283e77","owner()":"8da5cb5b","removeMarket(uint256)":"054660e6","resolveMarket(uint256,uint256)":"60557333","sell(uint256,uint256,uint256)":"d3c9727c","test()":"f8a8fd6d"},"id":0}